{"contracts/KasDrawLottery.sol":{"KasDrawLottery":{"abi":[{"inputs":[],"stateMutability":"nonpayable","type":"constructor"},{"anonymous":false,"inputs":[{"indexed":true,"internalType":"address","name":"admin","type":"address"},{"indexed":false,"internalType":"uint256","name":"amount","type":"uint256"}],"name":"AdminFeesWithdrawn","type":"event"},{"anonymous":false,"inputs":[{"indexed":true,"internalType":"uint256","name":"drawId","type":"uint256"},{"indexed":false,"internalType":"uint256[5]","name":"winningNumbers","type":"uint256[5]"},{"indexed":false,"internalType":"uint256","name":"totalPrizePool","type":"uint256"},{"indexed":false,"internalType":"uint256","name":"jackpotAmount","type":"uint256"},{"indexed":true,"internalType":"address","name":"executor","type":"address"},{"indexed":false,"internalType":"uint256","name":"executorReward","type":"uint256"}],"name":"DrawExecuted","type":"event"},{"anonymous":false,"inputs":[{"indexed":true,"internalType":"address","name":"executor","type":"address"},{"indexed":true,"internalType":"uint256","name":"drawId","type":"uint256"},{"indexed":false,"internalType":"uint256","name":"reward","type":"uint256"}],"name":"DrawExecutedByPublic","type":"event"},{"anonymous":false,"inputs":[{"indexed":true,"internalType":"address","name":"player","type":"address"},{"indexed":false,"internalType":"uint256","name":"amount","type":"uint256"}],"name":"EmergencyRefund","type":"event"},{"anonymous":false,"inputs":[{"indexed":true,"internalType":"address","name":"previousOwner","type":"address"},{"indexed":true,"internalType":"address","name":"newOwner","type":"address"}],"name":"OwnershipTransferred","type":"event"},{"anonymous":false,"inputs":[{"indexed":false,"internalType":"address","name":"account","type":"address"}],"name":"Paused","type":"event"},{"anonymous":false,"inputs":[{"indexed":true,"internalType":"address","name":"player","type":"address"},{"indexed":true,"internalType":"uint256","name":"ticketId","type":"uint256"},{"indexed":false,"internalType":"uint256","name":"matches","type":"uint256"},{"indexed":false,"internalType":"uint256","name":"amount","type":"uint256"}],"name":"PrizeClaimed","type":"event"},{"anonymous":false,"inputs":[{"indexed":true,"internalType":"address","name":"player","type":"address"},{"indexed":true,"internalType":"uint256","name":"ticketId","type":"uint256"},{"indexed":true,"internalType":"uint256","name":"drawId","type":"uint256"},{"indexed":false,"internalType":"uint256[5]","name":"numbers","type":"uint256[5]"},{"indexed":false,"internalType":"uint256","name":"timestamp","type":"uint256"}],"name":"TicketPurchased","type":"event"},{"anonymous":false,"inputs":[{"indexed":false,"internalType":"address","name":"account","type":"address"}],"name":"Unpaused","type":"event"},{"inputs":[],"name":"ADMIN_FEE_PERCENTAGE","outputs":[{"internalType":"uint256","name":"","type":"uint256"}],"stateMutability":"view","type":"function"},{"inputs":[],"name":"DRAW_INTERVAL","outputs":[{"internalType":"uint256","name":"","type":"uint256"}],"stateMutability":"view","type":"function"},{"inputs":[],"name":"EXECUTOR_REWARD_PERCENTAGE","outputs":[{"internalType":"uint256","name":"","type":"uint256"}],"stateMutability":"view","type":"function"},{"inputs":[],"name":"FIFTH_PRIZE_PERCENTAGE","outputs":[{"internalType":"uint256","name":"","type":"uint256"}],"stateMutability":"view","type":"function"},{"inputs":[],"name":"FOURTH_PRIZE_PERCENTAGE","outputs":[{"internalType":"uint256","name":"","type":"uint256"}],"stateMutability":"view","type":"function"},{"inputs":[],"name":"JACKPOT_PERCENTAGE","outputs":[{"internalType":"uint256","name":"","type":"uint256"}],"stateMutability":"view","type":"function"},{"inputs":[],"name":"MAX_EXECUTOR_REWARD","outputs":[{"internalType":"uint256","name":"","type":"uint256"}],"stateMutability":"view","type":"function"},{"inputs":[],"name":"MAX_NUMBER","outputs":[{"internalType":"uint256","name":"","type":"uint256"}],"stateMutability":"view","type":"function"},{"inputs":[],"name":"MIN_EXECUTOR_REWARD","outputs":[{"internalType":"uint256","name":"","type":"uint256"}],"stateMutability":"view","type":"function"},{"inputs":[],"name":"MIN_NUMBER","outputs":[{"internalType":"uint256","name":"","type":"uint256"}],"stateMutability":"view","type":"function"},{"inputs":[],"name":"NUMBERS_PER_TICKET","outputs":[{"internalType":"uint256","name":"","type":"uint256"}],"stateMutability":"view","type":"function"},{"inputs":[],"name":"SECOND_PRIZE_PERCENTAGE","outputs":[{"internalType":"uint256","name":"","type":"uint256"}],"stateMutability":"view","type":"function"},{"inputs":[],"name":"THIRD_PRIZE_PERCENTAGE","outputs":[{"internalType":"uint256","name":"","type":"uint256"}],"stateMutability":"view","type":"function"},{"inputs":[],"name":"TICKET_PRICE","outputs":[{"internalType":"uint256","name":"","type":"uint256"}],"stateMutability":"view","type":"function"},{"inputs":[],"name":"accumulatedJackpot","outputs":[{"internalType":"uint256","name":"","type":"uint256"}],"stateMutability":"view","type":"function"},{"inputs":[],"name":"adminBalance","outputs":[{"internalType":"uint256","name":"","type":"uint256"}],"stateMutability":"view","type":"function"},{"inputs":[],"name":"canExecuteDrawPublic","outputs":[{"internalType":"bool","name":"canExecute","type":"bool"},{"internalType":"uint256","name":"timeRemaining","type":"uint256"},{"internalType":"uint256","name":"nextDraw","type":"uint256"}],"stateMutability":"view","type":"function"},{"inputs":[{"internalType":"uint256","name":"ticketId","type":"uint256"}],"name":"claimPrize","outputs":[],"stateMutability":"nonpayable","type":"function"},{"inputs":[],"name":"currentDrawId","outputs":[{"internalType":"uint256","name":"","type":"uint256"}],"stateMutability":"view","type":"function"},{"inputs":[{"internalType":"uint256","name":"","type":"uint256"},{"internalType":"uint256","name":"","type":"uint256"}],"name":"drawTickets","outputs":[{"internalType":"uint256","name":"","type":"uint256"}],"stateMutability":"view","type":"function"},{"inputs":[{"internalType":"uint256","name":"","type":"uint256"}],"name":"draws","outputs":[{"internalType":"uint256","name":"id","type":"uint256"},{"internalType":"uint256","name":"timestamp","type":"uint256"},{"internalType":"uint256","name":"totalPrizePool","type":"uint256"},{"internalType":"uint256","name":"jackpotAmount","type":"uint256"},{"internalType":"uint256","name":"executorReward","type":"uint256"},{"internalType":"address","name":"executor","type":"address"},{"internalType":"bool","name":"executed","type":"bool"}],"stateMutability":"view","type":"function"},{"inputs":[],"name":"emergencyRefundAll","outputs":[],"stateMutability":"nonpayable","type":"function"},{"inputs":[],"name":"executeDraw","outputs":[],"stateMutability":"nonpayable","type":"function"},{"inputs":[{"internalType":"uint256[5]","name":"winningNumbers","type":"uint256[5]"}],"name":"executeDrawManual","outputs":[],"stateMutability":"nonpayable","type":"function"},{"inputs":[],"name":"executeDrawPublic","outputs":[],"stateMutability":"nonpayable","type":"function"},{"inputs":[],"name":"getCurrentExecutorReward","outputs":[{"internalType":"uint256","name":"reward","type":"uint256"}],"stateMutability":"view","type":"function"},{"inputs":[{"internalType":"uint256","name":"drawId","type":"uint256"}],"name":"getDraw","outputs":[{"internalType":"uint256","name":"id","type":"uint256"},{"internalType":"uint256[5]","name":"winningNumbers","type":"uint256[5]"},{"internalType":"uint256","name":"timestamp","type":"uint256"},{"internalType":"uint256","name":"totalPrizePool","type":"uint256"},{"internalType":"uint256","name":"jackpotAmount","type":"uint256"},{"internalType":"uint256","name":"executorReward","type":"uint256"},{"internalType":"address","name":"executor","type":"address"},{"internalType":"bool","name":"executed","type":"bool"}],"stateMutability":"view","type":"function"},{"inputs":[{"internalType":"uint256","name":"drawId","type":"uint256"}],"name":"getDrawWinners","outputs":[{"internalType":"address[]","name":"winners","type":"address[]"},{"internalType":"uint256[]","name":"matchCounts","type":"uint256[]"},{"internalType":"uint256[]","name":"prizeAmounts","type":"uint256[]"},{"internalType":"bool[]","name":"claimed","type":"bool[]"}],"stateMutability":"view","type":"function"},{"inputs":[],"name":"getLotteryStats","outputs":[{"internalType":"uint256","name":"currentJackpot","type":"uint256"},{"internalType":"uint256","name":"ticketsSoldThisDraw","type":"uint256"},{"internalType":"uint256","name":"totalTickets","type":"uint256"},{"internalType":"uint256","name":"nextDraw","type":"uint256"},{"internalType":"uint256","name":"executorReward","type":"uint256"},{"internalType":"bool","name":"canExecute","type":"bool"}],"stateMutability":"view","type":"function"},{"inputs":[{"internalType":"address","name":"player","type":"address"}],"name":"getPlayerStats","outputs":[{"internalType":"uint256","name":"totalTickets","type":"uint256"},{"internalType":"uint256","name":"totalWinnings","type":"uint256"},{"internalType":"uint256[]","name":"ticketIds","type":"uint256[]"},{"internalType":"uint256","name":"totalDeposits","type":"uint256"},{"internalType":"uint256","name":"lastPlayTime","type":"uint256"}],"stateMutability":"view","type":"function"},{"inputs":[{"internalType":"uint256","name":"drawId","type":"uint256"},{"internalType":"uint256","name":"matches","type":"uint256"}],"name":"getPrizeAmount","outputs":[{"internalType":"uint256","name":"","type":"uint256"}],"stateMutability":"view","type":"function"},{"inputs":[],"name":"getRolloverAmount","outputs":[{"internalType":"uint256","name":"rolloverAmount","type":"uint256"}],"stateMutability":"view","type":"function"},{"inputs":[{"internalType":"uint256","name":"ticketId","type":"uint256"}],"name":"getTicket","outputs":[{"internalType":"address","name":"player","type":"address"},{"internalType":"uint256[5]","name":"numbers","type":"uint256[5]"},{"internalType":"uint256","name":"drawId","type":"uint256"},{"internalType":"bool","name":"claimed","type":"bool"},{"internalType":"uint256","name":"purchaseTime","type":"uint256"}],"stateMutability":"view","type":"function"},{"inputs":[{"internalType":"uint256","name":"drawId","type":"uint256"},{"internalType":"uint256","name":"matches","type":"uint256"}],"name":"getWinnersCount","outputs":[{"internalType":"uint256","name":"","type":"uint256"}],"stateMutability":"view","type":"function"},{"inputs":[],"name":"lastDrawTime","outputs":[{"internalType":"uint256","name":"","type":"uint256"}],"stateMutability":"view","type":"function"},{"inputs":[],"name":"nextDrawTime","outputs":[{"internalType":"uint256","name":"","type":"uint256"}],"stateMutability":"view","type":"function"},{"inputs":[],"name":"owner","outputs":[{"internalType":"address","name":"","type":"address"}],"stateMutability":"view","type":"function"},{"inputs":[],"name":"pause","outputs":[],"stateMutability":"nonpayable","type":"function"},{"inputs":[],"name":"paused","outputs":[{"internalType":"bool","name":"","type":"bool"}],"stateMutability":"view","type":"function"},{"inputs":[{"internalType":"address","name":"","type":"address"}],"name":"playerDeposits","outputs":[{"internalType":"uint256","name":"","type":"uint256"}],"stateMutability":"view","type":"function"},{"inputs":[{"internalType":"address","name":"","type":"address"}],"name":"playerStats","outputs":[{"internalType":"uint256","name":"totalTickets","type":"uint256"},{"internalType":"uint256","name":"totalWinnings","type":"uint256"},{"internalType":"uint256","name":"lastPlayTime","type":"uint256"}],"stateMutability":"view","type":"function"},{"inputs":[{"internalType":"uint256[5][]","name":"ticketNumbers","type":"uint256[5][]"}],"name":"purchaseTickets","outputs":[],"stateMutability":"payable","type":"function"},{"inputs":[],"name":"renounceOwnership","outputs":[],"stateMutability":"nonpayable","type":"function"},{"inputs":[{"internalType":"uint256","name":"","type":"uint256"}],"name":"tickets","outputs":[{"internalType":"address","name":"player","type":"address"},{"internalType":"uint256","name":"drawId","type":"uint256"},{"internalType":"bool","name":"claimed","type":"bool"},{"internalType":"uint256","name":"purchaseTime","type":"uint256"}],"stateMutability":"view","type":"function"},{"inputs":[],"name":"totalTicketsSold","outputs":[{"internalType":"uint256","name":"","type":"uint256"}],"stateMutability":"view","type":"function"},{"inputs":[{"internalType":"address","name":"newOwner","type":"address"}],"name":"transferOwnership","outputs":[],"stateMutability":"nonpayable","type":"function"},{"inputs":[],"name":"unpause","outputs":[],"stateMutability":"nonpayable","type":"function"},{"inputs":[],"name":"withdrawAdminFees","outputs":[],"stateMutability":"nonpayable","type":"function"}],"evm":{"bytecode":{"linkReferences":{},"object":"6080806040523461009a5760008054336001600160a01b0319821681178355906001600160a01b03167f8be0079c531659141344cd1fd0a4f28419497f9722a3daafe3b4186f6b6457e08380a36001805560ff196002541660025560016003556001600e554260075562049d4042019081421161008657506008556126c090816100a08239f35b634e487b7160e01b81526011600452602490fd5b600080fdfe6040608081526004908136101561001557600080fd5b600091823560e01c9081630419b45a146116c15781630cc36c361461164c5781630fb63d08146115945781631a95f15f14610be25781631fdeb756146115635781632599399e146115475781632b61e99f146102515781632d49a7bf146114e557816334701db8146114c7578163376c2bbe146114865781633f4ba83a146113f057816343f0236414610dd5578163456722a2146110b85781634702a48b14610ef65781634fd66eae14610e7457816350b4471214610e1d57816354c0273e146106385781635c221034146103f75781635c975abb14610df95781635cbbd63514610dda578163610a14d514610dd557816367eeac3314610db25781636abe4b1a14610d83578163715018a614610d2657816374f47a7a14610d075781637517f5ff14610be757816379b37ebd14610be25781637dc379fa14610b605781638456cb5914610b055781638571970914610ae15781638da5cb5b14610ab95781639858befb14610a9a578163a6858ee614610a7e578163b0574bb8146107a4578163bca78fab14610785578163be6307c8146106e1578163c4aa7245146106c5578163c6b749e2146106a7578163cdafbbb614610657578163d377156814610638578163d7098154146103fc578163dd8ab8f9146103f7578163df6ffa87146103bd578163ef303a2014610354578163f1082b7614610325578163f2fde38b1461025657508063fab14e8e146102515763fea9b5721461023357600080fd5b3461024d578160031936011261024d576020905160238152f35b5080fd5b6117ea565b91905034610321576020366003190112610321576001600160a01b0382358181169391929084900361031d5761028a6118de565b83156102cb57505082546001600160a01b0319811683178455167f8be0079c531659141344cd1fd0a4f28419497f9722a3daafe3b4186f6b6457e08380a380f35b906020608492519162461bcd60e51b8352820152602660248201527f4f776e61626c653a206e6577206f776e657220697320746865207a65726f206160448201526564647265737360d01b6064820152fd5b8480fd5b8280fd5b50503461024d578060209261033936611806565b90825260098552600b83832001908252845220549051908152f35b50503461024d5760a036600319011261024d573660a41161024d5760ff600a6103979261037f6118de565b600354855260096020528420015460a01c1615611b16565b6103a86103a3366119bf565b612260565b6103ba336103b5366119bf565b611c7c565b80f35b90503461032157602036600319011261032157356001600160a01b038116908190036103215782829160209452600d845220549051908152f35b61189a565b91905034610321576020806003193601126106345782359161041c611ac0565b828552600a825280852080549094906001600160a01b0316330361060057600785019283549160ff83166105c75760068701548089526009835261046b60ff600a878c20015460a01c16612127565b885260098252838820946104966104856001809a01611c09565b6104908a8901611c09565b90612384565b956002871061059057868a52600c0183528489205493841561055757889060ff1916179055338852600b825286848920016104d2848254611a42565b90558780808086335af16104e4611c3c565b501561051e5750825193845283015233917f701a77bd5e0b7b1ffffe478c3c19e3caadca855782127fca812c7ccd9646cdc49190a3805580f35b60649184519162461bcd60e51b83528201526015602482015274141c9a5e99481d1c985b9cd9995c8819985a5b1959605a1b6044820152fd5b855162461bcd60e51b81528084018590526013602482015272139bc81c1c9a5e9948185b5bdd5b9d081cd95d606a1b6044820152606490fd5b855162461bcd60e51b815280840185905260116024820152704e6f207072697a6520746f20636c61696d60781b6044820152606490fd5b60649184519162461bcd60e51b83528201526015602482015274141c9a5e9948185b1c9958591e4818db185a5b5959605a1b6044820152fd5b82606492519162461bcd60e51b8352820152601060248201526f2737ba103a34b1b5b2ba1037bbb732b960811b6044820152fd5b8380fd5b50503461024d578160031936011261024d576020906005549051908152f35b90503461032157602036600319011261032157356001600160a01b038116908190036103215782829160609452600b60205220805491600360018301549201549181519384526020840152820152f35b50503461024d578160031936011261024d576020905162049d408152f35b50503461024d578160031936011261024d576020905160148152f35b90503461032157602036600319011261032157816101809360ff9260a083516107098161196b565b369037358152600960205220805492600682015460078301546008840154916107516009860154946107426001600a8901549801611c09565b905198895260208901906118b6565b60c087015260e08601526101008501526101208401526001600160a01b03811661014084015260a01c161515610160820152f35b50503461024d578160031936011261024d576020906003549051908152f35b8391503461024d576020908160031936011261032157359081835260099182825260ff90600a956107de8388838920015460a01c16612127565b818652600c928385526107f2828820611ba6565b966107fd8851612183565b926108088951612183565b916108138a51612183565b9a8b986108208c51612183565b988c849b85915b51821015610915578d908f8361083c91611bf5565b519182885286865261086d8d6104906108678c8c60019182912001938d52858b528d8d200192611c09565b91611c09565b90600282101561088c575b5050505061088590611936565b8e8e610827565b91610885949f929184928f8f6108cb8f8f908f938f8f868d9561090b9f9387936108c5958e9b525260018060a01b039120541692611bf5565b52611bf5565b528b528852868b8b2001908a5287526108e8838b8b205492611bf5565b528752858552878720600701548a16610901828f611bf5565b9015159052611936565b9b908f388f610878565b8b908a878f8a8c899261092781612183565b9761093182612183565b9761093b83612183565b9361094584612183565b98885b8581106109fc575050505050508151968796608088016080895282518091528560a08a01930190875b8181106109dc5750505081610991918961099e96959403878b0152611866565b9187830390880152611866565b9084820360608601528080855193848152019401925b8281106109c357505050500390f35b83511515855286955093810193928101926001016109b4565b82516001600160a01b031685528b9a509387019391870191600101610971565b610a71906001809d9e98999a9b9c9d60a01b03610a198285611bf5565b5116610a25828a611bf5565b528d610a3c82610a358188611bf5565b5192611bf5565b52610a478186611bf5565b51610a52828b611bf5565b528c610a6b82610a62818a611bf5565b51151592611bf5565b52611936565b9b9a99989796959b610948565b50503461024d578160031936011261024d576020905160328152f35b50503461024d578160031936011261024d576020906006549051908152f35b50503461024d578160031936011261024d57905490516001600160a01b039091168152602090f35b50503461024d578160031936011261024d57602090610afe612214565b9051908152f35b50503461024d578160031936011261024d5760207f62e78cea01bee320cd4e420270b5ea74000d11b0c9f74754ebdbfc544b05a25891610b436118de565b610b4b611a7c565b600160ff19600254161760025551338152a180f35b9050346103215760203660031901126103215761012092829160a08351610b868161196b565b369037358152600a6020522060018060a01b03815416916006820154610bce60ff60078501541692610bbf600160088701549601611c09565b905195865260208601906118b6565b60c0840152151560e0830152610100820152f35b6117c2565b9050346103215782600319360112610321578151630fef5bab60e11b8152906060828281305afa918215610cfa578492610cbe575b50600554926003548552602090600c82528086205490835491600854938083518097638571970960e01b825281305afa958615610cb4578996610c7d575b5060c09850825197885287015285015260608401526080830152151560a0820152f35b9080965081813d8311610cad575b610c95818361199d565b81010312610ca95760c09850519438610c5a565b8880fd5b503d610c8b565b83513d8b823e3d90fd5b9091506060813d8211610cf2575b81610cd96060938361199d565b8101031261063457518015158103610634579038610c1c565b3d9150610ccc565b50505051903d90823e3d90fd5b50503461024d578160031936011261024d576020906008549051908152f35b8334610d805780600319360112610d8057610d3f6118de565b80546001600160a01b03198116825581906001600160a01b03167f8be0079c531659141344cd1fd0a4f28419497f9722a3daafe3b4186f6b6457e08280a380f35b80fd5b50503461024d5780602092610d9736611806565b90825260098552600c83832001908252845220549051908152f35b50503461024d578160031936011261024d576020905167016345785d8a00008152f35b61184a565b50503461024d578160031936011261024d576020906007549051908152f35b50503461024d578160031936011261024d5760209060ff6002541690519015158152f35b905034610321576020366003190112610321576080928291358152600a6020522060018060a01b0381541691600682015491600860ff60078301541691015492825194855260208501521515908301526060820152f35b90503461032157602036600319011261032157356001600160a01b03811690819003610321578252600b60205280822090815491610ee782600183015495600d60205220549260a0610ecd600260038601549501611ba6565b9180519788978852602088015286015260a0850190611866565b91606084015260808301520390f35b905034610321578260031936011261032157610f106118de565b47156110815750600e5490610f2482612183565b83926001805b828110610fe757505050835b838110610f495784806005558060065580f35b610f8a906001600160a01b03610f5f8285611bf5565b51168087526020600d8152858820908882549283151580610fdd575b610f8f575b5050505050611936565b610f36565b558880808085875af1610fa0611c3c565b50610fad575b8881610f80565b7fdf36e221948da014ebe0f9f6bb96696776424780da298e7f05e2f362dcd4289a918751908152a2388080610fa6565b5083471015610f7b565b808752600a6020908152858820546001600160a01b03908116808a52600d90925286892054611021575b505061101c90611936565b610f2a565b8890895b898110611055575b50501561103b575b80611011565b8661104e91610a6b61101c949988611bf5565b9590611035565b8382611061838b611bf5565b5116146110765761107190611936565b611025565b50505082388061102d565b6020606492519162461bcd60e51b83528201526012602482015271139bc8199d5b991cc81d1bc81c99599d5b9960721b6044820152fd5b839150602092836003193601126103215781359367ffffffffffffffff80861161031d573660238701121561031d578584013590811161031d5760249586810160a0918836918486020101116113ec57611110611ac0565b611118611a7c565b82156113a057678ac7230489e80000838102908104840361138e57340361134c57865b8381106111b95750505090611153600d928554611a42565b8455338552528220611166348254611a42565b9055343404600114341517156111a9575061119f6064340461119461118b8234611a6f565b91600654611a42565b600655600554611a42565b6005556001805580f35b634e487b7160e01b825260119052fd5b6111c481858461195b565b8651906111d08261196b565b818582019136831161134857899493929189905b83831061133557505050506111f890612260565b600e80549061120682611936565b9055808a52600a8752828a2080546001600160a01b031916331781556003805460068301554260088301559088908c90600101815b600581106112dc5750508360026112d7976112739386548152600c865261126484838320611a18565b338152600b8096522001611a18565b338c52808952898c206112868154611936565b9055338c52885242818a8d20015554906112a183888761195b565b868a5191823742878201527f979e7845b79affce0be71d86a342af2789a7dde91b0c8d960c121086f9d18f6860c03392a4611936565b61113b565b9150929394955061132891506113236112ff826112fa898d8c61195b565b6119f7565b3561130a8386611a08565b90919082549060031b91821b91600019901b1916179055565b611936565b8b8a959493928a9261123b565b823581528b9650918101918a91016111e4565b8b80fd5b845162461bcd60e51b81528087018590526018818a01527f496e636f7272656374207061796d656e7420616d6f756e7400000000000000006044820152606490fd5b634e487b7160e01b8852601187528888fd5b845162461bcd60e51b81528087018590526021818a01527f4d757374207075726368617365206174206c65617374206f6e65207469636b656044820152601d60fa1b6064820152608490fd5b8680fd5b90503461032157826003193601126103215761140a6118de565b6002549060ff82161561144c575060ff1916600255513381527f5db9ee0a495bf2e6ff9c91a7834c1ba4fdd244a5e8aa4e537bd38aeae4b073aa90602090a180f35b606490602084519162461bcd60e51b8352820152601460248201527314185d5cd8589b194e881b9bdd081c185d5cd95960621b6044820152fd5b50503461024d5761149636611806565b92908152600c602052818120908154841015610d8057506020926114b99161181c565b91905490519160031b1c8152f35b90503461032157826003193601126103215760209250549051908152f35b50503461024d578160031936011261024d57611535906115036118de565b600354808452600960205261152460ff600a848720015460a01c1615611b16565b8352600c6020528220541515611b5a565b6103ba6115406123f7565b3390611c7c565b50503461024d578160031936011261024d5760209051600f8152f35b50503461024d578160031936011261024d576060906115806121b5565b919290815193151584526020840152820152f35b919050346103215782600319360112610321576115af611ac0565b6115b7611a7c565b60035480845260096020526115d860ff600a848720015460a01c1615611b16565b8352600c6020526115ed818420541515611b5a565b600854421061160957826116026115406123f7565b6001805580f35b906020606492519162461bcd60e51b8352820152601960248201527f447261772074696d65206e6f74207265616368656420796574000000000000006044820152fd5b905034610321576020366003190112610321578160e09360ff92358152600960205220918254926006810154916007820154600883015491600a600985015494015494815197885260208801528601526060850152608084015260018060a01b03811660a084015260a01c16151560c0820152f35b9050346103215782600319360112610321576116db6118de565b60065490811561177f578360065560018060a01b03908480808086868254165af1611704611c3c565b501561173c57507fcdcaff67ac16639664e5f9343c9223a1dc9c972ec367b69ae9fc1325c7be5474916020918554169351908152a280f35b606490602085519162461bcd60e51b8352820152601960248201527f41646d696e20666565207472616e73666572206661696c6564000000000000006044820152fd5b606490602084519162461bcd60e51b8352820152601960248201527f4e6f2061646d696e206665657320746f207769746864726177000000000000006044820152fd5b346117e55760003660031901126117e5576020604051678ac7230489e800008152f35b600080fd5b346117e55760003660031901126117e557602060405160058152f35b60409060031901126117e5576004359060243590565b80548210156118345760005260206000200190600090565b634e487b7160e01b600052603260045260246000fd5b346117e55760003660031901126117e5576020604051600a8152f35b90815180825260208080930193019160005b828110611886575050505090565b835185529381019392810192600101611878565b346117e55760003660031901126117e557602060405160018152f35b6000915b600583106118c757505050565b6001908251815260208091019201920191906118ba565b6000546001600160a01b031633036118f257565b606460405162461bcd60e51b815260206004820152602060248201527f4f776e61626c653a2063616c6c6572206973206e6f7420746865206f776e65726044820152fd5b60001981146119455760010190565b634e487b7160e01b600052601160045260246000fd5b91908110156118345760a0020190565b60a0810190811067ffffffffffffffff82111761198757604052565b634e487b7160e01b600052604160045260246000fd5b90601f8019910116810190811067ffffffffffffffff82111761198757604052565b90604051916119cd8361196b565b8260a49182116117e5576004905b8282106119e757505050565b81358152602091820191016119db565b9060058110156118345760051b0190565b6005821015611834570190600090565b9081549168010000000000000000831015611987578261130a916001611a409501815561181c565b565b9190820180921161194557565b8115611a59570490565b634e487b7160e01b600052601260045260246000fd5b9190820391821161194557565b60ff60025416611a8857565b60405162461bcd60e51b815260206004820152601060248201526f14185d5cd8589b194e881c185d5cd95960821b6044820152606490fd5b600260015414611ad1576002600155565b60405162461bcd60e51b815260206004820152601f60248201527f5265656e7472616e637947756172643a207265656e7472616e742063616c6c006044820152606490fd5b15611b1d57565b60405162461bcd60e51b8152602060048201526015602482015274111c985dc8185b1c9958591e48195e1958dd5d1959605a1b6044820152606490fd5b15611b6157565b60405162461bcd60e51b815260206004820152601d60248201527f4e6f207469636b65747320736f6c6420666f72207468697320647261770000006044820152606490fd5b9060405191828154918282526020928383019160005283600020936000905b828210611bdb57505050611a409250038361199d565b855484526001958601958895509381019390910190611bc5565b80518210156118345760209160051b010190565b60405191906000835b60058210611c2657505050611a408261196b565b6001602081928554815201930191019091611c12565b3d15611c77573d9067ffffffffffffffff82116119875760405191611c6b601f8201601f19166020018461199d565b82523d6000602084013e565b606090565b6003805460008181526009602090815260408083209384554260068501556005805460078601908155600a80870180546001600160a81b0319166001600160a01b03909b169a8b17600160a01b1790559998969794969594936001939291848701895b84811061210657505082548c8102908d81830414901517156120f25767016345785d8a0000906127109004818110156120ce575080955b8160098a01558b548b52600c84528d81878d8c8c611d35848420611ba6565b9583955b612042575b5050505050505050611d509154611a6f565b828952600b8701808352848a205491939184901561203657603281028181046032148215171561202257611daf918a8860648f940493878152868952600c611d9b8383205487611a4f565b9389835201895220558160088c0155611a6f565b908a83555b60049d8e8c52818552868c2054611fe5575b8c8c52818552868c2054611f88575b60028c52818552868c2054611eef575b5050927fef45e93530e4ccfbb8470f48061a7c165f35b97f384ec20e23ba3db6f819f3ec959261010095928560089c9b9a9996611edb575b505083151580611ed1575b611e8a575b50611e418b549a8b980154925180956118b6565b60a084015260c083015260e0820152a34260075562049d40420190814211611e775750611e7392939450600855611936565b9055565b634e487b7160e01b815260118652602490fd5b89808080878d5af1611e9a611c3c565b5015611e2d57887fd2d0680d503befa049fbbb327d7cdb8ace83b63eca2a317b8e0cb4c74cde5da28d54928551878152a338611e2d565b5083471015611e28565b611ee6908254611a42565b90553880611e1d565b808693929302908682041486151715611f755792611f638a9996937fef45e93530e4ccfbb8470f48061a7c165f35b97f384ec20e23ba3db6f819f3ec9996938e9d9c60089f9a6101009b6064829a0494600282528852600c611f548383205487611a4f565b93600283520188522055611a6f565b929598999a9b50929581949750611de5565b634e487b7160e01b8c5260118f5260248cfd5b91600f8602868104600f1487151715611fd157611fcb918e898f600c8f956064900495848352888c52611fbe8484205488611a4f565b948352018a522055611a6f565b91611dd5565b8f8d6011602492634e487b7160e01b835252fd5b916014860286810460141487151715611fd1578f9161201c92898f600c8f956064900495848352888c52611fbe8484205488611a4f565b91611dc6565b634e487b7160e01b8c52601160045260248cfd5b908a60088a0155611db4565b909192939495969787518710156120c2575091612083869492612097969461206c8a998c9b611bf5565b5185528c5261207e8986862001611c09565b612384565b9060028210156120a4575b50505050611936565b8f8d8c8c8b938d98611d39565b600b918352018952206120b78154611936565b9055888e388e61208e565b97509084939291611d3e565b959050678ac7230489e800008087116120ea575b508590611d16565b9550386120e2565b634e487b7160e01b8a52601160045260248afd5b80611323612117612122938b6119f7565b5161130a8386611a08565b611cdf565b1561212e57565b60405162461bcd60e51b8152602060048201526015602482015274111c985dc81b9bdd08195e1958dd5d1959081e595d605a1b6044820152606490fd5b67ffffffffffffffff81116119875760051b60200190565b9061218d8261216b565b61219a604051918261199d565b82815280926121ab601f199161216b565b0190602036910137565b600354906000918252600960205260ff600a60408420015460a01c168015612203575b6121fc57600854904282116121ee576001929190565b6121f84283611a6f565b9190565b6008548291565b50600c6020526040822054156121d8565b600554600a810290808204600a14901517156119455767016345785d8a000090612710900481811015612245575090565b9050678ac7230489e8000080821161225b575090565b905090565b600090815b60058082101561237e5760018061227c84866119f7565b51101580612369575b1561232d578201808311612319575b8181106122ab5750506122a690611936565b612265565b6122b583856119f7565b516122c082866119f7565b51146122d4576122cf90611936565b612294565b60405162461bcd60e51b815260206004820152601d60248201527f4475706c6963617465206e756d62657273206e6f7420616c6c6f7765640000006044820152606490fd5b634e487b7160e01b85526011600452602485fd5b60405162461bcd60e51b8152602060048201526014602482015273496e76616c6964206e756d6265722072616e676560601b6044820152606490fd5b50602361237684866119f7565b511115612285565b50505050565b90600090815b6005808210156123ef5760005b8181106123af575b50506123aa90611936565b61238a565b6123b983876119f7565b516123c482866119f7565b51146123d8576123d390611936565b612397565b5050916123e76123aa91611936565b92903861239f565b505050905090565b604060a081516124068161196b565b369037805167ffffffffffffffff610480820181811183821017611987578352602392838352602092610460368583013760005b85811061266b575081519461244e8661196b565b60a0368737916003549460049586549547905a9085519185830193428552448885015260609a438c860152608096418d1b88870152338d1b609487015260a886015260c885015260e88401526101089081840152825261014082019082821090821117612656578552519020926000955b600587106125aa57505050505050505060005b8181106124de57505090565b91909260005b6005848103908111612595576000198101908111612595578110156125835761250d81846119f7565b51600182019081831161256e5790612537929161252a82876119f7565b511061253c575b50611936565b6124e4565b61256761254983876119f7565b519161255581886119f7565b5161256085896119f7565b52866119f7565b5238612531565b601187634e487b7160e01b6000525260246000fd5b5092909161259090611936565b6124d2565b601186634e487b7160e01b6000525260246000fd5b6125b48742611a42565b82518581019187835289858301528a82015282858201528481526125d78161196b565b5190208115612641578190066125ed8188611bf5565b516125f8898d6119f7565b52600019820191821161262c57906126269161261f612617838a611bf5565b519189611bf5565b5296611936565b956124bf565b60118a634e487b7160e01b6000525260246000fd5b60128a634e487b7160e01b6000525260246000fd5b60418a634e487b7160e01b6000525260246000fd5b60018101908181116119455761268591610a6b8285611bf5565b61243a56fea2646970667358221220656d3846510020ca4e7a13f311dd8720fb7f561dda50d88ab843f45f51cb25ee64736f6c63430008130033","opcodes":"PUSH1 0x80 DUP1 PUSH1 0x40 MSTORE CALLVALUE PUSH2 0x9A JUMPI PUSH1 0x0 DUP1 SLOAD CALLER PUSH1 0x1 PUSH1 0x1 PUSH1 0xA0 SHL SUB NOT DUP3 AND DUP2 OR DUP4 SSTORE SWAP1 PUSH1 0x1 PUSH1 0x1 PUSH1 0xA0 SHL SUB AND PUSH32 0x8BE0079C531659141344CD1FD0A4F28419497F9722A3DAAFE3B4186F6B6457E0 DUP4 DUP1 LOG3 PUSH1 0x1 DUP1 SSTORE PUSH1 0xFF NOT PUSH1 0x2 SLOAD AND PUSH1 0x2 SSTORE PUSH1 0x1 PUSH1 0x3 SSTORE PUSH1 0x1 PUSH1 0xE SSTORE TIMESTAMP PUSH1 0x7 SSTORE PUSH3 0x49D40 TIMESTAMP ADD SWAP1 DUP2 TIMESTAMP GT PUSH2 0x86 JUMPI POP PUSH1 0x8 SSTORE PUSH2 0x26C0 SWAP1 DUP2 PUSH2 0xA0 DUP3 CODECOPY RETURN JUMPDEST PUSH4 0x4E487B71 PUSH1 0xE0 SHL DUP2 MSTORE PUSH1 0x11 PUSH1 0x4 MSTORE PUSH1 0x24 SWAP1 REVERT JUMPDEST PUSH1 0x0 DUP1 REVERT INVALID PUSH1 0x40 PUSH1 0x80 DUP2 MSTORE PUSH1 0x4 SWAP1 DUP2 CALLDATASIZE LT ISZERO PUSH2 0x15 JUMPI PUSH1 0x0 DUP1 REVERT JUMPDEST PUSH1 0x0 SWAP2 DUP3 CALLDATALOAD PUSH1 0xE0 SHR SWAP1 DUP2 PUSH4 0x419B45A EQ PUSH2 0x16C1 JUMPI DUP2 PUSH4 0xCC36C36 EQ PUSH2 0x164C JUMPI DUP2 PUSH4 0xFB63D08 EQ PUSH2 0x1594 JUMPI DUP2 PUSH4 0x1A95F15F EQ PUSH2 0xBE2 JUMPI DUP2 PUSH4 0x1FDEB756 EQ PUSH2 0x1563 JUMPI DUP2 PUSH4 0x2599399E EQ PUSH2 0x1547 JUMPI DUP2 PUSH4 0x2B61E99F EQ PUSH2 0x251 JUMPI DUP2 PUSH4 0x2D49A7BF EQ PUSH2 0x14E5 JUMPI DUP2 PUSH4 0x34701DB8 EQ PUSH2 0x14C7 JUMPI DUP2 PUSH4 0x376C2BBE EQ PUSH2 0x1486 JUMPI DUP2 PUSH4 0x3F4BA83A EQ PUSH2 0x13F0 JUMPI DUP2 PUSH4 0x43F02364 EQ PUSH2 0xDD5 JUMPI DUP2 PUSH4 0x456722A2 EQ PUSH2 0x10B8 JUMPI DUP2 PUSH4 0x4702A48B EQ PUSH2 0xEF6 JUMPI DUP2 PUSH4 0x4FD66EAE EQ PUSH2 0xE74 JUMPI DUP2 PUSH4 0x50B44712 EQ PUSH2 0xE1D JUMPI DUP2 PUSH4 0x54C0273E EQ PUSH2 0x638 JUMPI DUP2 PUSH4 0x5C221034 EQ PUSH2 0x3F7 JUMPI DUP2 PUSH4 0x5C975ABB EQ PUSH2 0xDF9 JUMPI DUP2 PUSH4 0x5CBBD635 EQ PUSH2 0xDDA JUMPI DUP2 PUSH4 0x610A14D5 EQ PUSH2 0xDD5 JUMPI DUP2 PUSH4 0x67EEAC33 EQ PUSH2 0xDB2 JUMPI DUP2 PUSH4 0x6ABE4B1A EQ PUSH2 0xD83 JUMPI DUP2 PUSH4 0x715018A6 EQ PUSH2 0xD26 JUMPI DUP2 PUSH4 0x74F47A7A EQ PUSH2 0xD07 JUMPI DUP2 PUSH4 0x7517F5FF EQ PUSH2 0xBE7 JUMPI DUP2 PUSH4 0x79B37EBD EQ PUSH2 0xBE2 JUMPI DUP2 PUSH4 0x7DC379FA EQ PUSH2 0xB60 JUMPI DUP2 PUSH4 0x8456CB59 EQ PUSH2 0xB05 JUMPI DUP2 PUSH4 0x85719709 EQ PUSH2 0xAE1 JUMPI DUP2 PUSH4 0x8DA5CB5B EQ PUSH2 0xAB9 JUMPI DUP2 PUSH4 0x9858BEFB EQ PUSH2 0xA9A JUMPI DUP2 PUSH4 0xA6858EE6 EQ PUSH2 0xA7E JUMPI DUP2 PUSH4 0xB0574BB8 EQ PUSH2 0x7A4 JUMPI DUP2 PUSH4 0xBCA78FAB EQ PUSH2 0x785 JUMPI DUP2 PUSH4 0xBE6307C8 EQ PUSH2 0x6E1 JUMPI DUP2 PUSH4 0xC4AA7245 EQ PUSH2 0x6C5 JUMPI DUP2 PUSH4 0xC6B749E2 EQ PUSH2 0x6A7 JUMPI DUP2 PUSH4 0xCDAFBBB6 EQ PUSH2 0x657 JUMPI DUP2 PUSH4 0xD3771568 EQ PUSH2 0x638 JUMPI DUP2 PUSH4 0xD7098154 EQ PUSH2 0x3FC JUMPI DUP2 PUSH4 0xDD8AB8F9 EQ PUSH2 0x3F7 JUMPI DUP2 PUSH4 0xDF6FFA87 EQ PUSH2 0x3BD JUMPI DUP2 PUSH4 0xEF303A20 EQ PUSH2 0x354 JUMPI DUP2 PUSH4 0xF1082B76 EQ PUSH2 0x325 JUMPI DUP2 PUSH4 0xF2FDE38B EQ PUSH2 0x256 JUMPI POP DUP1 PUSH4 0xFAB14E8E EQ PUSH2 0x251 JUMPI PUSH4 0xFEA9B572 EQ PUSH2 0x233 JUMPI PUSH1 0x0 DUP1 REVERT JUMPDEST CALLVALUE PUSH2 0x24D JUMPI DUP2 PUSH1 0x3 NOT CALLDATASIZE ADD SLT PUSH2 0x24D JUMPI PUSH1 0x20 SWAP1 MLOAD PUSH1 0x23 DUP2 MSTORE RETURN JUMPDEST POP DUP1 REVERT JUMPDEST PUSH2 0x17EA JUMP JUMPDEST SWAP2 SWAP1 POP CALLVALUE PUSH2 0x321 JUMPI PUSH1 0x20 CALLDATASIZE PUSH1 0x3 NOT ADD SLT PUSH2 0x321 JUMPI PUSH1 0x1 PUSH1 0x1 PUSH1 0xA0 SHL SUB DUP3 CALLDATALOAD DUP2 DUP2 AND SWAP4 SWAP2 SWAP3 SWAP1 DUP5 SWAP1 SUB PUSH2 0x31D JUMPI PUSH2 0x28A PUSH2 0x18DE JUMP JUMPDEST DUP4 ISZERO PUSH2 0x2CB JUMPI POP POP DUP3 SLOAD PUSH1 0x1 PUSH1 0x1 PUSH1 0xA0 SHL SUB NOT DUP2 AND DUP4 OR DUP5 SSTORE AND PUSH32 0x8BE0079C531659141344CD1FD0A4F28419497F9722A3DAAFE3B4186F6B6457E0 DUP4 DUP1 LOG3 DUP1 RETURN JUMPDEST SWAP1 PUSH1 0x20 PUSH1 0x84 SWAP3 MLOAD SWAP2 PUSH3 0x461BCD PUSH1 0xE5 SHL DUP4 MSTORE DUP3 ADD MSTORE PUSH1 0x26 PUSH1 0x24 DUP3 ADD MSTORE PUSH32 0x4F776E61626C653A206E6577206F776E657220697320746865207A65726F2061 PUSH1 0x44 DUP3 ADD MSTORE PUSH6 0x646472657373 PUSH1 0xD0 SHL PUSH1 0x64 DUP3 ADD MSTORE REVERT JUMPDEST DUP5 DUP1 REVERT JUMPDEST DUP3 DUP1 REVERT JUMPDEST POP POP CALLVALUE PUSH2 0x24D JUMPI DUP1 PUSH1 0x20 SWAP3 PUSH2 0x339 CALLDATASIZE PUSH2 0x1806 JUMP JUMPDEST SWAP1 DUP3 MSTORE PUSH1 0x9 DUP6 MSTORE PUSH1 0xB DUP4 DUP4 KECCAK256 ADD SWAP1 DUP3 MSTORE DUP5 MSTORE KECCAK256 SLOAD SWAP1 MLOAD SWAP1 DUP2 MSTORE RETURN JUMPDEST POP POP CALLVALUE PUSH2 0x24D JUMPI PUSH1 0xA0 CALLDATASIZE PUSH1 0x3 NOT ADD SLT PUSH2 0x24D JUMPI CALLDATASIZE PUSH1 0xA4 GT PUSH2 0x24D JUMPI PUSH1 0xFF PUSH1 0xA PUSH2 0x397 SWAP3 PUSH2 0x37F PUSH2 0x18DE JUMP JUMPDEST PUSH1 0x3 SLOAD DUP6 MSTORE PUSH1 0x9 PUSH1 0x20 MSTORE DUP5 KECCAK256 ADD SLOAD PUSH1 0xA0 SHR AND ISZERO PUSH2 0x1B16 JUMP JUMPDEST PUSH2 0x3A8 PUSH2 0x3A3 CALLDATASIZE PUSH2 0x19BF JUMP JUMPDEST PUSH2 0x2260 JUMP JUMPDEST PUSH2 0x3BA CALLER PUSH2 0x3B5 CALLDATASIZE PUSH2 0x19BF JUMP JUMPDEST PUSH2 0x1C7C JUMP JUMPDEST DUP1 RETURN JUMPDEST SWAP1 POP CALLVALUE PUSH2 0x321 JUMPI PUSH1 0x20 CALLDATASIZE PUSH1 0x3 NOT ADD SLT PUSH2 0x321 JUMPI CALLDATALOAD PUSH1 0x1 PUSH1 0x1 PUSH1 0xA0 SHL SUB DUP2 AND SWAP1 DUP2 SWAP1 SUB PUSH2 0x321 JUMPI DUP3 DUP3 SWAP2 PUSH1 0x20 SWAP5 MSTORE PUSH1 0xD DUP5 MSTORE KECCAK256 SLOAD SWAP1 MLOAD SWAP1 DUP2 MSTORE RETURN JUMPDEST PUSH2 0x189A JUMP JUMPDEST SWAP2 SWAP1 POP CALLVALUE PUSH2 0x321 JUMPI PUSH1 0x20 DUP1 PUSH1 0x3 NOT CALLDATASIZE ADD SLT PUSH2 0x634 JUMPI DUP3 CALLDATALOAD SWAP2 PUSH2 0x41C PUSH2 0x1AC0 JUMP JUMPDEST DUP3 DUP6 MSTORE PUSH1 0xA DUP3 MSTORE DUP1 DUP6 KECCAK256 DUP1 SLOAD SWAP1 SWAP5 SWAP1 PUSH1 0x1 PUSH1 0x1 PUSH1 0xA0 SHL SUB AND CALLER SUB PUSH2 0x600 JUMPI PUSH1 0x7 DUP6 ADD SWAP3 DUP4 SLOAD SWAP2 PUSH1 0xFF DUP4 AND PUSH2 0x5C7 JUMPI PUSH1 0x6 DUP8 ADD SLOAD DUP1 DUP10 MSTORE PUSH1 0x9 DUP4 MSTORE PUSH2 0x46B PUSH1 0xFF PUSH1 0xA DUP8 DUP13 KECCAK256 ADD SLOAD PUSH1 0xA0 SHR AND PUSH2 0x2127 JUMP JUMPDEST DUP9 MSTORE PUSH1 0x9 DUP3 MSTORE DUP4 DUP9 KECCAK256 SWAP5 PUSH2 0x496 PUSH2 0x485 PUSH1 0x1 DUP1 SWAP11 ADD PUSH2 0x1C09 JUMP JUMPDEST PUSH2 0x490 DUP11 DUP10 ADD PUSH2 0x1C09 JUMP JUMPDEST SWAP1 PUSH2 0x2384 JUMP JUMPDEST SWAP6 PUSH1 0x2 DUP8 LT PUSH2 0x590 JUMPI DUP7 DUP11 MSTORE PUSH1 0xC ADD DUP4 MSTORE DUP5 DUP10 KECCAK256 SLOAD SWAP4 DUP5 ISZERO PUSH2 0x557 JUMPI DUP9 SWAP1 PUSH1 0xFF NOT AND OR SWAP1 SSTORE CALLER DUP9 MSTORE PUSH1 0xB DUP3 MSTORE DUP7 DUP5 DUP10 KECCAK256 ADD PUSH2 0x4D2 DUP5 DUP3 SLOAD PUSH2 0x1A42 JUMP JUMPDEST SWAP1 SSTORE DUP8 DUP1 DUP1 DUP1 DUP7 CALLER GAS CALL PUSH2 0x4E4 PUSH2 0x1C3C JUMP JUMPDEST POP ISZERO PUSH2 0x51E JUMPI POP DUP3 MLOAD SWAP4 DUP5 MSTORE DUP4 ADD MSTORE CALLER SWAP2 PUSH32 0x701A77BD5E0B7B1FFFFE478C3C19E3CAADCA855782127FCA812C7CCD9646CDC4 SWAP2 SWAP1 LOG3 DUP1 SSTORE DUP1 RETURN JUMPDEST PUSH1 0x64 SWAP2 DUP5 MLOAD SWAP2 PUSH3 0x461BCD PUSH1 0xE5 SHL DUP4 MSTORE DUP3 ADD MSTORE PUSH1 0x15 PUSH1 0x24 DUP3 ADD MSTORE PUSH21 0x141C9A5E99481D1C985B9CD9995C8819985A5B1959 PUSH1 0x5A SHL PUSH1 0x44 DUP3 ADD MSTORE REVERT JUMPDEST DUP6 MLOAD PUSH3 0x461BCD PUSH1 0xE5 SHL DUP2 MSTORE DUP1 DUP5 ADD DUP6 SWAP1 MSTORE PUSH1 0x13 PUSH1 0x24 DUP3 ADD MSTORE PUSH19 0x139BC81C1C9A5E9948185B5BDD5B9D081CD95D PUSH1 0x6A SHL PUSH1 0x44 DUP3 ADD MSTORE PUSH1 0x64 SWAP1 REVERT JUMPDEST DUP6 MLOAD PUSH3 0x461BCD PUSH1 0xE5 SHL DUP2 MSTORE DUP1 DUP5 ADD DUP6 SWAP1 MSTORE PUSH1 0x11 PUSH1 0x24 DUP3 ADD MSTORE PUSH17 0x4E6F207072697A6520746F20636C61696D PUSH1 0x78 SHL PUSH1 0x44 DUP3 ADD MSTORE PUSH1 0x64 SWAP1 REVERT JUMPDEST PUSH1 0x64 SWAP2 DUP5 MLOAD SWAP2 PUSH3 0x461BCD PUSH1 0xE5 SHL DUP4 MSTORE DUP3 ADD MSTORE PUSH1 0x15 PUSH1 0x24 DUP3 ADD MSTORE PUSH21 0x141C9A5E9948185B1C9958591E4818DB185A5B5959 PUSH1 0x5A SHL PUSH1 0x44 DUP3 ADD MSTORE REVERT JUMPDEST DUP3 PUSH1 0x64 SWAP3 MLOAD SWAP2 PUSH3 0x461BCD PUSH1 0xE5 SHL DUP4 MSTORE DUP3 ADD MSTORE PUSH1 0x10 PUSH1 0x24 DUP3 ADD MSTORE PUSH16 0x2737BA103A34B1B5B2BA1037BBB732B9 PUSH1 0x81 SHL PUSH1 0x44 DUP3 ADD MSTORE REVERT JUMPDEST DUP4 DUP1 REVERT JUMPDEST POP POP CALLVALUE PUSH2 0x24D JUMPI DUP2 PUSH1 0x3 NOT CALLDATASIZE ADD SLT PUSH2 0x24D JUMPI PUSH1 0x20 SWAP1 PUSH1 0x5 SLOAD SWAP1 MLOAD SWAP1 DUP2 MSTORE RETURN JUMPDEST SWAP1 POP CALLVALUE PUSH2 0x321 JUMPI PUSH1 0x20 CALLDATASIZE PUSH1 0x3 NOT ADD SLT PUSH2 0x321 JUMPI CALLDATALOAD PUSH1 0x1 PUSH1 0x1 PUSH1 0xA0 SHL SUB DUP2 AND SWAP1 DUP2 SWAP1 SUB PUSH2 0x321 JUMPI DUP3 DUP3 SWAP2 PUSH1 0x60 SWAP5 MSTORE PUSH1 0xB PUSH1 0x20 MSTORE KECCAK256 DUP1 SLOAD SWAP2 PUSH1 0x3 PUSH1 0x1 DUP4 ADD SLOAD SWAP3 ADD SLOAD SWAP2 DUP2 MLOAD SWAP4 DUP5 MSTORE PUSH1 0x20 DUP5 ADD MSTORE DUP3 ADD MSTORE RETURN JUMPDEST POP POP CALLVALUE PUSH2 0x24D JUMPI DUP2 PUSH1 0x3 NOT CALLDATASIZE ADD SLT PUSH2 0x24D JUMPI PUSH1 0x20 SWAP1 MLOAD PUSH3 0x49D40 DUP2 MSTORE RETURN JUMPDEST POP POP CALLVALUE PUSH2 0x24D JUMPI DUP2 PUSH1 0x3 NOT CALLDATASIZE ADD SLT PUSH2 0x24D JUMPI PUSH1 0x20 SWAP1 MLOAD PUSH1 0x14 DUP2 MSTORE RETURN JUMPDEST SWAP1 POP CALLVALUE PUSH2 0x321 JUMPI PUSH1 0x20 CALLDATASIZE PUSH1 0x3 NOT ADD SLT PUSH2 0x321 JUMPI DUP2 PUSH2 0x180 SWAP4 PUSH1 0xFF SWAP3 PUSH1 0xA0 DUP4 MLOAD PUSH2 0x709 DUP2 PUSH2 0x196B JUMP JUMPDEST CALLDATASIZE SWAP1 CALLDATACOPY CALLDATALOAD DUP2 MSTORE PUSH1 0x9 PUSH1 0x20 MSTORE KECCAK256 DUP1 SLOAD SWAP3 PUSH1 0x6 DUP3 ADD SLOAD PUSH1 0x7 DUP4 ADD SLOAD PUSH1 0x8 DUP5 ADD SLOAD SWAP2 PUSH2 0x751 PUSH1 0x9 DUP7 ADD SLOAD SWAP5 PUSH2 0x742 PUSH1 0x1 PUSH1 0xA DUP10 ADD SLOAD SWAP9 ADD PUSH2 0x1C09 JUMP JUMPDEST SWAP1 MLOAD SWAP9 DUP10 MSTORE PUSH1 0x20 DUP10 ADD SWAP1 PUSH2 0x18B6 JUMP JUMPDEST PUSH1 0xC0 DUP8 ADD MSTORE PUSH1 0xE0 DUP7 ADD MSTORE PUSH2 0x100 DUP6 ADD MSTORE PUSH2 0x120 DUP5 ADD MSTORE PUSH1 0x1 PUSH1 0x1 PUSH1 0xA0 SHL SUB DUP2 AND PUSH2 0x140 DUP5 ADD MSTORE PUSH1 0xA0 SHR AND ISZERO ISZERO PUSH2 0x160 DUP3 ADD MSTORE RETURN JUMPDEST POP POP CALLVALUE PUSH2 0x24D JUMPI DUP2 PUSH1 0x3 NOT CALLDATASIZE ADD SLT PUSH2 0x24D JUMPI PUSH1 0x20 SWAP1 PUSH1 0x3 SLOAD SWAP1 MLOAD SWAP1 DUP2 MSTORE RETURN JUMPDEST DUP4 SWAP2 POP CALLVALUE PUSH2 0x24D JUMPI PUSH1 0x20 SWAP1 DUP2 PUSH1 0x3 NOT CALLDATASIZE ADD SLT PUSH2 0x321 JUMPI CALLDATALOAD SWAP1 DUP2 DUP4 MSTORE PUSH1 0x9 SWAP2 DUP3 DUP3 MSTORE PUSH1 0xFF SWAP1 PUSH1 0xA SWAP6 PUSH2 0x7DE DUP4 DUP9 DUP4 DUP10 KECCAK256 ADD SLOAD PUSH1 0xA0 SHR AND PUSH2 0x2127 JUMP JUMPDEST DUP2 DUP7 MSTORE PUSH1 0xC SWAP3 DUP4 DUP6 MSTORE PUSH2 0x7F2 DUP3 DUP9 KECCAK256 PUSH2 0x1BA6 JUMP JUMPDEST SWAP7 PUSH2 0x7FD DUP9 MLOAD PUSH2 0x2183 JUMP JUMPDEST SWAP3 PUSH2 0x808 DUP10 MLOAD PUSH2 0x2183 JUMP JUMPDEST SWAP2 PUSH2 0x813 DUP11 MLOAD PUSH2 0x2183 JUMP JUMPDEST SWAP11 DUP12 SWAP9 PUSH2 0x820 DUP13 MLOAD PUSH2 0x2183 JUMP JUMPDEST SWAP9 DUP13 DUP5 SWAP12 DUP6 SWAP2 JUMPDEST MLOAD DUP3 LT ISZERO PUSH2 0x915 JUMPI DUP14 SWAP1 DUP16 DUP4 PUSH2 0x83C SWAP2 PUSH2 0x1BF5 JUMP JUMPDEST MLOAD SWAP2 DUP3 DUP9 MSTORE DUP7 DUP7 MSTORE PUSH2 0x86D DUP14 PUSH2 0x490 PUSH2 0x867 DUP13 DUP13 PUSH1 0x1 SWAP2 DUP3 SWAP2 KECCAK256 ADD SWAP4 DUP14 MSTORE DUP6 DUP12 MSTORE DUP14 DUP14 KECCAK256 ADD SWAP3 PUSH2 0x1C09 JUMP JUMPDEST SWAP2 PUSH2 0x1C09 JUMP JUMPDEST SWAP1 PUSH1 0x2 DUP3 LT ISZERO PUSH2 0x88C JUMPI JUMPDEST POP POP POP POP PUSH2 0x885 SWAP1 PUSH2 0x1936 JUMP JUMPDEST DUP15 DUP15 PUSH2 0x827 JUMP JUMPDEST SWAP2 PUSH2 0x885 SWAP5 SWAP16 SWAP3 SWAP2 DUP5 SWAP3 DUP16 DUP16 PUSH2 0x8CB DUP16 DUP16 SWAP1 DUP16 SWAP4 DUP16 DUP16 DUP7 DUP14 SWAP6 PUSH2 0x90B SWAP16 SWAP4 DUP8 SWAP4 PUSH2 0x8C5 SWAP6 DUP15 SWAP12 MSTORE MSTORE PUSH1 0x1 DUP1 PUSH1 0xA0 SHL SUB SWAP2 KECCAK256 SLOAD AND SWAP3 PUSH2 0x1BF5 JUMP JUMPDEST MSTORE PUSH2 0x1BF5 JUMP JUMPDEST MSTORE DUP12 MSTORE DUP9 MSTORE DUP7 DUP12 DUP12 KECCAK256 ADD SWAP1 DUP11 MSTORE DUP8 MSTORE PUSH2 0x8E8 DUP4 DUP12 DUP12 KECCAK256 SLOAD SWAP3 PUSH2 0x1BF5 JUMP JUMPDEST MSTORE DUP8 MSTORE DUP6 DUP6 MSTORE DUP8 DUP8 KECCAK256 PUSH1 0x7 ADD SLOAD DUP11 AND PUSH2 0x901 DUP3 DUP16 PUSH2 0x1BF5 JUMP JUMPDEST SWAP1 ISZERO ISZERO SWAP1 MSTORE PUSH2 0x1936 JUMP JUMPDEST SWAP12 SWAP1 DUP16 CODESIZE DUP16 PUSH2 0x878 JUMP JUMPDEST DUP12 SWAP1 DUP11 DUP8 DUP16 DUP11 DUP13 DUP10 SWAP3 PUSH2 0x927 DUP2 PUSH2 0x2183 JUMP JUMPDEST SWAP8 PUSH2 0x931 DUP3 PUSH2 0x2183 JUMP JUMPDEST SWAP8 PUSH2 0x93B DUP4 PUSH2 0x2183 JUMP JUMPDEST SWAP4 PUSH2 0x945 DUP5 PUSH2 0x2183 JUMP JUMPDEST SWAP9 DUP9 JUMPDEST DUP6 DUP2 LT PUSH2 0x9FC JUMPI POP POP POP POP POP POP DUP2 MLOAD SWAP7 DUP8 SWAP7 PUSH1 0x80 DUP9 ADD PUSH1 0x80 DUP10 MSTORE DUP3 MLOAD DUP1 SWAP2 MSTORE DUP6 PUSH1 0xA0 DUP11 ADD SWAP4 ADD SWAP1 DUP8 JUMPDEST DUP2 DUP2 LT PUSH2 0x9DC JUMPI POP POP POP DUP2 PUSH2 0x991 SWAP2 DUP10 PUSH2 0x99E SWAP7 SWAP6 SWAP5 SUB DUP8 DUP12 ADD MSTORE PUSH2 0x1866 JUMP JUMPDEST SWAP2 DUP8 DUP4 SUB SWAP1 DUP9 ADD MSTORE PUSH2 0x1866 JUMP JUMPDEST SWAP1 DUP5 DUP3 SUB PUSH1 0x60 DUP7 ADD MSTORE DUP1 DUP1 DUP6 MLOAD SWAP4 DUP5 DUP2 MSTORE ADD SWAP5 ADD SWAP3 JUMPDEST DUP3 DUP2 LT PUSH2 0x9C3 JUMPI POP POP POP POP SUB SWAP1 RETURN JUMPDEST DUP4 MLOAD ISZERO ISZERO DUP6 MSTORE DUP7 SWAP6 POP SWAP4 DUP2 ADD SWAP4 SWAP3 DUP2 ADD SWAP3 PUSH1 0x1 ADD PUSH2 0x9B4 JUMP JUMPDEST DUP3 MLOAD PUSH1 0x1 PUSH1 0x1 PUSH1 0xA0 SHL SUB AND DUP6 MSTORE DUP12 SWAP11 POP SWAP4 DUP8 ADD SWAP4 SWAP2 DUP8 ADD SWAP2 PUSH1 0x1 ADD PUSH2 0x971 JUMP JUMPDEST PUSH2 0xA71 SWAP1 PUSH1 0x1 DUP1 SWAP14 SWAP15 SWAP9 SWAP10 SWAP11 SWAP12 SWAP13 SWAP14 PUSH1 0xA0 SHL SUB PUSH2 0xA19 DUP3 DUP6 PUSH2 0x1BF5 JUMP JUMPDEST MLOAD AND PUSH2 0xA25 DUP3 DUP11 PUSH2 0x1BF5 JUMP JUMPDEST MSTORE DUP14 PUSH2 0xA3C DUP3 PUSH2 0xA35 DUP2 DUP9 PUSH2 0x1BF5 JUMP JUMPDEST MLOAD SWAP3 PUSH2 0x1BF5 JUMP JUMPDEST MSTORE PUSH2 0xA47 DUP2 DUP7 PUSH2 0x1BF5 JUMP JUMPDEST MLOAD PUSH2 0xA52 DUP3 DUP12 PUSH2 0x1BF5 JUMP JUMPDEST MSTORE DUP13 PUSH2 0xA6B DUP3 PUSH2 0xA62 DUP2 DUP11 PUSH2 0x1BF5 JUMP JUMPDEST MLOAD ISZERO ISZERO SWAP3 PUSH2 0x1BF5 JUMP JUMPDEST MSTORE PUSH2 0x1936 JUMP JUMPDEST SWAP12 SWAP11 SWAP10 SWAP9 SWAP8 SWAP7 SWAP6 SWAP12 PUSH2 0x948 JUMP JUMPDEST POP POP CALLVALUE PUSH2 0x24D JUMPI DUP2 PUSH1 0x3 NOT CALLDATASIZE ADD SLT PUSH2 0x24D JUMPI PUSH1 0x20 SWAP1 MLOAD PUSH1 0x32 DUP2 MSTORE RETURN JUMPDEST POP POP CALLVALUE PUSH2 0x24D JUMPI DUP2 PUSH1 0x3 NOT CALLDATASIZE ADD SLT PUSH2 0x24D JUMPI PUSH1 0x20 SWAP1 PUSH1 0x6 SLOAD SWAP1 MLOAD SWAP1 DUP2 MSTORE RETURN JUMPDEST POP POP CALLVALUE PUSH2 0x24D JUMPI DUP2 PUSH1 0x3 NOT CALLDATASIZE ADD SLT PUSH2 0x24D JUMPI SWAP1 SLOAD SWAP1 MLOAD PUSH1 0x1 PUSH1 0x1 PUSH1 0xA0 SHL SUB SWAP1 SWAP2 AND DUP2 MSTORE PUSH1 0x20 SWAP1 RETURN JUMPDEST POP POP CALLVALUE PUSH2 0x24D JUMPI DUP2 PUSH1 0x3 NOT CALLDATASIZE ADD SLT PUSH2 0x24D JUMPI PUSH1 0x20 SWAP1 PUSH2 0xAFE PUSH2 0x2214 JUMP JUMPDEST SWAP1 MLOAD SWAP1 DUP2 MSTORE RETURN JUMPDEST POP POP CALLVALUE PUSH2 0x24D JUMPI DUP2 PUSH1 0x3 NOT CALLDATASIZE ADD SLT PUSH2 0x24D JUMPI PUSH1 0x20 PUSH32 0x62E78CEA01BEE320CD4E420270B5EA74000D11B0C9F74754EBDBFC544B05A258 SWAP2 PUSH2 0xB43 PUSH2 0x18DE JUMP JUMPDEST PUSH2 0xB4B PUSH2 0x1A7C JUMP JUMPDEST PUSH1 0x1 PUSH1 0xFF NOT PUSH1 0x2 SLOAD AND OR PUSH1 0x2 SSTORE MLOAD CALLER DUP2 MSTORE LOG1 DUP1 RETURN JUMPDEST SWAP1 POP CALLVALUE PUSH2 0x321 JUMPI PUSH1 0x20 CALLDATASIZE PUSH1 0x3 NOT ADD SLT PUSH2 0x321 JUMPI PUSH2 0x120 SWAP3 DUP3 SWAP2 PUSH1 0xA0 DUP4 MLOAD PUSH2 0xB86 DUP2 PUSH2 0x196B JUMP JUMPDEST CALLDATASIZE SWAP1 CALLDATACOPY CALLDATALOAD DUP2 MSTORE PUSH1 0xA PUSH1 0x20 MSTORE KECCAK256 PUSH1 0x1 DUP1 PUSH1 0xA0 SHL SUB DUP2 SLOAD AND SWAP2 PUSH1 0x6 DUP3 ADD SLOAD PUSH2 0xBCE PUSH1 0xFF PUSH1 0x7 DUP6 ADD SLOAD AND SWAP3 PUSH2 0xBBF PUSH1 0x1 PUSH1 0x8 DUP8 ADD SLOAD SWAP7 ADD PUSH2 0x1C09 JUMP JUMPDEST SWAP1 MLOAD SWAP6 DUP7 MSTORE PUSH1 0x20 DUP7 ADD SWAP1 PUSH2 0x18B6 JUMP JUMPDEST PUSH1 0xC0 DUP5 ADD MSTORE ISZERO ISZERO PUSH1 0xE0 DUP4 ADD MSTORE PUSH2 0x100 DUP3 ADD MSTORE RETURN JUMPDEST PUSH2 0x17C2 JUMP JUMPDEST SWAP1 POP CALLVALUE PUSH2 0x321 JUMPI DUP3 PUSH1 0x3 NOT CALLDATASIZE ADD SLT PUSH2 0x321 JUMPI DUP2 MLOAD PUSH4 0xFEF5BAB PUSH1 0xE1 SHL DUP2 MSTORE SWAP1 PUSH1 0x60 DUP3 DUP3 DUP2 ADDRESS GAS STATICCALL SWAP2 DUP3 ISZERO PUSH2 0xCFA JUMPI DUP5 SWAP3 PUSH2 0xCBE JUMPI JUMPDEST POP PUSH1 0x5 SLOAD SWAP3 PUSH1 0x3 SLOAD DUP6 MSTORE PUSH1 0x20 SWAP1 PUSH1 0xC DUP3 MSTORE DUP1 DUP7 KECCAK256 SLOAD SWAP1 DUP4 SLOAD SWAP2 PUSH1 0x8 SLOAD SWAP4 DUP1 DUP4 MLOAD DUP1 SWAP8 PUSH4 0x85719709 PUSH1 0xE0 SHL DUP3 MSTORE DUP2 ADDRESS GAS STATICCALL SWAP6 DUP7 ISZERO PUSH2 0xCB4 JUMPI DUP10 SWAP7 PUSH2 0xC7D JUMPI JUMPDEST POP PUSH1 0xC0 SWAP9 POP DUP3 MLOAD SWAP8 DUP9 MSTORE DUP8 ADD MSTORE DUP6 ADD MSTORE PUSH1 0x60 DUP5 ADD MSTORE PUSH1 0x80 DUP4 ADD MSTORE ISZERO ISZERO PUSH1 0xA0 DUP3 ADD MSTORE RETURN JUMPDEST SWAP1 DUP1 SWAP7 POP DUP2 DUP2 RETURNDATASIZE DUP4 GT PUSH2 0xCAD JUMPI JUMPDEST PUSH2 0xC95 DUP2 DUP4 PUSH2 0x199D JUMP JUMPDEST DUP2 ADD SUB SLT PUSH2 0xCA9 JUMPI PUSH1 0xC0 SWAP9 POP MLOAD SWAP5 CODESIZE PUSH2 0xC5A JUMP JUMPDEST DUP9 DUP1 REVERT JUMPDEST POP RETURNDATASIZE PUSH2 0xC8B JUMP JUMPDEST DUP4 MLOAD RETURNDATASIZE DUP12 DUP3 RETURNDATACOPY RETURNDATASIZE SWAP1 REVERT JUMPDEST SWAP1 SWAP2 POP PUSH1 0x60 DUP2 RETURNDATASIZE DUP3 GT PUSH2 0xCF2 JUMPI JUMPDEST DUP2 PUSH2 0xCD9 PUSH1 0x60 SWAP4 DUP4 PUSH2 0x199D JUMP JUMPDEST DUP2 ADD SUB SLT PUSH2 0x634 JUMPI MLOAD DUP1 ISZERO ISZERO DUP2 SUB PUSH2 0x634 JUMPI SWAP1 CODESIZE PUSH2 0xC1C JUMP JUMPDEST RETURNDATASIZE SWAP2 POP PUSH2 0xCCC JUMP JUMPDEST POP POP POP MLOAD SWAP1 RETURNDATASIZE SWAP1 DUP3 RETURNDATACOPY RETURNDATASIZE SWAP1 REVERT JUMPDEST POP POP CALLVALUE PUSH2 0x24D JUMPI DUP2 PUSH1 0x3 NOT CALLDATASIZE ADD SLT PUSH2 0x24D JUMPI PUSH1 0x20 SWAP1 PUSH1 0x8 SLOAD SWAP1 MLOAD SWAP1 DUP2 MSTORE RETURN JUMPDEST DUP4 CALLVALUE PUSH2 0xD80 JUMPI DUP1 PUSH1 0x3 NOT CALLDATASIZE ADD SLT PUSH2 0xD80 JUMPI PUSH2 0xD3F PUSH2 0x18DE JUMP JUMPDEST DUP1 SLOAD PUSH1 0x1 PUSH1 0x1 PUSH1 0xA0 SHL SUB NOT DUP2 AND DUP3 SSTORE DUP2 SWAP1 PUSH1 0x1 PUSH1 0x1 PUSH1 0xA0 SHL SUB AND PUSH32 0x8BE0079C531659141344CD1FD0A4F28419497F9722A3DAAFE3B4186F6B6457E0 DUP3 DUP1 LOG3 DUP1 RETURN JUMPDEST DUP1 REVERT JUMPDEST POP POP CALLVALUE PUSH2 0x24D JUMPI DUP1 PUSH1 0x20 SWAP3 PUSH2 0xD97 CALLDATASIZE PUSH2 0x1806 JUMP JUMPDEST SWAP1 DUP3 MSTORE PUSH1 0x9 DUP6 MSTORE PUSH1 0xC DUP4 DUP4 KECCAK256 ADD SWAP1 DUP3 MSTORE DUP5 MSTORE KECCAK256 SLOAD SWAP1 MLOAD SWAP1 DUP2 MSTORE RETURN JUMPDEST POP POP CALLVALUE PUSH2 0x24D JUMPI DUP2 PUSH1 0x3 NOT CALLDATASIZE ADD SLT PUSH2 0x24D JUMPI PUSH1 0x20 SWAP1 MLOAD PUSH8 0x16345785D8A0000 DUP2 MSTORE RETURN JUMPDEST PUSH2 0x184A JUMP JUMPDEST POP POP CALLVALUE PUSH2 0x24D JUMPI DUP2 PUSH1 0x3 NOT CALLDATASIZE ADD SLT PUSH2 0x24D JUMPI PUSH1 0x20 SWAP1 PUSH1 0x7 SLOAD SWAP1 MLOAD SWAP1 DUP2 MSTORE RETURN JUMPDEST POP POP CALLVALUE PUSH2 0x24D JUMPI DUP2 PUSH1 0x3 NOT CALLDATASIZE ADD SLT PUSH2 0x24D JUMPI PUSH1 0x20 SWAP1 PUSH1 0xFF PUSH1 0x2 SLOAD AND SWAP1 MLOAD SWAP1 ISZERO ISZERO DUP2 MSTORE RETURN JUMPDEST SWAP1 POP CALLVALUE PUSH2 0x321 JUMPI PUSH1 0x20 CALLDATASIZE PUSH1 0x3 NOT ADD SLT PUSH2 0x321 JUMPI PUSH1 0x80 SWAP3 DUP3 SWAP2 CALLDATALOAD DUP2 MSTORE PUSH1 0xA PUSH1 0x20 MSTORE KECCAK256 PUSH1 0x1 DUP1 PUSH1 0xA0 SHL SUB DUP2 SLOAD AND SWAP2 PUSH1 0x6 DUP3 ADD SLOAD SWAP2 PUSH1 0x8 PUSH1 0xFF PUSH1 0x7 DUP4 ADD SLOAD AND SWAP2 ADD SLOAD SWAP3 DUP3 MLOAD SWAP5 DUP6 MSTORE PUSH1 0x20 DUP6 ADD MSTORE ISZERO ISZERO SWAP1 DUP4 ADD MSTORE PUSH1 0x60 DUP3 ADD MSTORE RETURN JUMPDEST SWAP1 POP CALLVALUE PUSH2 0x321 JUMPI PUSH1 0x20 CALLDATASIZE PUSH1 0x3 NOT ADD SLT PUSH2 0x321 JUMPI CALLDATALOAD PUSH1 0x1 PUSH1 0x1 PUSH1 0xA0 SHL SUB DUP2 AND SWAP1 DUP2 SWAP1 SUB PUSH2 0x321 JUMPI DUP3 MSTORE PUSH1 0xB PUSH1 0x20 MSTORE DUP1 DUP3 KECCAK256 SWAP1 DUP2 SLOAD SWAP2 PUSH2 0xEE7 DUP3 PUSH1 0x1 DUP4 ADD SLOAD SWAP6 PUSH1 0xD PUSH1 0x20 MSTORE KECCAK256 SLOAD SWAP3 PUSH1 0xA0 PUSH2 0xECD PUSH1 0x2 PUSH1 0x3 DUP7 ADD SLOAD SWAP6 ADD PUSH2 0x1BA6 JUMP JUMPDEST SWAP2 DUP1 MLOAD SWAP8 DUP9 SWAP8 DUP9 MSTORE PUSH1 0x20 DUP9 ADD MSTORE DUP7 ADD MSTORE PUSH1 0xA0 DUP6 ADD SWAP1 PUSH2 0x1866 JUMP JUMPDEST SWAP2 PUSH1 0x60 DUP5 ADD MSTORE PUSH1 0x80 DUP4 ADD MSTORE SUB SWAP1 RETURN JUMPDEST SWAP1 POP CALLVALUE PUSH2 0x321 JUMPI DUP3 PUSH1 0x3 NOT CALLDATASIZE ADD SLT PUSH2 0x321 JUMPI PUSH2 0xF10 PUSH2 0x18DE JUMP JUMPDEST SELFBALANCE ISZERO PUSH2 0x1081 JUMPI POP PUSH1 0xE SLOAD SWAP1 PUSH2 0xF24 DUP3 PUSH2 0x2183 JUMP JUMPDEST DUP4 SWAP3 PUSH1 0x1 DUP1 JUMPDEST DUP3 DUP2 LT PUSH2 0xFE7 JUMPI POP POP POP DUP4 JUMPDEST DUP4 DUP2 LT PUSH2 0xF49 JUMPI DUP5 DUP1 PUSH1 0x5 SSTORE DUP1 PUSH1 0x6 SSTORE DUP1 RETURN JUMPDEST PUSH2 0xF8A SWAP1 PUSH1 0x1 PUSH1 0x1 PUSH1 0xA0 SHL SUB PUSH2 0xF5F DUP3 DUP6 PUSH2 0x1BF5 JUMP JUMPDEST MLOAD AND DUP1 DUP8 MSTORE PUSH1 0x20 PUSH1 0xD DUP2 MSTORE DUP6 DUP9 KECCAK256 SWAP1 DUP9 DUP3 SLOAD SWAP3 DUP4 ISZERO ISZERO DUP1 PUSH2 0xFDD JUMPI JUMPDEST PUSH2 0xF8F JUMPI JUMPDEST POP POP POP POP POP PUSH2 0x1936 JUMP JUMPDEST PUSH2 0xF36 JUMP JUMPDEST SSTORE DUP9 DUP1 DUP1 DUP1 DUP6 DUP8 GAS CALL PUSH2 0xFA0 PUSH2 0x1C3C JUMP JUMPDEST POP PUSH2 0xFAD JUMPI JUMPDEST DUP9 DUP2 PUSH2 0xF80 JUMP JUMPDEST PUSH32 0xDF36E221948DA014EBE0F9F6BB96696776424780DA298E7F05E2F362DCD4289A SWAP2 DUP8 MLOAD SWAP1 DUP2 MSTORE LOG2 CODESIZE DUP1 DUP1 PUSH2 0xFA6 JUMP JUMPDEST POP DUP4 SELFBALANCE LT ISZERO PUSH2 0xF7B JUMP JUMPDEST DUP1 DUP8 MSTORE PUSH1 0xA PUSH1 0x20 SWAP1 DUP2 MSTORE DUP6 DUP9 KECCAK256 SLOAD PUSH1 0x1 PUSH1 0x1 PUSH1 0xA0 SHL SUB SWAP1 DUP2 AND DUP1 DUP11 MSTORE PUSH1 0xD SWAP1 SWAP3 MSTORE DUP7 DUP10 KECCAK256 SLOAD PUSH2 0x1021 JUMPI JUMPDEST POP POP PUSH2 0x101C SWAP1 PUSH2 0x1936 JUMP JUMPDEST PUSH2 0xF2A JUMP JUMPDEST DUP9 SWAP1 DUP10 JUMPDEST DUP10 DUP2 LT PUSH2 0x1055 JUMPI JUMPDEST POP POP ISZERO PUSH2 0x103B JUMPI JUMPDEST DUP1 PUSH2 0x1011 JUMP JUMPDEST DUP7 PUSH2 0x104E SWAP2 PUSH2 0xA6B PUSH2 0x101C SWAP5 SWAP10 DUP9 PUSH2 0x1BF5 JUMP JUMPDEST SWAP6 SWAP1 PUSH2 0x1035 JUMP JUMPDEST DUP4 DUP3 PUSH2 0x1061 DUP4 DUP12 PUSH2 0x1BF5 JUMP JUMPDEST MLOAD AND EQ PUSH2 0x1076 JUMPI PUSH2 0x1071 SWAP1 PUSH2 0x1936 JUMP JUMPDEST PUSH2 0x1025 JUMP JUMPDEST POP POP POP DUP3 CODESIZE DUP1 PUSH2 0x102D JUMP JUMPDEST PUSH1 0x20 PUSH1 0x64 SWAP3 MLOAD SWAP2 PUSH3 0x461BCD PUSH1 0xE5 SHL DUP4 MSTORE DUP3 ADD MSTORE PUSH1 0x12 PUSH1 0x24 DUP3 ADD MSTORE PUSH18 0x139BC8199D5B991CC81D1BC81C99599D5B99 PUSH1 0x72 SHL PUSH1 0x44 DUP3 ADD MSTORE REVERT JUMPDEST DUP4 SWAP2 POP PUSH1 0x20 SWAP3 DUP4 PUSH1 0x3 NOT CALLDATASIZE ADD SLT PUSH2 0x321 JUMPI DUP2 CALLDATALOAD SWAP4 PUSH8 0xFFFFFFFFFFFFFFFF DUP1 DUP7 GT PUSH2 0x31D JUMPI CALLDATASIZE PUSH1 0x23 DUP8 ADD SLT ISZERO PUSH2 0x31D JUMPI DUP6 DUP5 ADD CALLDATALOAD SWAP1 DUP2 GT PUSH2 0x31D JUMPI PUSH1 0x24 SWAP6 DUP7 DUP2 ADD PUSH1 0xA0 SWAP2 DUP9 CALLDATASIZE SWAP2 DUP5 DUP7 MUL ADD ADD GT PUSH2 0x13EC JUMPI PUSH2 0x1110 PUSH2 0x1AC0 JUMP JUMPDEST PUSH2 0x1118 PUSH2 0x1A7C JUMP JUMPDEST DUP3 ISZERO PUSH2 0x13A0 JUMPI PUSH8 0x8AC7230489E80000 DUP4 DUP2 MUL SWAP1 DUP2 DIV DUP5 SUB PUSH2 0x138E JUMPI CALLVALUE SUB PUSH2 0x134C JUMPI DUP7 JUMPDEST DUP4 DUP2 LT PUSH2 0x11B9 JUMPI POP POP POP SWAP1 PUSH2 0x1153 PUSH1 0xD SWAP3 DUP6 SLOAD PUSH2 0x1A42 JUMP JUMPDEST DUP5 SSTORE CALLER DUP6 MSTORE MSTORE DUP3 KECCAK256 PUSH2 0x1166 CALLVALUE DUP3 SLOAD PUSH2 0x1A42 JUMP JUMPDEST SWAP1 SSTORE CALLVALUE CALLVALUE DIV PUSH1 0x1 EQ CALLVALUE ISZERO OR ISZERO PUSH2 0x11A9 JUMPI POP PUSH2 0x119F PUSH1 0x64 CALLVALUE DIV PUSH2 0x1194 PUSH2 0x118B DUP3 CALLVALUE PUSH2 0x1A6F JUMP JUMPDEST SWAP2 PUSH1 0x6 SLOAD PUSH2 0x1A42 JUMP JUMPDEST PUSH1 0x6 SSTORE PUSH1 0x5 SLOAD PUSH2 0x1A42 JUMP JUMPDEST PUSH1 0x5 SSTORE PUSH1 0x1 DUP1 SSTORE DUP1 RETURN JUMPDEST PUSH4 0x4E487B71 PUSH1 0xE0 SHL DUP3 MSTORE PUSH1 0x11 SWAP1 MSTORE REVERT JUMPDEST PUSH2 0x11C4 DUP2 DUP6 DUP5 PUSH2 0x195B JUMP JUMPDEST DUP7 MLOAD SWAP1 PUSH2 0x11D0 DUP3 PUSH2 0x196B JUMP JUMPDEST DUP2 DUP6 DUP3 ADD SWAP2 CALLDATASIZE DUP4 GT PUSH2 0x1348 JUMPI DUP10 SWAP5 SWAP4 SWAP3 SWAP2 DUP10 SWAP1 JUMPDEST DUP4 DUP4 LT PUSH2 0x1335 JUMPI POP POP POP POP PUSH2 0x11F8 SWAP1 PUSH2 0x2260 JUMP JUMPDEST PUSH1 0xE DUP1 SLOAD SWAP1 PUSH2 0x1206 DUP3 PUSH2 0x1936 JUMP JUMPDEST SWAP1 SSTORE DUP1 DUP11 MSTORE PUSH1 0xA DUP8 MSTORE DUP3 DUP11 KECCAK256 DUP1 SLOAD PUSH1 0x1 PUSH1 0x1 PUSH1 0xA0 SHL SUB NOT AND CALLER OR DUP2 SSTORE PUSH1 0x3 DUP1 SLOAD PUSH1 0x6 DUP4 ADD SSTORE TIMESTAMP PUSH1 0x8 DUP4 ADD SSTORE SWAP1 DUP9 SWAP1 DUP13 SWAP1 PUSH1 0x1 ADD DUP2 JUMPDEST PUSH1 0x5 DUP2 LT PUSH2 0x12DC JUMPI POP POP DUP4 PUSH1 0x2 PUSH2 0x12D7 SWAP8 PUSH2 0x1273 SWAP4 DUP7 SLOAD DUP2 MSTORE PUSH1 0xC DUP7 MSTORE PUSH2 0x1264 DUP5 DUP4 DUP4 KECCAK256 PUSH2 0x1A18 JUMP JUMPDEST CALLER DUP2 MSTORE PUSH1 0xB DUP1 SWAP7 MSTORE KECCAK256 ADD PUSH2 0x1A18 JUMP JUMPDEST CALLER DUP13 MSTORE DUP1 DUP10 MSTORE DUP10 DUP13 KECCAK256 PUSH2 0x1286 DUP2 SLOAD PUSH2 0x1936 JUMP JUMPDEST SWAP1 SSTORE CALLER DUP13 MSTORE DUP9 MSTORE TIMESTAMP DUP2 DUP11 DUP14 KECCAK256 ADD SSTORE SLOAD SWAP1 PUSH2 0x12A1 DUP4 DUP9 DUP8 PUSH2 0x195B JUMP JUMPDEST DUP7 DUP11 MLOAD SWAP2 DUP3 CALLDATACOPY TIMESTAMP DUP8 DUP3 ADD MSTORE PUSH32 0x979E7845B79AFFCE0BE71D86A342AF2789A7DDE91B0C8D960C121086F9D18F68 PUSH1 0xC0 CALLER SWAP3 LOG4 PUSH2 0x1936 JUMP JUMPDEST PUSH2 0x113B JUMP JUMPDEST SWAP2 POP SWAP3 SWAP4 SWAP5 SWAP6 POP PUSH2 0x1328 SWAP2 POP PUSH2 0x1323 PUSH2 0x12FF DUP3 PUSH2 0x12FA DUP10 DUP14 DUP13 PUSH2 0x195B JUMP JUMPDEST PUSH2 0x19F7 JUMP JUMPDEST CALLDATALOAD PUSH2 0x130A DUP4 DUP7 PUSH2 0x1A08 JUMP JUMPDEST SWAP1 SWAP2 SWAP1 DUP3 SLOAD SWAP1 PUSH1 0x3 SHL SWAP2 DUP3 SHL SWAP2 PUSH1 0x0 NOT SWAP1 SHL NOT AND OR SWAP1 SSTORE JUMP JUMPDEST PUSH2 0x1936 JUMP JUMPDEST DUP12 DUP11 SWAP6 SWAP5 SWAP4 SWAP3 DUP11 SWAP3 PUSH2 0x123B JUMP JUMPDEST DUP3 CALLDATALOAD DUP2 MSTORE DUP12 SWAP7 POP SWAP2 DUP2 ADD SWAP2 DUP11 SWAP2 ADD PUSH2 0x11E4 JUMP JUMPDEST DUP12 DUP1 REVERT JUMPDEST DUP5 MLOAD PUSH3 0x461BCD PUSH1 0xE5 SHL DUP2 MSTORE DUP1 DUP8 ADD DUP6 SWAP1 MSTORE PUSH1 0x18 DUP2 DUP11 ADD MSTORE PUSH32 0x496E636F7272656374207061796D656E7420616D6F756E740000000000000000 PUSH1 0x44 DUP3 ADD MSTORE PUSH1 0x64 SWAP1 REVERT JUMPDEST PUSH4 0x4E487B71 PUSH1 0xE0 SHL DUP9 MSTORE PUSH1 0x11 DUP8 MSTORE DUP9 DUP9 REVERT JUMPDEST DUP5 MLOAD PUSH3 0x461BCD PUSH1 0xE5 SHL DUP2 MSTORE DUP1 DUP8 ADD DUP6 SWAP1 MSTORE PUSH1 0x21 DUP2 DUP11 ADD MSTORE PUSH32 0x4D757374207075726368617365206174206C65617374206F6E65207469636B65 PUSH1 0x44 DUP3 ADD MSTORE PUSH1 0x1D PUSH1 0xFA SHL PUSH1 0x64 DUP3 ADD MSTORE PUSH1 0x84 SWAP1 REVERT JUMPDEST DUP7 DUP1 REVERT JUMPDEST SWAP1 POP CALLVALUE PUSH2 0x321 JUMPI DUP3 PUSH1 0x3 NOT CALLDATASIZE ADD SLT PUSH2 0x321 JUMPI PUSH2 0x140A PUSH2 0x18DE JUMP JUMPDEST PUSH1 0x2 SLOAD SWAP1 PUSH1 0xFF DUP3 AND ISZERO PUSH2 0x144C JUMPI POP PUSH1 0xFF NOT AND PUSH1 0x2 SSTORE MLOAD CALLER DUP2 MSTORE PUSH32 0x5DB9EE0A495BF2E6FF9C91A7834C1BA4FDD244A5E8AA4E537BD38AEAE4B073AA SWAP1 PUSH1 0x20 SWAP1 LOG1 DUP1 RETURN JUMPDEST PUSH1 0x64 SWAP1 PUSH1 0x20 DUP5 MLOAD SWAP2 PUSH3 0x461BCD PUSH1 0xE5 SHL DUP4 MSTORE DUP3 ADD MSTORE PUSH1 0x14 PUSH1 0x24 DUP3 ADD MSTORE PUSH20 0x14185D5CD8589B194E881B9BDD081C185D5CD959 PUSH1 0x62 SHL PUSH1 0x44 DUP3 ADD MSTORE REVERT JUMPDEST POP POP CALLVALUE PUSH2 0x24D JUMPI PUSH2 0x1496 CALLDATASIZE PUSH2 0x1806 JUMP JUMPDEST SWAP3 SWAP1 DUP2 MSTORE PUSH1 0xC PUSH1 0x20 MSTORE DUP2 DUP2 KECCAK256 SWAP1 DUP2 SLOAD DUP5 LT ISZERO PUSH2 0xD80 JUMPI POP PUSH1 0x20 SWAP3 PUSH2 0x14B9 SWAP2 PUSH2 0x181C JUMP JUMPDEST SWAP2 SWAP1 SLOAD SWAP1 MLOAD SWAP2 PUSH1 0x3 SHL SHR DUP2 MSTORE RETURN JUMPDEST SWAP1 POP CALLVALUE PUSH2 0x321 JUMPI DUP3 PUSH1 0x3 NOT CALLDATASIZE ADD SLT PUSH2 0x321 JUMPI PUSH1 0x20 SWAP3 POP SLOAD SWAP1 MLOAD SWAP1 DUP2 MSTORE RETURN JUMPDEST POP POP CALLVALUE PUSH2 0x24D JUMPI DUP2 PUSH1 0x3 NOT CALLDATASIZE ADD SLT PUSH2 0x24D JUMPI PUSH2 0x1535 SWAP1 PUSH2 0x1503 PUSH2 0x18DE JUMP JUMPDEST PUSH1 0x3 SLOAD DUP1 DUP5 MSTORE PUSH1 0x9 PUSH1 0x20 MSTORE PUSH2 0x1524 PUSH1 0xFF PUSH1 0xA DUP5 DUP8 KECCAK256 ADD SLOAD PUSH1 0xA0 SHR AND ISZERO PUSH2 0x1B16 JUMP JUMPDEST DUP4 MSTORE PUSH1 0xC PUSH1 0x20 MSTORE DUP3 KECCAK256 SLOAD ISZERO ISZERO PUSH2 0x1B5A JUMP JUMPDEST PUSH2 0x3BA PUSH2 0x1540 PUSH2 0x23F7 JUMP JUMPDEST CALLER SWAP1 PUSH2 0x1C7C JUMP JUMPDEST POP POP CALLVALUE PUSH2 0x24D JUMPI DUP2 PUSH1 0x3 NOT CALLDATASIZE ADD SLT PUSH2 0x24D JUMPI PUSH1 0x20 SWAP1 MLOAD PUSH1 0xF DUP2 MSTORE RETURN JUMPDEST POP POP CALLVALUE PUSH2 0x24D JUMPI DUP2 PUSH1 0x3 NOT CALLDATASIZE ADD SLT PUSH2 0x24D JUMPI PUSH1 0x60 SWAP1 PUSH2 0x1580 PUSH2 0x21B5 JUMP JUMPDEST SWAP2 SWAP3 SWAP1 DUP2 MLOAD SWAP4 ISZERO ISZERO DUP5 MSTORE PUSH1 0x20 DUP5 ADD MSTORE DUP3 ADD MSTORE RETURN JUMPDEST SWAP2 SWAP1 POP CALLVALUE PUSH2 0x321 JUMPI DUP3 PUSH1 0x3 NOT CALLDATASIZE ADD SLT PUSH2 0x321 JUMPI PUSH2 0x15AF PUSH2 0x1AC0 JUMP JUMPDEST PUSH2 0x15B7 PUSH2 0x1A7C JUMP JUMPDEST PUSH1 0x3 SLOAD DUP1 DUP5 MSTORE PUSH1 0x9 PUSH1 0x20 MSTORE PUSH2 0x15D8 PUSH1 0xFF PUSH1 0xA DUP5 DUP8 KECCAK256 ADD SLOAD PUSH1 0xA0 SHR AND ISZERO PUSH2 0x1B16 JUMP JUMPDEST DUP4 MSTORE PUSH1 0xC PUSH1 0x20 MSTORE PUSH2 0x15ED DUP2 DUP5 KECCAK256 SLOAD ISZERO ISZERO PUSH2 0x1B5A JUMP JUMPDEST PUSH1 0x8 SLOAD TIMESTAMP LT PUSH2 0x1609 JUMPI DUP3 PUSH2 0x1602 PUSH2 0x1540 PUSH2 0x23F7 JUMP JUMPDEST PUSH1 0x1 DUP1 SSTORE DUP1 RETURN JUMPDEST SWAP1 PUSH1 0x20 PUSH1 0x64 SWAP3 MLOAD SWAP2 PUSH3 0x461BCD PUSH1 0xE5 SHL DUP4 MSTORE DUP3 ADD MSTORE PUSH1 0x19 PUSH1 0x24 DUP3 ADD MSTORE PUSH32 0x447261772074696D65206E6F7420726561636865642079657400000000000000 PUSH1 0x44 DUP3 ADD MSTORE REVERT JUMPDEST SWAP1 POP CALLVALUE PUSH2 0x321 JUMPI PUSH1 0x20 CALLDATASIZE PUSH1 0x3 NOT ADD SLT PUSH2 0x321 JUMPI DUP2 PUSH1 0xE0 SWAP4 PUSH1 0xFF SWAP3 CALLDATALOAD DUP2 MSTORE PUSH1 0x9 PUSH1 0x20 MSTORE KECCAK256 SWAP2 DUP3 SLOAD SWAP3 PUSH1 0x6 DUP2 ADD SLOAD SWAP2 PUSH1 0x7 DUP3 ADD SLOAD PUSH1 0x8 DUP4 ADD SLOAD SWAP2 PUSH1 0xA PUSH1 0x9 DUP6 ADD SLOAD SWAP5 ADD SLOAD SWAP5 DUP2 MLOAD SWAP8 DUP9 MSTORE PUSH1 0x20 DUP9 ADD MSTORE DUP7 ADD MSTORE PUSH1 0x60 DUP6 ADD MSTORE PUSH1 0x80 DUP5 ADD MSTORE PUSH1 0x1 DUP1 PUSH1 0xA0 SHL SUB DUP2 AND PUSH1 0xA0 DUP5 ADD MSTORE PUSH1 0xA0 SHR AND ISZERO ISZERO PUSH1 0xC0 DUP3 ADD MSTORE RETURN JUMPDEST SWAP1 POP CALLVALUE PUSH2 0x321 JUMPI DUP3 PUSH1 0x3 NOT CALLDATASIZE ADD SLT PUSH2 0x321 JUMPI PUSH2 0x16DB PUSH2 0x18DE JUMP JUMPDEST PUSH1 0x6 SLOAD SWAP1 DUP2 ISZERO PUSH2 0x177F JUMPI DUP4 PUSH1 0x6 SSTORE PUSH1 0x1 DUP1 PUSH1 0xA0 SHL SUB SWAP1 DUP5 DUP1 DUP1 DUP1 DUP7 DUP7 DUP3 SLOAD AND GAS CALL PUSH2 0x1704 PUSH2 0x1C3C JUMP JUMPDEST POP ISZERO PUSH2 0x173C JUMPI POP PUSH32 0xCDCAFF67AC16639664E5F9343C9223A1DC9C972EC367B69AE9FC1325C7BE5474 SWAP2 PUSH1 0x20 SWAP2 DUP6 SLOAD AND SWAP4 MLOAD SWAP1 DUP2 MSTORE LOG2 DUP1 RETURN JUMPDEST PUSH1 0x64 SWAP1 PUSH1 0x20 DUP6 MLOAD SWAP2 PUSH3 0x461BCD PUSH1 0xE5 SHL DUP4 MSTORE DUP3 ADD MSTORE PUSH1 0x19 PUSH1 0x24 DUP3 ADD MSTORE PUSH32 0x41646D696E20666565207472616E73666572206661696C656400000000000000 PUSH1 0x44 DUP3 ADD MSTORE REVERT JUMPDEST PUSH1 0x64 SWAP1 PUSH1 0x20 DUP5 MLOAD SWAP2 PUSH3 0x461BCD PUSH1 0xE5 SHL DUP4 MSTORE DUP3 ADD MSTORE PUSH1 0x19 PUSH1 0x24 DUP3 ADD MSTORE PUSH32 0x4E6F2061646D696E206665657320746F20776974686472617700000000000000 PUSH1 0x44 DUP3 ADD MSTORE REVERT JUMPDEST CALLVALUE PUSH2 0x17E5 JUMPI PUSH1 0x0 CALLDATASIZE PUSH1 0x3 NOT ADD SLT PUSH2 0x17E5 JUMPI PUSH1 0x20 PUSH1 0x40 MLOAD PUSH8 0x8AC7230489E80000 DUP2 MSTORE RETURN JUMPDEST PUSH1 0x0 DUP1 REVERT JUMPDEST CALLVALUE PUSH2 0x17E5 JUMPI PUSH1 0x0 CALLDATASIZE PUSH1 0x3 NOT ADD SLT PUSH2 0x17E5 JUMPI PUSH1 0x20 PUSH1 0x40 MLOAD PUSH1 0x5 DUP2 MSTORE RETURN JUMPDEST PUSH1 0x40 SWAP1 PUSH1 0x3 NOT ADD SLT PUSH2 0x17E5 JUMPI PUSH1 0x4 CALLDATALOAD SWAP1 PUSH1 0x24 CALLDATALOAD SWAP1 JUMP JUMPDEST DUP1 SLOAD DUP3 LT ISZERO PUSH2 0x1834 JUMPI PUSH1 0x0 MSTORE PUSH1 0x20 PUSH1 0x0 KECCAK256 ADD SWAP1 PUSH1 0x0 SWAP1 JUMP JUMPDEST PUSH4 0x4E487B71 PUSH1 0xE0 SHL PUSH1 0x0 MSTORE PUSH1 0x32 PUSH1 0x4 MSTORE PUSH1 0x24 PUSH1 0x0 REVERT JUMPDEST CALLVALUE PUSH2 0x17E5 JUMPI PUSH1 0x0 CALLDATASIZE PUSH1 0x3 NOT ADD SLT PUSH2 0x17E5 JUMPI PUSH1 0x20 PUSH1 0x40 MLOAD PUSH1 0xA DUP2 MSTORE RETURN JUMPDEST SWAP1 DUP2 MLOAD DUP1 DUP3 MSTORE PUSH1 0x20 DUP1 DUP1 SWAP4 ADD SWAP4 ADD SWAP2 PUSH1 0x0 JUMPDEST DUP3 DUP2 LT PUSH2 0x1886 JUMPI POP POP POP POP SWAP1 JUMP JUMPDEST DUP4 MLOAD DUP6 MSTORE SWAP4 DUP2 ADD SWAP4 SWAP3 DUP2 ADD SWAP3 PUSH1 0x1 ADD PUSH2 0x1878 JUMP JUMPDEST CALLVALUE PUSH2 0x17E5 JUMPI PUSH1 0x0 CALLDATASIZE PUSH1 0x3 NOT ADD SLT PUSH2 0x17E5 JUMPI PUSH1 0x20 PUSH1 0x40 MLOAD PUSH1 0x1 DUP2 MSTORE RETURN JUMPDEST PUSH1 0x0 SWAP2 JUMPDEST PUSH1 0x5 DUP4 LT PUSH2 0x18C7 JUMPI POP POP POP JUMP JUMPDEST PUSH1 0x1 SWAP1 DUP3 MLOAD DUP2 MSTORE PUSH1 0x20 DUP1 SWAP2 ADD SWAP3 ADD SWAP3 ADD SWAP2 SWAP1 PUSH2 0x18BA JUMP JUMPDEST PUSH1 0x0 SLOAD PUSH1 0x1 PUSH1 0x1 PUSH1 0xA0 SHL SUB AND CALLER SUB PUSH2 0x18F2 JUMPI JUMP JUMPDEST PUSH1 0x64 PUSH1 0x40 MLOAD PUSH3 0x461BCD PUSH1 0xE5 SHL DUP2 MSTORE PUSH1 0x20 PUSH1 0x4 DUP3 ADD MSTORE PUSH1 0x20 PUSH1 0x24 DUP3 ADD MSTORE PUSH32 0x4F776E61626C653A2063616C6C6572206973206E6F7420746865206F776E6572 PUSH1 0x44 DUP3 ADD MSTORE REVERT JUMPDEST PUSH1 0x0 NOT DUP2 EQ PUSH2 0x1945 JUMPI PUSH1 0x1 ADD SWAP1 JUMP JUMPDEST PUSH4 0x4E487B71 PUSH1 0xE0 SHL PUSH1 0x0 MSTORE PUSH1 0x11 PUSH1 0x4 MSTORE PUSH1 0x24 PUSH1 0x0 REVERT JUMPDEST SWAP2 SWAP1 DUP2 LT ISZERO PUSH2 0x1834 JUMPI PUSH1 0xA0 MUL ADD SWAP1 JUMP JUMPDEST PUSH1 0xA0 DUP2 ADD SWAP1 DUP2 LT PUSH8 0xFFFFFFFFFFFFFFFF DUP3 GT OR PUSH2 0x1987 JUMPI PUSH1 0x40 MSTORE JUMP JUMPDEST PUSH4 0x4E487B71 PUSH1 0xE0 SHL PUSH1 0x0 MSTORE PUSH1 0x41 PUSH1 0x4 MSTORE PUSH1 0x24 PUSH1 0x0 REVERT JUMPDEST SWAP1 PUSH1 0x1F DUP1 NOT SWAP2 ADD AND DUP2 ADD SWAP1 DUP2 LT PUSH8 0xFFFFFFFFFFFFFFFF DUP3 GT OR PUSH2 0x1987 JUMPI PUSH1 0x40 MSTORE JUMP JUMPDEST SWAP1 PUSH1 0x40 MLOAD SWAP2 PUSH2 0x19CD DUP4 PUSH2 0x196B JUMP JUMPDEST DUP3 PUSH1 0xA4 SWAP2 DUP3 GT PUSH2 0x17E5 JUMPI PUSH1 0x4 SWAP1 JUMPDEST DUP3 DUP3 LT PUSH2 0x19E7 JUMPI POP POP POP JUMP JUMPDEST DUP2 CALLDATALOAD DUP2 MSTORE PUSH1 0x20 SWAP2 DUP3 ADD SWAP2 ADD PUSH2 0x19DB JUMP JUMPDEST SWAP1 PUSH1 0x5 DUP2 LT ISZERO PUSH2 0x1834 JUMPI PUSH1 0x5 SHL ADD SWAP1 JUMP JUMPDEST PUSH1 0x5 DUP3 LT ISZERO PUSH2 0x1834 JUMPI ADD SWAP1 PUSH1 0x0 SWAP1 JUMP JUMPDEST SWAP1 DUP2 SLOAD SWAP2 PUSH9 0x10000000000000000 DUP4 LT ISZERO PUSH2 0x1987 JUMPI DUP3 PUSH2 0x130A SWAP2 PUSH1 0x1 PUSH2 0x1A40 SWAP6 ADD DUP2 SSTORE PUSH2 0x181C JUMP JUMPDEST JUMP JUMPDEST SWAP2 SWAP1 DUP3 ADD DUP1 SWAP3 GT PUSH2 0x1945 JUMPI JUMP JUMPDEST DUP2 ISZERO PUSH2 0x1A59 JUMPI DIV SWAP1 JUMP JUMPDEST PUSH4 0x4E487B71 PUSH1 0xE0 SHL PUSH1 0x0 MSTORE PUSH1 0x12 PUSH1 0x4 MSTORE PUSH1 0x24 PUSH1 0x0 REVERT JUMPDEST SWAP2 SWAP1 DUP3 SUB SWAP2 DUP3 GT PUSH2 0x1945 JUMPI JUMP JUMPDEST PUSH1 0xFF PUSH1 0x2 SLOAD AND PUSH2 0x1A88 JUMPI JUMP JUMPDEST PUSH1 0x40 MLOAD PUSH3 0x461BCD PUSH1 0xE5 SHL DUP2 MSTORE PUSH1 0x20 PUSH1 0x4 DUP3 ADD MSTORE PUSH1 0x10 PUSH1 0x24 DUP3 ADD MSTORE PUSH16 0x14185D5CD8589B194E881C185D5CD959 PUSH1 0x82 SHL PUSH1 0x44 DUP3 ADD MSTORE PUSH1 0x64 SWAP1 REVERT JUMPDEST PUSH1 0x2 PUSH1 0x1 SLOAD EQ PUSH2 0x1AD1 JUMPI PUSH1 0x2 PUSH1 0x1 SSTORE JUMP JUMPDEST PUSH1 0x40 MLOAD PUSH3 0x461BCD PUSH1 0xE5 SHL DUP2 MSTORE PUSH1 0x20 PUSH1 0x4 DUP3 ADD MSTORE PUSH1 0x1F PUSH1 0x24 DUP3 ADD MSTORE PUSH32 0x5265656E7472616E637947756172643A207265656E7472616E742063616C6C00 PUSH1 0x44 DUP3 ADD MSTORE PUSH1 0x64 SWAP1 REVERT JUMPDEST ISZERO PUSH2 0x1B1D JUMPI JUMP JUMPDEST PUSH1 0x40 MLOAD PUSH3 0x461BCD PUSH1 0xE5 SHL DUP2 MSTORE PUSH1 0x20 PUSH1 0x4 DUP3 ADD MSTORE PUSH1 0x15 PUSH1 0x24 DUP3 ADD MSTORE PUSH21 0x111C985DC8185B1C9958591E48195E1958DD5D1959 PUSH1 0x5A SHL PUSH1 0x44 DUP3 ADD MSTORE PUSH1 0x64 SWAP1 REVERT JUMPDEST ISZERO PUSH2 0x1B61 JUMPI JUMP JUMPDEST PUSH1 0x40 MLOAD PUSH3 0x461BCD PUSH1 0xE5 SHL DUP2 MSTORE PUSH1 0x20 PUSH1 0x4 DUP3 ADD MSTORE PUSH1 0x1D PUSH1 0x24 DUP3 ADD MSTORE PUSH32 0x4E6F207469636B65747320736F6C6420666F7220746869732064726177000000 PUSH1 0x44 DUP3 ADD MSTORE PUSH1 0x64 SWAP1 REVERT JUMPDEST SWAP1 PUSH1 0x40 MLOAD SWAP2 DUP3 DUP2 SLOAD SWAP2 DUP3 DUP3 MSTORE PUSH1 0x20 SWAP3 DUP4 DUP4 ADD SWAP2 PUSH1 0x0 MSTORE DUP4 PUSH1 0x0 KECCAK256 SWAP4 PUSH1 0x0 SWAP1 JUMPDEST DUP3 DUP3 LT PUSH2 0x1BDB JUMPI POP POP POP PUSH2 0x1A40 SWAP3 POP SUB DUP4 PUSH2 0x199D JUMP JUMPDEST DUP6 SLOAD DUP5 MSTORE PUSH1 0x1 SWAP6 DUP7 ADD SWAP6 DUP9 SWAP6 POP SWAP4 DUP2 ADD SWAP4 SWAP1 SWAP2 ADD SWAP1 PUSH2 0x1BC5 JUMP JUMPDEST DUP1 MLOAD DUP3 LT ISZERO PUSH2 0x1834 JUMPI PUSH1 0x20 SWAP2 PUSH1 0x5 SHL ADD ADD SWAP1 JUMP JUMPDEST PUSH1 0x40 MLOAD SWAP2 SWAP1 PUSH1 0x0 DUP4 JUMPDEST PUSH1 0x5 DUP3 LT PUSH2 0x1C26 JUMPI POP POP POP PUSH2 0x1A40 DUP3 PUSH2 0x196B JUMP JUMPDEST PUSH1 0x1 PUSH1 0x20 DUP2 SWAP3 DUP6 SLOAD DUP2 MSTORE ADD SWAP4 ADD SWAP2 ADD SWAP1 SWAP2 PUSH2 0x1C12 JUMP JUMPDEST RETURNDATASIZE ISZERO PUSH2 0x1C77 JUMPI RETURNDATASIZE SWAP1 PUSH8 0xFFFFFFFFFFFFFFFF DUP3 GT PUSH2 0x1987 JUMPI PUSH1 0x40 MLOAD SWAP2 PUSH2 0x1C6B PUSH1 0x1F DUP3 ADD PUSH1 0x1F NOT AND PUSH1 0x20 ADD DUP5 PUSH2 0x199D JUMP JUMPDEST DUP3 MSTORE RETURNDATASIZE PUSH1 0x0 PUSH1 0x20 DUP5 ADD RETURNDATACOPY JUMP JUMPDEST PUSH1 0x60 SWAP1 JUMP JUMPDEST PUSH1 0x3 DUP1 SLOAD PUSH1 0x0 DUP2 DUP2 MSTORE PUSH1 0x9 PUSH1 0x20 SWAP1 DUP2 MSTORE PUSH1 0x40 DUP1 DUP4 KECCAK256 SWAP4 DUP5 SSTORE TIMESTAMP PUSH1 0x6 DUP6 ADD SSTORE PUSH1 0x5 DUP1 SLOAD PUSH1 0x7 DUP7 ADD SWAP1 DUP2 SSTORE PUSH1 0xA DUP1 DUP8 ADD DUP1 SLOAD PUSH1 0x1 PUSH1 0x1 PUSH1 0xA8 SHL SUB NOT AND PUSH1 0x1 PUSH1 0x1 PUSH1 0xA0 SHL SUB SWAP1 SWAP12 AND SWAP11 DUP12 OR PUSH1 0x1 PUSH1 0xA0 SHL OR SWAP1 SSTORE SWAP10 SWAP9 SWAP7 SWAP8 SWAP5 SWAP7 SWAP6 SWAP5 SWAP4 PUSH1 0x1 SWAP4 SWAP3 SWAP2 DUP5 DUP8 ADD DUP10 JUMPDEST DUP5 DUP2 LT PUSH2 0x2106 JUMPI POP POP DUP3 SLOAD DUP13 DUP2 MUL SWAP1 DUP14 DUP2 DUP4 DIV EQ SWAP1 ISZERO OR ISZERO PUSH2 0x20F2 JUMPI PUSH8 0x16345785D8A0000 SWAP1 PUSH2 0x2710 SWAP1 DIV DUP2 DUP2 LT ISZERO PUSH2 0x20CE JUMPI POP DUP1 SWAP6 JUMPDEST DUP2 PUSH1 0x9 DUP11 ADD SSTORE DUP12 SLOAD DUP12 MSTORE PUSH1 0xC DUP5 MSTORE DUP14 DUP2 DUP8 DUP14 DUP13 DUP13 PUSH2 0x1D35 DUP5 DUP5 KECCAK256 PUSH2 0x1BA6 JUMP JUMPDEST SWAP6 DUP4 SWAP6 JUMPDEST PUSH2 0x2042 JUMPI JUMPDEST POP POP POP POP POP POP POP POP PUSH2 0x1D50 SWAP2 SLOAD PUSH2 0x1A6F JUMP JUMPDEST DUP3 DUP10 MSTORE PUSH1 0xB DUP8 ADD DUP1 DUP4 MSTORE DUP5 DUP11 KECCAK256 SLOAD SWAP2 SWAP4 SWAP2 DUP5 SWAP1 ISZERO PUSH2 0x2036 JUMPI PUSH1 0x32 DUP2 MUL DUP2 DUP2 DIV PUSH1 0x32 EQ DUP3 ISZERO OR ISZERO PUSH2 0x2022 JUMPI PUSH2 0x1DAF SWAP2 DUP11 DUP9 PUSH1 0x64 DUP16 SWAP5 DIV SWAP4 DUP8 DUP2 MSTORE DUP7 DUP10 MSTORE PUSH1 0xC PUSH2 0x1D9B DUP4 DUP4 KECCAK256 SLOAD DUP8 PUSH2 0x1A4F JUMP JUMPDEST SWAP4 DUP10 DUP4 MSTORE ADD DUP10 MSTORE KECCAK256 SSTORE DUP2 PUSH1 0x8 DUP13 ADD SSTORE PUSH2 0x1A6F JUMP JUMPDEST SWAP1 DUP11 DUP4 SSTORE JUMPDEST PUSH1 0x4 SWAP14 DUP15 DUP13 MSTORE DUP2 DUP6 MSTORE DUP7 DUP13 KECCAK256 SLOAD PUSH2 0x1FE5 JUMPI JUMPDEST DUP13 DUP13 MSTORE DUP2 DUP6 MSTORE DUP7 DUP13 KECCAK256 SLOAD PUSH2 0x1F88 JUMPI JUMPDEST PUSH1 0x2 DUP13 MSTORE DUP2 DUP6 MSTORE DUP7 DUP13 KECCAK256 SLOAD PUSH2 0x1EEF JUMPI JUMPDEST POP POP SWAP3 PUSH32 0xEF45E93530E4CCFBB8470F48061A7C165F35B97F384EC20E23BA3DB6F819F3EC SWAP6 SWAP3 PUSH2 0x100 SWAP6 SWAP3 DUP6 PUSH1 0x8 SWAP13 SWAP12 SWAP11 SWAP10 SWAP7 PUSH2 0x1EDB JUMPI JUMPDEST POP POP DUP4 ISZERO ISZERO DUP1 PUSH2 0x1ED1 JUMPI JUMPDEST PUSH2 0x1E8A JUMPI JUMPDEST POP PUSH2 0x1E41 DUP12 SLOAD SWAP11 DUP12 SWAP9 ADD SLOAD SWAP3 MLOAD DUP1 SWAP6 PUSH2 0x18B6 JUMP JUMPDEST PUSH1 0xA0 DUP5 ADD MSTORE PUSH1 0xC0 DUP4 ADD MSTORE PUSH1 0xE0 DUP3 ADD MSTORE LOG3 TIMESTAMP PUSH1 0x7 SSTORE PUSH3 0x49D40 TIMESTAMP ADD SWAP1 DUP2 TIMESTAMP GT PUSH2 0x1E77 JUMPI POP PUSH2 0x1E73 SWAP3 SWAP4 SWAP5 POP PUSH1 0x8 SSTORE PUSH2 0x1936 JUMP JUMPDEST SWAP1 SSTORE JUMP JUMPDEST PUSH4 0x4E487B71 PUSH1 0xE0 SHL DUP2 MSTORE PUSH1 0x11 DUP7 MSTORE PUSH1 0x24 SWAP1 REVERT JUMPDEST DUP10 DUP1 DUP1 DUP1 DUP8 DUP14 GAS CALL PUSH2 0x1E9A PUSH2 0x1C3C JUMP JUMPDEST POP ISZERO PUSH2 0x1E2D JUMPI DUP9 PUSH32 0xD2D0680D503BEFA049FBBB327D7CDB8ACE83B63ECA2A317B8E0CB4C74CDE5DA2 DUP14 SLOAD SWAP3 DUP6 MLOAD DUP8 DUP2 MSTORE LOG3 CODESIZE PUSH2 0x1E2D JUMP JUMPDEST POP DUP4 SELFBALANCE LT ISZERO PUSH2 0x1E28 JUMP JUMPDEST PUSH2 0x1EE6 SWAP1 DUP3 SLOAD PUSH2 0x1A42 JUMP JUMPDEST SWAP1 SSTORE CODESIZE DUP1 PUSH2 0x1E1D JUMP JUMPDEST DUP1 DUP7 SWAP4 SWAP3 SWAP4 MUL SWAP1 DUP7 DUP3 DIV EQ DUP7 ISZERO OR ISZERO PUSH2 0x1F75 JUMPI SWAP3 PUSH2 0x1F63 DUP11 SWAP10 SWAP7 SWAP4 PUSH32 0xEF45E93530E4CCFBB8470F48061A7C165F35B97F384EC20E23BA3DB6F819F3EC SWAP10 SWAP7 SWAP4 DUP15 SWAP14 SWAP13 PUSH1 0x8 SWAP16 SWAP11 PUSH2 0x100 SWAP12 PUSH1 0x64 DUP3 SWAP11 DIV SWAP5 PUSH1 0x2 DUP3 MSTORE DUP9 MSTORE PUSH1 0xC PUSH2 0x1F54 DUP4 DUP4 KECCAK256 SLOAD DUP8 PUSH2 0x1A4F JUMP JUMPDEST SWAP4 PUSH1 0x2 DUP4 MSTORE ADD DUP9 MSTORE KECCAK256 SSTORE PUSH2 0x1A6F JUMP JUMPDEST SWAP3 SWAP6 SWAP9 SWAP10 SWAP11 SWAP12 POP SWAP3 SWAP6 DUP2 SWAP5 SWAP8 POP PUSH2 0x1DE5 JUMP JUMPDEST PUSH4 0x4E487B71 PUSH1 0xE0 SHL DUP13 MSTORE PUSH1 0x11 DUP16 MSTORE PUSH1 0x24 DUP13 REVERT JUMPDEST SWAP2 PUSH1 0xF DUP7 MUL DUP7 DUP2 DIV PUSH1 0xF EQ DUP8 ISZERO OR ISZERO PUSH2 0x1FD1 JUMPI PUSH2 0x1FCB SWAP2 DUP15 DUP10 DUP16 PUSH1 0xC DUP16 SWAP6 PUSH1 0x64 SWAP1 DIV SWAP6 DUP5 DUP4 MSTORE DUP9 DUP13 MSTORE PUSH2 0x1FBE DUP5 DUP5 KECCAK256 SLOAD DUP9 PUSH2 0x1A4F JUMP JUMPDEST SWAP5 DUP4 MSTORE ADD DUP11 MSTORE KECCAK256 SSTORE PUSH2 0x1A6F JUMP JUMPDEST SWAP2 PUSH2 0x1DD5 JUMP JUMPDEST DUP16 DUP14 PUSH1 0x11 PUSH1 0x24 SWAP3 PUSH4 0x4E487B71 PUSH1 0xE0 SHL DUP4 MSTORE MSTORE REVERT JUMPDEST SWAP2 PUSH1 0x14 DUP7 MUL DUP7 DUP2 DIV PUSH1 0x14 EQ DUP8 ISZERO OR ISZERO PUSH2 0x1FD1 JUMPI DUP16 SWAP2 PUSH2 0x201C SWAP3 DUP10 DUP16 PUSH1 0xC DUP16 SWAP6 PUSH1 0x64 SWAP1 DIV SWAP6 DUP5 DUP4 MSTORE DUP9 DUP13 MSTORE PUSH2 0x1FBE DUP5 DUP5 KECCAK256 SLOAD DUP9 PUSH2 0x1A4F JUMP JUMPDEST SWAP2 PUSH2 0x1DC6 JUMP JUMPDEST PUSH4 0x4E487B71 PUSH1 0xE0 SHL DUP13 MSTORE PUSH1 0x11 PUSH1 0x4 MSTORE PUSH1 0x24 DUP13 REVERT JUMPDEST SWAP1 DUP11 PUSH1 0x8 DUP11 ADD SSTORE PUSH2 0x1DB4 JUMP JUMPDEST SWAP1 SWAP2 SWAP3 SWAP4 SWAP5 SWAP6 SWAP7 SWAP8 DUP8 MLOAD DUP8 LT ISZERO PUSH2 0x20C2 JUMPI POP SWAP2 PUSH2 0x2083 DUP7 SWAP5 SWAP3 PUSH2 0x2097 SWAP7 SWAP5 PUSH2 0x206C DUP11 SWAP10 DUP13 SWAP12 PUSH2 0x1BF5 JUMP JUMPDEST MLOAD DUP6 MSTORE DUP13 MSTORE PUSH2 0x207E DUP10 DUP7 DUP7 KECCAK256 ADD PUSH2 0x1C09 JUMP JUMPDEST PUSH2 0x2384 JUMP JUMPDEST SWAP1 PUSH1 0x2 DUP3 LT ISZERO PUSH2 0x20A4 JUMPI JUMPDEST POP POP POP POP PUSH2 0x1936 JUMP JUMPDEST DUP16 DUP14 DUP13 DUP13 DUP12 SWAP4 DUP14 SWAP9 PUSH2 0x1D39 JUMP JUMPDEST PUSH1 0xB SWAP2 DUP4 MSTORE ADD DUP10 MSTORE KECCAK256 PUSH2 0x20B7 DUP2 SLOAD PUSH2 0x1936 JUMP JUMPDEST SWAP1 SSTORE DUP9 DUP15 CODESIZE DUP15 PUSH2 0x208E JUMP JUMPDEST SWAP8 POP SWAP1 DUP5 SWAP4 SWAP3 SWAP2 PUSH2 0x1D3E JUMP JUMPDEST SWAP6 SWAP1 POP PUSH8 0x8AC7230489E80000 DUP1 DUP8 GT PUSH2 0x20EA JUMPI JUMPDEST POP DUP6 SWAP1 PUSH2 0x1D16 JUMP JUMPDEST SWAP6 POP CODESIZE PUSH2 0x20E2 JUMP JUMPDEST PUSH4 0x4E487B71 PUSH1 0xE0 SHL DUP11 MSTORE PUSH1 0x11 PUSH1 0x4 MSTORE PUSH1 0x24 DUP11 REVERT JUMPDEST DUP1 PUSH2 0x1323 PUSH2 0x2117 PUSH2 0x2122 SWAP4 DUP12 PUSH2 0x19F7 JUMP JUMPDEST MLOAD PUSH2 0x130A DUP4 DUP7 PUSH2 0x1A08 JUMP JUMPDEST PUSH2 0x1CDF JUMP JUMPDEST ISZERO PUSH2 0x212E JUMPI JUMP JUMPDEST PUSH1 0x40 MLOAD PUSH3 0x461BCD PUSH1 0xE5 SHL DUP2 MSTORE PUSH1 0x20 PUSH1 0x4 DUP3 ADD MSTORE PUSH1 0x15 PUSH1 0x24 DUP3 ADD MSTORE PUSH21 0x111C985DC81B9BDD08195E1958DD5D1959081E595D PUSH1 0x5A SHL PUSH1 0x44 DUP3 ADD MSTORE PUSH1 0x64 SWAP1 REVERT JUMPDEST PUSH8 0xFFFFFFFFFFFFFFFF DUP2 GT PUSH2 0x1987 JUMPI PUSH1 0x5 SHL PUSH1 0x20 ADD SWAP1 JUMP JUMPDEST SWAP1 PUSH2 0x218D DUP3 PUSH2 0x216B JUMP JUMPDEST PUSH2 0x219A PUSH1 0x40 MLOAD SWAP2 DUP3 PUSH2 0x199D JUMP JUMPDEST DUP3 DUP2 MSTORE DUP1 SWAP3 PUSH2 0x21AB PUSH1 0x1F NOT SWAP2 PUSH2 0x216B JUMP JUMPDEST ADD SWAP1 PUSH1 0x20 CALLDATASIZE SWAP2 ADD CALLDATACOPY JUMP JUMPDEST PUSH1 0x3 SLOAD SWAP1 PUSH1 0x0 SWAP2 DUP3 MSTORE PUSH1 0x9 PUSH1 0x20 MSTORE PUSH1 0xFF PUSH1 0xA PUSH1 0x40 DUP5 KECCAK256 ADD SLOAD PUSH1 0xA0 SHR AND DUP1 ISZERO PUSH2 0x2203 JUMPI JUMPDEST PUSH2 0x21FC JUMPI PUSH1 0x8 SLOAD SWAP1 TIMESTAMP DUP3 GT PUSH2 0x21EE JUMPI PUSH1 0x1 SWAP3 SWAP2 SWAP1 JUMP JUMPDEST PUSH2 0x21F8 TIMESTAMP DUP4 PUSH2 0x1A6F JUMP JUMPDEST SWAP2 SWAP1 JUMP JUMPDEST PUSH1 0x8 SLOAD DUP3 SWAP2 JUMP JUMPDEST POP PUSH1 0xC PUSH1 0x20 MSTORE PUSH1 0x40 DUP3 KECCAK256 SLOAD ISZERO PUSH2 0x21D8 JUMP JUMPDEST PUSH1 0x5 SLOAD PUSH1 0xA DUP2 MUL SWAP1 DUP1 DUP3 DIV PUSH1 0xA EQ SWAP1 ISZERO OR ISZERO PUSH2 0x1945 JUMPI PUSH8 0x16345785D8A0000 SWAP1 PUSH2 0x2710 SWAP1 DIV DUP2 DUP2 LT ISZERO PUSH2 0x2245 JUMPI POP SWAP1 JUMP JUMPDEST SWAP1 POP PUSH8 0x8AC7230489E80000 DUP1 DUP3 GT PUSH2 0x225B JUMPI POP SWAP1 JUMP JUMPDEST SWAP1 POP SWAP1 JUMP JUMPDEST PUSH1 0x0 SWAP1 DUP2 JUMPDEST PUSH1 0x5 DUP1 DUP3 LT ISZERO PUSH2 0x237E JUMPI PUSH1 0x1 DUP1 PUSH2 0x227C DUP5 DUP7 PUSH2 0x19F7 JUMP JUMPDEST MLOAD LT ISZERO DUP1 PUSH2 0x2369 JUMPI JUMPDEST ISZERO PUSH2 0x232D JUMPI DUP3 ADD DUP1 DUP4 GT PUSH2 0x2319 JUMPI JUMPDEST DUP2 DUP2 LT PUSH2 0x22AB JUMPI POP POP PUSH2 0x22A6 SWAP1 PUSH2 0x1936 JUMP JUMPDEST PUSH2 0x2265 JUMP JUMPDEST PUSH2 0x22B5 DUP4 DUP6 PUSH2 0x19F7 JUMP JUMPDEST MLOAD PUSH2 0x22C0 DUP3 DUP7 PUSH2 0x19F7 JUMP JUMPDEST MLOAD EQ PUSH2 0x22D4 JUMPI PUSH2 0x22CF SWAP1 PUSH2 0x1936 JUMP JUMPDEST PUSH2 0x2294 JUMP JUMPDEST PUSH1 0x40 MLOAD PUSH3 0x461BCD PUSH1 0xE5 SHL DUP2 MSTORE PUSH1 0x20 PUSH1 0x4 DUP3 ADD MSTORE PUSH1 0x1D PUSH1 0x24 DUP3 ADD MSTORE PUSH32 0x4475706C6963617465206E756D62657273206E6F7420616C6C6F776564000000 PUSH1 0x44 DUP3 ADD MSTORE PUSH1 0x64 SWAP1 REVERT JUMPDEST PUSH4 0x4E487B71 PUSH1 0xE0 SHL DUP6 MSTORE PUSH1 0x11 PUSH1 0x4 MSTORE PUSH1 0x24 DUP6 REVERT JUMPDEST PUSH1 0x40 MLOAD PUSH3 0x461BCD PUSH1 0xE5 SHL DUP2 MSTORE PUSH1 0x20 PUSH1 0x4 DUP3 ADD MSTORE PUSH1 0x14 PUSH1 0x24 DUP3 ADD MSTORE PUSH20 0x496E76616C6964206E756D6265722072616E6765 PUSH1 0x60 SHL PUSH1 0x44 DUP3 ADD MSTORE PUSH1 0x64 SWAP1 REVERT JUMPDEST POP PUSH1 0x23 PUSH2 0x2376 DUP5 DUP7 PUSH2 0x19F7 JUMP JUMPDEST MLOAD GT ISZERO PUSH2 0x2285 JUMP JUMPDEST POP POP POP POP JUMP JUMPDEST SWAP1 PUSH1 0x0 SWAP1 DUP2 JUMPDEST PUSH1 0x5 DUP1 DUP3 LT ISZERO PUSH2 0x23EF JUMPI PUSH1 0x0 JUMPDEST DUP2 DUP2 LT PUSH2 0x23AF JUMPI JUMPDEST POP POP PUSH2 0x23AA SWAP1 PUSH2 0x1936 JUMP JUMPDEST PUSH2 0x238A JUMP JUMPDEST PUSH2 0x23B9 DUP4 DUP8 PUSH2 0x19F7 JUMP JUMPDEST MLOAD PUSH2 0x23C4 DUP3 DUP7 PUSH2 0x19F7 JUMP JUMPDEST MLOAD EQ PUSH2 0x23D8 JUMPI PUSH2 0x23D3 SWAP1 PUSH2 0x1936 JUMP JUMPDEST PUSH2 0x2397 JUMP JUMPDEST POP POP SWAP2 PUSH2 0x23E7 PUSH2 0x23AA SWAP2 PUSH2 0x1936 JUMP JUMPDEST SWAP3 SWAP1 CODESIZE PUSH2 0x239F JUMP JUMPDEST POP POP POP SWAP1 POP SWAP1 JUMP JUMPDEST PUSH1 0x40 PUSH1 0xA0 DUP2 MLOAD PUSH2 0x2406 DUP2 PUSH2 0x196B JUMP JUMPDEST CALLDATASIZE SWAP1 CALLDATACOPY DUP1 MLOAD PUSH8 0xFFFFFFFFFFFFFFFF PUSH2 0x480 DUP3 ADD DUP2 DUP2 GT DUP4 DUP3 LT OR PUSH2 0x1987 JUMPI DUP4 MSTORE PUSH1 0x23 SWAP3 DUP4 DUP4 MSTORE PUSH1 0x20 SWAP3 PUSH2 0x460 CALLDATASIZE DUP6 DUP4 ADD CALLDATACOPY PUSH1 0x0 JUMPDEST DUP6 DUP2 LT PUSH2 0x266B JUMPI POP DUP2 MLOAD SWAP5 PUSH2 0x244E DUP7 PUSH2 0x196B JUMP JUMPDEST PUSH1 0xA0 CALLDATASIZE DUP8 CALLDATACOPY SWAP2 PUSH1 0x3 SLOAD SWAP5 PUSH1 0x4 SWAP6 DUP7 SLOAD SWAP6 SELFBALANCE SWAP1 GAS SWAP1 DUP6 MLOAD SWAP2 DUP6 DUP4 ADD SWAP4 TIMESTAMP DUP6 MSTORE PREVRANDAO DUP9 DUP6 ADD MSTORE PUSH1 0x60 SWAP11 NUMBER DUP13 DUP7 ADD MSTORE PUSH1 0x80 SWAP7 COINBASE DUP14 SHL DUP9 DUP8 ADD MSTORE CALLER DUP14 SHL PUSH1 0x94 DUP8 ADD MSTORE PUSH1 0xA8 DUP7 ADD MSTORE PUSH1 0xC8 DUP6 ADD MSTORE PUSH1 0xE8 DUP5 ADD MSTORE PUSH2 0x108 SWAP1 DUP2 DUP5 ADD MSTORE DUP3 MSTORE PUSH2 0x140 DUP3 ADD SWAP1 DUP3 DUP3 LT SWAP1 DUP3 GT OR PUSH2 0x2656 JUMPI DUP6 MSTORE MLOAD SWAP1 KECCAK256 SWAP3 PUSH1 0x0 SWAP6 JUMPDEST PUSH1 0x5 DUP8 LT PUSH2 0x25AA JUMPI POP POP POP POP POP POP POP POP PUSH1 0x0 JUMPDEST DUP2 DUP2 LT PUSH2 0x24DE JUMPI POP POP SWAP1 JUMP JUMPDEST SWAP2 SWAP1 SWAP3 PUSH1 0x0 JUMPDEST PUSH1 0x5 DUP5 DUP2 SUB SWAP1 DUP2 GT PUSH2 0x2595 JUMPI PUSH1 0x0 NOT DUP2 ADD SWAP1 DUP2 GT PUSH2 0x2595 JUMPI DUP2 LT ISZERO PUSH2 0x2583 JUMPI PUSH2 0x250D DUP2 DUP5 PUSH2 0x19F7 JUMP JUMPDEST MLOAD PUSH1 0x1 DUP3 ADD SWAP1 DUP2 DUP4 GT PUSH2 0x256E JUMPI SWAP1 PUSH2 0x2537 SWAP3 SWAP2 PUSH2 0x252A DUP3 DUP8 PUSH2 0x19F7 JUMP JUMPDEST MLOAD LT PUSH2 0x253C JUMPI JUMPDEST POP PUSH2 0x1936 JUMP JUMPDEST PUSH2 0x24E4 JUMP JUMPDEST PUSH2 0x2567 PUSH2 0x2549 DUP4 DUP8 PUSH2 0x19F7 JUMP JUMPDEST MLOAD SWAP2 PUSH2 0x2555 DUP2 DUP9 PUSH2 0x19F7 JUMP JUMPDEST MLOAD PUSH2 0x2560 DUP6 DUP10 PUSH2 0x19F7 JUMP JUMPDEST MSTORE DUP7 PUSH2 0x19F7 JUMP JUMPDEST MSTORE CODESIZE PUSH2 0x2531 JUMP JUMPDEST PUSH1 0x11 DUP8 PUSH4 0x4E487B71 PUSH1 0xE0 SHL PUSH1 0x0 MSTORE MSTORE PUSH1 0x24 PUSH1 0x0 REVERT JUMPDEST POP SWAP3 SWAP1 SWAP2 PUSH2 0x2590 SWAP1 PUSH2 0x1936 JUMP JUMPDEST PUSH2 0x24D2 JUMP JUMPDEST PUSH1 0x11 DUP7 PUSH4 0x4E487B71 PUSH1 0xE0 SHL PUSH1 0x0 MSTORE MSTORE PUSH1 0x24 PUSH1 0x0 REVERT JUMPDEST PUSH2 0x25B4 DUP8 TIMESTAMP PUSH2 0x1A42 JUMP JUMPDEST DUP3 MLOAD DUP6 DUP2 ADD SWAP2 DUP8 DUP4 MSTORE DUP10 DUP6 DUP4 ADD MSTORE DUP11 DUP3 ADD MSTORE DUP3 DUP6 DUP3 ADD MSTORE DUP5 DUP2 MSTORE PUSH2 0x25D7 DUP2 PUSH2 0x196B JUMP JUMPDEST MLOAD SWAP1 KECCAK256 DUP2 ISZERO PUSH2 0x2641 JUMPI DUP2 SWAP1 MOD PUSH2 0x25ED DUP2 DUP9 PUSH2 0x1BF5 JUMP JUMPDEST MLOAD PUSH2 0x25F8 DUP10 DUP14 PUSH2 0x19F7 JUMP JUMPDEST MSTORE PUSH1 0x0 NOT DUP3 ADD SWAP2 DUP3 GT PUSH2 0x262C JUMPI SWAP1 PUSH2 0x2626 SWAP2 PUSH2 0x261F PUSH2 0x2617 DUP4 DUP11 PUSH2 0x1BF5 JUMP JUMPDEST MLOAD SWAP2 DUP10 PUSH2 0x1BF5 JUMP JUMPDEST MSTORE SWAP7 PUSH2 0x1936 JUMP JUMPDEST SWAP6 PUSH2 0x24BF JUMP JUMPDEST PUSH1 0x11 DUP11 PUSH4 0x4E487B71 PUSH1 0xE0 SHL PUSH1 0x0 MSTORE MSTORE PUSH1 0x24 PUSH1 0x0 REVERT JUMPDEST PUSH1 0x12 DUP11 PUSH4 0x4E487B71 PUSH1 0xE0 SHL PUSH1 0x0 MSTORE MSTORE PUSH1 0x24 PUSH1 0x0 REVERT JUMPDEST PUSH1 0x41 DUP11 PUSH4 0x4E487B71 PUSH1 0xE0 SHL PUSH1 0x0 MSTORE MSTORE PUSH1 0x24 PUSH1 0x0 REVERT JUMPDEST PUSH1 0x1 DUP2 ADD SWAP1 DUP2 DUP2 GT PUSH2 0x1945 JUMPI PUSH2 0x2685 SWAP2 PUSH2 0xA6B DUP3 DUP6 PUSH2 0x1BF5 JUMP JUMPDEST PUSH2 0x243A JUMP INVALID LOG2 PUSH5 0x6970667358 0x22 SLT KECCAK256 PUSH6 0x6D3846510020 0xCA 0x4E PUSH27 0x13F311DD8720FB7F561DDA50D88AB843F45F51CB25EE64736F6C63 NUMBER STOP ADDMOD SGT STOP CALLER "},"methodIdentifiers":{"ADMIN_FEE_PERCENTAGE()":"5c221034","DRAW_INTERVAL()":"c6b749e2","EXECUTOR_REWARD_PERCENTAGE()":"43f02364","FIFTH_PRIZE_PERCENTAGE()":"2b61e99f","FOURTH_PRIZE_PERCENTAGE()":"610a14d5","JACKPOT_PERCENTAGE()":"a6858ee6","MAX_EXECUTOR_REWARD()":"79b37ebd","MAX_NUMBER()":"fea9b572","MIN_EXECUTOR_REWARD()":"67eeac33","MIN_NUMBER()":"dd8ab8f9","NUMBERS_PER_TICKET()":"fab14e8e","SECOND_PRIZE_PERCENTAGE()":"c4aa7245","THIRD_PRIZE_PERCENTAGE()":"2599399e","TICKET_PRICE()":"1a95f15f","accumulatedJackpot()":"54c0273e","adminBalance()":"9858befb","canExecuteDrawPublic()":"1fdeb756","claimPrize(uint256)":"d7098154","currentDrawId()":"bca78fab","drawTickets(uint256,uint256)":"376c2bbe","draws(uint256)":"0cc36c36","emergencyRefundAll()":"4702a48b","executeDraw()":"2d49a7bf","executeDrawManual(uint256[5])":"ef303a20","executeDrawPublic()":"0fb63d08","getCurrentExecutorReward()":"85719709","getDraw(uint256)":"be6307c8","getDrawWinners(uint256)":"b0574bb8","getLotteryStats()":"7517f5ff","getPlayerStats(address)":"4fd66eae","getPrizeAmount(uint256,uint256)":"6abe4b1a","getRolloverAmount()":"d3771568","getTicket(uint256)":"7dc379fa","getWinnersCount(uint256,uint256)":"f1082b76","lastDrawTime()":"5cbbd635","nextDrawTime()":"74f47a7a","owner()":"8da5cb5b","pause()":"8456cb59","paused()":"5c975abb","playerDeposits(address)":"df6ffa87","playerStats(address)":"cdafbbb6","purchaseTickets(uint256[5][])":"456722a2","renounceOwnership()":"715018a6","tickets(uint256)":"50b44712","totalTicketsSold()":"34701db8","transferOwnership(address)":"f2fde38b","unpause()":"3f4ba83a","withdrawAdminFees()":"0419b45a"}}}}}