{"contracts/KasDrawLottery.sol":{"KasDrawLottery":{"abi":[{"inputs":[],"stateMutability":"nonpayable","type":"constructor"},{"anonymous":false,"inputs":[{"indexed":true,"internalType":"address","name":"admin","type":"address"},{"indexed":false,"internalType":"uint256","name":"amount","type":"uint256"}],"name":"AdminFeesWithdrawn","type":"event"},{"anonymous":false,"inputs":[{"indexed":true,"internalType":"uint256","name":"drawId","type":"uint256"},{"indexed":false,"internalType":"uint256[6]","name":"winningNumbers","type":"uint256[6]"},{"indexed":false,"internalType":"uint256","name":"totalPrizePool","type":"uint256"},{"indexed":false,"internalType":"uint256","name":"jackpotAmount","type":"uint256"}],"name":"DrawExecuted","type":"event"},{"anonymous":false,"inputs":[{"indexed":true,"internalType":"address","name":"previousOwner","type":"address"},{"indexed":true,"internalType":"address","name":"newOwner","type":"address"}],"name":"OwnershipTransferred","type":"event"},{"anonymous":false,"inputs":[{"indexed":false,"internalType":"address","name":"account","type":"address"}],"name":"Paused","type":"event"},{"anonymous":false,"inputs":[{"indexed":true,"internalType":"address","name":"player","type":"address"},{"indexed":true,"internalType":"uint256","name":"ticketId","type":"uint256"},{"indexed":false,"internalType":"uint256","name":"matches","type":"uint256"},{"indexed":false,"internalType":"uint256","name":"amount","type":"uint256"}],"name":"PrizeClaimed","type":"event"},{"anonymous":false,"inputs":[{"indexed":true,"internalType":"address","name":"player","type":"address"},{"indexed":true,"internalType":"uint256","name":"ticketId","type":"uint256"},{"indexed":true,"internalType":"uint256","name":"drawId","type":"uint256"},{"indexed":false,"internalType":"uint256[6]","name":"numbers","type":"uint256[6]"}],"name":"TicketPurchased","type":"event"},{"anonymous":false,"inputs":[{"indexed":false,"internalType":"address","name":"account","type":"address"}],"name":"Unpaused","type":"event"},{"inputs":[],"name":"ADMIN_FEE_PERCENTAGE","outputs":[{"internalType":"uint256","name":"","type":"uint256"}],"stateMutability":"view","type":"function"},{"inputs":[],"name":"FOURTH_PRIZE_PERCENTAGE","outputs":[{"internalType":"uint256","name":"","type":"uint256"}],"stateMutability":"view","type":"function"},{"inputs":[],"name":"JACKPOT_PERCENTAGE","outputs":[{"internalType":"uint256","name":"","type":"uint256"}],"stateMutability":"view","type":"function"},{"inputs":[],"name":"MAX_NUMBER","outputs":[{"internalType":"uint256","name":"","type":"uint256"}],"stateMutability":"view","type":"function"},{"inputs":[],"name":"MIN_NUMBER","outputs":[{"internalType":"uint256","name":"","type":"uint256"}],"stateMutability":"view","type":"function"},{"inputs":[],"name":"NUMBERS_PER_TICKET","outputs":[{"internalType":"uint256","name":"","type":"uint256"}],"stateMutability":"view","type":"function"},{"inputs":[],"name":"SECOND_PRIZE_PERCENTAGE","outputs":[{"internalType":"uint256","name":"","type":"uint256"}],"stateMutability":"view","type":"function"},{"inputs":[],"name":"THIRD_PRIZE_PERCENTAGE","outputs":[{"internalType":"uint256","name":"","type":"uint256"}],"stateMutability":"view","type":"function"},{"inputs":[],"name":"TICKET_PRICE","outputs":[{"internalType":"uint256","name":"","type":"uint256"}],"stateMutability":"view","type":"function"},{"inputs":[],"name":"accumulatedJackpot","outputs":[{"internalType":"uint256","name":"","type":"uint256"}],"stateMutability":"view","type":"function"},{"inputs":[],"name":"adminBalance","outputs":[{"internalType":"uint256","name":"","type":"uint256"}],"stateMutability":"view","type":"function"},{"inputs":[{"internalType":"uint256","name":"ticketId","type":"uint256"}],"name":"claimPrize","outputs":[],"stateMutability":"nonpayable","type":"function"},{"inputs":[],"name":"currentDrawId","outputs":[{"internalType":"uint256","name":"","type":"uint256"}],"stateMutability":"view","type":"function"},{"inputs":[{"internalType":"uint256","name":"","type":"uint256"},{"internalType":"uint256","name":"","type":"uint256"}],"name":"drawTickets","outputs":[{"internalType":"uint256","name":"","type":"uint256"}],"stateMutability":"view","type":"function"},{"inputs":[{"internalType":"uint256","name":"","type":"uint256"}],"name":"draws","outputs":[{"internalType":"uint256","name":"id","type":"uint256"},{"internalType":"uint256","name":"timestamp","type":"uint256"},{"internalType":"uint256","name":"totalPrizePool","type":"uint256"},{"internalType":"uint256","name":"jackpotAmount","type":"uint256"},{"internalType":"bool","name":"executed","type":"bool"}],"stateMutability":"view","type":"function"},{"inputs":[],"name":"executeDraw","outputs":[],"stateMutability":"nonpayable","type":"function"},{"inputs":[{"internalType":"uint256[6]","name":"winningNumbers","type":"uint256[6]"}],"name":"executeDrawManual","outputs":[],"stateMutability":"nonpayable","type":"function"},{"inputs":[{"internalType":"uint256","name":"drawId","type":"uint256"}],"name":"getDraw","outputs":[{"internalType":"uint256","name":"id","type":"uint256"},{"internalType":"uint256[6]","name":"winningNumbers","type":"uint256[6]"},{"internalType":"uint256","name":"timestamp","type":"uint256"},{"internalType":"uint256","name":"totalPrizePool","type":"uint256"},{"internalType":"uint256","name":"jackpotAmount","type":"uint256"},{"internalType":"bool","name":"executed","type":"bool"}],"stateMutability":"view","type":"function"},{"inputs":[{"internalType":"uint256","name":"drawId","type":"uint256"}],"name":"getDrawTickets","outputs":[{"internalType":"uint256[]","name":"","type":"uint256[]"}],"stateMutability":"view","type":"function"},{"inputs":[],"name":"getLotteryState","outputs":[{"internalType":"uint256","name":"_currentDrawId","type":"uint256"},{"internalType":"uint256","name":"_totalTicketsSold","type":"uint256"},{"internalType":"uint256","name":"_accumulatedJackpot","type":"uint256"},{"internalType":"uint256","name":"_adminBalance","type":"uint256"},{"internalType":"bool","name":"_paused","type":"bool"}],"stateMutability":"view","type":"function"},{"inputs":[{"internalType":"address","name":"player","type":"address"}],"name":"getPlayerStats","outputs":[{"internalType":"uint256","name":"totalTickets","type":"uint256"},{"internalType":"uint256","name":"totalWinnings","type":"uint256"},{"internalType":"uint256[]","name":"ticketIds","type":"uint256[]"}],"stateMutability":"view","type":"function"},{"inputs":[{"internalType":"uint256","name":"drawId","type":"uint256"},{"internalType":"uint256","name":"matches","type":"uint256"}],"name":"getPrizeAmount","outputs":[{"internalType":"uint256","name":"","type":"uint256"}],"stateMutability":"view","type":"function"},{"inputs":[{"internalType":"uint256","name":"ticketId","type":"uint256"}],"name":"getTicket","outputs":[{"internalType":"address","name":"player","type":"address"},{"internalType":"uint256[6]","name":"numbers","type":"uint256[6]"},{"internalType":"uint256","name":"drawId","type":"uint256"},{"internalType":"bool","name":"claimed","type":"bool"}],"stateMutability":"view","type":"function"},{"inputs":[{"internalType":"uint256","name":"drawId","type":"uint256"},{"internalType":"uint256","name":"matches","type":"uint256"}],"name":"getWinnersCount","outputs":[{"internalType":"uint256","name":"","type":"uint256"}],"stateMutability":"view","type":"function"},{"inputs":[],"name":"owner","outputs":[{"internalType":"address","name":"","type":"address"}],"stateMutability":"view","type":"function"},{"inputs":[],"name":"pause","outputs":[],"stateMutability":"nonpayable","type":"function"},{"inputs":[],"name":"paused","outputs":[{"internalType":"bool","name":"","type":"bool"}],"stateMutability":"view","type":"function"},{"inputs":[{"internalType":"address","name":"","type":"address"}],"name":"playerStats","outputs":[{"internalType":"uint256","name":"totalTickets","type":"uint256"},{"internalType":"uint256","name":"totalWinnings","type":"uint256"}],"stateMutability":"view","type":"function"},{"inputs":[{"internalType":"uint256[6][]","name":"ticketNumbers","type":"uint256[6][]"}],"name":"purchaseTickets","outputs":[],"stateMutability":"payable","type":"function"},{"inputs":[],"name":"renounceOwnership","outputs":[],"stateMutability":"nonpayable","type":"function"},{"inputs":[{"internalType":"uint256","name":"","type":"uint256"}],"name":"tickets","outputs":[{"internalType":"address","name":"player","type":"address"},{"internalType":"uint256","name":"drawId","type":"uint256"},{"internalType":"bool","name":"claimed","type":"bool"}],"stateMutability":"view","type":"function"},{"inputs":[],"name":"totalTicketsSold","outputs":[{"internalType":"uint256","name":"","type":"uint256"}],"stateMutability":"view","type":"function"},{"inputs":[{"internalType":"address","name":"newOwner","type":"address"}],"name":"transferOwnership","outputs":[],"stateMutability":"nonpayable","type":"function"},{"inputs":[],"name":"unpause","outputs":[],"stateMutability":"nonpayable","type":"function"},{"inputs":[],"name":"withdrawAdminFees","outputs":[],"stateMutability":"nonpayable","type":"function"}],"evm":{"bytecode":{"linkReferences":{},"object":"608060405234801561001057600080fd5b5061001a33610036565b60018080556002805460ff191690556003819055600b55610086565b600080546001600160a01b038381166001600160a01b0319831681178455604051919092169283917f8be0079c531659141344cd1fd0a4f28419497f9722a3daafe3b4186f6b6457e09190a35050565b611f81806100956000396000f3fe6080604052600436106102045760003560e01c8063715018a611610118578063c4aa7245116100a0578063dd8ab8f91161006f578063dd8ab8f91461041d578063f1082b7614610645578063f2fde38b14610681578063fab14e8e146106a1578063fea9b572146106b657600080fd5b8063c4aa7245146105a7578063c9911ea7146105bc578063cdafbbb6146105dc578063d70981541461062557600080fd5b80638da5cb5b116100e75780638da5cb5b1461050c5780639858befb14610534578063a6858ee61461054a578063bca78fab1461055f578063be6307c81461057557600080fd5b8063715018a61461049f5780637940b589146104b45780637dc379fa146104c75780638456cb59146104f757600080fd5b80634fd66eae1161019b5780635c2210341161016a5780635c2210341461041d5780635c975abb14610432578063610a14d5146104555780636abe4b1a1461046a5780636b68c03c1461048a57600080fd5b80634fd66eae1461033a57806350b447121461036957806354c0273e146103da5780635b183c2a146103f057600080fd5b80632d49a7bf116101d75780632d49a7bf146102da57806334701db8146102ef578063376c2bbe146103055780633f4ba83a1461032557600080fd5b80630419b45a146102095780630cc36c36146102205780631a95f15f1461029b5780632599399e146102c5575b600080fd5b34801561021557600080fd5b5061021e6106cb565b005b34801561022c57600080fd5b5061026c61023b366004611c42565b600760208190526000918252604090912080549181015460088201546009830154600a909301549192909160ff1685565b6040805195865260208601949094529284019190915260608301521515608082015260a0015b60405180910390f35b3480156102a757600080fd5b506102b767016345785d8a000081565b604051908152602001610292565b3480156102d157600080fd5b506102b7600f81565b3480156102e657600080fd5b5061021e610822565b3480156102fb57600080fd5b506102b760045481565b34801561031157600080fd5b506102b7610320366004611c5b565b6108fd565b34801561033157600080fd5b5061021e61092e565b34801561034657600080fd5b5061035a610355366004611c7d565b610940565b60405161029293929190611ce8565b34801561037557600080fd5b506103b3610384366004611c42565b60086020819052600091825260409091208054600782015491909201546001600160a01b039092169160ff1683565b604080516001600160a01b0390941684526020840192909252151590820152606001610292565b3480156103e657600080fd5b506102b760055481565b3480156103fc57600080fd5b5061041061040b366004611c42565b6109c3565b6040516102929190611d10565b34801561042957600080fd5b506102b7600181565b34801561043e57600080fd5b5060025460ff166040519015158152602001610292565b34801561046157600080fd5b506102b7600581565b34801561047657600080fd5b506102b7610485366004611c5b565b610a25565b34801561049657600080fd5b5061026c610a49565b3480156104ab57600080fd5b5061021e610a7a565b61021e6104c2366004611d23565b610a8c565b3480156104d357600080fd5b506104e76104e2366004611c42565b610d8f565b6040516102929493929190611dc1565b34801561050357600080fd5b5061021e610e0d565b34801561051857600080fd5b506000546040516001600160a01b039091168152602001610292565b34801561054057600080fd5b506102b760065481565b34801561055657600080fd5b506102b7603c81565b34801561056b57600080fd5b506102b760035481565b34801561058157600080fd5b50610595610590366004611c42565b610e1d565b60405161029296959493929190611df7565b3480156105b357600080fd5b506102b7601481565b3480156105c857600080fd5b5061021e6105d7366004611e34565b610ea7565b3480156105e857600080fd5b506106106105f7366004611c7d565b6009602052600090815260409020805460019091015482565b60408051928352602083019190915201610292565b34801561063157600080fd5b5061021e610640366004611c42565b610f68565b34801561065157600080fd5b506102b7610660366004611c5b565b6000918252600760209081526040808420928452600b909201905290205490565b34801561068d57600080fd5b5061021e61069c366004611c7d565b6112a6565b3480156106ad57600080fd5b506102b7600681565b3480156106c257600080fd5b506102b7603181565b6106d361131c565b600654806107285760405162461bcd60e51b815260206004820152601960248201527f4e6f2061646d696e206665657320746f2077697468647261770000000000000060448201526064015b60405180910390fd5b6000600681905580546040516001600160a01b039091169083908381818185875af1925050503d806000811461077a576040519150601f19603f3d011682016040523d82523d6000602084013e61077f565b606091505b50509050806107d05760405162461bcd60e51b815260206004820152601960248201527f41646d696e20666565207472616e73666572206661696c656400000000000000604482015260640161071f565b6000546001600160a01b03166001600160a01b03167fcdcaff67ac16639664e5f9343c9223a1dc9c972ec367b69ae9fc1325c7be54748360405161081691815260200190565b60405180910390a25050565b61082a61131c565b6003546000908152600760205260409020600a015460ff16156108875760405162461bcd60e51b8152602060048201526015602482015274111c985dc8185b1c9958591e48195e1958dd5d1959605a1b604482015260640161071f565b6003546000908152600a60205260409020546108e55760405162461bcd60e51b815260206004820152601d60248201527f4e6f207469636b65747320736f6c6420666f7220746869732064726177000000604482015260640161071f565b60006108ef611376565b90506108fa816114e2565b50565b600a602052816000526040600020818154811061091957600080fd5b90600052602060002001600091509150505481565b61093661131c565b61093e61188b565b565b6001600160a01b03811660009081526009602090815260408083208054600182015460028301805485518188028101880190965280865287966060969183918301828280156109ae57602002820191906000526020600020905b81548152602001906001019080831161099a575b50505050509050935093509350509193909250565b6000818152600a6020908152604091829020805483518184028101840190945280845260609392830182828015610a1957602002820191906000526020600020905b815481526020019060010190808311610a05575b50505050509050919050565b6000828152600760209081526040808320848452600c019091529020545b92915050565b6000806000806000600354600454600554600654610a6960025460ff1690565b945094509450945094509091929394565b610a8261131c565b61093e60006118dd565b610a9461192d565b610a9c611986565b80610af35760405162461bcd60e51b815260206004820152602160248201527f4d757374207075726368617365206174206c65617374206f6e65207469636b656044820152601d60fa1b606482015260840161071f565b610b058167016345785d8a0000611e72565b3414610b535760405162461bcd60e51b815260206004820152601860248201527f496e636f7272656374207061796d656e7420616d6f756e740000000000000000604482015260640161071f565b60005b81811015610d0857610ba7838383818110610b7357610b73611e89565b905060c0020160068060200260405190810160405280929190826006602002808284376000920191909152506119cc915050565b600b805460009182610bb883611e9f565b90915550600081815260086020526040812080546001600160a01b0319163317815560035460078201559192505b6006811015610c4657858585818110610c0157610c01611e89565b905060c002018160068110610c1857610c18611e89565b6020020135826001018260068110610c3257610c32611e89565b015580610c3e81611e9f565b915050610be6565b506003546000908152600a6020908152604080832080546001818101835591855283852001869055338085526009845291842060028101805492830181558552928420018590558252805491610c9b83611e9f565b909155505060035482337f5324057fb3461d99462ba621fbd5d1b8ac5594839bec55bcc62fb37a35ff3e8d888888818110610cd857610cd8611e89565b905060c00201604051610ceb9190611eb8565b60405180910390a450508080610d0090611e9f565b915050610b56565b508181905060046000828254610d1e9190611ec7565b9091555034905060006064610d34600184611e72565b610d3e9190611ef0565b90506000610d4c8284611f04565b90508160066000828254610d609190611ec7565b925050819055508060056000828254610d799190611ec7565b90915550506001805550610d8b915050565b5050565b6000610d99611c24565b60008381526008602081905260408083208054600782015493820154835160c0810194859052869593946001600160a01b03909316936001860193909260ff169190849060069082845b815481526020019060010190808311610de357505050505092509450945094509450509193509193565b610e1561131c565b61093e611b12565b6000610e27611c24565b600083815260076020819052604080832080549281015460088201546009830154600a840154855160c081019687905288978897889796919560018801959294909360ff90911691869060069082845b815481526020019060010190808311610e7757505050505094509650965096509650965096505091939550919395565b610eaf61131c565b6003546000908152600760205260409020600a015460ff1615610f0c5760405162461bcd60e51b8152602060048201526015602482015274111c985dc8185b1c9958591e48195e1958dd5d1959605a1b604482015260640161071f565b6040805160c0818101909252610f3a91839060069083908390808284376000920191909152506119cc915050565b6040805160c08181019092526108fa91839060069083908390808284376000920191909152506114e2915050565b610f7061192d565b600081815260086020526040902080546001600160a01b03163314610fca5760405162461bcd60e51b815260206004820152601060248201526f2737ba103a34b1b5b2ba1037bbb732b960811b604482015260640161071f565b600881015460ff16156110175760405162461bcd60e51b8152602060048201526015602482015274141c9a5e9948185b1c9958591e4818db185a5b5959605a1b604482015260640161071f565b600781810154600090815260209190915260409020600a015460ff166110775760405162461bcd60e51b8152602060048201526015602482015274111c985dc81b9bdd08195e1958dd5d1959081e595d605a1b604482015260640161071f565b60078181015460009081526020919091526040808220815160c08101928390529092916110f79190600186019060069082845b8154815260200190600101908083116110aa5750506040805160c081019182905293506001880192506006915082845b8154815260200190600101908083116110da575050505050611b4f565b9050600381101561113e5760405162461bcd60e51b81526020600482015260116024820152704e6f207072697a6520746f20636c61696d60781b604482015260640161071f565b6000818152600c83016020526040902054806111925760405162461bcd60e51b8152602060048201526013602482015272139bc81c1c9a5e9948185b5bdd5b9d081cd95d606a1b604482015260640161071f565b60088401805460ff1916600190811790915533600090815260096020526040812090910180548392906111c6908490611ec7565b9091555050604051600090339083908381818185875af1925050503d806000811461120d576040519150601f19603f3d011682016040523d82523d6000602084013e611212565b606091505b505090508061125b5760405162461bcd60e51b8152602060048201526015602482015274141c9a5e99481d1c985b9cd9995c8819985a5b1959605a1b604482015260640161071f565b6040805184815260208101849052879133917f701a77bd5e0b7b1ffffe478c3c19e3caadca855782127fca812c7ccd9646cdc4910160405180910390a350505050506108fa60018055565b6112ae61131c565b6001600160a01b0381166113135760405162461bcd60e51b815260206004820152602660248201527f4f776e61626c653a206e6577206f776e657220697320746865207a65726f206160448201526564647265737360d01b606482015260840161071f565b6108fa816118dd565b6000546001600160a01b0316331461093e5760405162461bcd60e51b815260206004820181905260248201527f4f776e61626c653a2063616c6c6572206973206e6f7420746865206f776e6572604482015260640161071f565b61137e611c24565b611386611c24565b600354600454604080514260208083019190915244828401524360608084019190915233901b6bffffffffffffffffffffffff19166080830152609482019490945260b4808201939093528151808203909301835260d4019052805191012060005b60068110156114da5760008060005b60408051602081018790529081018590526060810182905260800160408051601f19818403018152919052805160209091012094506001611439603187611f17565b6114439190611ec7565b92506000915060005b8481101561148c578387826006811061146757611467611e89565b60200201510361147a576001925061148c565b8061148481611e9f565b91505061144c565b508061149781611e9f565b9150508180156114a75750606481105b6113f757828685600681106114be576114be611e89565b6020020152508291506114d2905081611e9f565b9150506113e8565b509092915050565b6003546000818152600760208190526040822092835542908301556005546008830155600a8201805460ff191660011790555b600681101561155e5782816006811061153057611530611e89565b602002015182600101826006811061154a5761154a611e89565b01558061155681611e9f565b915050611515565b506003546000908152600a60209081526040808320805482518185028101850190935280835291929091908301828280156115b857602002820191906000526020600020905b8154815260200190600101908083116115a4575b5050505050905060005b81518110156116785760008282815181106115df576115df611e89565b602090810291909101810151600081815260089092526040808320815160c081019092529193506116379160010160068282826020028201915b81548152602001906001019080831161161957505050505087611b4f565b905060038110611663576000818152600b86016020526040812080549161165d83611e9f565b91905055505b5050808061167090611e9f565b9150506115c2565b50600882015460066000908152600b84016020526040902054156117065760066000908152600b8401602052604090205460646116b6603c84611e72565b6116c09190611ef0565b6116ca9190611ef0565b60066000908152600c850160208181526040808420859055600b880182529092205491526116f791611e72565b6009840155600060055561170e565b600060098401555b60056000908152600b840160205260409020541561176e5760056000908152600b840160205260409020546064611746601484611e72565b6117509190611ef0565b61175a9190611ef0565b60056000908152600c850160205260409020555b60046000908152600b84016020526040902054156117ce5760046000908152600b8401602052604090205460646117a6600f84611e72565b6117b09190611ef0565b6117ba9190611ef0565b60046000908152600c850160205260409020555b60036000908152600b840160205260409020541561182e5760036000908152600b840160205260409020546064611806600584611e72565b6118109190611ef0565b61181a9190611ef0565b60036000908152600c850160205260409020555b6003547f50814ea5605e6bce4e231a3c0fd99301dafdeef6da03fbcb57c6ec0cf3e132f28583866009015460405161186893929190611f2b565b60405180910390a26003805490600061188083611e9f565b919050555050505050565b611893611bdb565b6002805460ff191690557f5db9ee0a495bf2e6ff9c91a7834c1ba4fdd244a5e8aa4e537bd38aeae4b073aa335b6040516001600160a01b03909116815260200160405180910390a1565b600080546001600160a01b038381166001600160a01b0319831681178455604051919092169283917f8be0079c531659141344cd1fd0a4f28419497f9722a3daafe3b4186f6b6457e09190a35050565b60026001540361197f5760405162461bcd60e51b815260206004820152601f60248201527f5265656e7472616e637947756172643a207265656e7472616e742063616c6c00604482015260640161071f565b6002600155565b60025460ff161561093e5760405162461bcd60e51b815260206004820152601060248201526f14185d5cd8589b194e881c185d5cd95960821b604482015260640161071f565b60005b6006811015610d8b5760018282600681106119ec576119ec611e89565b602002015110158015611a1657506031828260068110611a0e57611a0e611e89565b602002015111155b611a595760405162461bcd60e51b8152602060048201526014602482015273496e76616c6964206e756d6265722072616e676560601b604482015260640161071f565b6000611a66826001611ec7565b90505b6006811015611aff57828160068110611a8457611a84611e89565b6020020151838360068110611a9b57611a9b611e89565b602002015103611aed5760405162461bcd60e51b815260206004820152601d60248201527f4475706c6963617465206e756d62657273206e6f7420616c6c6f776564000000604482015260640161071f565b80611af781611e9f565b915050611a69565b5080611b0a81611e9f565b9150506119cf565b611b1a611986565b6002805460ff191660011790557f62e78cea01bee320cd4e420270b5ea74000d11b0c9f74754ebdbfc544b05a2586118c03390565b600080805b6006811015611bd35760005b6006811015611bc057848160068110611b7b57611b7b611e89565b6020020151868360068110611b9257611b92611e89565b602002015103611bae5782611ba681611e9f565b935050611bc0565b80611bb881611e9f565b915050611b60565b5080611bcb81611e9f565b915050611b54565b509392505050565b60025460ff1661093e5760405162461bcd60e51b815260206004820152601460248201527314185d5cd8589b194e881b9bdd081c185d5cd95960621b604482015260640161071f565b6040518060c001604052806006906020820280368337509192915050565b600060208284031215611c5457600080fd5b5035919050565b60008060408385031215611c6e57600080fd5b50508035926020909101359150565b600060208284031215611c8f57600080fd5b81356001600160a01b0381168114611ca657600080fd5b9392505050565b600081518084526020808501945080840160005b83811015611cdd57815187529582019590820190600101611cc1565b509495945050505050565b838152826020820152606060408201526000611d076060830184611cad565b95945050505050565b602081526000611ca66020830184611cad565b60008060208385031215611d3657600080fd5b823567ffffffffffffffff80821115611d4e57600080fd5b818501915085601f830112611d6257600080fd5b813581811115611d7157600080fd5b86602060c083028501011115611d8657600080fd5b60209290920196919550909350505050565b8060005b6006811015611dbb578151845260209384019390910190600101611d9c565b50505050565b6001600160a01b03851681526101208101611ddf6020830186611d98565b8360e083015282151561010083015295945050505050565b8681526101608101611e0c6020830188611d98565b8560e08301528461010083015283610120830152821515610140830152979650505050505050565b600060c08284031215611e4657600080fd5b8260c083011115611e5657600080fd5b50919050565b634e487b7160e01b600052601160045260246000fd5b8082028115828204841417610a4357610a43611e5c565b634e487b7160e01b600052603260045260246000fd5b600060018201611eb157611eb1611e5c565b5060010190565b60c08181019083833792915050565b80820180821115610a4357610a43611e5c565b634e487b7160e01b600052601260045260246000fd5b600082611eff57611eff611eda565b500490565b81810381811115610a4357610a43611e5c565b600082611f2657611f26611eda565b500690565b6101008101611f3a8286611d98565b60c082019390935260e0015291905056fea2646970667358221220abafc17416696e15b0aeec9ead852a276436b5a80d6762ecf66490988375a03f64736f6c63430008130033","opcodes":"PUSH1 0x80 PUSH1 0x40 MSTORE CALLVALUE DUP1 ISZERO PUSH2 0x10 JUMPI PUSH1 0x0 DUP1 REVERT JUMPDEST POP PUSH2 0x1A CALLER PUSH2 0x36 JUMP JUMPDEST PUSH1 0x1 DUP1 DUP1 SSTORE PUSH1 0x2 DUP1 SLOAD PUSH1 0xFF NOT AND SWAP1 SSTORE PUSH1 0x3 DUP2 SWAP1 SSTORE PUSH1 0xB SSTORE PUSH2 0x86 JUMP JUMPDEST PUSH1 0x0 DUP1 SLOAD PUSH1 0x1 PUSH1 0x1 PUSH1 0xA0 SHL SUB DUP4 DUP2 AND PUSH1 0x1 PUSH1 0x1 PUSH1 0xA0 SHL SUB NOT DUP4 AND DUP2 OR DUP5 SSTORE PUSH1 0x40 MLOAD SWAP2 SWAP1 SWAP3 AND SWAP3 DUP4 SWAP2 PUSH32 0x8BE0079C531659141344CD1FD0A4F28419497F9722A3DAAFE3B4186F6B6457E0 SWAP2 SWAP1 LOG3 POP POP JUMP JUMPDEST PUSH2 0x1F81 DUP1 PUSH2 0x95 PUSH1 0x0 CODECOPY PUSH1 0x0 RETURN INVALID PUSH1 0x80 PUSH1 0x40 MSTORE PUSH1 0x4 CALLDATASIZE LT PUSH2 0x204 JUMPI PUSH1 0x0 CALLDATALOAD PUSH1 0xE0 SHR DUP1 PUSH4 0x715018A6 GT PUSH2 0x118 JUMPI DUP1 PUSH4 0xC4AA7245 GT PUSH2 0xA0 JUMPI DUP1 PUSH4 0xDD8AB8F9 GT PUSH2 0x6F JUMPI DUP1 PUSH4 0xDD8AB8F9 EQ PUSH2 0x41D JUMPI DUP1 PUSH4 0xF1082B76 EQ PUSH2 0x645 JUMPI DUP1 PUSH4 0xF2FDE38B EQ PUSH2 0x681 JUMPI DUP1 PUSH4 0xFAB14E8E EQ PUSH2 0x6A1 JUMPI DUP1 PUSH4 0xFEA9B572 EQ PUSH2 0x6B6 JUMPI PUSH1 0x0 DUP1 REVERT JUMPDEST DUP1 PUSH4 0xC4AA7245 EQ PUSH2 0x5A7 JUMPI DUP1 PUSH4 0xC9911EA7 EQ PUSH2 0x5BC JUMPI DUP1 PUSH4 0xCDAFBBB6 EQ PUSH2 0x5DC JUMPI DUP1 PUSH4 0xD7098154 EQ PUSH2 0x625 JUMPI PUSH1 0x0 DUP1 REVERT JUMPDEST DUP1 PUSH4 0x8DA5CB5B GT PUSH2 0xE7 JUMPI DUP1 PUSH4 0x8DA5CB5B EQ PUSH2 0x50C JUMPI DUP1 PUSH4 0x9858BEFB EQ PUSH2 0x534 JUMPI DUP1 PUSH4 0xA6858EE6 EQ PUSH2 0x54A JUMPI DUP1 PUSH4 0xBCA78FAB EQ PUSH2 0x55F JUMPI DUP1 PUSH4 0xBE6307C8 EQ PUSH2 0x575 JUMPI PUSH1 0x0 DUP1 REVERT JUMPDEST DUP1 PUSH4 0x715018A6 EQ PUSH2 0x49F JUMPI DUP1 PUSH4 0x7940B589 EQ PUSH2 0x4B4 JUMPI DUP1 PUSH4 0x7DC379FA EQ PUSH2 0x4C7 JUMPI DUP1 PUSH4 0x8456CB59 EQ PUSH2 0x4F7 JUMPI PUSH1 0x0 DUP1 REVERT JUMPDEST DUP1 PUSH4 0x4FD66EAE GT PUSH2 0x19B JUMPI DUP1 PUSH4 0x5C221034 GT PUSH2 0x16A JUMPI DUP1 PUSH4 0x5C221034 EQ PUSH2 0x41D JUMPI DUP1 PUSH4 0x5C975ABB EQ PUSH2 0x432 JUMPI DUP1 PUSH4 0x610A14D5 EQ PUSH2 0x455 JUMPI DUP1 PUSH4 0x6ABE4B1A EQ PUSH2 0x46A JUMPI DUP1 PUSH4 0x6B68C03C EQ PUSH2 0x48A JUMPI PUSH1 0x0 DUP1 REVERT JUMPDEST DUP1 PUSH4 0x4FD66EAE EQ PUSH2 0x33A JUMPI DUP1 PUSH4 0x50B44712 EQ PUSH2 0x369 JUMPI DUP1 PUSH4 0x54C0273E EQ PUSH2 0x3DA JUMPI DUP1 PUSH4 0x5B183C2A EQ PUSH2 0x3F0 JUMPI PUSH1 0x0 DUP1 REVERT JUMPDEST DUP1 PUSH4 0x2D49A7BF GT PUSH2 0x1D7 JUMPI DUP1 PUSH4 0x2D49A7BF EQ PUSH2 0x2DA JUMPI DUP1 PUSH4 0x34701DB8 EQ PUSH2 0x2EF JUMPI DUP1 PUSH4 0x376C2BBE EQ PUSH2 0x305 JUMPI DUP1 PUSH4 0x3F4BA83A EQ PUSH2 0x325 JUMPI PUSH1 0x0 DUP1 REVERT JUMPDEST DUP1 PUSH4 0x419B45A EQ PUSH2 0x209 JUMPI DUP1 PUSH4 0xCC36C36 EQ PUSH2 0x220 JUMPI DUP1 PUSH4 0x1A95F15F EQ PUSH2 0x29B JUMPI DUP1 PUSH4 0x2599399E EQ PUSH2 0x2C5 JUMPI JUMPDEST PUSH1 0x0 DUP1 REVERT JUMPDEST CALLVALUE DUP1 ISZERO PUSH2 0x215 JUMPI PUSH1 0x0 DUP1 REVERT JUMPDEST POP PUSH2 0x21E PUSH2 0x6CB JUMP JUMPDEST STOP JUMPDEST CALLVALUE DUP1 ISZERO PUSH2 0x22C JUMPI PUSH1 0x0 DUP1 REVERT JUMPDEST POP PUSH2 0x26C PUSH2 0x23B CALLDATASIZE PUSH1 0x4 PUSH2 0x1C42 JUMP JUMPDEST PUSH1 0x7 PUSH1 0x20 DUP2 SWAP1 MSTORE PUSH1 0x0 SWAP2 DUP3 MSTORE PUSH1 0x40 SWAP1 SWAP2 KECCAK256 DUP1 SLOAD SWAP2 DUP2 ADD SLOAD PUSH1 0x8 DUP3 ADD SLOAD PUSH1 0x9 DUP4 ADD SLOAD PUSH1 0xA SWAP1 SWAP4 ADD SLOAD SWAP2 SWAP3 SWAP1 SWAP2 PUSH1 0xFF AND DUP6 JUMP JUMPDEST PUSH1 0x40 DUP1 MLOAD SWAP6 DUP7 MSTORE PUSH1 0x20 DUP7 ADD SWAP5 SWAP1 SWAP5 MSTORE SWAP3 DUP5 ADD SWAP2 SWAP1 SWAP2 MSTORE PUSH1 0x60 DUP4 ADD MSTORE ISZERO ISZERO PUSH1 0x80 DUP3 ADD MSTORE PUSH1 0xA0 ADD JUMPDEST PUSH1 0x40 MLOAD DUP1 SWAP2 SUB SWAP1 RETURN JUMPDEST CALLVALUE DUP1 ISZERO PUSH2 0x2A7 JUMPI PUSH1 0x0 DUP1 REVERT JUMPDEST POP PUSH2 0x2B7 PUSH8 0x16345785D8A0000 DUP2 JUMP JUMPDEST PUSH1 0x40 MLOAD SWAP1 DUP2 MSTORE PUSH1 0x20 ADD PUSH2 0x292 JUMP JUMPDEST CALLVALUE DUP1 ISZERO PUSH2 0x2D1 JUMPI PUSH1 0x0 DUP1 REVERT JUMPDEST POP PUSH2 0x2B7 PUSH1 0xF DUP2 JUMP JUMPDEST CALLVALUE DUP1 ISZERO PUSH2 0x2E6 JUMPI PUSH1 0x0 DUP1 REVERT JUMPDEST POP PUSH2 0x21E PUSH2 0x822 JUMP JUMPDEST CALLVALUE DUP1 ISZERO PUSH2 0x2FB JUMPI PUSH1 0x0 DUP1 REVERT JUMPDEST POP PUSH2 0x2B7 PUSH1 0x4 SLOAD DUP2 JUMP JUMPDEST CALLVALUE DUP1 ISZERO PUSH2 0x311 JUMPI PUSH1 0x0 DUP1 REVERT JUMPDEST POP PUSH2 0x2B7 PUSH2 0x320 CALLDATASIZE PUSH1 0x4 PUSH2 0x1C5B JUMP JUMPDEST PUSH2 0x8FD JUMP JUMPDEST CALLVALUE DUP1 ISZERO PUSH2 0x331 JUMPI PUSH1 0x0 DUP1 REVERT JUMPDEST POP PUSH2 0x21E PUSH2 0x92E JUMP JUMPDEST CALLVALUE DUP1 ISZERO PUSH2 0x346 JUMPI PUSH1 0x0 DUP1 REVERT JUMPDEST POP PUSH2 0x35A PUSH2 0x355 CALLDATASIZE PUSH1 0x4 PUSH2 0x1C7D JUMP JUMPDEST PUSH2 0x940 JUMP JUMPDEST PUSH1 0x40 MLOAD PUSH2 0x292 SWAP4 SWAP3 SWAP2 SWAP1 PUSH2 0x1CE8 JUMP JUMPDEST CALLVALUE DUP1 ISZERO PUSH2 0x375 JUMPI PUSH1 0x0 DUP1 REVERT JUMPDEST POP PUSH2 0x3B3 PUSH2 0x384 CALLDATASIZE PUSH1 0x4 PUSH2 0x1C42 JUMP JUMPDEST PUSH1 0x8 PUSH1 0x20 DUP2 SWAP1 MSTORE PUSH1 0x0 SWAP2 DUP3 MSTORE PUSH1 0x40 SWAP1 SWAP2 KECCAK256 DUP1 SLOAD PUSH1 0x7 DUP3 ADD SLOAD SWAP2 SWAP1 SWAP3 ADD SLOAD PUSH1 0x1 PUSH1 0x1 PUSH1 0xA0 SHL SUB SWAP1 SWAP3 AND SWAP2 PUSH1 0xFF AND DUP4 JUMP JUMPDEST PUSH1 0x40 DUP1 MLOAD PUSH1 0x1 PUSH1 0x1 PUSH1 0xA0 SHL SUB SWAP1 SWAP5 AND DUP5 MSTORE PUSH1 0x20 DUP5 ADD SWAP3 SWAP1 SWAP3 MSTORE ISZERO ISZERO SWAP1 DUP3 ADD MSTORE PUSH1 0x60 ADD PUSH2 0x292 JUMP JUMPDEST CALLVALUE DUP1 ISZERO PUSH2 0x3E6 JUMPI PUSH1 0x0 DUP1 REVERT JUMPDEST POP PUSH2 0x2B7 PUSH1 0x5 SLOAD DUP2 JUMP JUMPDEST CALLVALUE DUP1 ISZERO PUSH2 0x3FC JUMPI PUSH1 0x0 DUP1 REVERT JUMPDEST POP PUSH2 0x410 PUSH2 0x40B CALLDATASIZE PUSH1 0x4 PUSH2 0x1C42 JUMP JUMPDEST PUSH2 0x9C3 JUMP JUMPDEST PUSH1 0x40 MLOAD PUSH2 0x292 SWAP2 SWAP1 PUSH2 0x1D10 JUMP JUMPDEST CALLVALUE DUP1 ISZERO PUSH2 0x429 JUMPI PUSH1 0x0 DUP1 REVERT JUMPDEST POP PUSH2 0x2B7 PUSH1 0x1 DUP2 JUMP JUMPDEST CALLVALUE DUP1 ISZERO PUSH2 0x43E JUMPI PUSH1 0x0 DUP1 REVERT JUMPDEST POP PUSH1 0x2 SLOAD PUSH1 0xFF AND PUSH1 0x40 MLOAD SWAP1 ISZERO ISZERO DUP2 MSTORE PUSH1 0x20 ADD PUSH2 0x292 JUMP JUMPDEST CALLVALUE DUP1 ISZERO PUSH2 0x461 JUMPI PUSH1 0x0 DUP1 REVERT JUMPDEST POP PUSH2 0x2B7 PUSH1 0x5 DUP2 JUMP JUMPDEST CALLVALUE DUP1 ISZERO PUSH2 0x476 JUMPI PUSH1 0x0 DUP1 REVERT JUMPDEST POP PUSH2 0x2B7 PUSH2 0x485 CALLDATASIZE PUSH1 0x4 PUSH2 0x1C5B JUMP JUMPDEST PUSH2 0xA25 JUMP JUMPDEST CALLVALUE DUP1 ISZERO PUSH2 0x496 JUMPI PUSH1 0x0 DUP1 REVERT JUMPDEST POP PUSH2 0x26C PUSH2 0xA49 JUMP JUMPDEST CALLVALUE DUP1 ISZERO PUSH2 0x4AB JUMPI PUSH1 0x0 DUP1 REVERT JUMPDEST POP PUSH2 0x21E PUSH2 0xA7A JUMP JUMPDEST PUSH2 0x21E PUSH2 0x4C2 CALLDATASIZE PUSH1 0x4 PUSH2 0x1D23 JUMP JUMPDEST PUSH2 0xA8C JUMP JUMPDEST CALLVALUE DUP1 ISZERO PUSH2 0x4D3 JUMPI PUSH1 0x0 DUP1 REVERT JUMPDEST POP PUSH2 0x4E7 PUSH2 0x4E2 CALLDATASIZE PUSH1 0x4 PUSH2 0x1C42 JUMP JUMPDEST PUSH2 0xD8F JUMP JUMPDEST PUSH1 0x40 MLOAD PUSH2 0x292 SWAP5 SWAP4 SWAP3 SWAP2 SWAP1 PUSH2 0x1DC1 JUMP JUMPDEST CALLVALUE DUP1 ISZERO PUSH2 0x503 JUMPI PUSH1 0x0 DUP1 REVERT JUMPDEST POP PUSH2 0x21E PUSH2 0xE0D JUMP JUMPDEST CALLVALUE DUP1 ISZERO PUSH2 0x518 JUMPI PUSH1 0x0 DUP1 REVERT JUMPDEST POP PUSH1 0x0 SLOAD PUSH1 0x40 MLOAD PUSH1 0x1 PUSH1 0x1 PUSH1 0xA0 SHL SUB SWAP1 SWAP2 AND DUP2 MSTORE PUSH1 0x20 ADD PUSH2 0x292 JUMP JUMPDEST CALLVALUE DUP1 ISZERO PUSH2 0x540 JUMPI PUSH1 0x0 DUP1 REVERT JUMPDEST POP PUSH2 0x2B7 PUSH1 0x6 SLOAD DUP2 JUMP JUMPDEST CALLVALUE DUP1 ISZERO PUSH2 0x556 JUMPI PUSH1 0x0 DUP1 REVERT JUMPDEST POP PUSH2 0x2B7 PUSH1 0x3C DUP2 JUMP JUMPDEST CALLVALUE DUP1 ISZERO PUSH2 0x56B JUMPI PUSH1 0x0 DUP1 REVERT JUMPDEST POP PUSH2 0x2B7 PUSH1 0x3 SLOAD DUP2 JUMP JUMPDEST CALLVALUE DUP1 ISZERO PUSH2 0x581 JUMPI PUSH1 0x0 DUP1 REVERT JUMPDEST POP PUSH2 0x595 PUSH2 0x590 CALLDATASIZE PUSH1 0x4 PUSH2 0x1C42 JUMP JUMPDEST PUSH2 0xE1D JUMP JUMPDEST PUSH1 0x40 MLOAD PUSH2 0x292 SWAP7 SWAP6 SWAP5 SWAP4 SWAP3 SWAP2 SWAP1 PUSH2 0x1DF7 JUMP JUMPDEST CALLVALUE DUP1 ISZERO PUSH2 0x5B3 JUMPI PUSH1 0x0 DUP1 REVERT JUMPDEST POP PUSH2 0x2B7 PUSH1 0x14 DUP2 JUMP JUMPDEST CALLVALUE DUP1 ISZERO PUSH2 0x5C8 JUMPI PUSH1 0x0 DUP1 REVERT JUMPDEST POP PUSH2 0x21E PUSH2 0x5D7 CALLDATASIZE PUSH1 0x4 PUSH2 0x1E34 JUMP JUMPDEST PUSH2 0xEA7 JUMP JUMPDEST CALLVALUE DUP1 ISZERO PUSH2 0x5E8 JUMPI PUSH1 0x0 DUP1 REVERT JUMPDEST POP PUSH2 0x610 PUSH2 0x5F7 CALLDATASIZE PUSH1 0x4 PUSH2 0x1C7D JUMP JUMPDEST PUSH1 0x9 PUSH1 0x20 MSTORE PUSH1 0x0 SWAP1 DUP2 MSTORE PUSH1 0x40 SWAP1 KECCAK256 DUP1 SLOAD PUSH1 0x1 SWAP1 SWAP2 ADD SLOAD DUP3 JUMP JUMPDEST PUSH1 0x40 DUP1 MLOAD SWAP3 DUP4 MSTORE PUSH1 0x20 DUP4 ADD SWAP2 SWAP1 SWAP2 MSTORE ADD PUSH2 0x292 JUMP JUMPDEST CALLVALUE DUP1 ISZERO PUSH2 0x631 JUMPI PUSH1 0x0 DUP1 REVERT JUMPDEST POP PUSH2 0x21E PUSH2 0x640 CALLDATASIZE PUSH1 0x4 PUSH2 0x1C42 JUMP JUMPDEST PUSH2 0xF68 JUMP JUMPDEST CALLVALUE DUP1 ISZERO PUSH2 0x651 JUMPI PUSH1 0x0 DUP1 REVERT JUMPDEST POP PUSH2 0x2B7 PUSH2 0x660 CALLDATASIZE PUSH1 0x4 PUSH2 0x1C5B JUMP JUMPDEST PUSH1 0x0 SWAP2 DUP3 MSTORE PUSH1 0x7 PUSH1 0x20 SWAP1 DUP2 MSTORE PUSH1 0x40 DUP1 DUP5 KECCAK256 SWAP3 DUP5 MSTORE PUSH1 0xB SWAP1 SWAP3 ADD SWAP1 MSTORE SWAP1 KECCAK256 SLOAD SWAP1 JUMP JUMPDEST CALLVALUE DUP1 ISZERO PUSH2 0x68D JUMPI PUSH1 0x0 DUP1 REVERT JUMPDEST POP PUSH2 0x21E PUSH2 0x69C CALLDATASIZE PUSH1 0x4 PUSH2 0x1C7D JUMP JUMPDEST PUSH2 0x12A6 JUMP JUMPDEST CALLVALUE DUP1 ISZERO PUSH2 0x6AD JUMPI PUSH1 0x0 DUP1 REVERT JUMPDEST POP PUSH2 0x2B7 PUSH1 0x6 DUP2 JUMP JUMPDEST CALLVALUE DUP1 ISZERO PUSH2 0x6C2 JUMPI PUSH1 0x0 DUP1 REVERT JUMPDEST POP PUSH2 0x2B7 PUSH1 0x31 DUP2 JUMP JUMPDEST PUSH2 0x6D3 PUSH2 0x131C JUMP JUMPDEST PUSH1 0x6 SLOAD DUP1 PUSH2 0x728 JUMPI PUSH1 0x40 MLOAD PUSH3 0x461BCD PUSH1 0xE5 SHL DUP2 MSTORE PUSH1 0x20 PUSH1 0x4 DUP3 ADD MSTORE PUSH1 0x19 PUSH1 0x24 DUP3 ADD MSTORE PUSH32 0x4E6F2061646D696E206665657320746F20776974686472617700000000000000 PUSH1 0x44 DUP3 ADD MSTORE PUSH1 0x64 ADD JUMPDEST PUSH1 0x40 MLOAD DUP1 SWAP2 SUB SWAP1 REVERT JUMPDEST PUSH1 0x0 PUSH1 0x6 DUP2 SWAP1 SSTORE DUP1 SLOAD PUSH1 0x40 MLOAD PUSH1 0x1 PUSH1 0x1 PUSH1 0xA0 SHL SUB SWAP1 SWAP2 AND SWAP1 DUP4 SWAP1 DUP4 DUP2 DUP2 DUP2 DUP6 DUP8 GAS CALL SWAP3 POP POP POP RETURNDATASIZE DUP1 PUSH1 0x0 DUP2 EQ PUSH2 0x77A JUMPI PUSH1 0x40 MLOAD SWAP2 POP PUSH1 0x1F NOT PUSH1 0x3F RETURNDATASIZE ADD AND DUP3 ADD PUSH1 0x40 MSTORE RETURNDATASIZE DUP3 MSTORE RETURNDATASIZE PUSH1 0x0 PUSH1 0x20 DUP5 ADD RETURNDATACOPY PUSH2 0x77F JUMP JUMPDEST PUSH1 0x60 SWAP2 POP JUMPDEST POP POP SWAP1 POP DUP1 PUSH2 0x7D0 JUMPI PUSH1 0x40 MLOAD PUSH3 0x461BCD PUSH1 0xE5 SHL DUP2 MSTORE PUSH1 0x20 PUSH1 0x4 DUP3 ADD MSTORE PUSH1 0x19 PUSH1 0x24 DUP3 ADD MSTORE PUSH32 0x41646D696E20666565207472616E73666572206661696C656400000000000000 PUSH1 0x44 DUP3 ADD MSTORE PUSH1 0x64 ADD PUSH2 0x71F JUMP JUMPDEST PUSH1 0x0 SLOAD PUSH1 0x1 PUSH1 0x1 PUSH1 0xA0 SHL SUB AND PUSH1 0x1 PUSH1 0x1 PUSH1 0xA0 SHL SUB AND PUSH32 0xCDCAFF67AC16639664E5F9343C9223A1DC9C972EC367B69AE9FC1325C7BE5474 DUP4 PUSH1 0x40 MLOAD PUSH2 0x816 SWAP2 DUP2 MSTORE PUSH1 0x20 ADD SWAP1 JUMP JUMPDEST PUSH1 0x40 MLOAD DUP1 SWAP2 SUB SWAP1 LOG2 POP POP JUMP JUMPDEST PUSH2 0x82A PUSH2 0x131C JUMP JUMPDEST PUSH1 0x3 SLOAD PUSH1 0x0 SWAP1 DUP2 MSTORE PUSH1 0x7 PUSH1 0x20 MSTORE PUSH1 0x40 SWAP1 KECCAK256 PUSH1 0xA ADD SLOAD PUSH1 0xFF AND ISZERO PUSH2 0x887 JUMPI PUSH1 0x40 MLOAD PUSH3 0x461BCD PUSH1 0xE5 SHL DUP2 MSTORE PUSH1 0x20 PUSH1 0x4 DUP3 ADD MSTORE PUSH1 0x15 PUSH1 0x24 DUP3 ADD MSTORE PUSH21 0x111C985DC8185B1C9958591E48195E1958DD5D1959 PUSH1 0x5A SHL PUSH1 0x44 DUP3 ADD MSTORE PUSH1 0x64 ADD PUSH2 0x71F JUMP JUMPDEST PUSH1 0x3 SLOAD PUSH1 0x0 SWAP1 DUP2 MSTORE PUSH1 0xA PUSH1 0x20 MSTORE PUSH1 0x40 SWAP1 KECCAK256 SLOAD PUSH2 0x8E5 JUMPI PUSH1 0x40 MLOAD PUSH3 0x461BCD PUSH1 0xE5 SHL DUP2 MSTORE PUSH1 0x20 PUSH1 0x4 DUP3 ADD MSTORE PUSH1 0x1D PUSH1 0x24 DUP3 ADD MSTORE PUSH32 0x4E6F207469636B65747320736F6C6420666F7220746869732064726177000000 PUSH1 0x44 DUP3 ADD MSTORE PUSH1 0x64 ADD PUSH2 0x71F JUMP JUMPDEST PUSH1 0x0 PUSH2 0x8EF PUSH2 0x1376 JUMP JUMPDEST SWAP1 POP PUSH2 0x8FA DUP2 PUSH2 0x14E2 JUMP JUMPDEST POP JUMP JUMPDEST PUSH1 0xA PUSH1 0x20 MSTORE DUP2 PUSH1 0x0 MSTORE PUSH1 0x40 PUSH1 0x0 KECCAK256 DUP2 DUP2 SLOAD DUP2 LT PUSH2 0x919 JUMPI PUSH1 0x0 DUP1 REVERT JUMPDEST SWAP1 PUSH1 0x0 MSTORE PUSH1 0x20 PUSH1 0x0 KECCAK256 ADD PUSH1 0x0 SWAP2 POP SWAP2 POP POP SLOAD DUP2 JUMP JUMPDEST PUSH2 0x936 PUSH2 0x131C JUMP JUMPDEST PUSH2 0x93E PUSH2 0x188B JUMP JUMPDEST JUMP JUMPDEST PUSH1 0x1 PUSH1 0x1 PUSH1 0xA0 SHL SUB DUP2 AND PUSH1 0x0 SWAP1 DUP2 MSTORE PUSH1 0x9 PUSH1 0x20 SWAP1 DUP2 MSTORE PUSH1 0x40 DUP1 DUP4 KECCAK256 DUP1 SLOAD PUSH1 0x1 DUP3 ADD SLOAD PUSH1 0x2 DUP4 ADD DUP1 SLOAD DUP6 MLOAD DUP2 DUP9 MUL DUP2 ADD DUP9 ADD SWAP1 SWAP7 MSTORE DUP1 DUP7 MSTORE DUP8 SWAP7 PUSH1 0x60 SWAP7 SWAP2 DUP4 SWAP2 DUP4 ADD DUP3 DUP3 DUP1 ISZERO PUSH2 0x9AE JUMPI PUSH1 0x20 MUL DUP3 ADD SWAP2 SWAP1 PUSH1 0x0 MSTORE PUSH1 0x20 PUSH1 0x0 KECCAK256 SWAP1 JUMPDEST DUP2 SLOAD DUP2 MSTORE PUSH1 0x20 ADD SWAP1 PUSH1 0x1 ADD SWAP1 DUP1 DUP4 GT PUSH2 0x99A JUMPI JUMPDEST POP POP POP POP POP SWAP1 POP SWAP4 POP SWAP4 POP SWAP4 POP POP SWAP2 SWAP4 SWAP1 SWAP3 POP JUMP JUMPDEST PUSH1 0x0 DUP2 DUP2 MSTORE PUSH1 0xA PUSH1 0x20 SWAP1 DUP2 MSTORE PUSH1 0x40 SWAP2 DUP3 SWAP1 KECCAK256 DUP1 SLOAD DUP4 MLOAD DUP2 DUP5 MUL DUP2 ADD DUP5 ADD SWAP1 SWAP5 MSTORE DUP1 DUP5 MSTORE PUSH1 0x60 SWAP4 SWAP3 DUP4 ADD DUP3 DUP3 DUP1 ISZERO PUSH2 0xA19 JUMPI PUSH1 0x20 MUL DUP3 ADD SWAP2 SWAP1 PUSH1 0x0 MSTORE PUSH1 0x20 PUSH1 0x0 KECCAK256 SWAP1 JUMPDEST DUP2 SLOAD DUP2 MSTORE PUSH1 0x20 ADD SWAP1 PUSH1 0x1 ADD SWAP1 DUP1 DUP4 GT PUSH2 0xA05 JUMPI JUMPDEST POP POP POP POP POP SWAP1 POP SWAP2 SWAP1 POP JUMP JUMPDEST PUSH1 0x0 DUP3 DUP2 MSTORE PUSH1 0x7 PUSH1 0x20 SWAP1 DUP2 MSTORE PUSH1 0x40 DUP1 DUP4 KECCAK256 DUP5 DUP5 MSTORE PUSH1 0xC ADD SWAP1 SWAP2 MSTORE SWAP1 KECCAK256 SLOAD JUMPDEST SWAP3 SWAP2 POP POP JUMP JUMPDEST PUSH1 0x0 DUP1 PUSH1 0x0 DUP1 PUSH1 0x0 PUSH1 0x3 SLOAD PUSH1 0x4 SLOAD PUSH1 0x5 SLOAD PUSH1 0x6 SLOAD PUSH2 0xA69 PUSH1 0x2 SLOAD PUSH1 0xFF AND SWAP1 JUMP JUMPDEST SWAP5 POP SWAP5 POP SWAP5 POP SWAP5 POP SWAP5 POP SWAP1 SWAP2 SWAP3 SWAP4 SWAP5 JUMP JUMPDEST PUSH2 0xA82 PUSH2 0x131C JUMP JUMPDEST PUSH2 0x93E PUSH1 0x0 PUSH2 0x18DD JUMP JUMPDEST PUSH2 0xA94 PUSH2 0x192D JUMP JUMPDEST PUSH2 0xA9C PUSH2 0x1986 JUMP JUMPDEST DUP1 PUSH2 0xAF3 JUMPI PUSH1 0x40 MLOAD PUSH3 0x461BCD PUSH1 0xE5 SHL DUP2 MSTORE PUSH1 0x20 PUSH1 0x4 DUP3 ADD MSTORE PUSH1 0x21 PUSH1 0x24 DUP3 ADD MSTORE PUSH32 0x4D757374207075726368617365206174206C65617374206F6E65207469636B65 PUSH1 0x44 DUP3 ADD MSTORE PUSH1 0x1D PUSH1 0xFA SHL PUSH1 0x64 DUP3 ADD MSTORE PUSH1 0x84 ADD PUSH2 0x71F JUMP JUMPDEST PUSH2 0xB05 DUP2 PUSH8 0x16345785D8A0000 PUSH2 0x1E72 JUMP JUMPDEST CALLVALUE EQ PUSH2 0xB53 JUMPI PUSH1 0x40 MLOAD PUSH3 0x461BCD PUSH1 0xE5 SHL DUP2 MSTORE PUSH1 0x20 PUSH1 0x4 DUP3 ADD MSTORE PUSH1 0x18 PUSH1 0x24 DUP3 ADD MSTORE PUSH32 0x496E636F7272656374207061796D656E7420616D6F756E740000000000000000 PUSH1 0x44 DUP3 ADD MSTORE PUSH1 0x64 ADD PUSH2 0x71F JUMP JUMPDEST PUSH1 0x0 JUMPDEST DUP2 DUP2 LT ISZERO PUSH2 0xD08 JUMPI PUSH2 0xBA7 DUP4 DUP4 DUP4 DUP2 DUP2 LT PUSH2 0xB73 JUMPI PUSH2 0xB73 PUSH2 0x1E89 JUMP JUMPDEST SWAP1 POP PUSH1 0xC0 MUL ADD PUSH1 0x6 DUP1 PUSH1 0x20 MUL PUSH1 0x40 MLOAD SWAP1 DUP2 ADD PUSH1 0x40 MSTORE DUP1 SWAP3 SWAP2 SWAP1 DUP3 PUSH1 0x6 PUSH1 0x20 MUL DUP1 DUP3 DUP5 CALLDATACOPY PUSH1 0x0 SWAP3 ADD SWAP2 SWAP1 SWAP2 MSTORE POP PUSH2 0x19CC SWAP2 POP POP JUMP JUMPDEST PUSH1 0xB DUP1 SLOAD PUSH1 0x0 SWAP2 DUP3 PUSH2 0xBB8 DUP4 PUSH2 0x1E9F JUMP JUMPDEST SWAP1 SWAP2 SSTORE POP PUSH1 0x0 DUP2 DUP2 MSTORE PUSH1 0x8 PUSH1 0x20 MSTORE PUSH1 0x40 DUP2 KECCAK256 DUP1 SLOAD PUSH1 0x1 PUSH1 0x1 PUSH1 0xA0 SHL SUB NOT AND CALLER OR DUP2 SSTORE PUSH1 0x3 SLOAD PUSH1 0x7 DUP3 ADD SSTORE SWAP2 SWAP3 POP JUMPDEST PUSH1 0x6 DUP2 LT ISZERO PUSH2 0xC46 JUMPI DUP6 DUP6 DUP6 DUP2 DUP2 LT PUSH2 0xC01 JUMPI PUSH2 0xC01 PUSH2 0x1E89 JUMP JUMPDEST SWAP1 POP PUSH1 0xC0 MUL ADD DUP2 PUSH1 0x6 DUP2 LT PUSH2 0xC18 JUMPI PUSH2 0xC18 PUSH2 0x1E89 JUMP JUMPDEST PUSH1 0x20 MUL ADD CALLDATALOAD DUP3 PUSH1 0x1 ADD DUP3 PUSH1 0x6 DUP2 LT PUSH2 0xC32 JUMPI PUSH2 0xC32 PUSH2 0x1E89 JUMP JUMPDEST ADD SSTORE DUP1 PUSH2 0xC3E DUP2 PUSH2 0x1E9F JUMP JUMPDEST SWAP2 POP POP PUSH2 0xBE6 JUMP JUMPDEST POP PUSH1 0x3 SLOAD PUSH1 0x0 SWAP1 DUP2 MSTORE PUSH1 0xA PUSH1 0x20 SWAP1 DUP2 MSTORE PUSH1 0x40 DUP1 DUP4 KECCAK256 DUP1 SLOAD PUSH1 0x1 DUP2 DUP2 ADD DUP4 SSTORE SWAP2 DUP6 MSTORE DUP4 DUP6 KECCAK256 ADD DUP7 SWAP1 SSTORE CALLER DUP1 DUP6 MSTORE PUSH1 0x9 DUP5 MSTORE SWAP2 DUP5 KECCAK256 PUSH1 0x2 DUP2 ADD DUP1 SLOAD SWAP3 DUP4 ADD DUP2 SSTORE DUP6 MSTORE SWAP3 DUP5 KECCAK256 ADD DUP6 SWAP1 SSTORE DUP3 MSTORE DUP1 SLOAD SWAP2 PUSH2 0xC9B DUP4 PUSH2 0x1E9F JUMP JUMPDEST SWAP1 SWAP2 SSTORE POP POP PUSH1 0x3 SLOAD DUP3 CALLER PUSH32 0x5324057FB3461D99462BA621FBD5D1B8AC5594839BEC55BCC62FB37A35FF3E8D DUP9 DUP9 DUP9 DUP2 DUP2 LT PUSH2 0xCD8 JUMPI PUSH2 0xCD8 PUSH2 0x1E89 JUMP JUMPDEST SWAP1 POP PUSH1 0xC0 MUL ADD PUSH1 0x40 MLOAD PUSH2 0xCEB SWAP2 SWAP1 PUSH2 0x1EB8 JUMP JUMPDEST PUSH1 0x40 MLOAD DUP1 SWAP2 SUB SWAP1 LOG4 POP POP DUP1 DUP1 PUSH2 0xD00 SWAP1 PUSH2 0x1E9F JUMP JUMPDEST SWAP2 POP POP PUSH2 0xB56 JUMP JUMPDEST POP DUP2 DUP2 SWAP1 POP PUSH1 0x4 PUSH1 0x0 DUP3 DUP3 SLOAD PUSH2 0xD1E SWAP2 SWAP1 PUSH2 0x1EC7 JUMP JUMPDEST SWAP1 SWAP2 SSTORE POP CALLVALUE SWAP1 POP PUSH1 0x0 PUSH1 0x64 PUSH2 0xD34 PUSH1 0x1 DUP5 PUSH2 0x1E72 JUMP JUMPDEST PUSH2 0xD3E SWAP2 SWAP1 PUSH2 0x1EF0 JUMP JUMPDEST SWAP1 POP PUSH1 0x0 PUSH2 0xD4C DUP3 DUP5 PUSH2 0x1F04 JUMP JUMPDEST SWAP1 POP DUP2 PUSH1 0x6 PUSH1 0x0 DUP3 DUP3 SLOAD PUSH2 0xD60 SWAP2 SWAP1 PUSH2 0x1EC7 JUMP JUMPDEST SWAP3 POP POP DUP2 SWAP1 SSTORE POP DUP1 PUSH1 0x5 PUSH1 0x0 DUP3 DUP3 SLOAD PUSH2 0xD79 SWAP2 SWAP1 PUSH2 0x1EC7 JUMP JUMPDEST SWAP1 SWAP2 SSTORE POP POP PUSH1 0x1 DUP1 SSTORE POP PUSH2 0xD8B SWAP2 POP POP JUMP JUMPDEST POP POP JUMP JUMPDEST PUSH1 0x0 PUSH2 0xD99 PUSH2 0x1C24 JUMP JUMPDEST PUSH1 0x0 DUP4 DUP2 MSTORE PUSH1 0x8 PUSH1 0x20 DUP2 SWAP1 MSTORE PUSH1 0x40 DUP1 DUP4 KECCAK256 DUP1 SLOAD PUSH1 0x7 DUP3 ADD SLOAD SWAP4 DUP3 ADD SLOAD DUP4 MLOAD PUSH1 0xC0 DUP2 ADD SWAP5 DUP6 SWAP1 MSTORE DUP7 SWAP6 SWAP4 SWAP5 PUSH1 0x1 PUSH1 0x1 PUSH1 0xA0 SHL SUB SWAP1 SWAP4 AND SWAP4 PUSH1 0x1 DUP7 ADD SWAP4 SWAP1 SWAP3 PUSH1 0xFF AND SWAP2 SWAP1 DUP5 SWAP1 PUSH1 0x6 SWAP1 DUP3 DUP5 JUMPDEST DUP2 SLOAD DUP2 MSTORE PUSH1 0x20 ADD SWAP1 PUSH1 0x1 ADD SWAP1 DUP1 DUP4 GT PUSH2 0xDE3 JUMPI POP POP POP POP POP SWAP3 POP SWAP5 POP SWAP5 POP SWAP5 POP SWAP5 POP POP SWAP2 SWAP4 POP SWAP2 SWAP4 JUMP JUMPDEST PUSH2 0xE15 PUSH2 0x131C JUMP JUMPDEST PUSH2 0x93E PUSH2 0x1B12 JUMP JUMPDEST PUSH1 0x0 PUSH2 0xE27 PUSH2 0x1C24 JUMP JUMPDEST PUSH1 0x0 DUP4 DUP2 MSTORE PUSH1 0x7 PUSH1 0x20 DUP2 SWAP1 MSTORE PUSH1 0x40 DUP1 DUP4 KECCAK256 DUP1 SLOAD SWAP3 DUP2 ADD SLOAD PUSH1 0x8 DUP3 ADD SLOAD PUSH1 0x9 DUP4 ADD SLOAD PUSH1 0xA DUP5 ADD SLOAD DUP6 MLOAD PUSH1 0xC0 DUP2 ADD SWAP7 DUP8 SWAP1 MSTORE DUP9 SWAP8 DUP9 SWAP8 DUP9 SWAP8 SWAP7 SWAP2 SWAP6 PUSH1 0x1 DUP9 ADD SWAP6 SWAP3 SWAP5 SWAP1 SWAP4 PUSH1 0xFF SWAP1 SWAP2 AND SWAP2 DUP7 SWAP1 PUSH1 0x6 SWAP1 DUP3 DUP5 JUMPDEST DUP2 SLOAD DUP2 MSTORE PUSH1 0x20 ADD SWAP1 PUSH1 0x1 ADD SWAP1 DUP1 DUP4 GT PUSH2 0xE77 JUMPI POP POP POP POP POP SWAP5 POP SWAP7 POP SWAP7 POP SWAP7 POP SWAP7 POP SWAP7 POP SWAP7 POP POP SWAP2 SWAP4 SWAP6 POP SWAP2 SWAP4 SWAP6 JUMP JUMPDEST PUSH2 0xEAF PUSH2 0x131C JUMP JUMPDEST PUSH1 0x3 SLOAD PUSH1 0x0 SWAP1 DUP2 MSTORE PUSH1 0x7 PUSH1 0x20 MSTORE PUSH1 0x40 SWAP1 KECCAK256 PUSH1 0xA ADD SLOAD PUSH1 0xFF AND ISZERO PUSH2 0xF0C JUMPI PUSH1 0x40 MLOAD PUSH3 0x461BCD PUSH1 0xE5 SHL DUP2 MSTORE PUSH1 0x20 PUSH1 0x4 DUP3 ADD MSTORE PUSH1 0x15 PUSH1 0x24 DUP3 ADD MSTORE PUSH21 0x111C985DC8185B1C9958591E48195E1958DD5D1959 PUSH1 0x5A SHL PUSH1 0x44 DUP3 ADD MSTORE PUSH1 0x64 ADD PUSH2 0x71F JUMP JUMPDEST PUSH1 0x40 DUP1 MLOAD PUSH1 0xC0 DUP2 DUP2 ADD SWAP1 SWAP3 MSTORE PUSH2 0xF3A SWAP2 DUP4 SWAP1 PUSH1 0x6 SWAP1 DUP4 SWAP1 DUP4 SWAP1 DUP1 DUP3 DUP5 CALLDATACOPY PUSH1 0x0 SWAP3 ADD SWAP2 SWAP1 SWAP2 MSTORE POP PUSH2 0x19CC SWAP2 POP POP JUMP JUMPDEST PUSH1 0x40 DUP1 MLOAD PUSH1 0xC0 DUP2 DUP2 ADD SWAP1 SWAP3 MSTORE PUSH2 0x8FA SWAP2 DUP4 SWAP1 PUSH1 0x6 SWAP1 DUP4 SWAP1 DUP4 SWAP1 DUP1 DUP3 DUP5 CALLDATACOPY PUSH1 0x0 SWAP3 ADD SWAP2 SWAP1 SWAP2 MSTORE POP PUSH2 0x14E2 SWAP2 POP POP JUMP JUMPDEST PUSH2 0xF70 PUSH2 0x192D JUMP JUMPDEST PUSH1 0x0 DUP2 DUP2 MSTORE PUSH1 0x8 PUSH1 0x20 MSTORE PUSH1 0x40 SWAP1 KECCAK256 DUP1 SLOAD PUSH1 0x1 PUSH1 0x1 PUSH1 0xA0 SHL SUB AND CALLER EQ PUSH2 0xFCA JUMPI PUSH1 0x40 MLOAD PUSH3 0x461BCD PUSH1 0xE5 SHL DUP2 MSTORE PUSH1 0x20 PUSH1 0x4 DUP3 ADD MSTORE PUSH1 0x10 PUSH1 0x24 DUP3 ADD MSTORE PUSH16 0x2737BA103A34B1B5B2BA1037BBB732B9 PUSH1 0x81 SHL PUSH1 0x44 DUP3 ADD MSTORE PUSH1 0x64 ADD PUSH2 0x71F JUMP JUMPDEST PUSH1 0x8 DUP2 ADD SLOAD PUSH1 0xFF AND ISZERO PUSH2 0x1017 JUMPI PUSH1 0x40 MLOAD PUSH3 0x461BCD PUSH1 0xE5 SHL DUP2 MSTORE PUSH1 0x20 PUSH1 0x4 DUP3 ADD MSTORE PUSH1 0x15 PUSH1 0x24 DUP3 ADD MSTORE PUSH21 0x141C9A5E9948185B1C9958591E4818DB185A5B5959 PUSH1 0x5A SHL PUSH1 0x44 DUP3 ADD MSTORE PUSH1 0x64 ADD PUSH2 0x71F JUMP JUMPDEST PUSH1 0x7 DUP2 DUP2 ADD SLOAD PUSH1 0x0 SWAP1 DUP2 MSTORE PUSH1 0x20 SWAP2 SWAP1 SWAP2 MSTORE PUSH1 0x40 SWAP1 KECCAK256 PUSH1 0xA ADD SLOAD PUSH1 0xFF AND PUSH2 0x1077 JUMPI PUSH1 0x40 MLOAD PUSH3 0x461BCD PUSH1 0xE5 SHL DUP2 MSTORE PUSH1 0x20 PUSH1 0x4 DUP3 ADD MSTORE PUSH1 0x15 PUSH1 0x24 DUP3 ADD MSTORE PUSH21 0x111C985DC81B9BDD08195E1958DD5D1959081E595D PUSH1 0x5A SHL PUSH1 0x44 DUP3 ADD MSTORE PUSH1 0x64 ADD PUSH2 0x71F JUMP JUMPDEST PUSH1 0x7 DUP2 DUP2 ADD SLOAD PUSH1 0x0 SWAP1 DUP2 MSTORE PUSH1 0x20 SWAP2 SWAP1 SWAP2 MSTORE PUSH1 0x40 DUP1 DUP3 KECCAK256 DUP2 MLOAD PUSH1 0xC0 DUP2 ADD SWAP3 DUP4 SWAP1 MSTORE SWAP1 SWAP3 SWAP2 PUSH2 0x10F7 SWAP2 SWAP1 PUSH1 0x1 DUP7 ADD SWAP1 PUSH1 0x6 SWAP1 DUP3 DUP5 JUMPDEST DUP2 SLOAD DUP2 MSTORE PUSH1 0x20 ADD SWAP1 PUSH1 0x1 ADD SWAP1 DUP1 DUP4 GT PUSH2 0x10AA JUMPI POP POP PUSH1 0x40 DUP1 MLOAD PUSH1 0xC0 DUP2 ADD SWAP2 DUP3 SWAP1 MSTORE SWAP4 POP PUSH1 0x1 DUP9 ADD SWAP3 POP PUSH1 0x6 SWAP2 POP DUP3 DUP5 JUMPDEST DUP2 SLOAD DUP2 MSTORE PUSH1 0x20 ADD SWAP1 PUSH1 0x1 ADD SWAP1 DUP1 DUP4 GT PUSH2 0x10DA JUMPI POP POP POP POP POP PUSH2 0x1B4F JUMP JUMPDEST SWAP1 POP PUSH1 0x3 DUP2 LT ISZERO PUSH2 0x113E JUMPI PUSH1 0x40 MLOAD PUSH3 0x461BCD PUSH1 0xE5 SHL DUP2 MSTORE PUSH1 0x20 PUSH1 0x4 DUP3 ADD MSTORE PUSH1 0x11 PUSH1 0x24 DUP3 ADD MSTORE PUSH17 0x4E6F207072697A6520746F20636C61696D PUSH1 0x78 SHL PUSH1 0x44 DUP3 ADD MSTORE PUSH1 0x64 ADD PUSH2 0x71F JUMP JUMPDEST PUSH1 0x0 DUP2 DUP2 MSTORE PUSH1 0xC DUP4 ADD PUSH1 0x20 MSTORE PUSH1 0x40 SWAP1 KECCAK256 SLOAD DUP1 PUSH2 0x1192 JUMPI PUSH1 0x40 MLOAD PUSH3 0x461BCD PUSH1 0xE5 SHL DUP2 MSTORE PUSH1 0x20 PUSH1 0x4 DUP3 ADD MSTORE PUSH1 0x13 PUSH1 0x24 DUP3 ADD MSTORE PUSH19 0x139BC81C1C9A5E9948185B5BDD5B9D081CD95D PUSH1 0x6A SHL PUSH1 0x44 DUP3 ADD MSTORE PUSH1 0x64 ADD PUSH2 0x71F JUMP JUMPDEST PUSH1 0x8 DUP5 ADD DUP1 SLOAD PUSH1 0xFF NOT AND PUSH1 0x1 SWAP1 DUP2 OR SWAP1 SWAP2 SSTORE CALLER PUSH1 0x0 SWAP1 DUP2 MSTORE PUSH1 0x9 PUSH1 0x20 MSTORE PUSH1 0x40 DUP2 KECCAK256 SWAP1 SWAP2 ADD DUP1 SLOAD DUP4 SWAP3 SWAP1 PUSH2 0x11C6 SWAP1 DUP5 SWAP1 PUSH2 0x1EC7 JUMP JUMPDEST SWAP1 SWAP2 SSTORE POP POP PUSH1 0x40 MLOAD PUSH1 0x0 SWAP1 CALLER SWAP1 DUP4 SWAP1 DUP4 DUP2 DUP2 DUP2 DUP6 DUP8 GAS CALL SWAP3 POP POP POP RETURNDATASIZE DUP1 PUSH1 0x0 DUP2 EQ PUSH2 0x120D JUMPI PUSH1 0x40 MLOAD SWAP2 POP PUSH1 0x1F NOT PUSH1 0x3F RETURNDATASIZE ADD AND DUP3 ADD PUSH1 0x40 MSTORE RETURNDATASIZE DUP3 MSTORE RETURNDATASIZE PUSH1 0x0 PUSH1 0x20 DUP5 ADD RETURNDATACOPY PUSH2 0x1212 JUMP JUMPDEST PUSH1 0x60 SWAP2 POP JUMPDEST POP POP SWAP1 POP DUP1 PUSH2 0x125B JUMPI PUSH1 0x40 MLOAD PUSH3 0x461BCD PUSH1 0xE5 SHL DUP2 MSTORE PUSH1 0x20 PUSH1 0x4 DUP3 ADD MSTORE PUSH1 0x15 PUSH1 0x24 DUP3 ADD MSTORE PUSH21 0x141C9A5E99481D1C985B9CD9995C8819985A5B1959 PUSH1 0x5A SHL PUSH1 0x44 DUP3 ADD MSTORE PUSH1 0x64 ADD PUSH2 0x71F JUMP JUMPDEST PUSH1 0x40 DUP1 MLOAD DUP5 DUP2 MSTORE PUSH1 0x20 DUP2 ADD DUP5 SWAP1 MSTORE DUP8 SWAP2 CALLER SWAP2 PUSH32 0x701A77BD5E0B7B1FFFFE478C3C19E3CAADCA855782127FCA812C7CCD9646CDC4 SWAP2 ADD PUSH1 0x40 MLOAD DUP1 SWAP2 SUB SWAP1 LOG3 POP POP POP POP POP PUSH2 0x8FA PUSH1 0x1 DUP1 SSTORE JUMP JUMPDEST PUSH2 0x12AE PUSH2 0x131C JUMP JUMPDEST PUSH1 0x1 PUSH1 0x1 PUSH1 0xA0 SHL SUB DUP2 AND PUSH2 0x1313 JUMPI PUSH1 0x40 MLOAD PUSH3 0x461BCD PUSH1 0xE5 SHL DUP2 MSTORE PUSH1 0x20 PUSH1 0x4 DUP3 ADD MSTORE PUSH1 0x26 PUSH1 0x24 DUP3 ADD MSTORE PUSH32 0x4F776E61626C653A206E6577206F776E657220697320746865207A65726F2061 PUSH1 0x44 DUP3 ADD MSTORE PUSH6 0x646472657373 PUSH1 0xD0 SHL PUSH1 0x64 DUP3 ADD MSTORE PUSH1 0x84 ADD PUSH2 0x71F JUMP JUMPDEST PUSH2 0x8FA DUP2 PUSH2 0x18DD JUMP JUMPDEST PUSH1 0x0 SLOAD PUSH1 0x1 PUSH1 0x1 PUSH1 0xA0 SHL SUB AND CALLER EQ PUSH2 0x93E JUMPI PUSH1 0x40 MLOAD PUSH3 0x461BCD PUSH1 0xE5 SHL DUP2 MSTORE PUSH1 0x20 PUSH1 0x4 DUP3 ADD DUP2 SWAP1 MSTORE PUSH1 0x24 DUP3 ADD MSTORE PUSH32 0x4F776E61626C653A2063616C6C6572206973206E6F7420746865206F776E6572 PUSH1 0x44 DUP3 ADD MSTORE PUSH1 0x64 ADD PUSH2 0x71F JUMP JUMPDEST PUSH2 0x137E PUSH2 0x1C24 JUMP JUMPDEST PUSH2 0x1386 PUSH2 0x1C24 JUMP JUMPDEST PUSH1 0x3 SLOAD PUSH1 0x4 SLOAD PUSH1 0x40 DUP1 MLOAD TIMESTAMP PUSH1 0x20 DUP1 DUP4 ADD SWAP2 SWAP1 SWAP2 MSTORE PREVRANDAO DUP3 DUP5 ADD MSTORE NUMBER PUSH1 0x60 DUP1 DUP5 ADD SWAP2 SWAP1 SWAP2 MSTORE CALLER SWAP1 SHL PUSH12 0xFFFFFFFFFFFFFFFFFFFFFFFF NOT AND PUSH1 0x80 DUP4 ADD MSTORE PUSH1 0x94 DUP3 ADD SWAP5 SWAP1 SWAP5 MSTORE PUSH1 0xB4 DUP1 DUP3 ADD SWAP4 SWAP1 SWAP4 MSTORE DUP2 MLOAD DUP1 DUP3 SUB SWAP1 SWAP4 ADD DUP4 MSTORE PUSH1 0xD4 ADD SWAP1 MSTORE DUP1 MLOAD SWAP2 ADD KECCAK256 PUSH1 0x0 JUMPDEST PUSH1 0x6 DUP2 LT ISZERO PUSH2 0x14DA JUMPI PUSH1 0x0 DUP1 PUSH1 0x0 JUMPDEST PUSH1 0x40 DUP1 MLOAD PUSH1 0x20 DUP2 ADD DUP8 SWAP1 MSTORE SWAP1 DUP2 ADD DUP6 SWAP1 MSTORE PUSH1 0x60 DUP2 ADD DUP3 SWAP1 MSTORE PUSH1 0x80 ADD PUSH1 0x40 DUP1 MLOAD PUSH1 0x1F NOT DUP2 DUP5 SUB ADD DUP2 MSTORE SWAP2 SWAP1 MSTORE DUP1 MLOAD PUSH1 0x20 SWAP1 SWAP2 ADD KECCAK256 SWAP5 POP PUSH1 0x1 PUSH2 0x1439 PUSH1 0x31 DUP8 PUSH2 0x1F17 JUMP JUMPDEST PUSH2 0x1443 SWAP2 SWAP1 PUSH2 0x1EC7 JUMP JUMPDEST SWAP3 POP PUSH1 0x0 SWAP2 POP PUSH1 0x0 JUMPDEST DUP5 DUP2 LT ISZERO PUSH2 0x148C JUMPI DUP4 DUP8 DUP3 PUSH1 0x6 DUP2 LT PUSH2 0x1467 JUMPI PUSH2 0x1467 PUSH2 0x1E89 JUMP JUMPDEST PUSH1 0x20 MUL ADD MLOAD SUB PUSH2 0x147A JUMPI PUSH1 0x1 SWAP3 POP PUSH2 0x148C JUMP JUMPDEST DUP1 PUSH2 0x1484 DUP2 PUSH2 0x1E9F JUMP JUMPDEST SWAP2 POP POP PUSH2 0x144C JUMP JUMPDEST POP DUP1 PUSH2 0x1497 DUP2 PUSH2 0x1E9F JUMP JUMPDEST SWAP2 POP POP DUP2 DUP1 ISZERO PUSH2 0x14A7 JUMPI POP PUSH1 0x64 DUP2 LT JUMPDEST PUSH2 0x13F7 JUMPI DUP3 DUP7 DUP6 PUSH1 0x6 DUP2 LT PUSH2 0x14BE JUMPI PUSH2 0x14BE PUSH2 0x1E89 JUMP JUMPDEST PUSH1 0x20 MUL ADD MSTORE POP DUP3 SWAP2 POP PUSH2 0x14D2 SWAP1 POP DUP2 PUSH2 0x1E9F JUMP JUMPDEST SWAP2 POP POP PUSH2 0x13E8 JUMP JUMPDEST POP SWAP1 SWAP3 SWAP2 POP POP JUMP JUMPDEST PUSH1 0x3 SLOAD PUSH1 0x0 DUP2 DUP2 MSTORE PUSH1 0x7 PUSH1 0x20 DUP2 SWAP1 MSTORE PUSH1 0x40 DUP3 KECCAK256 SWAP3 DUP4 SSTORE TIMESTAMP SWAP1 DUP4 ADD SSTORE PUSH1 0x5 SLOAD PUSH1 0x8 DUP4 ADD SSTORE PUSH1 0xA DUP3 ADD DUP1 SLOAD PUSH1 0xFF NOT AND PUSH1 0x1 OR SWAP1 SSTORE JUMPDEST PUSH1 0x6 DUP2 LT ISZERO PUSH2 0x155E JUMPI DUP3 DUP2 PUSH1 0x6 DUP2 LT PUSH2 0x1530 JUMPI PUSH2 0x1530 PUSH2 0x1E89 JUMP JUMPDEST PUSH1 0x20 MUL ADD MLOAD DUP3 PUSH1 0x1 ADD DUP3 PUSH1 0x6 DUP2 LT PUSH2 0x154A JUMPI PUSH2 0x154A PUSH2 0x1E89 JUMP JUMPDEST ADD SSTORE DUP1 PUSH2 0x1556 DUP2 PUSH2 0x1E9F JUMP JUMPDEST SWAP2 POP POP PUSH2 0x1515 JUMP JUMPDEST POP PUSH1 0x3 SLOAD PUSH1 0x0 SWAP1 DUP2 MSTORE PUSH1 0xA PUSH1 0x20 SWAP1 DUP2 MSTORE PUSH1 0x40 DUP1 DUP4 KECCAK256 DUP1 SLOAD DUP3 MLOAD DUP2 DUP6 MUL DUP2 ADD DUP6 ADD SWAP1 SWAP4 MSTORE DUP1 DUP4 MSTORE SWAP2 SWAP3 SWAP1 SWAP2 SWAP1 DUP4 ADD DUP3 DUP3 DUP1 ISZERO PUSH2 0x15B8 JUMPI PUSH1 0x20 MUL DUP3 ADD SWAP2 SWAP1 PUSH1 0x0 MSTORE PUSH1 0x20 PUSH1 0x0 KECCAK256 SWAP1 JUMPDEST DUP2 SLOAD DUP2 MSTORE PUSH1 0x20 ADD SWAP1 PUSH1 0x1 ADD SWAP1 DUP1 DUP4 GT PUSH2 0x15A4 JUMPI JUMPDEST POP POP POP POP POP SWAP1 POP PUSH1 0x0 JUMPDEST DUP2 MLOAD DUP2 LT ISZERO PUSH2 0x1678 JUMPI PUSH1 0x0 DUP3 DUP3 DUP2 MLOAD DUP2 LT PUSH2 0x15DF JUMPI PUSH2 0x15DF PUSH2 0x1E89 JUMP JUMPDEST PUSH1 0x20 SWAP1 DUP2 MUL SWAP2 SWAP1 SWAP2 ADD DUP2 ADD MLOAD PUSH1 0x0 DUP2 DUP2 MSTORE PUSH1 0x8 SWAP1 SWAP3 MSTORE PUSH1 0x40 DUP1 DUP4 KECCAK256 DUP2 MLOAD PUSH1 0xC0 DUP2 ADD SWAP1 SWAP3 MSTORE SWAP2 SWAP4 POP PUSH2 0x1637 SWAP2 PUSH1 0x1 ADD PUSH1 0x6 DUP3 DUP3 DUP3 PUSH1 0x20 MUL DUP3 ADD SWAP2 JUMPDEST DUP2 SLOAD DUP2 MSTORE PUSH1 0x20 ADD SWAP1 PUSH1 0x1 ADD SWAP1 DUP1 DUP4 GT PUSH2 0x1619 JUMPI POP POP POP POP POP DUP8 PUSH2 0x1B4F JUMP JUMPDEST SWAP1 POP PUSH1 0x3 DUP2 LT PUSH2 0x1663 JUMPI PUSH1 0x0 DUP2 DUP2 MSTORE PUSH1 0xB DUP7 ADD PUSH1 0x20 MSTORE PUSH1 0x40 DUP2 KECCAK256 DUP1 SLOAD SWAP2 PUSH2 0x165D DUP4 PUSH2 0x1E9F JUMP JUMPDEST SWAP2 SWAP1 POP SSTORE POP JUMPDEST POP POP DUP1 DUP1 PUSH2 0x1670 SWAP1 PUSH2 0x1E9F JUMP JUMPDEST SWAP2 POP POP PUSH2 0x15C2 JUMP JUMPDEST POP PUSH1 0x8 DUP3 ADD SLOAD PUSH1 0x6 PUSH1 0x0 SWAP1 DUP2 MSTORE PUSH1 0xB DUP5 ADD PUSH1 0x20 MSTORE PUSH1 0x40 SWAP1 KECCAK256 SLOAD ISZERO PUSH2 0x1706 JUMPI PUSH1 0x6 PUSH1 0x0 SWAP1 DUP2 MSTORE PUSH1 0xB DUP5 ADD PUSH1 0x20 MSTORE PUSH1 0x40 SWAP1 KECCAK256 SLOAD PUSH1 0x64 PUSH2 0x16B6 PUSH1 0x3C DUP5 PUSH2 0x1E72 JUMP JUMPDEST PUSH2 0x16C0 SWAP2 SWAP1 PUSH2 0x1EF0 JUMP JUMPDEST PUSH2 0x16CA SWAP2 SWAP1 PUSH2 0x1EF0 JUMP JUMPDEST PUSH1 0x6 PUSH1 0x0 SWAP1 DUP2 MSTORE PUSH1 0xC DUP6 ADD PUSH1 0x20 DUP2 DUP2 MSTORE PUSH1 0x40 DUP1 DUP5 KECCAK256 DUP6 SWAP1 SSTORE PUSH1 0xB DUP9 ADD DUP3 MSTORE SWAP1 SWAP3 KECCAK256 SLOAD SWAP2 MSTORE PUSH2 0x16F7 SWAP2 PUSH2 0x1E72 JUMP JUMPDEST PUSH1 0x9 DUP5 ADD SSTORE PUSH1 0x0 PUSH1 0x5 SSTORE PUSH2 0x170E JUMP JUMPDEST PUSH1 0x0 PUSH1 0x9 DUP5 ADD SSTORE JUMPDEST PUSH1 0x5 PUSH1 0x0 SWAP1 DUP2 MSTORE PUSH1 0xB DUP5 ADD PUSH1 0x20 MSTORE PUSH1 0x40 SWAP1 KECCAK256 SLOAD ISZERO PUSH2 0x176E JUMPI PUSH1 0x5 PUSH1 0x0 SWAP1 DUP2 MSTORE PUSH1 0xB DUP5 ADD PUSH1 0x20 MSTORE PUSH1 0x40 SWAP1 KECCAK256 SLOAD PUSH1 0x64 PUSH2 0x1746 PUSH1 0x14 DUP5 PUSH2 0x1E72 JUMP JUMPDEST PUSH2 0x1750 SWAP2 SWAP1 PUSH2 0x1EF0 JUMP JUMPDEST PUSH2 0x175A SWAP2 SWAP1 PUSH2 0x1EF0 JUMP JUMPDEST PUSH1 0x5 PUSH1 0x0 SWAP1 DUP2 MSTORE PUSH1 0xC DUP6 ADD PUSH1 0x20 MSTORE PUSH1 0x40 SWAP1 KECCAK256 SSTORE JUMPDEST PUSH1 0x4 PUSH1 0x0 SWAP1 DUP2 MSTORE PUSH1 0xB DUP5 ADD PUSH1 0x20 MSTORE PUSH1 0x40 SWAP1 KECCAK256 SLOAD ISZERO PUSH2 0x17CE JUMPI PUSH1 0x4 PUSH1 0x0 SWAP1 DUP2 MSTORE PUSH1 0xB DUP5 ADD PUSH1 0x20 MSTORE PUSH1 0x40 SWAP1 KECCAK256 SLOAD PUSH1 0x64 PUSH2 0x17A6 PUSH1 0xF DUP5 PUSH2 0x1E72 JUMP JUMPDEST PUSH2 0x17B0 SWAP2 SWAP1 PUSH2 0x1EF0 JUMP JUMPDEST PUSH2 0x17BA SWAP2 SWAP1 PUSH2 0x1EF0 JUMP JUMPDEST PUSH1 0x4 PUSH1 0x0 SWAP1 DUP2 MSTORE PUSH1 0xC DUP6 ADD PUSH1 0x20 MSTORE PUSH1 0x40 SWAP1 KECCAK256 SSTORE JUMPDEST PUSH1 0x3 PUSH1 0x0 SWAP1 DUP2 MSTORE PUSH1 0xB DUP5 ADD PUSH1 0x20 MSTORE PUSH1 0x40 SWAP1 KECCAK256 SLOAD ISZERO PUSH2 0x182E JUMPI PUSH1 0x3 PUSH1 0x0 SWAP1 DUP2 MSTORE PUSH1 0xB DUP5 ADD PUSH1 0x20 MSTORE PUSH1 0x40 SWAP1 KECCAK256 SLOAD PUSH1 0x64 PUSH2 0x1806 PUSH1 0x5 DUP5 PUSH2 0x1E72 JUMP JUMPDEST PUSH2 0x1810 SWAP2 SWAP1 PUSH2 0x1EF0 JUMP JUMPDEST PUSH2 0x181A SWAP2 SWAP1 PUSH2 0x1EF0 JUMP JUMPDEST PUSH1 0x3 PUSH1 0x0 SWAP1 DUP2 MSTORE PUSH1 0xC DUP6 ADD PUSH1 0x20 MSTORE PUSH1 0x40 SWAP1 KECCAK256 SSTORE JUMPDEST PUSH1 0x3 SLOAD PUSH32 0x50814EA5605E6BCE4E231A3C0FD99301DAFDEEF6DA03FBCB57C6EC0CF3E132F2 DUP6 DUP4 DUP7 PUSH1 0x9 ADD SLOAD PUSH1 0x40 MLOAD PUSH2 0x1868 SWAP4 SWAP3 SWAP2 SWAP1 PUSH2 0x1F2B JUMP JUMPDEST PUSH1 0x40 MLOAD DUP1 SWAP2 SUB SWAP1 LOG2 PUSH1 0x3 DUP1 SLOAD SWAP1 PUSH1 0x0 PUSH2 0x1880 DUP4 PUSH2 0x1E9F JUMP JUMPDEST SWAP2 SWAP1 POP SSTORE POP POP POP POP POP JUMP JUMPDEST PUSH2 0x1893 PUSH2 0x1BDB JUMP JUMPDEST PUSH1 0x2 DUP1 SLOAD PUSH1 0xFF NOT AND SWAP1 SSTORE PUSH32 0x5DB9EE0A495BF2E6FF9C91A7834C1BA4FDD244A5E8AA4E537BD38AEAE4B073AA CALLER JUMPDEST PUSH1 0x40 MLOAD PUSH1 0x1 PUSH1 0x1 PUSH1 0xA0 SHL SUB SWAP1 SWAP2 AND DUP2 MSTORE PUSH1 0x20 ADD PUSH1 0x40 MLOAD DUP1 SWAP2 SUB SWAP1 LOG1 JUMP JUMPDEST PUSH1 0x0 DUP1 SLOAD PUSH1 0x1 PUSH1 0x1 PUSH1 0xA0 SHL SUB DUP4 DUP2 AND PUSH1 0x1 PUSH1 0x1 PUSH1 0xA0 SHL SUB NOT DUP4 AND DUP2 OR DUP5 SSTORE PUSH1 0x40 MLOAD SWAP2 SWAP1 SWAP3 AND SWAP3 DUP4 SWAP2 PUSH32 0x8BE0079C531659141344CD1FD0A4F28419497F9722A3DAAFE3B4186F6B6457E0 SWAP2 SWAP1 LOG3 POP POP JUMP JUMPDEST PUSH1 0x2 PUSH1 0x1 SLOAD SUB PUSH2 0x197F JUMPI PUSH1 0x40 MLOAD PUSH3 0x461BCD PUSH1 0xE5 SHL DUP2 MSTORE PUSH1 0x20 PUSH1 0x4 DUP3 ADD MSTORE PUSH1 0x1F PUSH1 0x24 DUP3 ADD MSTORE PUSH32 0x5265656E7472616E637947756172643A207265656E7472616E742063616C6C00 PUSH1 0x44 DUP3 ADD MSTORE PUSH1 0x64 ADD PUSH2 0x71F JUMP JUMPDEST PUSH1 0x2 PUSH1 0x1 SSTORE JUMP JUMPDEST PUSH1 0x2 SLOAD PUSH1 0xFF AND ISZERO PUSH2 0x93E JUMPI PUSH1 0x40 MLOAD PUSH3 0x461BCD PUSH1 0xE5 SHL DUP2 MSTORE PUSH1 0x20 PUSH1 0x4 DUP3 ADD MSTORE PUSH1 0x10 PUSH1 0x24 DUP3 ADD MSTORE PUSH16 0x14185D5CD8589B194E881C185D5CD959 PUSH1 0x82 SHL PUSH1 0x44 DUP3 ADD MSTORE PUSH1 0x64 ADD PUSH2 0x71F JUMP JUMPDEST PUSH1 0x0 JUMPDEST PUSH1 0x6 DUP2 LT ISZERO PUSH2 0xD8B JUMPI PUSH1 0x1 DUP3 DUP3 PUSH1 0x6 DUP2 LT PUSH2 0x19EC JUMPI PUSH2 0x19EC PUSH2 0x1E89 JUMP JUMPDEST PUSH1 0x20 MUL ADD MLOAD LT ISZERO DUP1 ISZERO PUSH2 0x1A16 JUMPI POP PUSH1 0x31 DUP3 DUP3 PUSH1 0x6 DUP2 LT PUSH2 0x1A0E JUMPI PUSH2 0x1A0E PUSH2 0x1E89 JUMP JUMPDEST PUSH1 0x20 MUL ADD MLOAD GT ISZERO JUMPDEST PUSH2 0x1A59 JUMPI PUSH1 0x40 MLOAD PUSH3 0x461BCD PUSH1 0xE5 SHL DUP2 MSTORE PUSH1 0x20 PUSH1 0x4 DUP3 ADD MSTORE PUSH1 0x14 PUSH1 0x24 DUP3 ADD MSTORE PUSH20 0x496E76616C6964206E756D6265722072616E6765 PUSH1 0x60 SHL PUSH1 0x44 DUP3 ADD MSTORE PUSH1 0x64 ADD PUSH2 0x71F JUMP JUMPDEST PUSH1 0x0 PUSH2 0x1A66 DUP3 PUSH1 0x1 PUSH2 0x1EC7 JUMP JUMPDEST SWAP1 POP JUMPDEST PUSH1 0x6 DUP2 LT ISZERO PUSH2 0x1AFF JUMPI DUP3 DUP2 PUSH1 0x6 DUP2 LT PUSH2 0x1A84 JUMPI PUSH2 0x1A84 PUSH2 0x1E89 JUMP JUMPDEST PUSH1 0x20 MUL ADD MLOAD DUP4 DUP4 PUSH1 0x6 DUP2 LT PUSH2 0x1A9B JUMPI PUSH2 0x1A9B PUSH2 0x1E89 JUMP JUMPDEST PUSH1 0x20 MUL ADD MLOAD SUB PUSH2 0x1AED JUMPI PUSH1 0x40 MLOAD PUSH3 0x461BCD PUSH1 0xE5 SHL DUP2 MSTORE PUSH1 0x20 PUSH1 0x4 DUP3 ADD MSTORE PUSH1 0x1D PUSH1 0x24 DUP3 ADD MSTORE PUSH32 0x4475706C6963617465206E756D62657273206E6F7420616C6C6F776564000000 PUSH1 0x44 DUP3 ADD MSTORE PUSH1 0x64 ADD PUSH2 0x71F JUMP JUMPDEST DUP1 PUSH2 0x1AF7 DUP2 PUSH2 0x1E9F JUMP JUMPDEST SWAP2 POP POP PUSH2 0x1A69 JUMP JUMPDEST POP DUP1 PUSH2 0x1B0A DUP2 PUSH2 0x1E9F JUMP JUMPDEST SWAP2 POP POP PUSH2 0x19CF JUMP JUMPDEST PUSH2 0x1B1A PUSH2 0x1986 JUMP JUMPDEST PUSH1 0x2 DUP1 SLOAD PUSH1 0xFF NOT AND PUSH1 0x1 OR SWAP1 SSTORE PUSH32 0x62E78CEA01BEE320CD4E420270B5EA74000D11B0C9F74754EBDBFC544B05A258 PUSH2 0x18C0 CALLER SWAP1 JUMP JUMPDEST PUSH1 0x0 DUP1 DUP1 JUMPDEST PUSH1 0x6 DUP2 LT ISZERO PUSH2 0x1BD3 JUMPI PUSH1 0x0 JUMPDEST PUSH1 0x6 DUP2 LT ISZERO PUSH2 0x1BC0 JUMPI DUP5 DUP2 PUSH1 0x6 DUP2 LT PUSH2 0x1B7B JUMPI PUSH2 0x1B7B PUSH2 0x1E89 JUMP JUMPDEST PUSH1 0x20 MUL ADD MLOAD DUP7 DUP4 PUSH1 0x6 DUP2 LT PUSH2 0x1B92 JUMPI PUSH2 0x1B92 PUSH2 0x1E89 JUMP JUMPDEST PUSH1 0x20 MUL ADD MLOAD SUB PUSH2 0x1BAE JUMPI DUP3 PUSH2 0x1BA6 DUP2 PUSH2 0x1E9F JUMP JUMPDEST SWAP4 POP POP PUSH2 0x1BC0 JUMP JUMPDEST DUP1 PUSH2 0x1BB8 DUP2 PUSH2 0x1E9F JUMP JUMPDEST SWAP2 POP POP PUSH2 0x1B60 JUMP JUMPDEST POP DUP1 PUSH2 0x1BCB DUP2 PUSH2 0x1E9F JUMP JUMPDEST SWAP2 POP POP PUSH2 0x1B54 JUMP JUMPDEST POP SWAP4 SWAP3 POP POP POP JUMP JUMPDEST PUSH1 0x2 SLOAD PUSH1 0xFF AND PUSH2 0x93E JUMPI PUSH1 0x40 MLOAD PUSH3 0x461BCD PUSH1 0xE5 SHL DUP2 MSTORE PUSH1 0x20 PUSH1 0x4 DUP3 ADD MSTORE PUSH1 0x14 PUSH1 0x24 DUP3 ADD MSTORE PUSH20 0x14185D5CD8589B194E881B9BDD081C185D5CD959 PUSH1 0x62 SHL PUSH1 0x44 DUP3 ADD MSTORE PUSH1 0x64 ADD PUSH2 0x71F JUMP JUMPDEST PUSH1 0x40 MLOAD DUP1 PUSH1 0xC0 ADD PUSH1 0x40 MSTORE DUP1 PUSH1 0x6 SWAP1 PUSH1 0x20 DUP3 MUL DUP1 CALLDATASIZE DUP4 CALLDATACOPY POP SWAP2 SWAP3 SWAP2 POP POP JUMP JUMPDEST PUSH1 0x0 PUSH1 0x20 DUP3 DUP5 SUB SLT ISZERO PUSH2 0x1C54 JUMPI PUSH1 0x0 DUP1 REVERT JUMPDEST POP CALLDATALOAD SWAP2 SWAP1 POP JUMP JUMPDEST PUSH1 0x0 DUP1 PUSH1 0x40 DUP4 DUP6 SUB SLT ISZERO PUSH2 0x1C6E JUMPI PUSH1 0x0 DUP1 REVERT JUMPDEST POP POP DUP1 CALLDATALOAD SWAP3 PUSH1 0x20 SWAP1 SWAP2 ADD CALLDATALOAD SWAP2 POP JUMP JUMPDEST PUSH1 0x0 PUSH1 0x20 DUP3 DUP5 SUB SLT ISZERO PUSH2 0x1C8F JUMPI PUSH1 0x0 DUP1 REVERT JUMPDEST DUP2 CALLDATALOAD PUSH1 0x1 PUSH1 0x1 PUSH1 0xA0 SHL SUB DUP2 AND DUP2 EQ PUSH2 0x1CA6 JUMPI PUSH1 0x0 DUP1 REVERT JUMPDEST SWAP4 SWAP3 POP POP POP JUMP JUMPDEST PUSH1 0x0 DUP2 MLOAD DUP1 DUP5 MSTORE PUSH1 0x20 DUP1 DUP6 ADD SWAP5 POP DUP1 DUP5 ADD PUSH1 0x0 JUMPDEST DUP4 DUP2 LT ISZERO PUSH2 0x1CDD JUMPI DUP2 MLOAD DUP8 MSTORE SWAP6 DUP3 ADD SWAP6 SWAP1 DUP3 ADD SWAP1 PUSH1 0x1 ADD PUSH2 0x1CC1 JUMP JUMPDEST POP SWAP5 SWAP6 SWAP5 POP POP POP POP POP JUMP JUMPDEST DUP4 DUP2 MSTORE DUP3 PUSH1 0x20 DUP3 ADD MSTORE PUSH1 0x60 PUSH1 0x40 DUP3 ADD MSTORE PUSH1 0x0 PUSH2 0x1D07 PUSH1 0x60 DUP4 ADD DUP5 PUSH2 0x1CAD JUMP JUMPDEST SWAP6 SWAP5 POP POP POP POP POP JUMP JUMPDEST PUSH1 0x20 DUP2 MSTORE PUSH1 0x0 PUSH2 0x1CA6 PUSH1 0x20 DUP4 ADD DUP5 PUSH2 0x1CAD JUMP JUMPDEST PUSH1 0x0 DUP1 PUSH1 0x20 DUP4 DUP6 SUB SLT ISZERO PUSH2 0x1D36 JUMPI PUSH1 0x0 DUP1 REVERT JUMPDEST DUP3 CALLDATALOAD PUSH8 0xFFFFFFFFFFFFFFFF DUP1 DUP3 GT ISZERO PUSH2 0x1D4E JUMPI PUSH1 0x0 DUP1 REVERT JUMPDEST DUP2 DUP6 ADD SWAP2 POP DUP6 PUSH1 0x1F DUP4 ADD SLT PUSH2 0x1D62 JUMPI PUSH1 0x0 DUP1 REVERT JUMPDEST DUP2 CALLDATALOAD DUP2 DUP2 GT ISZERO PUSH2 0x1D71 JUMPI PUSH1 0x0 DUP1 REVERT JUMPDEST DUP7 PUSH1 0x20 PUSH1 0xC0 DUP4 MUL DUP6 ADD ADD GT ISZERO PUSH2 0x1D86 JUMPI PUSH1 0x0 DUP1 REVERT JUMPDEST PUSH1 0x20 SWAP3 SWAP1 SWAP3 ADD SWAP7 SWAP2 SWAP6 POP SWAP1 SWAP4 POP POP POP POP JUMP JUMPDEST DUP1 PUSH1 0x0 JUMPDEST PUSH1 0x6 DUP2 LT ISZERO PUSH2 0x1DBB JUMPI DUP2 MLOAD DUP5 MSTORE PUSH1 0x20 SWAP4 DUP5 ADD SWAP4 SWAP1 SWAP2 ADD SWAP1 PUSH1 0x1 ADD PUSH2 0x1D9C JUMP JUMPDEST POP POP POP POP JUMP JUMPDEST PUSH1 0x1 PUSH1 0x1 PUSH1 0xA0 SHL SUB DUP6 AND DUP2 MSTORE PUSH2 0x120 DUP2 ADD PUSH2 0x1DDF PUSH1 0x20 DUP4 ADD DUP7 PUSH2 0x1D98 JUMP JUMPDEST DUP4 PUSH1 0xE0 DUP4 ADD MSTORE DUP3 ISZERO ISZERO PUSH2 0x100 DUP4 ADD MSTORE SWAP6 SWAP5 POP POP POP POP POP JUMP JUMPDEST DUP7 DUP2 MSTORE PUSH2 0x160 DUP2 ADD PUSH2 0x1E0C PUSH1 0x20 DUP4 ADD DUP9 PUSH2 0x1D98 JUMP JUMPDEST DUP6 PUSH1 0xE0 DUP4 ADD MSTORE DUP5 PUSH2 0x100 DUP4 ADD MSTORE DUP4 PUSH2 0x120 DUP4 ADD MSTORE DUP3 ISZERO ISZERO PUSH2 0x140 DUP4 ADD MSTORE SWAP8 SWAP7 POP POP POP POP POP POP POP JUMP JUMPDEST PUSH1 0x0 PUSH1 0xC0 DUP3 DUP5 SUB SLT ISZERO PUSH2 0x1E46 JUMPI PUSH1 0x0 DUP1 REVERT JUMPDEST DUP3 PUSH1 0xC0 DUP4 ADD GT ISZERO PUSH2 0x1E56 JUMPI PUSH1 0x0 DUP1 REVERT JUMPDEST POP SWAP2 SWAP1 POP JUMP JUMPDEST PUSH4 0x4E487B71 PUSH1 0xE0 SHL PUSH1 0x0 MSTORE PUSH1 0x11 PUSH1 0x4 MSTORE PUSH1 0x24 PUSH1 0x0 REVERT JUMPDEST DUP1 DUP3 MUL DUP2 ISZERO DUP3 DUP3 DIV DUP5 EQ OR PUSH2 0xA43 JUMPI PUSH2 0xA43 PUSH2 0x1E5C JUMP JUMPDEST PUSH4 0x4E487B71 PUSH1 0xE0 SHL PUSH1 0x0 MSTORE PUSH1 0x32 PUSH1 0x4 MSTORE PUSH1 0x24 PUSH1 0x0 REVERT JUMPDEST PUSH1 0x0 PUSH1 0x1 DUP3 ADD PUSH2 0x1EB1 JUMPI PUSH2 0x1EB1 PUSH2 0x1E5C JUMP JUMPDEST POP PUSH1 0x1 ADD SWAP1 JUMP JUMPDEST PUSH1 0xC0 DUP2 DUP2 ADD SWAP1 DUP4 DUP4 CALLDATACOPY SWAP3 SWAP2 POP POP JUMP JUMPDEST DUP1 DUP3 ADD DUP1 DUP3 GT ISZERO PUSH2 0xA43 JUMPI PUSH2 0xA43 PUSH2 0x1E5C JUMP JUMPDEST PUSH4 0x4E487B71 PUSH1 0xE0 SHL PUSH1 0x0 MSTORE PUSH1 0x12 PUSH1 0x4 MSTORE PUSH1 0x24 PUSH1 0x0 REVERT JUMPDEST PUSH1 0x0 DUP3 PUSH2 0x1EFF JUMPI PUSH2 0x1EFF PUSH2 0x1EDA JUMP JUMPDEST POP DIV SWAP1 JUMP JUMPDEST DUP2 DUP2 SUB DUP2 DUP2 GT ISZERO PUSH2 0xA43 JUMPI PUSH2 0xA43 PUSH2 0x1E5C JUMP JUMPDEST PUSH1 0x0 DUP3 PUSH2 0x1F26 JUMPI PUSH2 0x1F26 PUSH2 0x1EDA JUMP JUMPDEST POP MOD SWAP1 JUMP JUMPDEST PUSH2 0x100 DUP2 ADD PUSH2 0x1F3A DUP3 DUP7 PUSH2 0x1D98 JUMP JUMPDEST PUSH1 0xC0 DUP3 ADD SWAP4 SWAP1 SWAP4 MSTORE PUSH1 0xE0 ADD MSTORE SWAP2 SWAP1 POP JUMP INVALID LOG2 PUSH5 0x6970667358 0x22 SLT KECCAK256 0xAB 0xAF 0xC1 PUSH21 0x16696E15B0AEEC9EAD852A276436B5A80D6762ECF6 PUSH5 0x90988375A0 EXTCODEHASH PUSH5 0x736F6C6343 STOP ADDMOD SGT STOP CALLER "},"methodIdentifiers":{"ADMIN_FEE_PERCENTAGE()":"5c221034","FOURTH_PRIZE_PERCENTAGE()":"610a14d5","JACKPOT_PERCENTAGE()":"a6858ee6","MAX_NUMBER()":"fea9b572","MIN_NUMBER()":"dd8ab8f9","NUMBERS_PER_TICKET()":"fab14e8e","SECOND_PRIZE_PERCENTAGE()":"c4aa7245","THIRD_PRIZE_PERCENTAGE()":"2599399e","TICKET_PRICE()":"1a95f15f","accumulatedJackpot()":"54c0273e","adminBalance()":"9858befb","claimPrize(uint256)":"d7098154","currentDrawId()":"bca78fab","drawTickets(uint256,uint256)":"376c2bbe","draws(uint256)":"0cc36c36","executeDraw()":"2d49a7bf","executeDrawManual(uint256[6])":"c9911ea7","getDraw(uint256)":"be6307c8","getDrawTickets(uint256)":"5b183c2a","getLotteryState()":"6b68c03c","getPlayerStats(address)":"4fd66eae","getPrizeAmount(uint256,uint256)":"6abe4b1a","getTicket(uint256)":"7dc379fa","getWinnersCount(uint256,uint256)":"f1082b76","owner()":"8da5cb5b","pause()":"8456cb59","paused()":"5c975abb","playerStats(address)":"cdafbbb6","purchaseTickets(uint256[6][])":"7940b589","renounceOwnership()":"715018a6","tickets(uint256)":"50b44712","totalTicketsSold()":"34701db8","transferOwnership(address)":"f2fde38b","unpause()":"3f4ba83a","withdrawAdminFees()":"0419b45a"}}}}}