{"contracts/KasDrawLottery.sol":{"KasDrawLottery":{"abi":[{"inputs":[],"stateMutability":"nonpayable","type":"constructor"},{"anonymous":false,"inputs":[{"indexed":true,"internalType":"address","name":"admin","type":"address"},{"indexed":false,"internalType":"uint256","name":"amount","type":"uint256"}],"name":"AdminFeesWithdrawn","type":"event"},{"anonymous":false,"inputs":[{"indexed":true,"internalType":"uint256","name":"drawId","type":"uint256"},{"indexed":false,"internalType":"uint256[6]","name":"winningNumbers","type":"uint256[6]"},{"indexed":false,"internalType":"uint256","name":"totalPrizePool","type":"uint256"},{"indexed":false,"internalType":"uint256","name":"jackpotAmount","type":"uint256"}],"name":"DrawExecuted","type":"event"},{"anonymous":false,"inputs":[{"indexed":true,"internalType":"address","name":"previousOwner","type":"address"},{"indexed":true,"internalType":"address","name":"newOwner","type":"address"}],"name":"OwnershipTransferred","type":"event"},{"anonymous":false,"inputs":[{"indexed":false,"internalType":"address","name":"account","type":"address"}],"name":"Paused","type":"event"},{"anonymous":false,"inputs":[{"indexed":true,"internalType":"address","name":"player","type":"address"},{"indexed":true,"internalType":"uint256","name":"ticketId","type":"uint256"},{"indexed":false,"internalType":"uint256","name":"matches","type":"uint256"},{"indexed":false,"internalType":"uint256","name":"amount","type":"uint256"}],"name":"PrizeClaimed","type":"event"},{"anonymous":false,"inputs":[{"indexed":true,"internalType":"address","name":"player","type":"address"},{"indexed":true,"internalType":"uint256","name":"ticketId","type":"uint256"},{"indexed":true,"internalType":"uint256","name":"drawId","type":"uint256"},{"indexed":false,"internalType":"uint256[6]","name":"numbers","type":"uint256[6]"}],"name":"TicketPurchased","type":"event"},{"anonymous":false,"inputs":[{"indexed":false,"internalType":"address","name":"account","type":"address"}],"name":"Unpaused","type":"event"},{"inputs":[],"name":"ADMIN_FEE_PERCENTAGE","outputs":[{"internalType":"uint256","name":"","type":"uint256"}],"stateMutability":"view","type":"function"},{"inputs":[],"name":"FOURTH_PRIZE_PERCENTAGE","outputs":[{"internalType":"uint256","name":"","type":"uint256"}],"stateMutability":"view","type":"function"},{"inputs":[],"name":"JACKPOT_PERCENTAGE","outputs":[{"internalType":"uint256","name":"","type":"uint256"}],"stateMutability":"view","type":"function"},{"inputs":[],"name":"MAX_NUMBER","outputs":[{"internalType":"uint256","name":"","type":"uint256"}],"stateMutability":"view","type":"function"},{"inputs":[],"name":"MIN_NUMBER","outputs":[{"internalType":"uint256","name":"","type":"uint256"}],"stateMutability":"view","type":"function"},{"inputs":[],"name":"NUMBERS_PER_TICKET","outputs":[{"internalType":"uint256","name":"","type":"uint256"}],"stateMutability":"view","type":"function"},{"inputs":[],"name":"SECOND_PRIZE_PERCENTAGE","outputs":[{"internalType":"uint256","name":"","type":"uint256"}],"stateMutability":"view","type":"function"},{"inputs":[],"name":"THIRD_PRIZE_PERCENTAGE","outputs":[{"internalType":"uint256","name":"","type":"uint256"}],"stateMutability":"view","type":"function"},{"inputs":[],"name":"TICKET_PRICE","outputs":[{"internalType":"uint256","name":"","type":"uint256"}],"stateMutability":"view","type":"function"},{"inputs":[],"name":"accumulatedJackpot","outputs":[{"internalType":"uint256","name":"","type":"uint256"}],"stateMutability":"view","type":"function"},{"inputs":[],"name":"adminBalance","outputs":[{"internalType":"uint256","name":"","type":"uint256"}],"stateMutability":"view","type":"function"},{"inputs":[{"internalType":"uint256","name":"ticketId","type":"uint256"}],"name":"claimPrize","outputs":[],"stateMutability":"nonpayable","type":"function"},{"inputs":[],"name":"currentDrawId","outputs":[{"internalType":"uint256","name":"","type":"uint256"}],"stateMutability":"view","type":"function"},{"inputs":[{"internalType":"uint256","name":"","type":"uint256"},{"internalType":"uint256","name":"","type":"uint256"}],"name":"drawTickets","outputs":[{"internalType":"uint256","name":"","type":"uint256"}],"stateMutability":"view","type":"function"},{"inputs":[{"internalType":"uint256","name":"","type":"uint256"}],"name":"draws","outputs":[{"internalType":"uint256","name":"id","type":"uint256"},{"internalType":"uint256","name":"timestamp","type":"uint256"},{"internalType":"uint256","name":"totalPrizePool","type":"uint256"},{"internalType":"uint256","name":"jackpotAmount","type":"uint256"},{"internalType":"bool","name":"executed","type":"bool"}],"stateMutability":"view","type":"function"},{"inputs":[],"name":"executeDraw","outputs":[],"stateMutability":"nonpayable","type":"function"},{"inputs":[{"internalType":"uint256[6]","name":"winningNumbers","type":"uint256[6]"}],"name":"executeDrawManual","outputs":[],"stateMutability":"nonpayable","type":"function"},{"inputs":[{"internalType":"uint256","name":"drawId","type":"uint256"}],"name":"getDraw","outputs":[{"internalType":"uint256","name":"id","type":"uint256"},{"internalType":"uint256[6]","name":"winningNumbers","type":"uint256[6]"},{"internalType":"uint256","name":"timestamp","type":"uint256"},{"internalType":"uint256","name":"totalPrizePool","type":"uint256"},{"internalType":"uint256","name":"jackpotAmount","type":"uint256"},{"internalType":"bool","name":"executed","type":"bool"}],"stateMutability":"view","type":"function"},{"inputs":[{"internalType":"uint256","name":"drawId","type":"uint256"}],"name":"getDrawTickets","outputs":[{"internalType":"uint256[]","name":"","type":"uint256[]"}],"stateMutability":"view","type":"function"},{"inputs":[{"internalType":"uint256","name":"drawId","type":"uint256"}],"name":"getDrawWinners","outputs":[{"internalType":"address[]","name":"winners","type":"address[]"},{"internalType":"uint256[]","name":"matchCounts","type":"uint256[]"},{"internalType":"uint256[]","name":"prizeAmounts","type":"uint256[]"},{"internalType":"bool[]","name":"claimed","type":"bool[]"}],"stateMutability":"view","type":"function"},{"inputs":[],"name":"getLotteryState","outputs":[{"internalType":"uint256","name":"_currentDrawId","type":"uint256"},{"internalType":"uint256","name":"_totalTicketsSold","type":"uint256"},{"internalType":"uint256","name":"_accumulatedJackpot","type":"uint256"},{"internalType":"uint256","name":"_adminBalance","type":"uint256"},{"internalType":"bool","name":"_paused","type":"bool"}],"stateMutability":"view","type":"function"},{"inputs":[{"internalType":"address","name":"player","type":"address"}],"name":"getPlayerStats","outputs":[{"internalType":"uint256","name":"totalTickets","type":"uint256"},{"internalType":"uint256","name":"totalWinnings","type":"uint256"},{"internalType":"uint256[]","name":"ticketIds","type":"uint256[]"}],"stateMutability":"view","type":"function"},{"inputs":[{"internalType":"uint256","name":"drawId","type":"uint256"},{"internalType":"uint256","name":"matches","type":"uint256"}],"name":"getPrizeAmount","outputs":[{"internalType":"uint256","name":"","type":"uint256"}],"stateMutability":"view","type":"function"},{"inputs":[],"name":"getRolloverAmount","outputs":[{"internalType":"uint256","name":"rolloverAmount","type":"uint256"}],"stateMutability":"view","type":"function"},{"inputs":[{"internalType":"uint256","name":"ticketId","type":"uint256"}],"name":"getTicket","outputs":[{"internalType":"address","name":"player","type":"address"},{"internalType":"uint256[6]","name":"numbers","type":"uint256[6]"},{"internalType":"uint256","name":"drawId","type":"uint256"},{"internalType":"bool","name":"claimed","type":"bool"}],"stateMutability":"view","type":"function"},{"inputs":[{"internalType":"uint256","name":"drawId","type":"uint256"},{"internalType":"uint256","name":"matches","type":"uint256"}],"name":"getWinnersCount","outputs":[{"internalType":"uint256","name":"","type":"uint256"}],"stateMutability":"view","type":"function"},{"inputs":[],"name":"owner","outputs":[{"internalType":"address","name":"","type":"address"}],"stateMutability":"view","type":"function"},{"inputs":[],"name":"pause","outputs":[],"stateMutability":"nonpayable","type":"function"},{"inputs":[],"name":"paused","outputs":[{"internalType":"bool","name":"","type":"bool"}],"stateMutability":"view","type":"function"},{"inputs":[{"internalType":"address","name":"","type":"address"}],"name":"playerStats","outputs":[{"internalType":"uint256","name":"totalTickets","type":"uint256"},{"internalType":"uint256","name":"totalWinnings","type":"uint256"}],"stateMutability":"view","type":"function"},{"inputs":[{"internalType":"uint256[6][]","name":"ticketNumbers","type":"uint256[6][]"}],"name":"purchaseTickets","outputs":[],"stateMutability":"payable","type":"function"},{"inputs":[],"name":"renounceOwnership","outputs":[],"stateMutability":"nonpayable","type":"function"},{"inputs":[{"internalType":"uint256","name":"","type":"uint256"}],"name":"tickets","outputs":[{"internalType":"address","name":"player","type":"address"},{"internalType":"uint256","name":"drawId","type":"uint256"},{"internalType":"bool","name":"claimed","type":"bool"}],"stateMutability":"view","type":"function"},{"inputs":[],"name":"totalTicketsSold","outputs":[{"internalType":"uint256","name":"","type":"uint256"}],"stateMutability":"view","type":"function"},{"inputs":[{"internalType":"address","name":"newOwner","type":"address"}],"name":"transferOwnership","outputs":[],"stateMutability":"nonpayable","type":"function"},{"inputs":[],"name":"unpause","outputs":[],"stateMutability":"nonpayable","type":"function"},{"inputs":[],"name":"withdrawAdminFees","outputs":[],"stateMutability":"nonpayable","type":"function"}],"evm":{"bytecode":{"linkReferences":{},"object":"608060405234801561001057600080fd5b5061001a33610036565b60018080556002805460ff191690556003819055600b55610086565b600080546001600160a01b038381166001600160a01b0319831681178455604051919092169283917f8be0079c531659141344cd1fd0a4f28419497f9722a3daafe3b4186f6b6457e09190a35050565b6126fb806100956000396000f3fe60806040526004361061021a5760003560e01c80637940b58911610123578063c4aa7245116100ab578063dd8ab8f91161006f578063dd8ab8f914610433578063f1082b76146106a0578063f2fde38b146106dc578063fab14e8e146106fc578063fea9b5721461071157600080fd5b8063c4aa7245146105ed578063c9911ea714610602578063cdafbbb614610622578063d37715681461066b578063d70981541461068057600080fd5b80639858befb116100f25780639858befb1461054a578063a6858ee614610560578063b0574bb814610575578063bca78fab146105a5578063be6307c8146105bb57600080fd5b80637940b589146104ca5780637dc379fa146104dd5780638456cb591461050d5780638da5cb5b1461052257600080fd5b806350b44712116101a65780635c975abb116101755780635c975abb14610448578063610a14d51461046b5780636abe4b1a146104805780636b68c03c146104a0578063715018a6146104b557600080fd5b806350b447121461037f57806354c0273e146103f05780635b183c2a146104065780635c2210341461043357600080fd5b80632d49a7bf116101ed5780632d49a7bf146102f057806334701db814610305578063376c2bbe1461031b5780633f4ba83a1461033b5780634fd66eae1461035057600080fd5b80630419b45a1461021f5780630cc36c36146102365780631a95f15f146102b15780632599399e146102db575b600080fd5b34801561022b57600080fd5b50610234610726565b005b34801561024257600080fd5b506102826102513660046122df565b600760208190526000918252604090912080549181015460088201546009830154600a909301549192909160ff1685565b6040805195865260208601949094529284019190915260608301521515608082015260a0015b60405180910390f35b3480156102bd57600080fd5b506102cd678ac7230489e8000081565b6040519081526020016102a8565b3480156102e757600080fd5b506102cd600f81565b3480156102fc57600080fd5b5061023461087d565b34801561031157600080fd5b506102cd60045481565b34801561032757600080fd5b506102cd6103363660046122f8565b610958565b34801561034757600080fd5b50610234610989565b34801561035c57600080fd5b5061037061036b36600461231a565b61099b565b6040516102a893929190612385565b34801561038b57600080fd5b506103c961039a3660046122df565b60086020819052600091825260409091208054600782015491909201546001600160a01b039092169160ff1683565b604080516001600160a01b03909416845260208401929092521515908201526060016102a8565b3480156103fc57600080fd5b506102cd60055481565b34801561041257600080fd5b506104266104213660046122df565b610a1e565b6040516102a891906123ad565b34801561043f57600080fd5b506102cd600181565b34801561045457600080fd5b5060025460ff1660405190151581526020016102a8565b34801561047757600080fd5b506102cd600581565b34801561048c57600080fd5b506102cd61049b3660046122f8565b610a80565b3480156104ac57600080fd5b50610282610aa4565b3480156104c157600080fd5b50610234610ad5565b6102346104d83660046123c0565b610ae7565b3480156104e957600080fd5b506104fd6104f83660046122df565b610dea565b6040516102a8949392919061245e565b34801561051957600080fd5b50610234610e68565b34801561052e57600080fd5b506000546040516001600160a01b0390911681526020016102a8565b34801561055657600080fd5b506102cd60065481565b34801561056c57600080fd5b506102cd603c81565b34801561058157600080fd5b506105956105903660046122df565b610e78565b6040516102a89493929190612494565b3480156105b157600080fd5b506102cd60035481565b3480156105c757600080fd5b506105db6105d63660046122df565b611305565b6040516102a896959493929190612544565b3480156105f957600080fd5b506102cd601481565b34801561060e57600080fd5b5061023461061d366004612581565b61138f565b34801561062e57600080fd5b5061065661063d36600461231a565b6009602052600090815260409020805460019091015482565b604080519283526020830191909152016102a8565b34801561067757600080fd5b506005546102cd565b34801561068c57600080fd5b5061023461069b3660046122df565b611450565b3480156106ac57600080fd5b506102cd6106bb3660046122f8565b6000918252600760209081526040808420928452600b909201905290205490565b3480156106e857600080fd5b506102346106f736600461231a565b61178c565b34801561070857600080fd5b506102cd600681565b34801561071d57600080fd5b506102cd603181565b61072e611802565b600654806107835760405162461bcd60e51b815260206004820152601960248201527f4e6f2061646d696e206665657320746f2077697468647261770000000000000060448201526064015b60405180910390fd5b6000600681905580546040516001600160a01b039091169083908381818185875af1925050503d80600081146107d5576040519150601f19603f3d011682016040523d82523d6000602084013e6107da565b606091505b505090508061082b5760405162461bcd60e51b815260206004820152601960248201527f41646d696e20666565207472616e73666572206661696c656400000000000000604482015260640161077a565b6000546001600160a01b03166001600160a01b03167fcdcaff67ac16639664e5f9343c9223a1dc9c972ec367b69ae9fc1325c7be54748360405161087191815260200190565b60405180910390a25050565b610885611802565b6003546000908152600760205260409020600a015460ff16156108e25760405162461bcd60e51b8152602060048201526015602482015274111c985dc8185b1c9958591e48195e1958dd5d1959605a1b604482015260640161077a565b6003546000908152600a60205260409020546109405760405162461bcd60e51b815260206004820152601d60248201527f4e6f207469636b65747320736f6c6420666f7220746869732064726177000000604482015260640161077a565b600061094a61185c565b905061095581611a6e565b50565b600a602052816000526040600020818154811061097457600080fd5b90600052602060002001600091509150505481565b610991611802565b610999611e17565b565b6001600160a01b0381166000908152600960209081526040808320805460018201546002830180548551818802810188019096528086528796606096918391830182828015610a0957602002820191906000526020600020905b8154815260200190600101908083116109f5575b50505050509050935093509350509193909250565b6000818152600a6020908152604091829020805483518184028101840190945280845260609392830182828015610a7457602002820191906000526020600020905b815481526020019060010190808311610a60575b50505050509050919050565b6000828152600760209081526040808320848452600c019091529020545b92915050565b6000806000806000600354600454600554600654610ac460025460ff1690565b945094509450945094509091929394565b610add611802565b6109996000611e69565b610aef611eb9565b610af7611f12565b80610b4e5760405162461bcd60e51b815260206004820152602160248201527f4d757374207075726368617365206174206c65617374206f6e65207469636b656044820152601d60fa1b606482015260840161077a565b610b6081678ac7230489e800006125bf565b3414610bae5760405162461bcd60e51b815260206004820152601860248201527f496e636f7272656374207061796d656e7420616d6f756e740000000000000000604482015260640161077a565b60005b81811015610d6357610c02838383818110610bce57610bce6125d6565b905060c002016006806020026040519081016040528092919082600660200280828437600092019190915250611f58915050565b600b805460009182610c13836125ec565b90915550600081815260086020526040812080546001600160a01b0319163317815560035460078201559192505b6006811015610ca157858585818110610c5c57610c5c6125d6565b905060c002018160068110610c7357610c736125d6565b6020020135826001018260068110610c8d57610c8d6125d6565b015580610c99816125ec565b915050610c41565b506003546000908152600a6020908152604080832080546001818101835591855283852001869055338085526009845291842060028101805492830181558552928420018590558252805491610cf6836125ec565b909155505060035482337f5324057fb3461d99462ba621fbd5d1b8ac5594839bec55bcc62fb37a35ff3e8d888888818110610d3357610d336125d6565b905060c00201604051610d469190612605565b60405180910390a450508080610d5b906125ec565b915050610bb1565b508181905060046000828254610d799190612614565b9091555034905060006064610d8f6001846125bf565b610d99919061263d565b90506000610da78284612651565b90508160066000828254610dbb9190612614565b925050819055508060056000828254610dd49190612614565b90915550506001805550610de6915050565b5050565b6000610df46122c1565b60008381526008602081905260408083208054600782015493820154835160c0810194859052869593946001600160a01b03909316936001860193909260ff169190849060069082845b815481526020019060010190808311610e3e57505050505092509450945094509450509193509193565b610e70611802565b61099961209e565b6000818152600760205260409020600a015460609081908190819060ff16610eda5760405162461bcd60e51b8152602060048201526015602482015274111c985dc81b9bdd08195e1958dd5d1959081e595d605a1b604482015260640161077a565b6000858152600a6020908152604080832080548251818502810185019093528083529192909190830182828015610f3057602002820191906000526020600020905b815481526020019060010190808311610f1c575b505050505090506000805b8251811015611019576000838281518110610f5857610f586125d6565b602090810291909101810151600081815260089092526040808320815160c08101909252919350610fec9160010160068282826020028201915b815481526020019060010190808311610f925750505060008e81526007602052604090819020815160c08101928390529350600101915060069082845b815481526020019060010190808311610fcf5750505050506120db565b9050600381106110045783611000816125ec565b9450505b50508080611011906125ec565b915050610f3b565b508067ffffffffffffffff81111561103357611033612664565b60405190808252806020026020018201604052801561105c578160200160208202803683370190505b5095508067ffffffffffffffff81111561107857611078612664565b6040519080825280602002602001820160405280156110a1578160200160208202803683370190505b5094508067ffffffffffffffff8111156110bd576110bd612664565b6040519080825280602002602001820160405280156110e6578160200160208202803683370190505b5093508067ffffffffffffffff81111561110257611102612664565b60405190808252806020026020018201604052801561112b578160200160208202803683370190505b5092506000805b83518110156112fa57600084828151811061114f5761114f6125d6565b602090810291909101810151600081815260089092526040808320815160c081019092529193506111e59160010160068282826020028201915b8154815260200190600101908083116111895750505060008f815260076020908152604091829020825160c081019384905260018201805482529095509350600692916002909101908501808311610fcf5750505050506120db565b9050600381106112e5576000828152600860205260409020548a516001600160a01b03909116908b908690811061121e5761121e6125d6565b60200260200101906001600160a01b031690816001600160a01b03168152505080898581518110611251576112516125d6565b60209081029190910181019190915260008c8152600782526040808220848352600c019092522054885189908690811061128d5761128d6125d6565b6020908102919091018101919091526000838152600891829052604090200154875160ff909116908890869081106112c7576112c76125d6565b91151560209283029190910190910152836112e1816125ec565b9450505b505080806112f2906125ec565b915050611132565b505050509193509193565b600061130f6122c1565b600083815260076020819052604080832080549281015460088201546009830154600a840154855160c081019687905288978897889796919560018801959294909360ff90911691869060069082845b81548152602001906001019080831161135f57505050505094509650965096509650965096505091939550919395565b611397611802565b6003546000908152600760205260409020600a015460ff16156113f45760405162461bcd60e51b8152602060048201526015602482015274111c985dc8185b1c9958591e48195e1958dd5d1959605a1b604482015260640161077a565b6040805160c08181019092526114229183906006908390839080828437600092019190915250611f58915050565b6040805160c08181019092526109559183906006908390839080828437600092019190915250611a6e915050565b611458611eb9565b600081815260086020526040902080546001600160a01b031633146114b25760405162461bcd60e51b815260206004820152601060248201526f2737ba103a34b1b5b2ba1037bbb732b960811b604482015260640161077a565b600881015460ff16156114ff5760405162461bcd60e51b8152602060048201526015602482015274141c9a5e9948185b1c9958591e4818db185a5b5959605a1b604482015260640161077a565b600781810154600090815260209190915260409020600a015460ff1661155f5760405162461bcd60e51b8152602060048201526015602482015274111c985dc81b9bdd08195e1958dd5d1959081e595d605a1b604482015260640161077a565b60078181015460009081526020919091526040808220815160c08101928390529092916115dd9190600186019060069082845b8154815260200190600101908083116115925750506040805160c081019182905260018901805482529094509250600691506002880160208501808311610fcf5750505050506120db565b905060038110156116245760405162461bcd60e51b81526020600482015260116024820152704e6f207072697a6520746f20636c61696d60781b604482015260640161077a565b6000818152600c83016020526040902054806116785760405162461bcd60e51b8152602060048201526013602482015272139bc81c1c9a5e9948185b5bdd5b9d081cd95d606a1b604482015260640161077a565b60088401805460ff1916600190811790915533600090815260096020526040812090910180548392906116ac908490612614565b9091555050604051600090339083908381818185875af1925050503d80600081146116f3576040519150601f19603f3d011682016040523d82523d6000602084013e6116f8565b606091505b50509050806117415760405162461bcd60e51b8152602060048201526015602482015274141c9a5e99481d1c985b9cd9995c8819985a5b1959605a1b604482015260640161077a565b6040805184815260208101849052879133917f701a77bd5e0b7b1ffffe478c3c19e3caadca855782127fca812c7ccd9646cdc4910160405180910390a3505050505061095560018055565b611794611802565b6001600160a01b0381166117f95760405162461bcd60e51b815260206004820152602660248201527f4f776e61626c653a206e6577206f776e657220697320746865207a65726f206160448201526564647265737360d01b606482015260840161077a565b61095581611e69565b6000546001600160a01b031633146109995760405162461bcd60e51b815260206004820181905260248201527f4f776e61626c653a2063616c6c6572206973206e6f7420746865206f776e6572604482015260640161077a565b6118646122c1565b6040805160318082526106408201909252600091602082016106208036833701905050905060005b60318110156118cf576118a0600182612614565b8282815181106118b2576118b26125d6565b6020908102919091010152806118c7816125ec565b91505061188c565b506118d86122c1565b60006031905060004244434133600354600454475a60408051602081019a909a5289019790975260608089019690965293851b6bffffffffffffffffffffffff1990811660808901529290941b909116609486015260a885015260c884019190915260e8830152610108820152610128016040516020818303038152906040528051906020012060001c905060005b6006811015611a5b576000828261197e8142612614565b60408051602081019490945283019190915260608201526080810185905260a00160408051601f198184030181529190528051602090910120905060006119c5858361267a565b90508681815181106119d9576119d96125d6565b60200260200101518684600681106119f3576119f36125d6565b602002015286611a04600187612651565b81518110611a1457611a146125d6565b6020026020010151878281518110611a2e57611a2e6125d6565b602090810291909101015284611a438161268e565b95505050508080611a53906125ec565b915050611967565b50611a6583612167565b50909392505050565b6003546000818152600760208190526040822092835542908301556005546008830155600a8201805460ff191660011790555b6006811015611aea57828160068110611abc57611abc6125d6565b6020020151826001018260068110611ad657611ad66125d6565b015580611ae2816125ec565b915050611aa1565b506003546000908152600a6020908152604080832080548251818502810185019093528083529192909190830182828015611b4457602002820191906000526020600020905b815481526020019060010190808311611b30575b5050505050905060005b8151811015611c04576000828281518110611b6b57611b6b6125d6565b602090810291909101810151600081815260089092526040808320815160c08101909252919350611bc39160010160068282826020028201915b815481526020019060010190808311611ba5575050505050876120db565b905060038110611bef576000818152600b860160205260408120805491611be9836125ec565b91905055505b50508080611bfc906125ec565b915050611b4e565b50600882015460066000908152600b8401602052604090205415611c925760066000908152600b840160205260409020546064611c42603c846125bf565b611c4c919061263d565b611c56919061263d565b60066000908152600c850160208181526040808420859055600b88018252909220549152611c83916125bf565b60098401556000600555611c9a565b600060098401555b60056000908152600b8401602052604090205415611cfa5760056000908152600b840160205260409020546064611cd26014846125bf565b611cdc919061263d565b611ce6919061263d565b60056000908152600c850160205260409020555b60046000908152600b8401602052604090205415611d5a5760046000908152600b840160205260409020546064611d32600f846125bf565b611d3c919061263d565b611d46919061263d565b60046000908152600c850160205260409020555b60036000908152600b8401602052604090205415611dba5760036000908152600b840160205260409020546064611d926005846125bf565b611d9c919061263d565b611da6919061263d565b60036000908152600c850160205260409020555b6003547f50814ea5605e6bce4e231a3c0fd99301dafdeef6da03fbcb57c6ec0cf3e132f285838660090154604051611df4939291906126a5565b60405180910390a260038054906000611e0c836125ec565b919050555050505050565b611e1f612278565b6002805460ff191690557f5db9ee0a495bf2e6ff9c91a7834c1ba4fdd244a5e8aa4e537bd38aeae4b073aa335b6040516001600160a01b03909116815260200160405180910390a1565b600080546001600160a01b038381166001600160a01b0319831681178455604051919092169283917f8be0079c531659141344cd1fd0a4f28419497f9722a3daafe3b4186f6b6457e09190a35050565b600260015403611f0b5760405162461bcd60e51b815260206004820152601f60248201527f5265656e7472616e637947756172643a207265656e7472616e742063616c6c00604482015260640161077a565b6002600155565b60025460ff16156109995760405162461bcd60e51b815260206004820152601060248201526f14185d5cd8589b194e881c185d5cd95960821b604482015260640161077a565b60005b6006811015610de6576001828260068110611f7857611f786125d6565b602002015110158015611fa257506031828260068110611f9a57611f9a6125d6565b602002015111155b611fe55760405162461bcd60e51b8152602060048201526014602482015273496e76616c6964206e756d6265722072616e676560601b604482015260640161077a565b6000611ff2826001612614565b90505b600681101561208b57828160068110612010576120106125d6565b6020020151838360068110612027576120276125d6565b6020020151036120795760405162461bcd60e51b815260206004820152601d60248201527f4475706c6963617465206e756d62657273206e6f7420616c6c6f776564000000604482015260640161077a565b80612083816125ec565b915050611ff5565b5080612096816125ec565b915050611f5b565b6120a6611f12565b6002805460ff191660011790557f62e78cea01bee320cd4e420270b5ea74000d11b0c9f74754ebdbfc544b05a258611e4c3390565b600080805b600681101561215f5760005b600681101561214c57848160068110612107576121076125d6565b602002015186836006811061211e5761211e6125d6565b60200201510361213a5782612132816125ec565b93505061214c565b80612144816125ec565b9150506120ec565b5080612157816125ec565b9150506120e0565b509392505050565b60005b61217660016006612651565b811015610de65760005b600161218d836006612651565b6121979190612651565b81101561226557826121aa826001612614565b600681106121ba576121ba6125d6565b60200201518382600681106121d1576121d16125d6565b602002015111156122535760008382600681106121f0576121f06125d6565b6020020151905083612203836001612614565b60068110612213576122136125d6565b602002015184836006811061222a5761222a6125d6565b6020020152808461223c846001612614565b6006811061224c5761224c6125d6565b6020020152505b8061225d816125ec565b915050612180565b5080612270816125ec565b91505061216a565b60025460ff166109995760405162461bcd60e51b815260206004820152601460248201527314185d5cd8589b194e881b9bdd081c185d5cd95960621b604482015260640161077a565b6040518060c001604052806006906020820280368337509192915050565b6000602082840312156122f157600080fd5b5035919050565b6000806040838503121561230b57600080fd5b50508035926020909101359150565b60006020828403121561232c57600080fd5b81356001600160a01b038116811461234357600080fd5b9392505050565b600081518084526020808501945080840160005b8381101561237a5781518752958201959082019060010161235e565b509495945050505050565b8381528260208201526060604082015260006123a4606083018461234a565b95945050505050565b602081526000612343602083018461234a565b600080602083850312156123d357600080fd5b823567ffffffffffffffff808211156123eb57600080fd5b818501915085601f8301126123ff57600080fd5b81358181111561240e57600080fd5b86602060c08302850101111561242357600080fd5b60209290920196919550909350505050565b8060005b6006811015612458578151845260209384019390910190600101612439565b50505050565b6001600160a01b0385168152610120810161247c6020830186612435565b8360e083015282151561010083015295945050505050565b6080808252855190820181905260009060209060a0840190828901845b828110156124d65781516001600160a01b0316845292840192908401906001016124b1565b505050838103828501526124ea818861234a565b905083810360408501526124fe818761234a565b8481036060860152855180825283870192509083019060005b81811015612535578351151583529284019291840191600101612517565b50909998505050505050505050565b86815261016081016125596020830188612435565b8560e08301528461010083015283610120830152821515610140830152979650505050505050565b600060c0828403121561259357600080fd5b8260c0830111156125a357600080fd5b50919050565b634e487b7160e01b600052601160045260246000fd5b8082028115828204841417610a9e57610a9e6125a9565b634e487b7160e01b600052603260045260246000fd5b6000600182016125fe576125fe6125a9565b5060010190565b60c08181019083833792915050565b80820180821115610a9e57610a9e6125a9565b634e487b7160e01b600052601260045260246000fd5b60008261264c5761264c612627565b500490565b81810381811115610a9e57610a9e6125a9565b634e487b7160e01b600052604160045260246000fd5b60008261268957612689612627565b500690565b60008161269d5761269d6125a9565b506000190190565b61010081016126b48286612435565b60c082019390935260e0015291905056fea2646970667358221220e05b54f1f34bd4febdfeba1012d282a037f19e4607e143b39e98bab51660b8cc64736f6c63430008130033","opcodes":"PUSH1 0x80 PUSH1 0x40 MSTORE CALLVALUE DUP1 ISZERO PUSH2 0x10 JUMPI PUSH1 0x0 DUP1 REVERT JUMPDEST POP PUSH2 0x1A CALLER PUSH2 0x36 JUMP JUMPDEST PUSH1 0x1 DUP1 DUP1 SSTORE PUSH1 0x2 DUP1 SLOAD PUSH1 0xFF NOT AND SWAP1 SSTORE PUSH1 0x3 DUP2 SWAP1 SSTORE PUSH1 0xB SSTORE PUSH2 0x86 JUMP JUMPDEST PUSH1 0x0 DUP1 SLOAD PUSH1 0x1 PUSH1 0x1 PUSH1 0xA0 SHL SUB DUP4 DUP2 AND PUSH1 0x1 PUSH1 0x1 PUSH1 0xA0 SHL SUB NOT DUP4 AND DUP2 OR DUP5 SSTORE PUSH1 0x40 MLOAD SWAP2 SWAP1 SWAP3 AND SWAP3 DUP4 SWAP2 PUSH32 0x8BE0079C531659141344CD1FD0A4F28419497F9722A3DAAFE3B4186F6B6457E0 SWAP2 SWAP1 LOG3 POP POP JUMP JUMPDEST PUSH2 0x26FB DUP1 PUSH2 0x95 PUSH1 0x0 CODECOPY PUSH1 0x0 RETURN INVALID PUSH1 0x80 PUSH1 0x40 MSTORE PUSH1 0x4 CALLDATASIZE LT PUSH2 0x21A JUMPI PUSH1 0x0 CALLDATALOAD PUSH1 0xE0 SHR DUP1 PUSH4 0x7940B589 GT PUSH2 0x123 JUMPI DUP1 PUSH4 0xC4AA7245 GT PUSH2 0xAB JUMPI DUP1 PUSH4 0xDD8AB8F9 GT PUSH2 0x6F JUMPI DUP1 PUSH4 0xDD8AB8F9 EQ PUSH2 0x433 JUMPI DUP1 PUSH4 0xF1082B76 EQ PUSH2 0x6A0 JUMPI DUP1 PUSH4 0xF2FDE38B EQ PUSH2 0x6DC JUMPI DUP1 PUSH4 0xFAB14E8E EQ PUSH2 0x6FC JUMPI DUP1 PUSH4 0xFEA9B572 EQ PUSH2 0x711 JUMPI PUSH1 0x0 DUP1 REVERT JUMPDEST DUP1 PUSH4 0xC4AA7245 EQ PUSH2 0x5ED JUMPI DUP1 PUSH4 0xC9911EA7 EQ PUSH2 0x602 JUMPI DUP1 PUSH4 0xCDAFBBB6 EQ PUSH2 0x622 JUMPI DUP1 PUSH4 0xD3771568 EQ PUSH2 0x66B JUMPI DUP1 PUSH4 0xD7098154 EQ PUSH2 0x680 JUMPI PUSH1 0x0 DUP1 REVERT JUMPDEST DUP1 PUSH4 0x9858BEFB GT PUSH2 0xF2 JUMPI DUP1 PUSH4 0x9858BEFB EQ PUSH2 0x54A JUMPI DUP1 PUSH4 0xA6858EE6 EQ PUSH2 0x560 JUMPI DUP1 PUSH4 0xB0574BB8 EQ PUSH2 0x575 JUMPI DUP1 PUSH4 0xBCA78FAB EQ PUSH2 0x5A5 JUMPI DUP1 PUSH4 0xBE6307C8 EQ PUSH2 0x5BB JUMPI PUSH1 0x0 DUP1 REVERT JUMPDEST DUP1 PUSH4 0x7940B589 EQ PUSH2 0x4CA JUMPI DUP1 PUSH4 0x7DC379FA EQ PUSH2 0x4DD JUMPI DUP1 PUSH4 0x8456CB59 EQ PUSH2 0x50D JUMPI DUP1 PUSH4 0x8DA5CB5B EQ PUSH2 0x522 JUMPI PUSH1 0x0 DUP1 REVERT JUMPDEST DUP1 PUSH4 0x50B44712 GT PUSH2 0x1A6 JUMPI DUP1 PUSH4 0x5C975ABB GT PUSH2 0x175 JUMPI DUP1 PUSH4 0x5C975ABB EQ PUSH2 0x448 JUMPI DUP1 PUSH4 0x610A14D5 EQ PUSH2 0x46B JUMPI DUP1 PUSH4 0x6ABE4B1A EQ PUSH2 0x480 JUMPI DUP1 PUSH4 0x6B68C03C EQ PUSH2 0x4A0 JUMPI DUP1 PUSH4 0x715018A6 EQ PUSH2 0x4B5 JUMPI PUSH1 0x0 DUP1 REVERT JUMPDEST DUP1 PUSH4 0x50B44712 EQ PUSH2 0x37F JUMPI DUP1 PUSH4 0x54C0273E EQ PUSH2 0x3F0 JUMPI DUP1 PUSH4 0x5B183C2A EQ PUSH2 0x406 JUMPI DUP1 PUSH4 0x5C221034 EQ PUSH2 0x433 JUMPI PUSH1 0x0 DUP1 REVERT JUMPDEST DUP1 PUSH4 0x2D49A7BF GT PUSH2 0x1ED JUMPI DUP1 PUSH4 0x2D49A7BF EQ PUSH2 0x2F0 JUMPI DUP1 PUSH4 0x34701DB8 EQ PUSH2 0x305 JUMPI DUP1 PUSH4 0x376C2BBE EQ PUSH2 0x31B JUMPI DUP1 PUSH4 0x3F4BA83A EQ PUSH2 0x33B JUMPI DUP1 PUSH4 0x4FD66EAE EQ PUSH2 0x350 JUMPI PUSH1 0x0 DUP1 REVERT JUMPDEST DUP1 PUSH4 0x419B45A EQ PUSH2 0x21F JUMPI DUP1 PUSH4 0xCC36C36 EQ PUSH2 0x236 JUMPI DUP1 PUSH4 0x1A95F15F EQ PUSH2 0x2B1 JUMPI DUP1 PUSH4 0x2599399E EQ PUSH2 0x2DB JUMPI JUMPDEST PUSH1 0x0 DUP1 REVERT JUMPDEST CALLVALUE DUP1 ISZERO PUSH2 0x22B JUMPI PUSH1 0x0 DUP1 REVERT JUMPDEST POP PUSH2 0x234 PUSH2 0x726 JUMP JUMPDEST STOP JUMPDEST CALLVALUE DUP1 ISZERO PUSH2 0x242 JUMPI PUSH1 0x0 DUP1 REVERT JUMPDEST POP PUSH2 0x282 PUSH2 0x251 CALLDATASIZE PUSH1 0x4 PUSH2 0x22DF JUMP JUMPDEST PUSH1 0x7 PUSH1 0x20 DUP2 SWAP1 MSTORE PUSH1 0x0 SWAP2 DUP3 MSTORE PUSH1 0x40 SWAP1 SWAP2 KECCAK256 DUP1 SLOAD SWAP2 DUP2 ADD SLOAD PUSH1 0x8 DUP3 ADD SLOAD PUSH1 0x9 DUP4 ADD SLOAD PUSH1 0xA SWAP1 SWAP4 ADD SLOAD SWAP2 SWAP3 SWAP1 SWAP2 PUSH1 0xFF AND DUP6 JUMP JUMPDEST PUSH1 0x40 DUP1 MLOAD SWAP6 DUP7 MSTORE PUSH1 0x20 DUP7 ADD SWAP5 SWAP1 SWAP5 MSTORE SWAP3 DUP5 ADD SWAP2 SWAP1 SWAP2 MSTORE PUSH1 0x60 DUP4 ADD MSTORE ISZERO ISZERO PUSH1 0x80 DUP3 ADD MSTORE PUSH1 0xA0 ADD JUMPDEST PUSH1 0x40 MLOAD DUP1 SWAP2 SUB SWAP1 RETURN JUMPDEST CALLVALUE DUP1 ISZERO PUSH2 0x2BD JUMPI PUSH1 0x0 DUP1 REVERT JUMPDEST POP PUSH2 0x2CD PUSH8 0x8AC7230489E80000 DUP2 JUMP JUMPDEST PUSH1 0x40 MLOAD SWAP1 DUP2 MSTORE PUSH1 0x20 ADD PUSH2 0x2A8 JUMP JUMPDEST CALLVALUE DUP1 ISZERO PUSH2 0x2E7 JUMPI PUSH1 0x0 DUP1 REVERT JUMPDEST POP PUSH2 0x2CD PUSH1 0xF DUP2 JUMP JUMPDEST CALLVALUE DUP1 ISZERO PUSH2 0x2FC JUMPI PUSH1 0x0 DUP1 REVERT JUMPDEST POP PUSH2 0x234 PUSH2 0x87D JUMP JUMPDEST CALLVALUE DUP1 ISZERO PUSH2 0x311 JUMPI PUSH1 0x0 DUP1 REVERT JUMPDEST POP PUSH2 0x2CD PUSH1 0x4 SLOAD DUP2 JUMP JUMPDEST CALLVALUE DUP1 ISZERO PUSH2 0x327 JUMPI PUSH1 0x0 DUP1 REVERT JUMPDEST POP PUSH2 0x2CD PUSH2 0x336 CALLDATASIZE PUSH1 0x4 PUSH2 0x22F8 JUMP JUMPDEST PUSH2 0x958 JUMP JUMPDEST CALLVALUE DUP1 ISZERO PUSH2 0x347 JUMPI PUSH1 0x0 DUP1 REVERT JUMPDEST POP PUSH2 0x234 PUSH2 0x989 JUMP JUMPDEST CALLVALUE DUP1 ISZERO PUSH2 0x35C JUMPI PUSH1 0x0 DUP1 REVERT JUMPDEST POP PUSH2 0x370 PUSH2 0x36B CALLDATASIZE PUSH1 0x4 PUSH2 0x231A JUMP JUMPDEST PUSH2 0x99B JUMP JUMPDEST PUSH1 0x40 MLOAD PUSH2 0x2A8 SWAP4 SWAP3 SWAP2 SWAP1 PUSH2 0x2385 JUMP JUMPDEST CALLVALUE DUP1 ISZERO PUSH2 0x38B JUMPI PUSH1 0x0 DUP1 REVERT JUMPDEST POP PUSH2 0x3C9 PUSH2 0x39A CALLDATASIZE PUSH1 0x4 PUSH2 0x22DF JUMP JUMPDEST PUSH1 0x8 PUSH1 0x20 DUP2 SWAP1 MSTORE PUSH1 0x0 SWAP2 DUP3 MSTORE PUSH1 0x40 SWAP1 SWAP2 KECCAK256 DUP1 SLOAD PUSH1 0x7 DUP3 ADD SLOAD SWAP2 SWAP1 SWAP3 ADD SLOAD PUSH1 0x1 PUSH1 0x1 PUSH1 0xA0 SHL SUB SWAP1 SWAP3 AND SWAP2 PUSH1 0xFF AND DUP4 JUMP JUMPDEST PUSH1 0x40 DUP1 MLOAD PUSH1 0x1 PUSH1 0x1 PUSH1 0xA0 SHL SUB SWAP1 SWAP5 AND DUP5 MSTORE PUSH1 0x20 DUP5 ADD SWAP3 SWAP1 SWAP3 MSTORE ISZERO ISZERO SWAP1 DUP3 ADD MSTORE PUSH1 0x60 ADD PUSH2 0x2A8 JUMP JUMPDEST CALLVALUE DUP1 ISZERO PUSH2 0x3FC JUMPI PUSH1 0x0 DUP1 REVERT JUMPDEST POP PUSH2 0x2CD PUSH1 0x5 SLOAD DUP2 JUMP JUMPDEST CALLVALUE DUP1 ISZERO PUSH2 0x412 JUMPI PUSH1 0x0 DUP1 REVERT JUMPDEST POP PUSH2 0x426 PUSH2 0x421 CALLDATASIZE PUSH1 0x4 PUSH2 0x22DF JUMP JUMPDEST PUSH2 0xA1E JUMP JUMPDEST PUSH1 0x40 MLOAD PUSH2 0x2A8 SWAP2 SWAP1 PUSH2 0x23AD JUMP JUMPDEST CALLVALUE DUP1 ISZERO PUSH2 0x43F JUMPI PUSH1 0x0 DUP1 REVERT JUMPDEST POP PUSH2 0x2CD PUSH1 0x1 DUP2 JUMP JUMPDEST CALLVALUE DUP1 ISZERO PUSH2 0x454 JUMPI PUSH1 0x0 DUP1 REVERT JUMPDEST POP PUSH1 0x2 SLOAD PUSH1 0xFF AND PUSH1 0x40 MLOAD SWAP1 ISZERO ISZERO DUP2 MSTORE PUSH1 0x20 ADD PUSH2 0x2A8 JUMP JUMPDEST CALLVALUE DUP1 ISZERO PUSH2 0x477 JUMPI PUSH1 0x0 DUP1 REVERT JUMPDEST POP PUSH2 0x2CD PUSH1 0x5 DUP2 JUMP JUMPDEST CALLVALUE DUP1 ISZERO PUSH2 0x48C JUMPI PUSH1 0x0 DUP1 REVERT JUMPDEST POP PUSH2 0x2CD PUSH2 0x49B CALLDATASIZE PUSH1 0x4 PUSH2 0x22F8 JUMP JUMPDEST PUSH2 0xA80 JUMP JUMPDEST CALLVALUE DUP1 ISZERO PUSH2 0x4AC JUMPI PUSH1 0x0 DUP1 REVERT JUMPDEST POP PUSH2 0x282 PUSH2 0xAA4 JUMP JUMPDEST CALLVALUE DUP1 ISZERO PUSH2 0x4C1 JUMPI PUSH1 0x0 DUP1 REVERT JUMPDEST POP PUSH2 0x234 PUSH2 0xAD5 JUMP JUMPDEST PUSH2 0x234 PUSH2 0x4D8 CALLDATASIZE PUSH1 0x4 PUSH2 0x23C0 JUMP JUMPDEST PUSH2 0xAE7 JUMP JUMPDEST CALLVALUE DUP1 ISZERO PUSH2 0x4E9 JUMPI PUSH1 0x0 DUP1 REVERT JUMPDEST POP PUSH2 0x4FD PUSH2 0x4F8 CALLDATASIZE PUSH1 0x4 PUSH2 0x22DF JUMP JUMPDEST PUSH2 0xDEA JUMP JUMPDEST PUSH1 0x40 MLOAD PUSH2 0x2A8 SWAP5 SWAP4 SWAP3 SWAP2 SWAP1 PUSH2 0x245E JUMP JUMPDEST CALLVALUE DUP1 ISZERO PUSH2 0x519 JUMPI PUSH1 0x0 DUP1 REVERT JUMPDEST POP PUSH2 0x234 PUSH2 0xE68 JUMP JUMPDEST CALLVALUE DUP1 ISZERO PUSH2 0x52E JUMPI PUSH1 0x0 DUP1 REVERT JUMPDEST POP PUSH1 0x0 SLOAD PUSH1 0x40 MLOAD PUSH1 0x1 PUSH1 0x1 PUSH1 0xA0 SHL SUB SWAP1 SWAP2 AND DUP2 MSTORE PUSH1 0x20 ADD PUSH2 0x2A8 JUMP JUMPDEST CALLVALUE DUP1 ISZERO PUSH2 0x556 JUMPI PUSH1 0x0 DUP1 REVERT JUMPDEST POP PUSH2 0x2CD PUSH1 0x6 SLOAD DUP2 JUMP JUMPDEST CALLVALUE DUP1 ISZERO PUSH2 0x56C JUMPI PUSH1 0x0 DUP1 REVERT JUMPDEST POP PUSH2 0x2CD PUSH1 0x3C DUP2 JUMP JUMPDEST CALLVALUE DUP1 ISZERO PUSH2 0x581 JUMPI PUSH1 0x0 DUP1 REVERT JUMPDEST POP PUSH2 0x595 PUSH2 0x590 CALLDATASIZE PUSH1 0x4 PUSH2 0x22DF JUMP JUMPDEST PUSH2 0xE78 JUMP JUMPDEST PUSH1 0x40 MLOAD PUSH2 0x2A8 SWAP5 SWAP4 SWAP3 SWAP2 SWAP1 PUSH2 0x2494 JUMP JUMPDEST CALLVALUE DUP1 ISZERO PUSH2 0x5B1 JUMPI PUSH1 0x0 DUP1 REVERT JUMPDEST POP PUSH2 0x2CD PUSH1 0x3 SLOAD DUP2 JUMP JUMPDEST CALLVALUE DUP1 ISZERO PUSH2 0x5C7 JUMPI PUSH1 0x0 DUP1 REVERT JUMPDEST POP PUSH2 0x5DB PUSH2 0x5D6 CALLDATASIZE PUSH1 0x4 PUSH2 0x22DF JUMP JUMPDEST PUSH2 0x1305 JUMP JUMPDEST PUSH1 0x40 MLOAD PUSH2 0x2A8 SWAP7 SWAP6 SWAP5 SWAP4 SWAP3 SWAP2 SWAP1 PUSH2 0x2544 JUMP JUMPDEST CALLVALUE DUP1 ISZERO PUSH2 0x5F9 JUMPI PUSH1 0x0 DUP1 REVERT JUMPDEST POP PUSH2 0x2CD PUSH1 0x14 DUP2 JUMP JUMPDEST CALLVALUE DUP1 ISZERO PUSH2 0x60E JUMPI PUSH1 0x0 DUP1 REVERT JUMPDEST POP PUSH2 0x234 PUSH2 0x61D CALLDATASIZE PUSH1 0x4 PUSH2 0x2581 JUMP JUMPDEST PUSH2 0x138F JUMP JUMPDEST CALLVALUE DUP1 ISZERO PUSH2 0x62E JUMPI PUSH1 0x0 DUP1 REVERT JUMPDEST POP PUSH2 0x656 PUSH2 0x63D CALLDATASIZE PUSH1 0x4 PUSH2 0x231A JUMP JUMPDEST PUSH1 0x9 PUSH1 0x20 MSTORE PUSH1 0x0 SWAP1 DUP2 MSTORE PUSH1 0x40 SWAP1 KECCAK256 DUP1 SLOAD PUSH1 0x1 SWAP1 SWAP2 ADD SLOAD DUP3 JUMP JUMPDEST PUSH1 0x40 DUP1 MLOAD SWAP3 DUP4 MSTORE PUSH1 0x20 DUP4 ADD SWAP2 SWAP1 SWAP2 MSTORE ADD PUSH2 0x2A8 JUMP JUMPDEST CALLVALUE DUP1 ISZERO PUSH2 0x677 JUMPI PUSH1 0x0 DUP1 REVERT JUMPDEST POP PUSH1 0x5 SLOAD PUSH2 0x2CD JUMP JUMPDEST CALLVALUE DUP1 ISZERO PUSH2 0x68C JUMPI PUSH1 0x0 DUP1 REVERT JUMPDEST POP PUSH2 0x234 PUSH2 0x69B CALLDATASIZE PUSH1 0x4 PUSH2 0x22DF JUMP JUMPDEST PUSH2 0x1450 JUMP JUMPDEST CALLVALUE DUP1 ISZERO PUSH2 0x6AC JUMPI PUSH1 0x0 DUP1 REVERT JUMPDEST POP PUSH2 0x2CD PUSH2 0x6BB CALLDATASIZE PUSH1 0x4 PUSH2 0x22F8 JUMP JUMPDEST PUSH1 0x0 SWAP2 DUP3 MSTORE PUSH1 0x7 PUSH1 0x20 SWAP1 DUP2 MSTORE PUSH1 0x40 DUP1 DUP5 KECCAK256 SWAP3 DUP5 MSTORE PUSH1 0xB SWAP1 SWAP3 ADD SWAP1 MSTORE SWAP1 KECCAK256 SLOAD SWAP1 JUMP JUMPDEST CALLVALUE DUP1 ISZERO PUSH2 0x6E8 JUMPI PUSH1 0x0 DUP1 REVERT JUMPDEST POP PUSH2 0x234 PUSH2 0x6F7 CALLDATASIZE PUSH1 0x4 PUSH2 0x231A JUMP JUMPDEST PUSH2 0x178C JUMP JUMPDEST CALLVALUE DUP1 ISZERO PUSH2 0x708 JUMPI PUSH1 0x0 DUP1 REVERT JUMPDEST POP PUSH2 0x2CD PUSH1 0x6 DUP2 JUMP JUMPDEST CALLVALUE DUP1 ISZERO PUSH2 0x71D JUMPI PUSH1 0x0 DUP1 REVERT JUMPDEST POP PUSH2 0x2CD PUSH1 0x31 DUP2 JUMP JUMPDEST PUSH2 0x72E PUSH2 0x1802 JUMP JUMPDEST PUSH1 0x6 SLOAD DUP1 PUSH2 0x783 JUMPI PUSH1 0x40 MLOAD PUSH3 0x461BCD PUSH1 0xE5 SHL DUP2 MSTORE PUSH1 0x20 PUSH1 0x4 DUP3 ADD MSTORE PUSH1 0x19 PUSH1 0x24 DUP3 ADD MSTORE PUSH32 0x4E6F2061646D696E206665657320746F20776974686472617700000000000000 PUSH1 0x44 DUP3 ADD MSTORE PUSH1 0x64 ADD JUMPDEST PUSH1 0x40 MLOAD DUP1 SWAP2 SUB SWAP1 REVERT JUMPDEST PUSH1 0x0 PUSH1 0x6 DUP2 SWAP1 SSTORE DUP1 SLOAD PUSH1 0x40 MLOAD PUSH1 0x1 PUSH1 0x1 PUSH1 0xA0 SHL SUB SWAP1 SWAP2 AND SWAP1 DUP4 SWAP1 DUP4 DUP2 DUP2 DUP2 DUP6 DUP8 GAS CALL SWAP3 POP POP POP RETURNDATASIZE DUP1 PUSH1 0x0 DUP2 EQ PUSH2 0x7D5 JUMPI PUSH1 0x40 MLOAD SWAP2 POP PUSH1 0x1F NOT PUSH1 0x3F RETURNDATASIZE ADD AND DUP3 ADD PUSH1 0x40 MSTORE RETURNDATASIZE DUP3 MSTORE RETURNDATASIZE PUSH1 0x0 PUSH1 0x20 DUP5 ADD RETURNDATACOPY PUSH2 0x7DA JUMP JUMPDEST PUSH1 0x60 SWAP2 POP JUMPDEST POP POP SWAP1 POP DUP1 PUSH2 0x82B JUMPI PUSH1 0x40 MLOAD PUSH3 0x461BCD PUSH1 0xE5 SHL DUP2 MSTORE PUSH1 0x20 PUSH1 0x4 DUP3 ADD MSTORE PUSH1 0x19 PUSH1 0x24 DUP3 ADD MSTORE PUSH32 0x41646D696E20666565207472616E73666572206661696C656400000000000000 PUSH1 0x44 DUP3 ADD MSTORE PUSH1 0x64 ADD PUSH2 0x77A JUMP JUMPDEST PUSH1 0x0 SLOAD PUSH1 0x1 PUSH1 0x1 PUSH1 0xA0 SHL SUB AND PUSH1 0x1 PUSH1 0x1 PUSH1 0xA0 SHL SUB AND PUSH32 0xCDCAFF67AC16639664E5F9343C9223A1DC9C972EC367B69AE9FC1325C7BE5474 DUP4 PUSH1 0x40 MLOAD PUSH2 0x871 SWAP2 DUP2 MSTORE PUSH1 0x20 ADD SWAP1 JUMP JUMPDEST PUSH1 0x40 MLOAD DUP1 SWAP2 SUB SWAP1 LOG2 POP POP JUMP JUMPDEST PUSH2 0x885 PUSH2 0x1802 JUMP JUMPDEST PUSH1 0x3 SLOAD PUSH1 0x0 SWAP1 DUP2 MSTORE PUSH1 0x7 PUSH1 0x20 MSTORE PUSH1 0x40 SWAP1 KECCAK256 PUSH1 0xA ADD SLOAD PUSH1 0xFF AND ISZERO PUSH2 0x8E2 JUMPI PUSH1 0x40 MLOAD PUSH3 0x461BCD PUSH1 0xE5 SHL DUP2 MSTORE PUSH1 0x20 PUSH1 0x4 DUP3 ADD MSTORE PUSH1 0x15 PUSH1 0x24 DUP3 ADD MSTORE PUSH21 0x111C985DC8185B1C9958591E48195E1958DD5D1959 PUSH1 0x5A SHL PUSH1 0x44 DUP3 ADD MSTORE PUSH1 0x64 ADD PUSH2 0x77A JUMP JUMPDEST PUSH1 0x3 SLOAD PUSH1 0x0 SWAP1 DUP2 MSTORE PUSH1 0xA PUSH1 0x20 MSTORE PUSH1 0x40 SWAP1 KECCAK256 SLOAD PUSH2 0x940 JUMPI PUSH1 0x40 MLOAD PUSH3 0x461BCD PUSH1 0xE5 SHL DUP2 MSTORE PUSH1 0x20 PUSH1 0x4 DUP3 ADD MSTORE PUSH1 0x1D PUSH1 0x24 DUP3 ADD MSTORE PUSH32 0x4E6F207469636B65747320736F6C6420666F7220746869732064726177000000 PUSH1 0x44 DUP3 ADD MSTORE PUSH1 0x64 ADD PUSH2 0x77A JUMP JUMPDEST PUSH1 0x0 PUSH2 0x94A PUSH2 0x185C JUMP JUMPDEST SWAP1 POP PUSH2 0x955 DUP2 PUSH2 0x1A6E JUMP JUMPDEST POP JUMP JUMPDEST PUSH1 0xA PUSH1 0x20 MSTORE DUP2 PUSH1 0x0 MSTORE PUSH1 0x40 PUSH1 0x0 KECCAK256 DUP2 DUP2 SLOAD DUP2 LT PUSH2 0x974 JUMPI PUSH1 0x0 DUP1 REVERT JUMPDEST SWAP1 PUSH1 0x0 MSTORE PUSH1 0x20 PUSH1 0x0 KECCAK256 ADD PUSH1 0x0 SWAP2 POP SWAP2 POP POP SLOAD DUP2 JUMP JUMPDEST PUSH2 0x991 PUSH2 0x1802 JUMP JUMPDEST PUSH2 0x999 PUSH2 0x1E17 JUMP JUMPDEST JUMP JUMPDEST PUSH1 0x1 PUSH1 0x1 PUSH1 0xA0 SHL SUB DUP2 AND PUSH1 0x0 SWAP1 DUP2 MSTORE PUSH1 0x9 PUSH1 0x20 SWAP1 DUP2 MSTORE PUSH1 0x40 DUP1 DUP4 KECCAK256 DUP1 SLOAD PUSH1 0x1 DUP3 ADD SLOAD PUSH1 0x2 DUP4 ADD DUP1 SLOAD DUP6 MLOAD DUP2 DUP9 MUL DUP2 ADD DUP9 ADD SWAP1 SWAP7 MSTORE DUP1 DUP7 MSTORE DUP8 SWAP7 PUSH1 0x60 SWAP7 SWAP2 DUP4 SWAP2 DUP4 ADD DUP3 DUP3 DUP1 ISZERO PUSH2 0xA09 JUMPI PUSH1 0x20 MUL DUP3 ADD SWAP2 SWAP1 PUSH1 0x0 MSTORE PUSH1 0x20 PUSH1 0x0 KECCAK256 SWAP1 JUMPDEST DUP2 SLOAD DUP2 MSTORE PUSH1 0x20 ADD SWAP1 PUSH1 0x1 ADD SWAP1 DUP1 DUP4 GT PUSH2 0x9F5 JUMPI JUMPDEST POP POP POP POP POP SWAP1 POP SWAP4 POP SWAP4 POP SWAP4 POP POP SWAP2 SWAP4 SWAP1 SWAP3 POP JUMP JUMPDEST PUSH1 0x0 DUP2 DUP2 MSTORE PUSH1 0xA PUSH1 0x20 SWAP1 DUP2 MSTORE PUSH1 0x40 SWAP2 DUP3 SWAP1 KECCAK256 DUP1 SLOAD DUP4 MLOAD DUP2 DUP5 MUL DUP2 ADD DUP5 ADD SWAP1 SWAP5 MSTORE DUP1 DUP5 MSTORE PUSH1 0x60 SWAP4 SWAP3 DUP4 ADD DUP3 DUP3 DUP1 ISZERO PUSH2 0xA74 JUMPI PUSH1 0x20 MUL DUP3 ADD SWAP2 SWAP1 PUSH1 0x0 MSTORE PUSH1 0x20 PUSH1 0x0 KECCAK256 SWAP1 JUMPDEST DUP2 SLOAD DUP2 MSTORE PUSH1 0x20 ADD SWAP1 PUSH1 0x1 ADD SWAP1 DUP1 DUP4 GT PUSH2 0xA60 JUMPI JUMPDEST POP POP POP POP POP SWAP1 POP SWAP2 SWAP1 POP JUMP JUMPDEST PUSH1 0x0 DUP3 DUP2 MSTORE PUSH1 0x7 PUSH1 0x20 SWAP1 DUP2 MSTORE PUSH1 0x40 DUP1 DUP4 KECCAK256 DUP5 DUP5 MSTORE PUSH1 0xC ADD SWAP1 SWAP2 MSTORE SWAP1 KECCAK256 SLOAD JUMPDEST SWAP3 SWAP2 POP POP JUMP JUMPDEST PUSH1 0x0 DUP1 PUSH1 0x0 DUP1 PUSH1 0x0 PUSH1 0x3 SLOAD PUSH1 0x4 SLOAD PUSH1 0x5 SLOAD PUSH1 0x6 SLOAD PUSH2 0xAC4 PUSH1 0x2 SLOAD PUSH1 0xFF AND SWAP1 JUMP JUMPDEST SWAP5 POP SWAP5 POP SWAP5 POP SWAP5 POP SWAP5 POP SWAP1 SWAP2 SWAP3 SWAP4 SWAP5 JUMP JUMPDEST PUSH2 0xADD PUSH2 0x1802 JUMP JUMPDEST PUSH2 0x999 PUSH1 0x0 PUSH2 0x1E69 JUMP JUMPDEST PUSH2 0xAEF PUSH2 0x1EB9 JUMP JUMPDEST PUSH2 0xAF7 PUSH2 0x1F12 JUMP JUMPDEST DUP1 PUSH2 0xB4E JUMPI PUSH1 0x40 MLOAD PUSH3 0x461BCD PUSH1 0xE5 SHL DUP2 MSTORE PUSH1 0x20 PUSH1 0x4 DUP3 ADD MSTORE PUSH1 0x21 PUSH1 0x24 DUP3 ADD MSTORE PUSH32 0x4D757374207075726368617365206174206C65617374206F6E65207469636B65 PUSH1 0x44 DUP3 ADD MSTORE PUSH1 0x1D PUSH1 0xFA SHL PUSH1 0x64 DUP3 ADD MSTORE PUSH1 0x84 ADD PUSH2 0x77A JUMP JUMPDEST PUSH2 0xB60 DUP2 PUSH8 0x8AC7230489E80000 PUSH2 0x25BF JUMP JUMPDEST CALLVALUE EQ PUSH2 0xBAE JUMPI PUSH1 0x40 MLOAD PUSH3 0x461BCD PUSH1 0xE5 SHL DUP2 MSTORE PUSH1 0x20 PUSH1 0x4 DUP3 ADD MSTORE PUSH1 0x18 PUSH1 0x24 DUP3 ADD MSTORE PUSH32 0x496E636F7272656374207061796D656E7420616D6F756E740000000000000000 PUSH1 0x44 DUP3 ADD MSTORE PUSH1 0x64 ADD PUSH2 0x77A JUMP JUMPDEST PUSH1 0x0 JUMPDEST DUP2 DUP2 LT ISZERO PUSH2 0xD63 JUMPI PUSH2 0xC02 DUP4 DUP4 DUP4 DUP2 DUP2 LT PUSH2 0xBCE JUMPI PUSH2 0xBCE PUSH2 0x25D6 JUMP JUMPDEST SWAP1 POP PUSH1 0xC0 MUL ADD PUSH1 0x6 DUP1 PUSH1 0x20 MUL PUSH1 0x40 MLOAD SWAP1 DUP2 ADD PUSH1 0x40 MSTORE DUP1 SWAP3 SWAP2 SWAP1 DUP3 PUSH1 0x6 PUSH1 0x20 MUL DUP1 DUP3 DUP5 CALLDATACOPY PUSH1 0x0 SWAP3 ADD SWAP2 SWAP1 SWAP2 MSTORE POP PUSH2 0x1F58 SWAP2 POP POP JUMP JUMPDEST PUSH1 0xB DUP1 SLOAD PUSH1 0x0 SWAP2 DUP3 PUSH2 0xC13 DUP4 PUSH2 0x25EC JUMP JUMPDEST SWAP1 SWAP2 SSTORE POP PUSH1 0x0 DUP2 DUP2 MSTORE PUSH1 0x8 PUSH1 0x20 MSTORE PUSH1 0x40 DUP2 KECCAK256 DUP1 SLOAD PUSH1 0x1 PUSH1 0x1 PUSH1 0xA0 SHL SUB NOT AND CALLER OR DUP2 SSTORE PUSH1 0x3 SLOAD PUSH1 0x7 DUP3 ADD SSTORE SWAP2 SWAP3 POP JUMPDEST PUSH1 0x6 DUP2 LT ISZERO PUSH2 0xCA1 JUMPI DUP6 DUP6 DUP6 DUP2 DUP2 LT PUSH2 0xC5C JUMPI PUSH2 0xC5C PUSH2 0x25D6 JUMP JUMPDEST SWAP1 POP PUSH1 0xC0 MUL ADD DUP2 PUSH1 0x6 DUP2 LT PUSH2 0xC73 JUMPI PUSH2 0xC73 PUSH2 0x25D6 JUMP JUMPDEST PUSH1 0x20 MUL ADD CALLDATALOAD DUP3 PUSH1 0x1 ADD DUP3 PUSH1 0x6 DUP2 LT PUSH2 0xC8D JUMPI PUSH2 0xC8D PUSH2 0x25D6 JUMP JUMPDEST ADD SSTORE DUP1 PUSH2 0xC99 DUP2 PUSH2 0x25EC JUMP JUMPDEST SWAP2 POP POP PUSH2 0xC41 JUMP JUMPDEST POP PUSH1 0x3 SLOAD PUSH1 0x0 SWAP1 DUP2 MSTORE PUSH1 0xA PUSH1 0x20 SWAP1 DUP2 MSTORE PUSH1 0x40 DUP1 DUP4 KECCAK256 DUP1 SLOAD PUSH1 0x1 DUP2 DUP2 ADD DUP4 SSTORE SWAP2 DUP6 MSTORE DUP4 DUP6 KECCAK256 ADD DUP7 SWAP1 SSTORE CALLER DUP1 DUP6 MSTORE PUSH1 0x9 DUP5 MSTORE SWAP2 DUP5 KECCAK256 PUSH1 0x2 DUP2 ADD DUP1 SLOAD SWAP3 DUP4 ADD DUP2 SSTORE DUP6 MSTORE SWAP3 DUP5 KECCAK256 ADD DUP6 SWAP1 SSTORE DUP3 MSTORE DUP1 SLOAD SWAP2 PUSH2 0xCF6 DUP4 PUSH2 0x25EC JUMP JUMPDEST SWAP1 SWAP2 SSTORE POP POP PUSH1 0x3 SLOAD DUP3 CALLER PUSH32 0x5324057FB3461D99462BA621FBD5D1B8AC5594839BEC55BCC62FB37A35FF3E8D DUP9 DUP9 DUP9 DUP2 DUP2 LT PUSH2 0xD33 JUMPI PUSH2 0xD33 PUSH2 0x25D6 JUMP JUMPDEST SWAP1 POP PUSH1 0xC0 MUL ADD PUSH1 0x40 MLOAD PUSH2 0xD46 SWAP2 SWAP1 PUSH2 0x2605 JUMP JUMPDEST PUSH1 0x40 MLOAD DUP1 SWAP2 SUB SWAP1 LOG4 POP POP DUP1 DUP1 PUSH2 0xD5B SWAP1 PUSH2 0x25EC JUMP JUMPDEST SWAP2 POP POP PUSH2 0xBB1 JUMP JUMPDEST POP DUP2 DUP2 SWAP1 POP PUSH1 0x4 PUSH1 0x0 DUP3 DUP3 SLOAD PUSH2 0xD79 SWAP2 SWAP1 PUSH2 0x2614 JUMP JUMPDEST SWAP1 SWAP2 SSTORE POP CALLVALUE SWAP1 POP PUSH1 0x0 PUSH1 0x64 PUSH2 0xD8F PUSH1 0x1 DUP5 PUSH2 0x25BF JUMP JUMPDEST PUSH2 0xD99 SWAP2 SWAP1 PUSH2 0x263D JUMP JUMPDEST SWAP1 POP PUSH1 0x0 PUSH2 0xDA7 DUP3 DUP5 PUSH2 0x2651 JUMP JUMPDEST SWAP1 POP DUP2 PUSH1 0x6 PUSH1 0x0 DUP3 DUP3 SLOAD PUSH2 0xDBB SWAP2 SWAP1 PUSH2 0x2614 JUMP JUMPDEST SWAP3 POP POP DUP2 SWAP1 SSTORE POP DUP1 PUSH1 0x5 PUSH1 0x0 DUP3 DUP3 SLOAD PUSH2 0xDD4 SWAP2 SWAP1 PUSH2 0x2614 JUMP JUMPDEST SWAP1 SWAP2 SSTORE POP POP PUSH1 0x1 DUP1 SSTORE POP PUSH2 0xDE6 SWAP2 POP POP JUMP JUMPDEST POP POP JUMP JUMPDEST PUSH1 0x0 PUSH2 0xDF4 PUSH2 0x22C1 JUMP JUMPDEST PUSH1 0x0 DUP4 DUP2 MSTORE PUSH1 0x8 PUSH1 0x20 DUP2 SWAP1 MSTORE PUSH1 0x40 DUP1 DUP4 KECCAK256 DUP1 SLOAD PUSH1 0x7 DUP3 ADD SLOAD SWAP4 DUP3 ADD SLOAD DUP4 MLOAD PUSH1 0xC0 DUP2 ADD SWAP5 DUP6 SWAP1 MSTORE DUP7 SWAP6 SWAP4 SWAP5 PUSH1 0x1 PUSH1 0x1 PUSH1 0xA0 SHL SUB SWAP1 SWAP4 AND SWAP4 PUSH1 0x1 DUP7 ADD SWAP4 SWAP1 SWAP3 PUSH1 0xFF AND SWAP2 SWAP1 DUP5 SWAP1 PUSH1 0x6 SWAP1 DUP3 DUP5 JUMPDEST DUP2 SLOAD DUP2 MSTORE PUSH1 0x20 ADD SWAP1 PUSH1 0x1 ADD SWAP1 DUP1 DUP4 GT PUSH2 0xE3E JUMPI POP POP POP POP POP SWAP3 POP SWAP5 POP SWAP5 POP SWAP5 POP SWAP5 POP POP SWAP2 SWAP4 POP SWAP2 SWAP4 JUMP JUMPDEST PUSH2 0xE70 PUSH2 0x1802 JUMP JUMPDEST PUSH2 0x999 PUSH2 0x209E JUMP JUMPDEST PUSH1 0x0 DUP2 DUP2 MSTORE PUSH1 0x7 PUSH1 0x20 MSTORE PUSH1 0x40 SWAP1 KECCAK256 PUSH1 0xA ADD SLOAD PUSH1 0x60 SWAP1 DUP2 SWAP1 DUP2 SWAP1 DUP2 SWAP1 PUSH1 0xFF AND PUSH2 0xEDA JUMPI PUSH1 0x40 MLOAD PUSH3 0x461BCD PUSH1 0xE5 SHL DUP2 MSTORE PUSH1 0x20 PUSH1 0x4 DUP3 ADD MSTORE PUSH1 0x15 PUSH1 0x24 DUP3 ADD MSTORE PUSH21 0x111C985DC81B9BDD08195E1958DD5D1959081E595D PUSH1 0x5A SHL PUSH1 0x44 DUP3 ADD MSTORE PUSH1 0x64 ADD PUSH2 0x77A JUMP JUMPDEST PUSH1 0x0 DUP6 DUP2 MSTORE PUSH1 0xA PUSH1 0x20 SWAP1 DUP2 MSTORE PUSH1 0x40 DUP1 DUP4 KECCAK256 DUP1 SLOAD DUP3 MLOAD DUP2 DUP6 MUL DUP2 ADD DUP6 ADD SWAP1 SWAP4 MSTORE DUP1 DUP4 MSTORE SWAP2 SWAP3 SWAP1 SWAP2 SWAP1 DUP4 ADD DUP3 DUP3 DUP1 ISZERO PUSH2 0xF30 JUMPI PUSH1 0x20 MUL DUP3 ADD SWAP2 SWAP1 PUSH1 0x0 MSTORE PUSH1 0x20 PUSH1 0x0 KECCAK256 SWAP1 JUMPDEST DUP2 SLOAD DUP2 MSTORE PUSH1 0x20 ADD SWAP1 PUSH1 0x1 ADD SWAP1 DUP1 DUP4 GT PUSH2 0xF1C JUMPI JUMPDEST POP POP POP POP POP SWAP1 POP PUSH1 0x0 DUP1 JUMPDEST DUP3 MLOAD DUP2 LT ISZERO PUSH2 0x1019 JUMPI PUSH1 0x0 DUP4 DUP3 DUP2 MLOAD DUP2 LT PUSH2 0xF58 JUMPI PUSH2 0xF58 PUSH2 0x25D6 JUMP JUMPDEST PUSH1 0x20 SWAP1 DUP2 MUL SWAP2 SWAP1 SWAP2 ADD DUP2 ADD MLOAD PUSH1 0x0 DUP2 DUP2 MSTORE PUSH1 0x8 SWAP1 SWAP3 MSTORE PUSH1 0x40 DUP1 DUP4 KECCAK256 DUP2 MLOAD PUSH1 0xC0 DUP2 ADD SWAP1 SWAP3 MSTORE SWAP2 SWAP4 POP PUSH2 0xFEC SWAP2 PUSH1 0x1 ADD PUSH1 0x6 DUP3 DUP3 DUP3 PUSH1 0x20 MUL DUP3 ADD SWAP2 JUMPDEST DUP2 SLOAD DUP2 MSTORE PUSH1 0x20 ADD SWAP1 PUSH1 0x1 ADD SWAP1 DUP1 DUP4 GT PUSH2 0xF92 JUMPI POP POP POP PUSH1 0x0 DUP15 DUP2 MSTORE PUSH1 0x7 PUSH1 0x20 MSTORE PUSH1 0x40 SWAP1 DUP2 SWAP1 KECCAK256 DUP2 MLOAD PUSH1 0xC0 DUP2 ADD SWAP3 DUP4 SWAP1 MSTORE SWAP4 POP PUSH1 0x1 ADD SWAP2 POP PUSH1 0x6 SWAP1 DUP3 DUP5 JUMPDEST DUP2 SLOAD DUP2 MSTORE PUSH1 0x20 ADD SWAP1 PUSH1 0x1 ADD SWAP1 DUP1 DUP4 GT PUSH2 0xFCF JUMPI POP POP POP POP POP PUSH2 0x20DB JUMP JUMPDEST SWAP1 POP PUSH1 0x3 DUP2 LT PUSH2 0x1004 JUMPI DUP4 PUSH2 0x1000 DUP2 PUSH2 0x25EC JUMP JUMPDEST SWAP5 POP POP JUMPDEST POP POP DUP1 DUP1 PUSH2 0x1011 SWAP1 PUSH2 0x25EC JUMP JUMPDEST SWAP2 POP POP PUSH2 0xF3B JUMP JUMPDEST POP DUP1 PUSH8 0xFFFFFFFFFFFFFFFF DUP2 GT ISZERO PUSH2 0x1033 JUMPI PUSH2 0x1033 PUSH2 0x2664 JUMP JUMPDEST PUSH1 0x40 MLOAD SWAP1 DUP1 DUP3 MSTORE DUP1 PUSH1 0x20 MUL PUSH1 0x20 ADD DUP3 ADD PUSH1 0x40 MSTORE DUP1 ISZERO PUSH2 0x105C JUMPI DUP2 PUSH1 0x20 ADD PUSH1 0x20 DUP3 MUL DUP1 CALLDATASIZE DUP4 CALLDATACOPY ADD SWAP1 POP JUMPDEST POP SWAP6 POP DUP1 PUSH8 0xFFFFFFFFFFFFFFFF DUP2 GT ISZERO PUSH2 0x1078 JUMPI PUSH2 0x1078 PUSH2 0x2664 JUMP JUMPDEST PUSH1 0x40 MLOAD SWAP1 DUP1 DUP3 MSTORE DUP1 PUSH1 0x20 MUL PUSH1 0x20 ADD DUP3 ADD PUSH1 0x40 MSTORE DUP1 ISZERO PUSH2 0x10A1 JUMPI DUP2 PUSH1 0x20 ADD PUSH1 0x20 DUP3 MUL DUP1 CALLDATASIZE DUP4 CALLDATACOPY ADD SWAP1 POP JUMPDEST POP SWAP5 POP DUP1 PUSH8 0xFFFFFFFFFFFFFFFF DUP2 GT ISZERO PUSH2 0x10BD JUMPI PUSH2 0x10BD PUSH2 0x2664 JUMP JUMPDEST PUSH1 0x40 MLOAD SWAP1 DUP1 DUP3 MSTORE DUP1 PUSH1 0x20 MUL PUSH1 0x20 ADD DUP3 ADD PUSH1 0x40 MSTORE DUP1 ISZERO PUSH2 0x10E6 JUMPI DUP2 PUSH1 0x20 ADD PUSH1 0x20 DUP3 MUL DUP1 CALLDATASIZE DUP4 CALLDATACOPY ADD SWAP1 POP JUMPDEST POP SWAP4 POP DUP1 PUSH8 0xFFFFFFFFFFFFFFFF DUP2 GT ISZERO PUSH2 0x1102 JUMPI PUSH2 0x1102 PUSH2 0x2664 JUMP JUMPDEST PUSH1 0x40 MLOAD SWAP1 DUP1 DUP3 MSTORE DUP1 PUSH1 0x20 MUL PUSH1 0x20 ADD DUP3 ADD PUSH1 0x40 MSTORE DUP1 ISZERO PUSH2 0x112B JUMPI DUP2 PUSH1 0x20 ADD PUSH1 0x20 DUP3 MUL DUP1 CALLDATASIZE DUP4 CALLDATACOPY ADD SWAP1 POP JUMPDEST POP SWAP3 POP PUSH1 0x0 DUP1 JUMPDEST DUP4 MLOAD DUP2 LT ISZERO PUSH2 0x12FA JUMPI PUSH1 0x0 DUP5 DUP3 DUP2 MLOAD DUP2 LT PUSH2 0x114F JUMPI PUSH2 0x114F PUSH2 0x25D6 JUMP JUMPDEST PUSH1 0x20 SWAP1 DUP2 MUL SWAP2 SWAP1 SWAP2 ADD DUP2 ADD MLOAD PUSH1 0x0 DUP2 DUP2 MSTORE PUSH1 0x8 SWAP1 SWAP3 MSTORE PUSH1 0x40 DUP1 DUP4 KECCAK256 DUP2 MLOAD PUSH1 0xC0 DUP2 ADD SWAP1 SWAP3 MSTORE SWAP2 SWAP4 POP PUSH2 0x11E5 SWAP2 PUSH1 0x1 ADD PUSH1 0x6 DUP3 DUP3 DUP3 PUSH1 0x20 MUL DUP3 ADD SWAP2 JUMPDEST DUP2 SLOAD DUP2 MSTORE PUSH1 0x20 ADD SWAP1 PUSH1 0x1 ADD SWAP1 DUP1 DUP4 GT PUSH2 0x1189 JUMPI POP POP POP PUSH1 0x0 DUP16 DUP2 MSTORE PUSH1 0x7 PUSH1 0x20 SWAP1 DUP2 MSTORE PUSH1 0x40 SWAP2 DUP3 SWAP1 KECCAK256 DUP3 MLOAD PUSH1 0xC0 DUP2 ADD SWAP4 DUP5 SWAP1 MSTORE PUSH1 0x1 DUP3 ADD DUP1 SLOAD DUP3 MSTORE SWAP1 SWAP6 POP SWAP4 POP PUSH1 0x6 SWAP3 SWAP2 PUSH1 0x2 SWAP1 SWAP2 ADD SWAP1 DUP6 ADD DUP1 DUP4 GT PUSH2 0xFCF JUMPI POP POP POP POP POP PUSH2 0x20DB JUMP JUMPDEST SWAP1 POP PUSH1 0x3 DUP2 LT PUSH2 0x12E5 JUMPI PUSH1 0x0 DUP3 DUP2 MSTORE PUSH1 0x8 PUSH1 0x20 MSTORE PUSH1 0x40 SWAP1 KECCAK256 SLOAD DUP11 MLOAD PUSH1 0x1 PUSH1 0x1 PUSH1 0xA0 SHL SUB SWAP1 SWAP2 AND SWAP1 DUP12 SWAP1 DUP7 SWAP1 DUP2 LT PUSH2 0x121E JUMPI PUSH2 0x121E PUSH2 0x25D6 JUMP JUMPDEST PUSH1 0x20 MUL PUSH1 0x20 ADD ADD SWAP1 PUSH1 0x1 PUSH1 0x1 PUSH1 0xA0 SHL SUB AND SWAP1 DUP2 PUSH1 0x1 PUSH1 0x1 PUSH1 0xA0 SHL SUB AND DUP2 MSTORE POP POP DUP1 DUP10 DUP6 DUP2 MLOAD DUP2 LT PUSH2 0x1251 JUMPI PUSH2 0x1251 PUSH2 0x25D6 JUMP JUMPDEST PUSH1 0x20 SWAP1 DUP2 MUL SWAP2 SWAP1 SWAP2 ADD DUP2 ADD SWAP2 SWAP1 SWAP2 MSTORE PUSH1 0x0 DUP13 DUP2 MSTORE PUSH1 0x7 DUP3 MSTORE PUSH1 0x40 DUP1 DUP3 KECCAK256 DUP5 DUP4 MSTORE PUSH1 0xC ADD SWAP1 SWAP3 MSTORE KECCAK256 SLOAD DUP9 MLOAD DUP10 SWAP1 DUP7 SWAP1 DUP2 LT PUSH2 0x128D JUMPI PUSH2 0x128D PUSH2 0x25D6 JUMP JUMPDEST PUSH1 0x20 SWAP1 DUP2 MUL SWAP2 SWAP1 SWAP2 ADD DUP2 ADD SWAP2 SWAP1 SWAP2 MSTORE PUSH1 0x0 DUP4 DUP2 MSTORE PUSH1 0x8 SWAP2 DUP3 SWAP1 MSTORE PUSH1 0x40 SWAP1 KECCAK256 ADD SLOAD DUP8 MLOAD PUSH1 0xFF SWAP1 SWAP2 AND SWAP1 DUP9 SWAP1 DUP7 SWAP1 DUP2 LT PUSH2 0x12C7 JUMPI PUSH2 0x12C7 PUSH2 0x25D6 JUMP JUMPDEST SWAP2 ISZERO ISZERO PUSH1 0x20 SWAP3 DUP4 MUL SWAP2 SWAP1 SWAP2 ADD SWAP1 SWAP2 ADD MSTORE DUP4 PUSH2 0x12E1 DUP2 PUSH2 0x25EC JUMP JUMPDEST SWAP5 POP POP JUMPDEST POP POP DUP1 DUP1 PUSH2 0x12F2 SWAP1 PUSH2 0x25EC JUMP JUMPDEST SWAP2 POP POP PUSH2 0x1132 JUMP JUMPDEST POP POP POP POP SWAP2 SWAP4 POP SWAP2 SWAP4 JUMP JUMPDEST PUSH1 0x0 PUSH2 0x130F PUSH2 0x22C1 JUMP JUMPDEST PUSH1 0x0 DUP4 DUP2 MSTORE PUSH1 0x7 PUSH1 0x20 DUP2 SWAP1 MSTORE PUSH1 0x40 DUP1 DUP4 KECCAK256 DUP1 SLOAD SWAP3 DUP2 ADD SLOAD PUSH1 0x8 DUP3 ADD SLOAD PUSH1 0x9 DUP4 ADD SLOAD PUSH1 0xA DUP5 ADD SLOAD DUP6 MLOAD PUSH1 0xC0 DUP2 ADD SWAP7 DUP8 SWAP1 MSTORE DUP9 SWAP8 DUP9 SWAP8 DUP9 SWAP8 SWAP7 SWAP2 SWAP6 PUSH1 0x1 DUP9 ADD SWAP6 SWAP3 SWAP5 SWAP1 SWAP4 PUSH1 0xFF SWAP1 SWAP2 AND SWAP2 DUP7 SWAP1 PUSH1 0x6 SWAP1 DUP3 DUP5 JUMPDEST DUP2 SLOAD DUP2 MSTORE PUSH1 0x20 ADD SWAP1 PUSH1 0x1 ADD SWAP1 DUP1 DUP4 GT PUSH2 0x135F JUMPI POP POP POP POP POP SWAP5 POP SWAP7 POP SWAP7 POP SWAP7 POP SWAP7 POP SWAP7 POP SWAP7 POP POP SWAP2 SWAP4 SWAP6 POP SWAP2 SWAP4 SWAP6 JUMP JUMPDEST PUSH2 0x1397 PUSH2 0x1802 JUMP JUMPDEST PUSH1 0x3 SLOAD PUSH1 0x0 SWAP1 DUP2 MSTORE PUSH1 0x7 PUSH1 0x20 MSTORE PUSH1 0x40 SWAP1 KECCAK256 PUSH1 0xA ADD SLOAD PUSH1 0xFF AND ISZERO PUSH2 0x13F4 JUMPI PUSH1 0x40 MLOAD PUSH3 0x461BCD PUSH1 0xE5 SHL DUP2 MSTORE PUSH1 0x20 PUSH1 0x4 DUP3 ADD MSTORE PUSH1 0x15 PUSH1 0x24 DUP3 ADD MSTORE PUSH21 0x111C985DC8185B1C9958591E48195E1958DD5D1959 PUSH1 0x5A SHL PUSH1 0x44 DUP3 ADD MSTORE PUSH1 0x64 ADD PUSH2 0x77A JUMP JUMPDEST PUSH1 0x40 DUP1 MLOAD PUSH1 0xC0 DUP2 DUP2 ADD SWAP1 SWAP3 MSTORE PUSH2 0x1422 SWAP2 DUP4 SWAP1 PUSH1 0x6 SWAP1 DUP4 SWAP1 DUP4 SWAP1 DUP1 DUP3 DUP5 CALLDATACOPY PUSH1 0x0 SWAP3 ADD SWAP2 SWAP1 SWAP2 MSTORE POP PUSH2 0x1F58 SWAP2 POP POP JUMP JUMPDEST PUSH1 0x40 DUP1 MLOAD PUSH1 0xC0 DUP2 DUP2 ADD SWAP1 SWAP3 MSTORE PUSH2 0x955 SWAP2 DUP4 SWAP1 PUSH1 0x6 SWAP1 DUP4 SWAP1 DUP4 SWAP1 DUP1 DUP3 DUP5 CALLDATACOPY PUSH1 0x0 SWAP3 ADD SWAP2 SWAP1 SWAP2 MSTORE POP PUSH2 0x1A6E SWAP2 POP POP JUMP JUMPDEST PUSH2 0x1458 PUSH2 0x1EB9 JUMP JUMPDEST PUSH1 0x0 DUP2 DUP2 MSTORE PUSH1 0x8 PUSH1 0x20 MSTORE PUSH1 0x40 SWAP1 KECCAK256 DUP1 SLOAD PUSH1 0x1 PUSH1 0x1 PUSH1 0xA0 SHL SUB AND CALLER EQ PUSH2 0x14B2 JUMPI PUSH1 0x40 MLOAD PUSH3 0x461BCD PUSH1 0xE5 SHL DUP2 MSTORE PUSH1 0x20 PUSH1 0x4 DUP3 ADD MSTORE PUSH1 0x10 PUSH1 0x24 DUP3 ADD MSTORE PUSH16 0x2737BA103A34B1B5B2BA1037BBB732B9 PUSH1 0x81 SHL PUSH1 0x44 DUP3 ADD MSTORE PUSH1 0x64 ADD PUSH2 0x77A JUMP JUMPDEST PUSH1 0x8 DUP2 ADD SLOAD PUSH1 0xFF AND ISZERO PUSH2 0x14FF JUMPI PUSH1 0x40 MLOAD PUSH3 0x461BCD PUSH1 0xE5 SHL DUP2 MSTORE PUSH1 0x20 PUSH1 0x4 DUP3 ADD MSTORE PUSH1 0x15 PUSH1 0x24 DUP3 ADD MSTORE PUSH21 0x141C9A5E9948185B1C9958591E4818DB185A5B5959 PUSH1 0x5A SHL PUSH1 0x44 DUP3 ADD MSTORE PUSH1 0x64 ADD PUSH2 0x77A JUMP JUMPDEST PUSH1 0x7 DUP2 DUP2 ADD SLOAD PUSH1 0x0 SWAP1 DUP2 MSTORE PUSH1 0x20 SWAP2 SWAP1 SWAP2 MSTORE PUSH1 0x40 SWAP1 KECCAK256 PUSH1 0xA ADD SLOAD PUSH1 0xFF AND PUSH2 0x155F JUMPI PUSH1 0x40 MLOAD PUSH3 0x461BCD PUSH1 0xE5 SHL DUP2 MSTORE PUSH1 0x20 PUSH1 0x4 DUP3 ADD MSTORE PUSH1 0x15 PUSH1 0x24 DUP3 ADD MSTORE PUSH21 0x111C985DC81B9BDD08195E1958DD5D1959081E595D PUSH1 0x5A SHL PUSH1 0x44 DUP3 ADD MSTORE PUSH1 0x64 ADD PUSH2 0x77A JUMP JUMPDEST PUSH1 0x7 DUP2 DUP2 ADD SLOAD PUSH1 0x0 SWAP1 DUP2 MSTORE PUSH1 0x20 SWAP2 SWAP1 SWAP2 MSTORE PUSH1 0x40 DUP1 DUP3 KECCAK256 DUP2 MLOAD PUSH1 0xC0 DUP2 ADD SWAP3 DUP4 SWAP1 MSTORE SWAP1 SWAP3 SWAP2 PUSH2 0x15DD SWAP2 SWAP1 PUSH1 0x1 DUP7 ADD SWAP1 PUSH1 0x6 SWAP1 DUP3 DUP5 JUMPDEST DUP2 SLOAD DUP2 MSTORE PUSH1 0x20 ADD SWAP1 PUSH1 0x1 ADD SWAP1 DUP1 DUP4 GT PUSH2 0x1592 JUMPI POP POP PUSH1 0x40 DUP1 MLOAD PUSH1 0xC0 DUP2 ADD SWAP2 DUP3 SWAP1 MSTORE PUSH1 0x1 DUP10 ADD DUP1 SLOAD DUP3 MSTORE SWAP1 SWAP5 POP SWAP3 POP PUSH1 0x6 SWAP2 POP PUSH1 0x2 DUP9 ADD PUSH1 0x20 DUP6 ADD DUP1 DUP4 GT PUSH2 0xFCF JUMPI POP POP POP POP POP PUSH2 0x20DB JUMP JUMPDEST SWAP1 POP PUSH1 0x3 DUP2 LT ISZERO PUSH2 0x1624 JUMPI PUSH1 0x40 MLOAD PUSH3 0x461BCD PUSH1 0xE5 SHL DUP2 MSTORE PUSH1 0x20 PUSH1 0x4 DUP3 ADD MSTORE PUSH1 0x11 PUSH1 0x24 DUP3 ADD MSTORE PUSH17 0x4E6F207072697A6520746F20636C61696D PUSH1 0x78 SHL PUSH1 0x44 DUP3 ADD MSTORE PUSH1 0x64 ADD PUSH2 0x77A JUMP JUMPDEST PUSH1 0x0 DUP2 DUP2 MSTORE PUSH1 0xC DUP4 ADD PUSH1 0x20 MSTORE PUSH1 0x40 SWAP1 KECCAK256 SLOAD DUP1 PUSH2 0x1678 JUMPI PUSH1 0x40 MLOAD PUSH3 0x461BCD PUSH1 0xE5 SHL DUP2 MSTORE PUSH1 0x20 PUSH1 0x4 DUP3 ADD MSTORE PUSH1 0x13 PUSH1 0x24 DUP3 ADD MSTORE PUSH19 0x139BC81C1C9A5E9948185B5BDD5B9D081CD95D PUSH1 0x6A SHL PUSH1 0x44 DUP3 ADD MSTORE PUSH1 0x64 ADD PUSH2 0x77A JUMP JUMPDEST PUSH1 0x8 DUP5 ADD DUP1 SLOAD PUSH1 0xFF NOT AND PUSH1 0x1 SWAP1 DUP2 OR SWAP1 SWAP2 SSTORE CALLER PUSH1 0x0 SWAP1 DUP2 MSTORE PUSH1 0x9 PUSH1 0x20 MSTORE PUSH1 0x40 DUP2 KECCAK256 SWAP1 SWAP2 ADD DUP1 SLOAD DUP4 SWAP3 SWAP1 PUSH2 0x16AC SWAP1 DUP5 SWAP1 PUSH2 0x2614 JUMP JUMPDEST SWAP1 SWAP2 SSTORE POP POP PUSH1 0x40 MLOAD PUSH1 0x0 SWAP1 CALLER SWAP1 DUP4 SWAP1 DUP4 DUP2 DUP2 DUP2 DUP6 DUP8 GAS CALL SWAP3 POP POP POP RETURNDATASIZE DUP1 PUSH1 0x0 DUP2 EQ PUSH2 0x16F3 JUMPI PUSH1 0x40 MLOAD SWAP2 POP PUSH1 0x1F NOT PUSH1 0x3F RETURNDATASIZE ADD AND DUP3 ADD PUSH1 0x40 MSTORE RETURNDATASIZE DUP3 MSTORE RETURNDATASIZE PUSH1 0x0 PUSH1 0x20 DUP5 ADD RETURNDATACOPY PUSH2 0x16F8 JUMP JUMPDEST PUSH1 0x60 SWAP2 POP JUMPDEST POP POP SWAP1 POP DUP1 PUSH2 0x1741 JUMPI PUSH1 0x40 MLOAD PUSH3 0x461BCD PUSH1 0xE5 SHL DUP2 MSTORE PUSH1 0x20 PUSH1 0x4 DUP3 ADD MSTORE PUSH1 0x15 PUSH1 0x24 DUP3 ADD MSTORE PUSH21 0x141C9A5E99481D1C985B9CD9995C8819985A5B1959 PUSH1 0x5A SHL PUSH1 0x44 DUP3 ADD MSTORE PUSH1 0x64 ADD PUSH2 0x77A JUMP JUMPDEST PUSH1 0x40 DUP1 MLOAD DUP5 DUP2 MSTORE PUSH1 0x20 DUP2 ADD DUP5 SWAP1 MSTORE DUP8 SWAP2 CALLER SWAP2 PUSH32 0x701A77BD5E0B7B1FFFFE478C3C19E3CAADCA855782127FCA812C7CCD9646CDC4 SWAP2 ADD PUSH1 0x40 MLOAD DUP1 SWAP2 SUB SWAP1 LOG3 POP POP POP POP POP PUSH2 0x955 PUSH1 0x1 DUP1 SSTORE JUMP JUMPDEST PUSH2 0x1794 PUSH2 0x1802 JUMP JUMPDEST PUSH1 0x1 PUSH1 0x1 PUSH1 0xA0 SHL SUB DUP2 AND PUSH2 0x17F9 JUMPI PUSH1 0x40 MLOAD PUSH3 0x461BCD PUSH1 0xE5 SHL DUP2 MSTORE PUSH1 0x20 PUSH1 0x4 DUP3 ADD MSTORE PUSH1 0x26 PUSH1 0x24 DUP3 ADD MSTORE PUSH32 0x4F776E61626C653A206E6577206F776E657220697320746865207A65726F2061 PUSH1 0x44 DUP3 ADD MSTORE PUSH6 0x646472657373 PUSH1 0xD0 SHL PUSH1 0x64 DUP3 ADD MSTORE PUSH1 0x84 ADD PUSH2 0x77A JUMP JUMPDEST PUSH2 0x955 DUP2 PUSH2 0x1E69 JUMP JUMPDEST PUSH1 0x0 SLOAD PUSH1 0x1 PUSH1 0x1 PUSH1 0xA0 SHL SUB AND CALLER EQ PUSH2 0x999 JUMPI PUSH1 0x40 MLOAD PUSH3 0x461BCD PUSH1 0xE5 SHL DUP2 MSTORE PUSH1 0x20 PUSH1 0x4 DUP3 ADD DUP2 SWAP1 MSTORE PUSH1 0x24 DUP3 ADD MSTORE PUSH32 0x4F776E61626C653A2063616C6C6572206973206E6F7420746865206F776E6572 PUSH1 0x44 DUP3 ADD MSTORE PUSH1 0x64 ADD PUSH2 0x77A JUMP JUMPDEST PUSH2 0x1864 PUSH2 0x22C1 JUMP JUMPDEST PUSH1 0x40 DUP1 MLOAD PUSH1 0x31 DUP1 DUP3 MSTORE PUSH2 0x640 DUP3 ADD SWAP1 SWAP3 MSTORE PUSH1 0x0 SWAP2 PUSH1 0x20 DUP3 ADD PUSH2 0x620 DUP1 CALLDATASIZE DUP4 CALLDATACOPY ADD SWAP1 POP POP SWAP1 POP PUSH1 0x0 JUMPDEST PUSH1 0x31 DUP2 LT ISZERO PUSH2 0x18CF JUMPI PUSH2 0x18A0 PUSH1 0x1 DUP3 PUSH2 0x2614 JUMP JUMPDEST DUP3 DUP3 DUP2 MLOAD DUP2 LT PUSH2 0x18B2 JUMPI PUSH2 0x18B2 PUSH2 0x25D6 JUMP JUMPDEST PUSH1 0x20 SWAP1 DUP2 MUL SWAP2 SWAP1 SWAP2 ADD ADD MSTORE DUP1 PUSH2 0x18C7 DUP2 PUSH2 0x25EC JUMP JUMPDEST SWAP2 POP POP PUSH2 0x188C JUMP JUMPDEST POP PUSH2 0x18D8 PUSH2 0x22C1 JUMP JUMPDEST PUSH1 0x0 PUSH1 0x31 SWAP1 POP PUSH1 0x0 TIMESTAMP PREVRANDAO NUMBER COINBASE CALLER PUSH1 0x3 SLOAD PUSH1 0x4 SLOAD SELFBALANCE GAS PUSH1 0x40 DUP1 MLOAD PUSH1 0x20 DUP2 ADD SWAP11 SWAP1 SWAP11 MSTORE DUP10 ADD SWAP8 SWAP1 SWAP8 MSTORE PUSH1 0x60 DUP1 DUP10 ADD SWAP7 SWAP1 SWAP7 MSTORE SWAP4 DUP6 SHL PUSH12 0xFFFFFFFFFFFFFFFFFFFFFFFF NOT SWAP1 DUP2 AND PUSH1 0x80 DUP10 ADD MSTORE SWAP3 SWAP1 SWAP5 SHL SWAP1 SWAP2 AND PUSH1 0x94 DUP7 ADD MSTORE PUSH1 0xA8 DUP6 ADD MSTORE PUSH1 0xC8 DUP5 ADD SWAP2 SWAP1 SWAP2 MSTORE PUSH1 0xE8 DUP4 ADD MSTORE PUSH2 0x108 DUP3 ADD MSTORE PUSH2 0x128 ADD PUSH1 0x40 MLOAD PUSH1 0x20 DUP2 DUP4 SUB SUB DUP2 MSTORE SWAP1 PUSH1 0x40 MSTORE DUP1 MLOAD SWAP1 PUSH1 0x20 ADD KECCAK256 PUSH1 0x0 SHR SWAP1 POP PUSH1 0x0 JUMPDEST PUSH1 0x6 DUP2 LT ISZERO PUSH2 0x1A5B JUMPI PUSH1 0x0 DUP3 DUP3 PUSH2 0x197E DUP2 TIMESTAMP PUSH2 0x2614 JUMP JUMPDEST PUSH1 0x40 DUP1 MLOAD PUSH1 0x20 DUP2 ADD SWAP5 SWAP1 SWAP5 MSTORE DUP4 ADD SWAP2 SWAP1 SWAP2 MSTORE PUSH1 0x60 DUP3 ADD MSTORE PUSH1 0x80 DUP2 ADD DUP6 SWAP1 MSTORE PUSH1 0xA0 ADD PUSH1 0x40 DUP1 MLOAD PUSH1 0x1F NOT DUP2 DUP5 SUB ADD DUP2 MSTORE SWAP2 SWAP1 MSTORE DUP1 MLOAD PUSH1 0x20 SWAP1 SWAP2 ADD KECCAK256 SWAP1 POP PUSH1 0x0 PUSH2 0x19C5 DUP6 DUP4 PUSH2 0x267A JUMP JUMPDEST SWAP1 POP DUP7 DUP2 DUP2 MLOAD DUP2 LT PUSH2 0x19D9 JUMPI PUSH2 0x19D9 PUSH2 0x25D6 JUMP JUMPDEST PUSH1 0x20 MUL PUSH1 0x20 ADD ADD MLOAD DUP7 DUP5 PUSH1 0x6 DUP2 LT PUSH2 0x19F3 JUMPI PUSH2 0x19F3 PUSH2 0x25D6 JUMP JUMPDEST PUSH1 0x20 MUL ADD MSTORE DUP7 PUSH2 0x1A04 PUSH1 0x1 DUP8 PUSH2 0x2651 JUMP JUMPDEST DUP2 MLOAD DUP2 LT PUSH2 0x1A14 JUMPI PUSH2 0x1A14 PUSH2 0x25D6 JUMP JUMPDEST PUSH1 0x20 MUL PUSH1 0x20 ADD ADD MLOAD DUP8 DUP3 DUP2 MLOAD DUP2 LT PUSH2 0x1A2E JUMPI PUSH2 0x1A2E PUSH2 0x25D6 JUMP JUMPDEST PUSH1 0x20 SWAP1 DUP2 MUL SWAP2 SWAP1 SWAP2 ADD ADD MSTORE DUP5 PUSH2 0x1A43 DUP2 PUSH2 0x268E JUMP JUMPDEST SWAP6 POP POP POP POP DUP1 DUP1 PUSH2 0x1A53 SWAP1 PUSH2 0x25EC JUMP JUMPDEST SWAP2 POP POP PUSH2 0x1967 JUMP JUMPDEST POP PUSH2 0x1A65 DUP4 PUSH2 0x2167 JUMP JUMPDEST POP SWAP1 SWAP4 SWAP3 POP POP POP JUMP JUMPDEST PUSH1 0x3 SLOAD PUSH1 0x0 DUP2 DUP2 MSTORE PUSH1 0x7 PUSH1 0x20 DUP2 SWAP1 MSTORE PUSH1 0x40 DUP3 KECCAK256 SWAP3 DUP4 SSTORE TIMESTAMP SWAP1 DUP4 ADD SSTORE PUSH1 0x5 SLOAD PUSH1 0x8 DUP4 ADD SSTORE PUSH1 0xA DUP3 ADD DUP1 SLOAD PUSH1 0xFF NOT AND PUSH1 0x1 OR SWAP1 SSTORE JUMPDEST PUSH1 0x6 DUP2 LT ISZERO PUSH2 0x1AEA JUMPI DUP3 DUP2 PUSH1 0x6 DUP2 LT PUSH2 0x1ABC JUMPI PUSH2 0x1ABC PUSH2 0x25D6 JUMP JUMPDEST PUSH1 0x20 MUL ADD MLOAD DUP3 PUSH1 0x1 ADD DUP3 PUSH1 0x6 DUP2 LT PUSH2 0x1AD6 JUMPI PUSH2 0x1AD6 PUSH2 0x25D6 JUMP JUMPDEST ADD SSTORE DUP1 PUSH2 0x1AE2 DUP2 PUSH2 0x25EC JUMP JUMPDEST SWAP2 POP POP PUSH2 0x1AA1 JUMP JUMPDEST POP PUSH1 0x3 SLOAD PUSH1 0x0 SWAP1 DUP2 MSTORE PUSH1 0xA PUSH1 0x20 SWAP1 DUP2 MSTORE PUSH1 0x40 DUP1 DUP4 KECCAK256 DUP1 SLOAD DUP3 MLOAD DUP2 DUP6 MUL DUP2 ADD DUP6 ADD SWAP1 SWAP4 MSTORE DUP1 DUP4 MSTORE SWAP2 SWAP3 SWAP1 SWAP2 SWAP1 DUP4 ADD DUP3 DUP3 DUP1 ISZERO PUSH2 0x1B44 JUMPI PUSH1 0x20 MUL DUP3 ADD SWAP2 SWAP1 PUSH1 0x0 MSTORE PUSH1 0x20 PUSH1 0x0 KECCAK256 SWAP1 JUMPDEST DUP2 SLOAD DUP2 MSTORE PUSH1 0x20 ADD SWAP1 PUSH1 0x1 ADD SWAP1 DUP1 DUP4 GT PUSH2 0x1B30 JUMPI JUMPDEST POP POP POP POP POP SWAP1 POP PUSH1 0x0 JUMPDEST DUP2 MLOAD DUP2 LT ISZERO PUSH2 0x1C04 JUMPI PUSH1 0x0 DUP3 DUP3 DUP2 MLOAD DUP2 LT PUSH2 0x1B6B JUMPI PUSH2 0x1B6B PUSH2 0x25D6 JUMP JUMPDEST PUSH1 0x20 SWAP1 DUP2 MUL SWAP2 SWAP1 SWAP2 ADD DUP2 ADD MLOAD PUSH1 0x0 DUP2 DUP2 MSTORE PUSH1 0x8 SWAP1 SWAP3 MSTORE PUSH1 0x40 DUP1 DUP4 KECCAK256 DUP2 MLOAD PUSH1 0xC0 DUP2 ADD SWAP1 SWAP3 MSTORE SWAP2 SWAP4 POP PUSH2 0x1BC3 SWAP2 PUSH1 0x1 ADD PUSH1 0x6 DUP3 DUP3 DUP3 PUSH1 0x20 MUL DUP3 ADD SWAP2 JUMPDEST DUP2 SLOAD DUP2 MSTORE PUSH1 0x20 ADD SWAP1 PUSH1 0x1 ADD SWAP1 DUP1 DUP4 GT PUSH2 0x1BA5 JUMPI POP POP POP POP POP DUP8 PUSH2 0x20DB JUMP JUMPDEST SWAP1 POP PUSH1 0x3 DUP2 LT PUSH2 0x1BEF JUMPI PUSH1 0x0 DUP2 DUP2 MSTORE PUSH1 0xB DUP7 ADD PUSH1 0x20 MSTORE PUSH1 0x40 DUP2 KECCAK256 DUP1 SLOAD SWAP2 PUSH2 0x1BE9 DUP4 PUSH2 0x25EC JUMP JUMPDEST SWAP2 SWAP1 POP SSTORE POP JUMPDEST POP POP DUP1 DUP1 PUSH2 0x1BFC SWAP1 PUSH2 0x25EC JUMP JUMPDEST SWAP2 POP POP PUSH2 0x1B4E JUMP JUMPDEST POP PUSH1 0x8 DUP3 ADD SLOAD PUSH1 0x6 PUSH1 0x0 SWAP1 DUP2 MSTORE PUSH1 0xB DUP5 ADD PUSH1 0x20 MSTORE PUSH1 0x40 SWAP1 KECCAK256 SLOAD ISZERO PUSH2 0x1C92 JUMPI PUSH1 0x6 PUSH1 0x0 SWAP1 DUP2 MSTORE PUSH1 0xB DUP5 ADD PUSH1 0x20 MSTORE PUSH1 0x40 SWAP1 KECCAK256 SLOAD PUSH1 0x64 PUSH2 0x1C42 PUSH1 0x3C DUP5 PUSH2 0x25BF JUMP JUMPDEST PUSH2 0x1C4C SWAP2 SWAP1 PUSH2 0x263D JUMP JUMPDEST PUSH2 0x1C56 SWAP2 SWAP1 PUSH2 0x263D JUMP JUMPDEST PUSH1 0x6 PUSH1 0x0 SWAP1 DUP2 MSTORE PUSH1 0xC DUP6 ADD PUSH1 0x20 DUP2 DUP2 MSTORE PUSH1 0x40 DUP1 DUP5 KECCAK256 DUP6 SWAP1 SSTORE PUSH1 0xB DUP9 ADD DUP3 MSTORE SWAP1 SWAP3 KECCAK256 SLOAD SWAP2 MSTORE PUSH2 0x1C83 SWAP2 PUSH2 0x25BF JUMP JUMPDEST PUSH1 0x9 DUP5 ADD SSTORE PUSH1 0x0 PUSH1 0x5 SSTORE PUSH2 0x1C9A JUMP JUMPDEST PUSH1 0x0 PUSH1 0x9 DUP5 ADD SSTORE JUMPDEST PUSH1 0x5 PUSH1 0x0 SWAP1 DUP2 MSTORE PUSH1 0xB DUP5 ADD PUSH1 0x20 MSTORE PUSH1 0x40 SWAP1 KECCAK256 SLOAD ISZERO PUSH2 0x1CFA JUMPI PUSH1 0x5 PUSH1 0x0 SWAP1 DUP2 MSTORE PUSH1 0xB DUP5 ADD PUSH1 0x20 MSTORE PUSH1 0x40 SWAP1 KECCAK256 SLOAD PUSH1 0x64 PUSH2 0x1CD2 PUSH1 0x14 DUP5 PUSH2 0x25BF JUMP JUMPDEST PUSH2 0x1CDC SWAP2 SWAP1 PUSH2 0x263D JUMP JUMPDEST PUSH2 0x1CE6 SWAP2 SWAP1 PUSH2 0x263D JUMP JUMPDEST PUSH1 0x5 PUSH1 0x0 SWAP1 DUP2 MSTORE PUSH1 0xC DUP6 ADD PUSH1 0x20 MSTORE PUSH1 0x40 SWAP1 KECCAK256 SSTORE JUMPDEST PUSH1 0x4 PUSH1 0x0 SWAP1 DUP2 MSTORE PUSH1 0xB DUP5 ADD PUSH1 0x20 MSTORE PUSH1 0x40 SWAP1 KECCAK256 SLOAD ISZERO PUSH2 0x1D5A JUMPI PUSH1 0x4 PUSH1 0x0 SWAP1 DUP2 MSTORE PUSH1 0xB DUP5 ADD PUSH1 0x20 MSTORE PUSH1 0x40 SWAP1 KECCAK256 SLOAD PUSH1 0x64 PUSH2 0x1D32 PUSH1 0xF DUP5 PUSH2 0x25BF JUMP JUMPDEST PUSH2 0x1D3C SWAP2 SWAP1 PUSH2 0x263D JUMP JUMPDEST PUSH2 0x1D46 SWAP2 SWAP1 PUSH2 0x263D JUMP JUMPDEST PUSH1 0x4 PUSH1 0x0 SWAP1 DUP2 MSTORE PUSH1 0xC DUP6 ADD PUSH1 0x20 MSTORE PUSH1 0x40 SWAP1 KECCAK256 SSTORE JUMPDEST PUSH1 0x3 PUSH1 0x0 SWAP1 DUP2 MSTORE PUSH1 0xB DUP5 ADD PUSH1 0x20 MSTORE PUSH1 0x40 SWAP1 KECCAK256 SLOAD ISZERO PUSH2 0x1DBA JUMPI PUSH1 0x3 PUSH1 0x0 SWAP1 DUP2 MSTORE PUSH1 0xB DUP5 ADD PUSH1 0x20 MSTORE PUSH1 0x40 SWAP1 KECCAK256 SLOAD PUSH1 0x64 PUSH2 0x1D92 PUSH1 0x5 DUP5 PUSH2 0x25BF JUMP JUMPDEST PUSH2 0x1D9C SWAP2 SWAP1 PUSH2 0x263D JUMP JUMPDEST PUSH2 0x1DA6 SWAP2 SWAP1 PUSH2 0x263D JUMP JUMPDEST PUSH1 0x3 PUSH1 0x0 SWAP1 DUP2 MSTORE PUSH1 0xC DUP6 ADD PUSH1 0x20 MSTORE PUSH1 0x40 SWAP1 KECCAK256 SSTORE JUMPDEST PUSH1 0x3 SLOAD PUSH32 0x50814EA5605E6BCE4E231A3C0FD99301DAFDEEF6DA03FBCB57C6EC0CF3E132F2 DUP6 DUP4 DUP7 PUSH1 0x9 ADD SLOAD PUSH1 0x40 MLOAD PUSH2 0x1DF4 SWAP4 SWAP3 SWAP2 SWAP1 PUSH2 0x26A5 JUMP JUMPDEST PUSH1 0x40 MLOAD DUP1 SWAP2 SUB SWAP1 LOG2 PUSH1 0x3 DUP1 SLOAD SWAP1 PUSH1 0x0 PUSH2 0x1E0C DUP4 PUSH2 0x25EC JUMP JUMPDEST SWAP2 SWAP1 POP SSTORE POP POP POP POP POP JUMP JUMPDEST PUSH2 0x1E1F PUSH2 0x2278 JUMP JUMPDEST PUSH1 0x2 DUP1 SLOAD PUSH1 0xFF NOT AND SWAP1 SSTORE PUSH32 0x5DB9EE0A495BF2E6FF9C91A7834C1BA4FDD244A5E8AA4E537BD38AEAE4B073AA CALLER JUMPDEST PUSH1 0x40 MLOAD PUSH1 0x1 PUSH1 0x1 PUSH1 0xA0 SHL SUB SWAP1 SWAP2 AND DUP2 MSTORE PUSH1 0x20 ADD PUSH1 0x40 MLOAD DUP1 SWAP2 SUB SWAP1 LOG1 JUMP JUMPDEST PUSH1 0x0 DUP1 SLOAD PUSH1 0x1 PUSH1 0x1 PUSH1 0xA0 SHL SUB DUP4 DUP2 AND PUSH1 0x1 PUSH1 0x1 PUSH1 0xA0 SHL SUB NOT DUP4 AND DUP2 OR DUP5 SSTORE PUSH1 0x40 MLOAD SWAP2 SWAP1 SWAP3 AND SWAP3 DUP4 SWAP2 PUSH32 0x8BE0079C531659141344CD1FD0A4F28419497F9722A3DAAFE3B4186F6B6457E0 SWAP2 SWAP1 LOG3 POP POP JUMP JUMPDEST PUSH1 0x2 PUSH1 0x1 SLOAD SUB PUSH2 0x1F0B JUMPI PUSH1 0x40 MLOAD PUSH3 0x461BCD PUSH1 0xE5 SHL DUP2 MSTORE PUSH1 0x20 PUSH1 0x4 DUP3 ADD MSTORE PUSH1 0x1F PUSH1 0x24 DUP3 ADD MSTORE PUSH32 0x5265656E7472616E637947756172643A207265656E7472616E742063616C6C00 PUSH1 0x44 DUP3 ADD MSTORE PUSH1 0x64 ADD PUSH2 0x77A JUMP JUMPDEST PUSH1 0x2 PUSH1 0x1 SSTORE JUMP JUMPDEST PUSH1 0x2 SLOAD PUSH1 0xFF AND ISZERO PUSH2 0x999 JUMPI PUSH1 0x40 MLOAD PUSH3 0x461BCD PUSH1 0xE5 SHL DUP2 MSTORE PUSH1 0x20 PUSH1 0x4 DUP3 ADD MSTORE PUSH1 0x10 PUSH1 0x24 DUP3 ADD MSTORE PUSH16 0x14185D5CD8589B194E881C185D5CD959 PUSH1 0x82 SHL PUSH1 0x44 DUP3 ADD MSTORE PUSH1 0x64 ADD PUSH2 0x77A JUMP JUMPDEST PUSH1 0x0 JUMPDEST PUSH1 0x6 DUP2 LT ISZERO PUSH2 0xDE6 JUMPI PUSH1 0x1 DUP3 DUP3 PUSH1 0x6 DUP2 LT PUSH2 0x1F78 JUMPI PUSH2 0x1F78 PUSH2 0x25D6 JUMP JUMPDEST PUSH1 0x20 MUL ADD MLOAD LT ISZERO DUP1 ISZERO PUSH2 0x1FA2 JUMPI POP PUSH1 0x31 DUP3 DUP3 PUSH1 0x6 DUP2 LT PUSH2 0x1F9A JUMPI PUSH2 0x1F9A PUSH2 0x25D6 JUMP JUMPDEST PUSH1 0x20 MUL ADD MLOAD GT ISZERO JUMPDEST PUSH2 0x1FE5 JUMPI PUSH1 0x40 MLOAD PUSH3 0x461BCD PUSH1 0xE5 SHL DUP2 MSTORE PUSH1 0x20 PUSH1 0x4 DUP3 ADD MSTORE PUSH1 0x14 PUSH1 0x24 DUP3 ADD MSTORE PUSH20 0x496E76616C6964206E756D6265722072616E6765 PUSH1 0x60 SHL PUSH1 0x44 DUP3 ADD MSTORE PUSH1 0x64 ADD PUSH2 0x77A JUMP JUMPDEST PUSH1 0x0 PUSH2 0x1FF2 DUP3 PUSH1 0x1 PUSH2 0x2614 JUMP JUMPDEST SWAP1 POP JUMPDEST PUSH1 0x6 DUP2 LT ISZERO PUSH2 0x208B JUMPI DUP3 DUP2 PUSH1 0x6 DUP2 LT PUSH2 0x2010 JUMPI PUSH2 0x2010 PUSH2 0x25D6 JUMP JUMPDEST PUSH1 0x20 MUL ADD MLOAD DUP4 DUP4 PUSH1 0x6 DUP2 LT PUSH2 0x2027 JUMPI PUSH2 0x2027 PUSH2 0x25D6 JUMP JUMPDEST PUSH1 0x20 MUL ADD MLOAD SUB PUSH2 0x2079 JUMPI PUSH1 0x40 MLOAD PUSH3 0x461BCD PUSH1 0xE5 SHL DUP2 MSTORE PUSH1 0x20 PUSH1 0x4 DUP3 ADD MSTORE PUSH1 0x1D PUSH1 0x24 DUP3 ADD MSTORE PUSH32 0x4475706C6963617465206E756D62657273206E6F7420616C6C6F776564000000 PUSH1 0x44 DUP3 ADD MSTORE PUSH1 0x64 ADD PUSH2 0x77A JUMP JUMPDEST DUP1 PUSH2 0x2083 DUP2 PUSH2 0x25EC JUMP JUMPDEST SWAP2 POP POP PUSH2 0x1FF5 JUMP JUMPDEST POP DUP1 PUSH2 0x2096 DUP2 PUSH2 0x25EC JUMP JUMPDEST SWAP2 POP POP PUSH2 0x1F5B JUMP JUMPDEST PUSH2 0x20A6 PUSH2 0x1F12 JUMP JUMPDEST PUSH1 0x2 DUP1 SLOAD PUSH1 0xFF NOT AND PUSH1 0x1 OR SWAP1 SSTORE PUSH32 0x62E78CEA01BEE320CD4E420270B5EA74000D11B0C9F74754EBDBFC544B05A258 PUSH2 0x1E4C CALLER SWAP1 JUMP JUMPDEST PUSH1 0x0 DUP1 DUP1 JUMPDEST PUSH1 0x6 DUP2 LT ISZERO PUSH2 0x215F JUMPI PUSH1 0x0 JUMPDEST PUSH1 0x6 DUP2 LT ISZERO PUSH2 0x214C JUMPI DUP5 DUP2 PUSH1 0x6 DUP2 LT PUSH2 0x2107 JUMPI PUSH2 0x2107 PUSH2 0x25D6 JUMP JUMPDEST PUSH1 0x20 MUL ADD MLOAD DUP7 DUP4 PUSH1 0x6 DUP2 LT PUSH2 0x211E JUMPI PUSH2 0x211E PUSH2 0x25D6 JUMP JUMPDEST PUSH1 0x20 MUL ADD MLOAD SUB PUSH2 0x213A JUMPI DUP3 PUSH2 0x2132 DUP2 PUSH2 0x25EC JUMP JUMPDEST SWAP4 POP POP PUSH2 0x214C JUMP JUMPDEST DUP1 PUSH2 0x2144 DUP2 PUSH2 0x25EC JUMP JUMPDEST SWAP2 POP POP PUSH2 0x20EC JUMP JUMPDEST POP DUP1 PUSH2 0x2157 DUP2 PUSH2 0x25EC JUMP JUMPDEST SWAP2 POP POP PUSH2 0x20E0 JUMP JUMPDEST POP SWAP4 SWAP3 POP POP POP JUMP JUMPDEST PUSH1 0x0 JUMPDEST PUSH2 0x2176 PUSH1 0x1 PUSH1 0x6 PUSH2 0x2651 JUMP JUMPDEST DUP2 LT ISZERO PUSH2 0xDE6 JUMPI PUSH1 0x0 JUMPDEST PUSH1 0x1 PUSH2 0x218D DUP4 PUSH1 0x6 PUSH2 0x2651 JUMP JUMPDEST PUSH2 0x2197 SWAP2 SWAP1 PUSH2 0x2651 JUMP JUMPDEST DUP2 LT ISZERO PUSH2 0x2265 JUMPI DUP3 PUSH2 0x21AA DUP3 PUSH1 0x1 PUSH2 0x2614 JUMP JUMPDEST PUSH1 0x6 DUP2 LT PUSH2 0x21BA JUMPI PUSH2 0x21BA PUSH2 0x25D6 JUMP JUMPDEST PUSH1 0x20 MUL ADD MLOAD DUP4 DUP3 PUSH1 0x6 DUP2 LT PUSH2 0x21D1 JUMPI PUSH2 0x21D1 PUSH2 0x25D6 JUMP JUMPDEST PUSH1 0x20 MUL ADD MLOAD GT ISZERO PUSH2 0x2253 JUMPI PUSH1 0x0 DUP4 DUP3 PUSH1 0x6 DUP2 LT PUSH2 0x21F0 JUMPI PUSH2 0x21F0 PUSH2 0x25D6 JUMP JUMPDEST PUSH1 0x20 MUL ADD MLOAD SWAP1 POP DUP4 PUSH2 0x2203 DUP4 PUSH1 0x1 PUSH2 0x2614 JUMP JUMPDEST PUSH1 0x6 DUP2 LT PUSH2 0x2213 JUMPI PUSH2 0x2213 PUSH2 0x25D6 JUMP JUMPDEST PUSH1 0x20 MUL ADD MLOAD DUP5 DUP4 PUSH1 0x6 DUP2 LT PUSH2 0x222A JUMPI PUSH2 0x222A PUSH2 0x25D6 JUMP JUMPDEST PUSH1 0x20 MUL ADD MSTORE DUP1 DUP5 PUSH2 0x223C DUP5 PUSH1 0x1 PUSH2 0x2614 JUMP JUMPDEST PUSH1 0x6 DUP2 LT PUSH2 0x224C JUMPI PUSH2 0x224C PUSH2 0x25D6 JUMP JUMPDEST PUSH1 0x20 MUL ADD MSTORE POP JUMPDEST DUP1 PUSH2 0x225D DUP2 PUSH2 0x25EC JUMP JUMPDEST SWAP2 POP POP PUSH2 0x2180 JUMP JUMPDEST POP DUP1 PUSH2 0x2270 DUP2 PUSH2 0x25EC JUMP JUMPDEST SWAP2 POP POP PUSH2 0x216A JUMP JUMPDEST PUSH1 0x2 SLOAD PUSH1 0xFF AND PUSH2 0x999 JUMPI PUSH1 0x40 MLOAD PUSH3 0x461BCD PUSH1 0xE5 SHL DUP2 MSTORE PUSH1 0x20 PUSH1 0x4 DUP3 ADD MSTORE PUSH1 0x14 PUSH1 0x24 DUP3 ADD MSTORE PUSH20 0x14185D5CD8589B194E881B9BDD081C185D5CD959 PUSH1 0x62 SHL PUSH1 0x44 DUP3 ADD MSTORE PUSH1 0x64 ADD PUSH2 0x77A JUMP JUMPDEST PUSH1 0x40 MLOAD DUP1 PUSH1 0xC0 ADD PUSH1 0x40 MSTORE DUP1 PUSH1 0x6 SWAP1 PUSH1 0x20 DUP3 MUL DUP1 CALLDATASIZE DUP4 CALLDATACOPY POP SWAP2 SWAP3 SWAP2 POP POP JUMP JUMPDEST PUSH1 0x0 PUSH1 0x20 DUP3 DUP5 SUB SLT ISZERO PUSH2 0x22F1 JUMPI PUSH1 0x0 DUP1 REVERT JUMPDEST POP CALLDATALOAD SWAP2 SWAP1 POP JUMP JUMPDEST PUSH1 0x0 DUP1 PUSH1 0x40 DUP4 DUP6 SUB SLT ISZERO PUSH2 0x230B JUMPI PUSH1 0x0 DUP1 REVERT JUMPDEST POP POP DUP1 CALLDATALOAD SWAP3 PUSH1 0x20 SWAP1 SWAP2 ADD CALLDATALOAD SWAP2 POP JUMP JUMPDEST PUSH1 0x0 PUSH1 0x20 DUP3 DUP5 SUB SLT ISZERO PUSH2 0x232C JUMPI PUSH1 0x0 DUP1 REVERT JUMPDEST DUP2 CALLDATALOAD PUSH1 0x1 PUSH1 0x1 PUSH1 0xA0 SHL SUB DUP2 AND DUP2 EQ PUSH2 0x2343 JUMPI PUSH1 0x0 DUP1 REVERT JUMPDEST SWAP4 SWAP3 POP POP POP JUMP JUMPDEST PUSH1 0x0 DUP2 MLOAD DUP1 DUP5 MSTORE PUSH1 0x20 DUP1 DUP6 ADD SWAP5 POP DUP1 DUP5 ADD PUSH1 0x0 JUMPDEST DUP4 DUP2 LT ISZERO PUSH2 0x237A JUMPI DUP2 MLOAD DUP8 MSTORE SWAP6 DUP3 ADD SWAP6 SWAP1 DUP3 ADD SWAP1 PUSH1 0x1 ADD PUSH2 0x235E JUMP JUMPDEST POP SWAP5 SWAP6 SWAP5 POP POP POP POP POP JUMP JUMPDEST DUP4 DUP2 MSTORE DUP3 PUSH1 0x20 DUP3 ADD MSTORE PUSH1 0x60 PUSH1 0x40 DUP3 ADD MSTORE PUSH1 0x0 PUSH2 0x23A4 PUSH1 0x60 DUP4 ADD DUP5 PUSH2 0x234A JUMP JUMPDEST SWAP6 SWAP5 POP POP POP POP POP JUMP JUMPDEST PUSH1 0x20 DUP2 MSTORE PUSH1 0x0 PUSH2 0x2343 PUSH1 0x20 DUP4 ADD DUP5 PUSH2 0x234A JUMP JUMPDEST PUSH1 0x0 DUP1 PUSH1 0x20 DUP4 DUP6 SUB SLT ISZERO PUSH2 0x23D3 JUMPI PUSH1 0x0 DUP1 REVERT JUMPDEST DUP3 CALLDATALOAD PUSH8 0xFFFFFFFFFFFFFFFF DUP1 DUP3 GT ISZERO PUSH2 0x23EB JUMPI PUSH1 0x0 DUP1 REVERT JUMPDEST DUP2 DUP6 ADD SWAP2 POP DUP6 PUSH1 0x1F DUP4 ADD SLT PUSH2 0x23FF JUMPI PUSH1 0x0 DUP1 REVERT JUMPDEST DUP2 CALLDATALOAD DUP2 DUP2 GT ISZERO PUSH2 0x240E JUMPI PUSH1 0x0 DUP1 REVERT JUMPDEST DUP7 PUSH1 0x20 PUSH1 0xC0 DUP4 MUL DUP6 ADD ADD GT ISZERO PUSH2 0x2423 JUMPI PUSH1 0x0 DUP1 REVERT JUMPDEST PUSH1 0x20 SWAP3 SWAP1 SWAP3 ADD SWAP7 SWAP2 SWAP6 POP SWAP1 SWAP4 POP POP POP POP JUMP JUMPDEST DUP1 PUSH1 0x0 JUMPDEST PUSH1 0x6 DUP2 LT ISZERO PUSH2 0x2458 JUMPI DUP2 MLOAD DUP5 MSTORE PUSH1 0x20 SWAP4 DUP5 ADD SWAP4 SWAP1 SWAP2 ADD SWAP1 PUSH1 0x1 ADD PUSH2 0x2439 JUMP JUMPDEST POP POP POP POP JUMP JUMPDEST PUSH1 0x1 PUSH1 0x1 PUSH1 0xA0 SHL SUB DUP6 AND DUP2 MSTORE PUSH2 0x120 DUP2 ADD PUSH2 0x247C PUSH1 0x20 DUP4 ADD DUP7 PUSH2 0x2435 JUMP JUMPDEST DUP4 PUSH1 0xE0 DUP4 ADD MSTORE DUP3 ISZERO ISZERO PUSH2 0x100 DUP4 ADD MSTORE SWAP6 SWAP5 POP POP POP POP POP JUMP JUMPDEST PUSH1 0x80 DUP1 DUP3 MSTORE DUP6 MLOAD SWAP1 DUP3 ADD DUP2 SWAP1 MSTORE PUSH1 0x0 SWAP1 PUSH1 0x20 SWAP1 PUSH1 0xA0 DUP5 ADD SWAP1 DUP3 DUP10 ADD DUP5 JUMPDEST DUP3 DUP2 LT ISZERO PUSH2 0x24D6 JUMPI DUP2 MLOAD PUSH1 0x1 PUSH1 0x1 PUSH1 0xA0 SHL SUB AND DUP5 MSTORE SWAP3 DUP5 ADD SWAP3 SWAP1 DUP5 ADD SWAP1 PUSH1 0x1 ADD PUSH2 0x24B1 JUMP JUMPDEST POP POP POP DUP4 DUP2 SUB DUP3 DUP6 ADD MSTORE PUSH2 0x24EA DUP2 DUP9 PUSH2 0x234A JUMP JUMPDEST SWAP1 POP DUP4 DUP2 SUB PUSH1 0x40 DUP6 ADD MSTORE PUSH2 0x24FE DUP2 DUP8 PUSH2 0x234A JUMP JUMPDEST DUP5 DUP2 SUB PUSH1 0x60 DUP7 ADD MSTORE DUP6 MLOAD DUP1 DUP3 MSTORE DUP4 DUP8 ADD SWAP3 POP SWAP1 DUP4 ADD SWAP1 PUSH1 0x0 JUMPDEST DUP2 DUP2 LT ISZERO PUSH2 0x2535 JUMPI DUP4 MLOAD ISZERO ISZERO DUP4 MSTORE SWAP3 DUP5 ADD SWAP3 SWAP2 DUP5 ADD SWAP2 PUSH1 0x1 ADD PUSH2 0x2517 JUMP JUMPDEST POP SWAP1 SWAP10 SWAP9 POP POP POP POP POP POP POP POP POP JUMP JUMPDEST DUP7 DUP2 MSTORE PUSH2 0x160 DUP2 ADD PUSH2 0x2559 PUSH1 0x20 DUP4 ADD DUP9 PUSH2 0x2435 JUMP JUMPDEST DUP6 PUSH1 0xE0 DUP4 ADD MSTORE DUP5 PUSH2 0x100 DUP4 ADD MSTORE DUP4 PUSH2 0x120 DUP4 ADD MSTORE DUP3 ISZERO ISZERO PUSH2 0x140 DUP4 ADD MSTORE SWAP8 SWAP7 POP POP POP POP POP POP POP JUMP JUMPDEST PUSH1 0x0 PUSH1 0xC0 DUP3 DUP5 SUB SLT ISZERO PUSH2 0x2593 JUMPI PUSH1 0x0 DUP1 REVERT JUMPDEST DUP3 PUSH1 0xC0 DUP4 ADD GT ISZERO PUSH2 0x25A3 JUMPI PUSH1 0x0 DUP1 REVERT JUMPDEST POP SWAP2 SWAP1 POP JUMP JUMPDEST PUSH4 0x4E487B71 PUSH1 0xE0 SHL PUSH1 0x0 MSTORE PUSH1 0x11 PUSH1 0x4 MSTORE PUSH1 0x24 PUSH1 0x0 REVERT JUMPDEST DUP1 DUP3 MUL DUP2 ISZERO DUP3 DUP3 DIV DUP5 EQ OR PUSH2 0xA9E JUMPI PUSH2 0xA9E PUSH2 0x25A9 JUMP JUMPDEST PUSH4 0x4E487B71 PUSH1 0xE0 SHL PUSH1 0x0 MSTORE PUSH1 0x32 PUSH1 0x4 MSTORE PUSH1 0x24 PUSH1 0x0 REVERT JUMPDEST PUSH1 0x0 PUSH1 0x1 DUP3 ADD PUSH2 0x25FE JUMPI PUSH2 0x25FE PUSH2 0x25A9 JUMP JUMPDEST POP PUSH1 0x1 ADD SWAP1 JUMP JUMPDEST PUSH1 0xC0 DUP2 DUP2 ADD SWAP1 DUP4 DUP4 CALLDATACOPY SWAP3 SWAP2 POP POP JUMP JUMPDEST DUP1 DUP3 ADD DUP1 DUP3 GT ISZERO PUSH2 0xA9E JUMPI PUSH2 0xA9E PUSH2 0x25A9 JUMP JUMPDEST PUSH4 0x4E487B71 PUSH1 0xE0 SHL PUSH1 0x0 MSTORE PUSH1 0x12 PUSH1 0x4 MSTORE PUSH1 0x24 PUSH1 0x0 REVERT JUMPDEST PUSH1 0x0 DUP3 PUSH2 0x264C JUMPI PUSH2 0x264C PUSH2 0x2627 JUMP JUMPDEST POP DIV SWAP1 JUMP JUMPDEST DUP2 DUP2 SUB DUP2 DUP2 GT ISZERO PUSH2 0xA9E JUMPI PUSH2 0xA9E PUSH2 0x25A9 JUMP JUMPDEST PUSH4 0x4E487B71 PUSH1 0xE0 SHL PUSH1 0x0 MSTORE PUSH1 0x41 PUSH1 0x4 MSTORE PUSH1 0x24 PUSH1 0x0 REVERT JUMPDEST PUSH1 0x0 DUP3 PUSH2 0x2689 JUMPI PUSH2 0x2689 PUSH2 0x2627 JUMP JUMPDEST POP MOD SWAP1 JUMP JUMPDEST PUSH1 0x0 DUP2 PUSH2 0x269D JUMPI PUSH2 0x269D PUSH2 0x25A9 JUMP JUMPDEST POP PUSH1 0x0 NOT ADD SWAP1 JUMP JUMPDEST PUSH2 0x100 DUP2 ADD PUSH2 0x26B4 DUP3 DUP7 PUSH2 0x2435 JUMP JUMPDEST PUSH1 0xC0 DUP3 ADD SWAP4 SWAP1 SWAP4 MSTORE PUSH1 0xE0 ADD MSTORE SWAP2 SWAP1 POP JUMP INVALID LOG2 PUSH5 0x6970667358 0x22 SLT KECCAK256 0xE0 JUMPDEST SLOAD CALL RETURN 0x4B 0xD4 INVALID 0xBD INVALID 0xBA LT SLT 0xD2 DUP3 LOG0 CALLDATACOPY CALL SWAP15 CHAINID SMOD 0xE1 NUMBER 0xB3 SWAP15 SWAP9 0xBA 0xB5 AND PUSH1 0xB8 0xCC PUSH5 0x736F6C6343 STOP ADDMOD SGT STOP CALLER "},"methodIdentifiers":{"ADMIN_FEE_PERCENTAGE()":"5c221034","FOURTH_PRIZE_PERCENTAGE()":"610a14d5","JACKPOT_PERCENTAGE()":"a6858ee6","MAX_NUMBER()":"fea9b572","MIN_NUMBER()":"dd8ab8f9","NUMBERS_PER_TICKET()":"fab14e8e","SECOND_PRIZE_PERCENTAGE()":"c4aa7245","THIRD_PRIZE_PERCENTAGE()":"2599399e","TICKET_PRICE()":"1a95f15f","accumulatedJackpot()":"54c0273e","adminBalance()":"9858befb","claimPrize(uint256)":"d7098154","currentDrawId()":"bca78fab","drawTickets(uint256,uint256)":"376c2bbe","draws(uint256)":"0cc36c36","executeDraw()":"2d49a7bf","executeDrawManual(uint256[6])":"c9911ea7","getDraw(uint256)":"be6307c8","getDrawTickets(uint256)":"5b183c2a","getDrawWinners(uint256)":"b0574bb8","getLotteryState()":"6b68c03c","getPlayerStats(address)":"4fd66eae","getPrizeAmount(uint256,uint256)":"6abe4b1a","getRolloverAmount()":"d3771568","getTicket(uint256)":"7dc379fa","getWinnersCount(uint256,uint256)":"f1082b76","owner()":"8da5cb5b","pause()":"8456cb59","paused()":"5c975abb","playerStats(address)":"cdafbbb6","purchaseTickets(uint256[6][])":"7940b589","renounceOwnership()":"715018a6","tickets(uint256)":"50b44712","totalTicketsSold()":"34701db8","transferOwnership(address)":"f2fde38b","unpause()":"3f4ba83a","withdrawAdminFees()":"0419b45a"}}}}}