{
  "_format": "hh-sol-artifact-1",
  "contractName": "KasDrawLottery",
  "sourceName": "contracts/KasDrawLottery.sol",
  "abi": [
    {
      "inputs": [],
      "stateMutability": "nonpayable",
      "type": "constructor"
    },
    {
      "anonymous": false,
      "inputs": [
        {
          "indexed": true,
          "internalType": "address",
          "name": "admin",
          "type": "address"
        },
        {
          "indexed": false,
          "internalType": "uint256",
          "name": "amount",
          "type": "uint256"
        }
      ],
      "name": "AdminFeesWithdrawn",
      "type": "event"
    },
    {
      "anonymous": false,
      "inputs": [
        {
          "indexed": true,
          "internalType": "uint256",
          "name": "drawId",
          "type": "uint256"
        },
        {
          "indexed": false,
          "internalType": "uint256[5]",
          "name": "winningNumbers",
          "type": "uint256[5]"
        },
        {
          "indexed": false,
          "internalType": "uint256",
          "name": "totalPrizePool",
          "type": "uint256"
        },
        {
          "indexed": false,
          "internalType": "uint256",
          "name": "jackpotAmount",
          "type": "uint256"
        },
        {
          "indexed": true,
          "internalType": "address",
          "name": "executor",
          "type": "address"
        },
        {
          "indexed": false,
          "internalType": "uint256",
          "name": "executorReward",
          "type": "uint256"
        }
      ],
      "name": "DrawExecuted",
      "type": "event"
    },
    {
      "anonymous": false,
      "inputs": [
        {
          "indexed": true,
          "internalType": "address",
          "name": "executor",
          "type": "address"
        },
        {
          "indexed": true,
          "internalType": "uint256",
          "name": "drawId",
          "type": "uint256"
        },
        {
          "indexed": false,
          "internalType": "uint256",
          "name": "reward",
          "type": "uint256"
        }
      ],
      "name": "DrawExecutedByPublic",
      "type": "event"
    },
    {
      "anonymous": false,
      "inputs": [
        {
          "indexed": true,
          "internalType": "address",
          "name": "player",
          "type": "address"
        },
        {
          "indexed": false,
          "internalType": "uint256",
          "name": "amount",
          "type": "uint256"
        }
      ],
      "name": "EmergencyRefund",
      "type": "event"
    },
    {
      "anonymous": false,
      "inputs": [
        {
          "indexed": true,
          "internalType": "address",
          "name": "previousOwner",
          "type": "address"
        },
        {
          "indexed": true,
          "internalType": "address",
          "name": "newOwner",
          "type": "address"
        }
      ],
      "name": "OwnershipTransferred",
      "type": "event"
    },
    {
      "anonymous": false,
      "inputs": [
        {
          "indexed": false,
          "internalType": "address",
          "name": "account",
          "type": "address"
        }
      ],
      "name": "Paused",
      "type": "event"
    },
    {
      "anonymous": false,
      "inputs": [
        {
          "indexed": true,
          "internalType": "address",
          "name": "player",
          "type": "address"
        },
        {
          "indexed": true,
          "internalType": "uint256",
          "name": "ticketId",
          "type": "uint256"
        },
        {
          "indexed": false,
          "internalType": "uint256",
          "name": "matches",
          "type": "uint256"
        },
        {
          "indexed": false,
          "internalType": "uint256",
          "name": "amount",
          "type": "uint256"
        }
      ],
      "name": "PrizeClaimed",
      "type": "event"
    },
    {
      "anonymous": false,
      "inputs": [
        {
          "indexed": true,
          "internalType": "address",
          "name": "player",
          "type": "address"
        },
        {
          "indexed": true,
          "internalType": "uint256",
          "name": "ticketId",
          "type": "uint256"
        },
        {
          "indexed": true,
          "internalType": "uint256",
          "name": "drawId",
          "type": "uint256"
        },
        {
          "indexed": false,
          "internalType": "uint256[5]",
          "name": "numbers",
          "type": "uint256[5]"
        },
        {
          "indexed": false,
          "internalType": "uint256",
          "name": "timestamp",
          "type": "uint256"
        }
      ],
      "name": "TicketPurchased",
      "type": "event"
    },
    {
      "anonymous": false,
      "inputs": [
        {
          "indexed": false,
          "internalType": "address",
          "name": "account",
          "type": "address"
        }
      ],
      "name": "Unpaused",
      "type": "event"
    },
    {
      "inputs": [],
      "name": "ADMIN_FEE_PERCENTAGE",
      "outputs": [
        {
          "internalType": "uint256",
          "name": "",
          "type": "uint256"
        }
      ],
      "stateMutability": "view",
      "type": "function"
    },
    {
      "inputs": [],
      "name": "DRAW_INTERVAL",
      "outputs": [
        {
          "internalType": "uint256",
          "name": "",
          "type": "uint256"
        }
      ],
      "stateMutability": "view",
      "type": "function"
    },
    {
      "inputs": [],
      "name": "EXECUTOR_REWARD_PERCENTAGE",
      "outputs": [
        {
          "internalType": "uint256",
          "name": "",
          "type": "uint256"
        }
      ],
      "stateMutability": "view",
      "type": "function"
    },
    {
      "inputs": [],
      "name": "FIFTH_PRIZE_PERCENTAGE",
      "outputs": [
        {
          "internalType": "uint256",
          "name": "",
          "type": "uint256"
        }
      ],
      "stateMutability": "view",
      "type": "function"
    },
    {
      "inputs": [],
      "name": "FOURTH_PRIZE_PERCENTAGE",
      "outputs": [
        {
          "internalType": "uint256",
          "name": "",
          "type": "uint256"
        }
      ],
      "stateMutability": "view",
      "type": "function"
    },
    {
      "inputs": [],
      "name": "JACKPOT_PERCENTAGE",
      "outputs": [
        {
          "internalType": "uint256",
          "name": "",
          "type": "uint256"
        }
      ],
      "stateMutability": "view",
      "type": "function"
    },
    {
      "inputs": [],
      "name": "MAX_EXECUTOR_REWARD",
      "outputs": [
        {
          "internalType": "uint256",
          "name": "",
          "type": "uint256"
        }
      ],
      "stateMutability": "view",
      "type": "function"
    },
    {
      "inputs": [],
      "name": "MAX_NUMBER",
      "outputs": [
        {
          "internalType": "uint256",
          "name": "",
          "type": "uint256"
        }
      ],
      "stateMutability": "view",
      "type": "function"
    },
    {
      "inputs": [],
      "name": "MIN_EXECUTOR_REWARD",
      "outputs": [
        {
          "internalType": "uint256",
          "name": "",
          "type": "uint256"
        }
      ],
      "stateMutability": "view",
      "type": "function"
    },
    {
      "inputs": [],
      "name": "MIN_NUMBER",
      "outputs": [
        {
          "internalType": "uint256",
          "name": "",
          "type": "uint256"
        }
      ],
      "stateMutability": "view",
      "type": "function"
    },
    {
      "inputs": [],
      "name": "NUMBERS_PER_TICKET",
      "outputs": [
        {
          "internalType": "uint256",
          "name": "",
          "type": "uint256"
        }
      ],
      "stateMutability": "view",
      "type": "function"
    },
    {
      "inputs": [],
      "name": "SECOND_PRIZE_PERCENTAGE",
      "outputs": [
        {
          "internalType": "uint256",
          "name": "",
          "type": "uint256"
        }
      ],
      "stateMutability": "view",
      "type": "function"
    },
    {
      "inputs": [],
      "name": "THIRD_PRIZE_PERCENTAGE",
      "outputs": [
        {
          "internalType": "uint256",
          "name": "",
          "type": "uint256"
        }
      ],
      "stateMutability": "view",
      "type": "function"
    },
    {
      "inputs": [],
      "name": "TICKET_PRICE",
      "outputs": [
        {
          "internalType": "uint256",
          "name": "",
          "type": "uint256"
        }
      ],
      "stateMutability": "view",
      "type": "function"
    },
    {
      "inputs": [],
      "name": "accumulatedJackpot",
      "outputs": [
        {
          "internalType": "uint256",
          "name": "",
          "type": "uint256"
        }
      ],
      "stateMutability": "view",
      "type": "function"
    },
    {
      "inputs": [],
      "name": "adminBalance",
      "outputs": [
        {
          "internalType": "uint256",
          "name": "",
          "type": "uint256"
        }
      ],
      "stateMutability": "view",
      "type": "function"
    },
    {
      "inputs": [],
      "name": "canExecuteDrawPublic",
      "outputs": [
        {
          "internalType": "bool",
          "name": "canExecute",
          "type": "bool"
        },
        {
          "internalType": "uint256",
          "name": "timeRemaining",
          "type": "uint256"
        },
        {
          "internalType": "uint256",
          "name": "nextDraw",
          "type": "uint256"
        }
      ],
      "stateMutability": "view",
      "type": "function"
    },
    {
      "inputs": [
        {
          "internalType": "uint256",
          "name": "ticketId",
          "type": "uint256"
        }
      ],
      "name": "claimPrize",
      "outputs": [],
      "stateMutability": "nonpayable",
      "type": "function"
    },
    {
      "inputs": [],
      "name": "currentDrawId",
      "outputs": [
        {
          "internalType": "uint256",
          "name": "",
          "type": "uint256"
        }
      ],
      "stateMutability": "view",
      "type": "function"
    },
    {
      "inputs": [
        {
          "internalType": "uint256",
          "name": "",
          "type": "uint256"
        },
        {
          "internalType": "uint256",
          "name": "",
          "type": "uint256"
        }
      ],
      "name": "drawTickets",
      "outputs": [
        {
          "internalType": "uint256",
          "name": "",
          "type": "uint256"
        }
      ],
      "stateMutability": "view",
      "type": "function"
    },
    {
      "inputs": [
        {
          "internalType": "uint256",
          "name": "",
          "type": "uint256"
        }
      ],
      "name": "draws",
      "outputs": [
        {
          "internalType": "uint256",
          "name": "id",
          "type": "uint256"
        },
        {
          "internalType": "uint256",
          "name": "timestamp",
          "type": "uint256"
        },
        {
          "internalType": "uint256",
          "name": "totalPrizePool",
          "type": "uint256"
        },
        {
          "internalType": "uint256",
          "name": "jackpotAmount",
          "type": "uint256"
        },
        {
          "internalType": "uint256",
          "name": "executorReward",
          "type": "uint256"
        },
        {
          "internalType": "address",
          "name": "executor",
          "type": "address"
        },
        {
          "internalType": "bool",
          "name": "executed",
          "type": "bool"
        }
      ],
      "stateMutability": "view",
      "type": "function"
    },
    {
      "inputs": [],
      "name": "emergencyRefundAll",
      "outputs": [],
      "stateMutability": "nonpayable",
      "type": "function"
    },
    {
      "inputs": [],
      "name": "executeDraw",
      "outputs": [],
      "stateMutability": "nonpayable",
      "type": "function"
    },
    {
      "inputs": [
        {
          "internalType": "uint256[5]",
          "name": "winningNumbers",
          "type": "uint256[5]"
        }
      ],
      "name": "executeDrawManual",
      "outputs": [],
      "stateMutability": "nonpayable",
      "type": "function"
    },
    {
      "inputs": [],
      "name": "executeDrawPublic",
      "outputs": [],
      "stateMutability": "nonpayable",
      "type": "function"
    },
    {
      "inputs": [],
      "name": "getCurrentExecutorReward",
      "outputs": [
        {
          "internalType": "uint256",
          "name": "reward",
          "type": "uint256"
        }
      ],
      "stateMutability": "view",
      "type": "function"
    },
    {
      "inputs": [
        {
          "internalType": "uint256",
          "name": "drawId",
          "type": "uint256"
        }
      ],
      "name": "getDraw",
      "outputs": [
        {
          "internalType": "uint256",
          "name": "id",
          "type": "uint256"
        },
        {
          "internalType": "uint256[5]",
          "name": "winningNumbers",
          "type": "uint256[5]"
        },
        {
          "internalType": "uint256",
          "name": "timestamp",
          "type": "uint256"
        },
        {
          "internalType": "uint256",
          "name": "totalPrizePool",
          "type": "uint256"
        },
        {
          "internalType": "uint256",
          "name": "jackpotAmount",
          "type": "uint256"
        },
        {
          "internalType": "uint256",
          "name": "executorReward",
          "type": "uint256"
        },
        {
          "internalType": "address",
          "name": "executor",
          "type": "address"
        },
        {
          "internalType": "bool",
          "name": "executed",
          "type": "bool"
        }
      ],
      "stateMutability": "view",
      "type": "function"
    },
    {
      "inputs": [
        {
          "internalType": "uint256",
          "name": "drawId",
          "type": "uint256"
        }
      ],
      "name": "getDrawWinners",
      "outputs": [
        {
          "internalType": "address[]",
          "name": "winners",
          "type": "address[]"
        },
        {
          "internalType": "uint256[]",
          "name": "matchCounts",
          "type": "uint256[]"
        },
        {
          "internalType": "uint256[]",
          "name": "prizeAmounts",
          "type": "uint256[]"
        },
        {
          "internalType": "bool[]",
          "name": "claimed",
          "type": "bool[]"
        }
      ],
      "stateMutability": "view",
      "type": "function"
    },
    {
      "inputs": [],
      "name": "getLotteryStats",
      "outputs": [
        {
          "internalType": "uint256",
          "name": "currentJackpot",
          "type": "uint256"
        },
        {
          "internalType": "uint256",
          "name": "ticketsSoldThisDraw",
          "type": "uint256"
        },
        {
          "internalType": "uint256",
          "name": "totalTickets",
          "type": "uint256"
        },
        {
          "internalType": "uint256",
          "name": "nextDraw",
          "type": "uint256"
        },
        {
          "internalType": "uint256",
          "name": "executorReward",
          "type": "uint256"
        },
        {
          "internalType": "bool",
          "name": "canExecute",
          "type": "bool"
        }
      ],
      "stateMutability": "view",
      "type": "function"
    },
    {
      "inputs": [
        {
          "internalType": "address",
          "name": "player",
          "type": "address"
        }
      ],
      "name": "getPlayerStats",
      "outputs": [
        {
          "internalType": "uint256",
          "name": "totalTickets",
          "type": "uint256"
        },
        {
          "internalType": "uint256",
          "name": "totalWinnings",
          "type": "uint256"
        },
        {
          "internalType": "uint256[]",
          "name": "ticketIds",
          "type": "uint256[]"
        },
        {
          "internalType": "uint256",
          "name": "totalDeposits",
          "type": "uint256"
        },
        {
          "internalType": "uint256",
          "name": "lastPlayTime",
          "type": "uint256"
        }
      ],
      "stateMutability": "view",
      "type": "function"
    },
    {
      "inputs": [
        {
          "internalType": "uint256",
          "name": "drawId",
          "type": "uint256"
        },
        {
          "internalType": "uint256",
          "name": "matches",
          "type": "uint256"
        }
      ],
      "name": "getPrizeAmount",
      "outputs": [
        {
          "internalType": "uint256",
          "name": "",
          "type": "uint256"
        }
      ],
      "stateMutability": "view",
      "type": "function"
    },
    {
      "inputs": [],
      "name": "getRolloverAmount",
      "outputs": [
        {
          "internalType": "uint256",
          "name": "rolloverAmount",
          "type": "uint256"
        }
      ],
      "stateMutability": "view",
      "type": "function"
    },
    {
      "inputs": [
        {
          "internalType": "uint256",
          "name": "ticketId",
          "type": "uint256"
        }
      ],
      "name": "getTicket",
      "outputs": [
        {
          "internalType": "address",
          "name": "player",
          "type": "address"
        },
        {
          "internalType": "uint256[5]",
          "name": "numbers",
          "type": "uint256[5]"
        },
        {
          "internalType": "uint256",
          "name": "drawId",
          "type": "uint256"
        },
        {
          "internalType": "bool",
          "name": "claimed",
          "type": "bool"
        },
        {
          "internalType": "uint256",
          "name": "purchaseTime",
          "type": "uint256"
        }
      ],
      "stateMutability": "view",
      "type": "function"
    },
    {
      "inputs": [
        {
          "internalType": "uint256",
          "name": "drawId",
          "type": "uint256"
        },
        {
          "internalType": "uint256",
          "name": "matches",
          "type": "uint256"
        }
      ],
      "name": "getWinnersCount",
      "outputs": [
        {
          "internalType": "uint256",
          "name": "",
          "type": "uint256"
        }
      ],
      "stateMutability": "view",
      "type": "function"
    },
    {
      "inputs": [],
      "name": "lastDrawTime",
      "outputs": [
        {
          "internalType": "uint256",
          "name": "",
          "type": "uint256"
        }
      ],
      "stateMutability": "view",
      "type": "function"
    },
    {
      "inputs": [],
      "name": "nextDrawTime",
      "outputs": [
        {
          "internalType": "uint256",
          "name": "",
          "type": "uint256"
        }
      ],
      "stateMutability": "view",
      "type": "function"
    },
    {
      "inputs": [],
      "name": "owner",
      "outputs": [
        {
          "internalType": "address",
          "name": "",
          "type": "address"
        }
      ],
      "stateMutability": "view",
      "type": "function"
    },
    {
      "inputs": [],
      "name": "pause",
      "outputs": [],
      "stateMutability": "nonpayable",
      "type": "function"
    },
    {
      "inputs": [],
      "name": "paused",
      "outputs": [
        {
          "internalType": "bool",
          "name": "",
          "type": "bool"
        }
      ],
      "stateMutability": "view",
      "type": "function"
    },
    {
      "inputs": [
        {
          "internalType": "address",
          "name": "",
          "type": "address"
        }
      ],
      "name": "playerDeposits",
      "outputs": [
        {
          "internalType": "uint256",
          "name": "",
          "type": "uint256"
        }
      ],
      "stateMutability": "view",
      "type": "function"
    },
    {
      "inputs": [
        {
          "internalType": "address",
          "name": "",
          "type": "address"
        }
      ],
      "name": "playerStats",
      "outputs": [
        {
          "internalType": "uint256",
          "name": "totalTickets",
          "type": "uint256"
        },
        {
          "internalType": "uint256",
          "name": "totalWinnings",
          "type": "uint256"
        },
        {
          "internalType": "uint256",
          "name": "lastPlayTime",
          "type": "uint256"
        }
      ],
      "stateMutability": "view",
      "type": "function"
    },
    {
      "inputs": [
        {
          "internalType": "uint256[5][]",
          "name": "ticketNumbers",
          "type": "uint256[5][]"
        }
      ],
      "name": "purchaseTickets",
      "outputs": [],
      "stateMutability": "payable",
      "type": "function"
    },
    {
      "inputs": [],
      "name": "renounceOwnership",
      "outputs": [],
      "stateMutability": "nonpayable",
      "type": "function"
    },
    {
      "inputs": [
        {
          "internalType": "uint256",
          "name": "",
          "type": "uint256"
        }
      ],
      "name": "tickets",
      "outputs": [
        {
          "internalType": "address",
          "name": "player",
          "type": "address"
        },
        {
          "internalType": "uint256",
          "name": "drawId",
          "type": "uint256"
        },
        {
          "internalType": "bool",
          "name": "claimed",
          "type": "bool"
        },
        {
          "internalType": "uint256",
          "name": "purchaseTime",
          "type": "uint256"
        }
      ],
      "stateMutability": "view",
      "type": "function"
    },
    {
      "inputs": [],
      "name": "totalTicketsSold",
      "outputs": [
        {
          "internalType": "uint256",
          "name": "",
          "type": "uint256"
        }
      ],
      "stateMutability": "view",
      "type": "function"
    },
    {
      "inputs": [
        {
          "internalType": "address",
          "name": "newOwner",
          "type": "address"
        }
      ],
      "name": "transferOwnership",
      "outputs": [],
      "stateMutability": "nonpayable",
      "type": "function"
    },
    {
      "inputs": [],
      "name": "unpause",
      "outputs": [],
      "stateMutability": "nonpayable",
      "type": "function"
    },
    {
      "inputs": [],
      "name": "withdrawAdminFees",
      "outputs": [],
      "stateMutability": "nonpayable",
      "type": "function"
    }
  ],
  "bytecode": "0x6080806040523461009a5760008054336001600160a01b0319821681178355906001600160a01b03167f8be0079c531659141344cd1fd0a4f28419497f9722a3daafe3b4186f6b6457e08380a36001805560ff196002541660025560016003556001600e554260075562049d4042019081421161008657506008556126c090816100a08239f35b634e487b7160e01b81526011600452602490fd5b600080fdfe6040608081526004908136101561001557600080fd5b600091823560e01c9081630419b45a146116c15781630cc36c361461164c5781630fb63d08146115945781631a95f15f14610be25781631fdeb756146115635781632599399e146115475781632b61e99f146102515781632d49a7bf146114e557816334701db8146114c7578163376c2bbe146114865781633f4ba83a146113f057816343f0236414610dd5578163456722a2146110b85781634702a48b14610ef65781634fd66eae14610e7457816350b4471214610e1d57816354c0273e146106385781635c221034146103f75781635c975abb14610df95781635cbbd63514610dda578163610a14d514610dd557816367eeac3314610db25781636abe4b1a14610d83578163715018a614610d2657816374f47a7a14610d075781637517f5ff14610be757816379b37ebd14610be25781637dc379fa14610b605781638456cb5914610b055781638571970914610ae15781638da5cb5b14610ab95781639858befb14610a9a578163a6858ee614610a7e578163b0574bb8146107a4578163bca78fab14610785578163be6307c8146106e1578163c4aa7245146106c5578163c6b749e2146106a7578163cdafbbb614610657578163d377156814610638578163d7098154146103fc578163dd8ab8f9146103f7578163df6ffa87146103bd578163ef303a2014610354578163f1082b7614610325578163f2fde38b1461025657508063fab14e8e146102515763fea9b5721461023357600080fd5b3461024d578160031936011261024d576020905160238152f35b5080fd5b6117ea565b91905034610321576020366003190112610321576001600160a01b0382358181169391929084900361031d5761028a6118de565b83156102cb57505082546001600160a01b0319811683178455167f8be0079c531659141344cd1fd0a4f28419497f9722a3daafe3b4186f6b6457e08380a380f35b906020608492519162461bcd60e51b8352820152602660248201527f4f776e61626c653a206e6577206f776e657220697320746865207a65726f206160448201526564647265737360d01b6064820152fd5b8480fd5b8280fd5b50503461024d578060209261033936611806565b90825260098552600b83832001908252845220549051908152f35b50503461024d5760a036600319011261024d573660a41161024d5760ff600a6103979261037f6118de565b600354855260096020528420015460a01c1615611b16565b6103a86103a3366119bf565b612260565b6103ba336103b5366119bf565b611c7c565b80f35b90503461032157602036600319011261032157356001600160a01b038116908190036103215782829160209452600d845220549051908152f35b61189a565b91905034610321576020806003193601126106345782359161041c611ac0565b828552600a825280852080549094906001600160a01b0316330361060057600785019283549160ff83166105c75760068701548089526009835261046b60ff600a878c20015460a01c16612127565b885260098252838820946104966104856001809a01611c09565b6104908a8901611c09565b90612384565b956002871061059057868a52600c0183528489205493841561055757889060ff1916179055338852600b825286848920016104d2848254611a42565b90558780808086335af16104e4611c3c565b501561051e5750825193845283015233917f701a77bd5e0b7b1ffffe478c3c19e3caadca855782127fca812c7ccd9646cdc49190a3805580f35b60649184519162461bcd60e51b83528201526015602482015274141c9a5e99481d1c985b9cd9995c8819985a5b1959605a1b6044820152fd5b855162461bcd60e51b81528084018590526013602482015272139bc81c1c9a5e9948185b5bdd5b9d081cd95d606a1b6044820152606490fd5b855162461bcd60e51b815280840185905260116024820152704e6f207072697a6520746f20636c61696d60781b6044820152606490fd5b60649184519162461bcd60e51b83528201526015602482015274141c9a5e9948185b1c9958591e4818db185a5b5959605a1b6044820152fd5b82606492519162461bcd60e51b8352820152601060248201526f2737ba103a34b1b5b2ba1037bbb732b960811b6044820152fd5b8380fd5b50503461024d578160031936011261024d576020906005549051908152f35b90503461032157602036600319011261032157356001600160a01b038116908190036103215782829160609452600b60205220805491600360018301549201549181519384526020840152820152f35b50503461024d578160031936011261024d576020905162049d408152f35b50503461024d578160031936011261024d576020905160148152f35b90503461032157602036600319011261032157816101809360ff9260a083516107098161196b565b369037358152600960205220805492600682015460078301546008840154916107516009860154946107426001600a8901549801611c09565b905198895260208901906118b6565b60c087015260e08601526101008501526101208401526001600160a01b03811661014084015260a01c161515610160820152f35b50503461024d578160031936011261024d576020906003549051908152f35b8391503461024d576020908160031936011261032157359081835260099182825260ff90600a956107de8388838920015460a01c16612127565b818652600c928385526107f2828820611ba6565b966107fd8851612183565b926108088951612183565b916108138a51612183565b9a8b986108208c51612183565b988c849b85915b51821015610915578d908f8361083c91611bf5565b519182885286865261086d8d6104906108678c8c60019182912001938d52858b528d8d200192611c09565b91611c09565b90600282101561088c575b5050505061088590611936565b8e8e610827565b91610885949f929184928f8f6108cb8f8f908f938f8f868d9561090b9f9387936108c5958e9b525260018060a01b039120541692611bf5565b52611bf5565b528b528852868b8b2001908a5287526108e8838b8b205492611bf5565b528752858552878720600701548a16610901828f611bf5565b9015159052611936565b9b908f388f610878565b8b908a878f8a8c899261092781612183565b9761093182612183565b9761093b83612183565b9361094584612183565b98885b8581106109fc575050505050508151968796608088016080895282518091528560a08a01930190875b8181106109dc5750505081610991918961099e96959403878b0152611866565b9187830390880152611866565b9084820360608601528080855193848152019401925b8281106109c357505050500390f35b83511515855286955093810193928101926001016109b4565b82516001600160a01b031685528b9a509387019391870191600101610971565b610a71906001809d9e98999a9b9c9d60a01b03610a198285611bf5565b5116610a25828a611bf5565b528d610a3c82610a358188611bf5565b5192611bf5565b52610a478186611bf5565b51610a52828b611bf5565b528c610a6b82610a62818a611bf5565b51151592611bf5565b52611936565b9b9a99989796959b610948565b50503461024d578160031936011261024d576020905160328152f35b50503461024d578160031936011261024d576020906006549051908152f35b50503461024d578160031936011261024d57905490516001600160a01b039091168152602090f35b50503461024d578160031936011261024d57602090610afe612214565b9051908152f35b50503461024d578160031936011261024d5760207f62e78cea01bee320cd4e420270b5ea74000d11b0c9f74754ebdbfc544b05a25891610b436118de565b610b4b611a7c565b600160ff19600254161760025551338152a180f35b9050346103215760203660031901126103215761012092829160a08351610b868161196b565b369037358152600a6020522060018060a01b03815416916006820154610bce60ff60078501541692610bbf600160088701549601611c09565b905195865260208601906118b6565b60c0840152151560e0830152610100820152f35b6117c2565b9050346103215782600319360112610321578151630fef5bab60e11b8152906060828281305afa918215610cfa578492610cbe575b50600554926003548552602090600c82528086205490835491600854938083518097638571970960e01b825281305afa958615610cb4578996610c7d575b5060c09850825197885287015285015260608401526080830152151560a0820152f35b9080965081813d8311610cad575b610c95818361199d565b81010312610ca95760c09850519438610c5a565b8880fd5b503d610c8b565b83513d8b823e3d90fd5b9091506060813d8211610cf2575b81610cd96060938361199d565b8101031261063457518015158103610634579038610c1c565b3d9150610ccc565b50505051903d90823e3d90fd5b50503461024d578160031936011261024d576020906008549051908152f35b8334610d805780600319360112610d8057610d3f6118de565b80546001600160a01b03198116825581906001600160a01b03167f8be0079c531659141344cd1fd0a4f28419497f9722a3daafe3b4186f6b6457e08280a380f35b80fd5b50503461024d5780602092610d9736611806565b90825260098552600c83832001908252845220549051908152f35b50503461024d578160031936011261024d576020905167016345785d8a00008152f35b61184a565b50503461024d578160031936011261024d576020906007549051908152f35b50503461024d578160031936011261024d5760209060ff6002541690519015158152f35b905034610321576020366003190112610321576080928291358152600a6020522060018060a01b0381541691600682015491600860ff60078301541691015492825194855260208501521515908301526060820152f35b90503461032157602036600319011261032157356001600160a01b03811690819003610321578252600b60205280822090815491610ee782600183015495600d60205220549260a0610ecd600260038601549501611ba6565b9180519788978852602088015286015260a0850190611866565b91606084015260808301520390f35b905034610321578260031936011261032157610f106118de565b47156110815750600e5490610f2482612183565b83926001805b828110610fe757505050835b838110610f495784806005558060065580f35b610f8a906001600160a01b03610f5f8285611bf5565b51168087526020600d8152858820908882549283151580610fdd575b610f8f575b5050505050611936565b610f36565b558880808085875af1610fa0611c3c565b50610fad575b8881610f80565b7fdf36e221948da014ebe0f9f6bb96696776424780da298e7f05e2f362dcd4289a918751908152a2388080610fa6565b5083471015610f7b565b808752600a6020908152858820546001600160a01b03908116808a52600d90925286892054611021575b505061101c90611936565b610f2a565b8890895b898110611055575b50501561103b575b80611011565b8661104e91610a6b61101c949988611bf5565b9590611035565b8382611061838b611bf5565b5116146110765761107190611936565b611025565b50505082388061102d565b6020606492519162461bcd60e51b83528201526012602482015271139bc8199d5b991cc81d1bc81c99599d5b9960721b6044820152fd5b839150602092836003193601126103215781359367ffffffffffffffff80861161031d573660238701121561031d578584013590811161031d5760249586810160a0918836918486020101116113ec57611110611ac0565b611118611a7c565b82156113a057678ac7230489e80000838102908104840361138e57340361134c57865b8381106111b95750505090611153600d928554611a42565b8455338552528220611166348254611a42565b9055343404600114341517156111a9575061119f6064340461119461118b8234611a6f565b91600654611a42565b600655600554611a42565b6005556001805580f35b634e487b7160e01b825260119052fd5b6111c481858461195b565b8651906111d08261196b565b818582019136831161134857899493929189905b83831061133557505050506111f890612260565b600e80549061120682611936565b9055808a52600a8752828a2080546001600160a01b031916331781556003805460068301554260088301559088908c90600101815b600581106112dc5750508360026112d7976112739386548152600c865261126484838320611a18565b338152600b8096522001611a18565b338c52808952898c206112868154611936565b9055338c52885242818a8d20015554906112a183888761195b565b868a5191823742878201527f979e7845b79affce0be71d86a342af2789a7dde91b0c8d960c121086f9d18f6860c03392a4611936565b61113b565b9150929394955061132891506113236112ff826112fa898d8c61195b565b6119f7565b3561130a8386611a08565b90919082549060031b91821b91600019901b1916179055565b611936565b8b8a959493928a9261123b565b823581528b9650918101918a91016111e4565b8b80fd5b845162461bcd60e51b81528087018590526018818a01527f496e636f7272656374207061796d656e7420616d6f756e7400000000000000006044820152606490fd5b634e487b7160e01b8852601187528888fd5b845162461bcd60e51b81528087018590526021818a01527f4d757374207075726368617365206174206c65617374206f6e65207469636b656044820152601d60fa1b6064820152608490fd5b8680fd5b90503461032157826003193601126103215761140a6118de565b6002549060ff82161561144c575060ff1916600255513381527f5db9ee0a495bf2e6ff9c91a7834c1ba4fdd244a5e8aa4e537bd38aeae4b073aa90602090a180f35b606490602084519162461bcd60e51b8352820152601460248201527314185d5cd8589b194e881b9bdd081c185d5cd95960621b6044820152fd5b50503461024d5761149636611806565b92908152600c602052818120908154841015610d8057506020926114b99161181c565b91905490519160031b1c8152f35b90503461032157826003193601126103215760209250549051908152f35b50503461024d578160031936011261024d57611535906115036118de565b600354808452600960205261152460ff600a848720015460a01c1615611b16565b8352600c6020528220541515611b5a565b6103ba6115406123f7565b3390611c7c565b50503461024d578160031936011261024d5760209051600f8152f35b50503461024d578160031936011261024d576060906115806121b5565b919290815193151584526020840152820152f35b919050346103215782600319360112610321576115af611ac0565b6115b7611a7c565b60035480845260096020526115d860ff600a848720015460a01c1615611b16565b8352600c6020526115ed818420541515611b5a565b600854421061160957826116026115406123f7565b6001805580f35b906020606492519162461bcd60e51b8352820152601960248201527f447261772074696d65206e6f74207265616368656420796574000000000000006044820152fd5b905034610321576020366003190112610321578160e09360ff92358152600960205220918254926006810154916007820154600883015491600a600985015494015494815197885260208801528601526060850152608084015260018060a01b03811660a084015260a01c16151560c0820152f35b9050346103215782600319360112610321576116db6118de565b60065490811561177f578360065560018060a01b03908480808086868254165af1611704611c3c565b501561173c57507fcdcaff67ac16639664e5f9343c9223a1dc9c972ec367b69ae9fc1325c7be5474916020918554169351908152a280f35b606490602085519162461bcd60e51b8352820152601960248201527f41646d696e20666565207472616e73666572206661696c6564000000000000006044820152fd5b606490602084519162461bcd60e51b8352820152601960248201527f4e6f2061646d696e206665657320746f207769746864726177000000000000006044820152fd5b346117e55760003660031901126117e5576020604051678ac7230489e800008152f35b600080fd5b346117e55760003660031901126117e557602060405160058152f35b60409060031901126117e5576004359060243590565b80548210156118345760005260206000200190600090565b634e487b7160e01b600052603260045260246000fd5b346117e55760003660031901126117e5576020604051600a8152f35b90815180825260208080930193019160005b828110611886575050505090565b835185529381019392810192600101611878565b346117e55760003660031901126117e557602060405160018152f35b6000915b600583106118c757505050565b6001908251815260208091019201920191906118ba565b6000546001600160a01b031633036118f257565b606460405162461bcd60e51b815260206004820152602060248201527f4f776e61626c653a2063616c6c6572206973206e6f7420746865206f776e65726044820152fd5b60001981146119455760010190565b634e487b7160e01b600052601160045260246000fd5b91908110156118345760a0020190565b60a0810190811067ffffffffffffffff82111761198757604052565b634e487b7160e01b600052604160045260246000fd5b90601f8019910116810190811067ffffffffffffffff82111761198757604052565b90604051916119cd8361196b565b8260a49182116117e5576004905b8282106119e757505050565b81358152602091820191016119db565b9060058110156118345760051b0190565b6005821015611834570190600090565b9081549168010000000000000000831015611987578261130a916001611a409501815561181c565b565b9190820180921161194557565b8115611a59570490565b634e487b7160e01b600052601260045260246000fd5b9190820391821161194557565b60ff60025416611a8857565b60405162461bcd60e51b815260206004820152601060248201526f14185d5cd8589b194e881c185d5cd95960821b6044820152606490fd5b600260015414611ad1576002600155565b60405162461bcd60e51b815260206004820152601f60248201527f5265656e7472616e637947756172643a207265656e7472616e742063616c6c006044820152606490fd5b15611b1d57565b60405162461bcd60e51b8152602060048201526015602482015274111c985dc8185b1c9958591e48195e1958dd5d1959605a1b6044820152606490fd5b15611b6157565b60405162461bcd60e51b815260206004820152601d60248201527f4e6f207469636b65747320736f6c6420666f72207468697320647261770000006044820152606490fd5b9060405191828154918282526020928383019160005283600020936000905b828210611bdb57505050611a409250038361199d565b855484526001958601958895509381019390910190611bc5565b80518210156118345760209160051b010190565b60405191906000835b60058210611c2657505050611a408261196b565b6001602081928554815201930191019091611c12565b3d15611c77573d9067ffffffffffffffff82116119875760405191611c6b601f8201601f19166020018461199d565b82523d6000602084013e565b606090565b6003805460008181526009602090815260408083209384554260068501556005805460078601908155600a80870180546001600160a81b0319166001600160a01b03909b169a8b17600160a01b1790559998969794969594936001939291848701895b84811061210657505082548c8102908d81830414901517156120f25767016345785d8a0000906127109004818110156120ce575080955b8160098a01558b548b52600c84528d81878d8c8c611d35848420611ba6565b9583955b612042575b5050505050505050611d509154611a6f565b828952600b8701808352848a205491939184901561203657603281028181046032148215171561202257611daf918a8860648f940493878152868952600c611d9b8383205487611a4f565b9389835201895220558160088c0155611a6f565b908a83555b60049d8e8c52818552868c2054611fe5575b8c8c52818552868c2054611f88575b60028c52818552868c2054611eef575b5050927fef45e93530e4ccfbb8470f48061a7c165f35b97f384ec20e23ba3db6f819f3ec959261010095928560089c9b9a9996611edb575b505083151580611ed1575b611e8a575b50611e418b549a8b980154925180956118b6565b60a084015260c083015260e0820152a34260075562049d40420190814211611e775750611e7392939450600855611936565b9055565b634e487b7160e01b815260118652602490fd5b89808080878d5af1611e9a611c3c565b5015611e2d57887fd2d0680d503befa049fbbb327d7cdb8ace83b63eca2a317b8e0cb4c74cde5da28d54928551878152a338611e2d565b5083471015611e28565b611ee6908254611a42565b90553880611e1d565b808693929302908682041486151715611f755792611f638a9996937fef45e93530e4ccfbb8470f48061a7c165f35b97f384ec20e23ba3db6f819f3ec9996938e9d9c60089f9a6101009b6064829a0494600282528852600c611f548383205487611a4f565b93600283520188522055611a6f565b929598999a9b50929581949750611de5565b634e487b7160e01b8c5260118f5260248cfd5b91600f8602868104600f1487151715611fd157611fcb918e898f600c8f956064900495848352888c52611fbe8484205488611a4f565b948352018a522055611a6f565b91611dd5565b8f8d6011602492634e487b7160e01b835252fd5b916014860286810460141487151715611fd1578f9161201c92898f600c8f956064900495848352888c52611fbe8484205488611a4f565b91611dc6565b634e487b7160e01b8c52601160045260248cfd5b908a60088a0155611db4565b909192939495969787518710156120c2575091612083869492612097969461206c8a998c9b611bf5565b5185528c5261207e8986862001611c09565b612384565b9060028210156120a4575b50505050611936565b8f8d8c8c8b938d98611d39565b600b918352018952206120b78154611936565b9055888e388e61208e565b97509084939291611d3e565b959050678ac7230489e800008087116120ea575b508590611d16565b9550386120e2565b634e487b7160e01b8a52601160045260248afd5b80611323612117612122938b6119f7565b5161130a8386611a08565b611cdf565b1561212e57565b60405162461bcd60e51b8152602060048201526015602482015274111c985dc81b9bdd08195e1958dd5d1959081e595d605a1b6044820152606490fd5b67ffffffffffffffff81116119875760051b60200190565b9061218d8261216b565b61219a604051918261199d565b82815280926121ab601f199161216b565b0190602036910137565b600354906000918252600960205260ff600a60408420015460a01c168015612203575b6121fc57600854904282116121ee576001929190565b6121f84283611a6f565b9190565b6008548291565b50600c6020526040822054156121d8565b600554600a810290808204600a14901517156119455767016345785d8a000090612710900481811015612245575090565b9050678ac7230489e8000080821161225b575090565b905090565b600090815b60058082101561237e5760018061227c84866119f7565b51101580612369575b1561232d578201808311612319575b8181106122ab5750506122a690611936565b612265565b6122b583856119f7565b516122c082866119f7565b51146122d4576122cf90611936565b612294565b60405162461bcd60e51b815260206004820152601d60248201527f4475706c6963617465206e756d62657273206e6f7420616c6c6f7765640000006044820152606490fd5b634e487b7160e01b85526011600452602485fd5b60405162461bcd60e51b8152602060048201526014602482015273496e76616c6964206e756d6265722072616e676560601b6044820152606490fd5b50602361237684866119f7565b511115612285565b50505050565b90600090815b6005808210156123ef5760005b8181106123af575b50506123aa90611936565b61238a565b6123b983876119f7565b516123c482866119f7565b51146123d8576123d390611936565b612397565b5050916123e76123aa91611936565b92903861239f565b505050905090565b604060a081516124068161196b565b369037805167ffffffffffffffff610480820181811183821017611987578352602392838352602092610460368583013760005b85811061266b575081519461244e8661196b565b60a0368737916003549460049586549547905a9085519185830193428552448885015260609a438c860152608096418d1b88870152338d1b609487015260a886015260c885015260e88401526101089081840152825261014082019082821090821117612656578552519020926000955b600587106125aa57505050505050505060005b8181106124de57505090565b91909260005b6005848103908111612595576000198101908111612595578110156125835761250d81846119f7565b51600182019081831161256e5790612537929161252a82876119f7565b511061253c575b50611936565b6124e4565b61256761254983876119f7565b519161255581886119f7565b5161256085896119f7565b52866119f7565b5238612531565b601187634e487b7160e01b6000525260246000fd5b5092909161259090611936565b6124d2565b601186634e487b7160e01b6000525260246000fd5b6125b48742611a42565b82518581019187835289858301528a82015282858201528481526125d78161196b565b5190208115612641578190066125ed8188611bf5565b516125f8898d6119f7565b52600019820191821161262c57906126269161261f612617838a611bf5565b519189611bf5565b5296611936565b956124bf565b60118a634e487b7160e01b6000525260246000fd5b60128a634e487b7160e01b6000525260246000fd5b60418a634e487b7160e01b6000525260246000fd5b60018101908181116119455761268591610a6b8285611bf5565b61243a56fea2646970667358221220656d3846510020ca4e7a13f311dd8720fb7f561dda50d88ab843f45f51cb25ee64736f6c63430008130033",
  "linkReferences": {},
  "deployedLinkReferences": {}
}