{
  "_format": "hh-sol-artifact-1",
  "contractName": "KasDrawLottery",
  "sourceName": "contracts/KasDrawLottery.sol",
  "abi": [
    {
      "inputs": [],
      "stateMutability": "nonpayable",
      "type": "constructor"
    },
    {
      "anonymous": false,
      "inputs": [
        {
          "indexed": true,
          "internalType": "address",
          "name": "admin",
          "type": "address"
        },
        {
          "indexed": false,
          "internalType": "uint256",
          "name": "amount",
          "type": "uint256"
        }
      ],
      "name": "AdminFeesWithdrawn",
      "type": "event"
    },
    {
      "anonymous": false,
      "inputs": [
        {
          "indexed": true,
          "internalType": "uint256",
          "name": "drawId",
          "type": "uint256"
        },
        {
          "indexed": false,
          "internalType": "uint256[6]",
          "name": "winningNumbers",
          "type": "uint256[6]"
        },
        {
          "indexed": false,
          "internalType": "uint256",
          "name": "totalPrizePool",
          "type": "uint256"
        },
        {
          "indexed": false,
          "internalType": "uint256",
          "name": "jackpotAmount",
          "type": "uint256"
        }
      ],
      "name": "DrawExecuted",
      "type": "event"
    },
    {
      "anonymous": false,
      "inputs": [
        {
          "indexed": true,
          "internalType": "address",
          "name": "previousOwner",
          "type": "address"
        },
        {
          "indexed": true,
          "internalType": "address",
          "name": "newOwner",
          "type": "address"
        }
      ],
      "name": "OwnershipTransferred",
      "type": "event"
    },
    {
      "anonymous": false,
      "inputs": [
        {
          "indexed": false,
          "internalType": "address",
          "name": "account",
          "type": "address"
        }
      ],
      "name": "Paused",
      "type": "event"
    },
    {
      "anonymous": false,
      "inputs": [
        {
          "indexed": true,
          "internalType": "address",
          "name": "player",
          "type": "address"
        },
        {
          "indexed": true,
          "internalType": "uint256",
          "name": "ticketId",
          "type": "uint256"
        },
        {
          "indexed": false,
          "internalType": "uint256",
          "name": "matches",
          "type": "uint256"
        },
        {
          "indexed": false,
          "internalType": "uint256",
          "name": "amount",
          "type": "uint256"
        }
      ],
      "name": "PrizeClaimed",
      "type": "event"
    },
    {
      "anonymous": false,
      "inputs": [
        {
          "indexed": true,
          "internalType": "address",
          "name": "player",
          "type": "address"
        },
        {
          "indexed": true,
          "internalType": "uint256",
          "name": "ticketId",
          "type": "uint256"
        },
        {
          "indexed": true,
          "internalType": "uint256",
          "name": "drawId",
          "type": "uint256"
        },
        {
          "indexed": false,
          "internalType": "uint256[6]",
          "name": "numbers",
          "type": "uint256[6]"
        }
      ],
      "name": "TicketPurchased",
      "type": "event"
    },
    {
      "anonymous": false,
      "inputs": [
        {
          "indexed": false,
          "internalType": "address",
          "name": "account",
          "type": "address"
        }
      ],
      "name": "Unpaused",
      "type": "event"
    },
    {
      "inputs": [],
      "name": "ADMIN_FEE_PERCENTAGE",
      "outputs": [
        {
          "internalType": "uint256",
          "name": "",
          "type": "uint256"
        }
      ],
      "stateMutability": "view",
      "type": "function"
    },
    {
      "inputs": [],
      "name": "FOURTH_PRIZE_PERCENTAGE",
      "outputs": [
        {
          "internalType": "uint256",
          "name": "",
          "type": "uint256"
        }
      ],
      "stateMutability": "view",
      "type": "function"
    },
    {
      "inputs": [],
      "name": "JACKPOT_PERCENTAGE",
      "outputs": [
        {
          "internalType": "uint256",
          "name": "",
          "type": "uint256"
        }
      ],
      "stateMutability": "view",
      "type": "function"
    },
    {
      "inputs": [],
      "name": "MAX_NUMBER",
      "outputs": [
        {
          "internalType": "uint256",
          "name": "",
          "type": "uint256"
        }
      ],
      "stateMutability": "view",
      "type": "function"
    },
    {
      "inputs": [],
      "name": "MIN_NUMBER",
      "outputs": [
        {
          "internalType": "uint256",
          "name": "",
          "type": "uint256"
        }
      ],
      "stateMutability": "view",
      "type": "function"
    },
    {
      "inputs": [],
      "name": "NUMBERS_PER_TICKET",
      "outputs": [
        {
          "internalType": "uint256",
          "name": "",
          "type": "uint256"
        }
      ],
      "stateMutability": "view",
      "type": "function"
    },
    {
      "inputs": [],
      "name": "SECOND_PRIZE_PERCENTAGE",
      "outputs": [
        {
          "internalType": "uint256",
          "name": "",
          "type": "uint256"
        }
      ],
      "stateMutability": "view",
      "type": "function"
    },
    {
      "inputs": [],
      "name": "THIRD_PRIZE_PERCENTAGE",
      "outputs": [
        {
          "internalType": "uint256",
          "name": "",
          "type": "uint256"
        }
      ],
      "stateMutability": "view",
      "type": "function"
    },
    {
      "inputs": [],
      "name": "TICKET_PRICE",
      "outputs": [
        {
          "internalType": "uint256",
          "name": "",
          "type": "uint256"
        }
      ],
      "stateMutability": "view",
      "type": "function"
    },
    {
      "inputs": [],
      "name": "accumulatedJackpot",
      "outputs": [
        {
          "internalType": "uint256",
          "name": "",
          "type": "uint256"
        }
      ],
      "stateMutability": "view",
      "type": "function"
    },
    {
      "inputs": [],
      "name": "adminBalance",
      "outputs": [
        {
          "internalType": "uint256",
          "name": "",
          "type": "uint256"
        }
      ],
      "stateMutability": "view",
      "type": "function"
    },
    {
      "inputs": [
        {
          "internalType": "uint256",
          "name": "ticketId",
          "type": "uint256"
        }
      ],
      "name": "claimPrize",
      "outputs": [],
      "stateMutability": "nonpayable",
      "type": "function"
    },
    {
      "inputs": [],
      "name": "currentDrawId",
      "outputs": [
        {
          "internalType": "uint256",
          "name": "",
          "type": "uint256"
        }
      ],
      "stateMutability": "view",
      "type": "function"
    },
    {
      "inputs": [
        {
          "internalType": "uint256",
          "name": "",
          "type": "uint256"
        },
        {
          "internalType": "uint256",
          "name": "",
          "type": "uint256"
        }
      ],
      "name": "drawTickets",
      "outputs": [
        {
          "internalType": "uint256",
          "name": "",
          "type": "uint256"
        }
      ],
      "stateMutability": "view",
      "type": "function"
    },
    {
      "inputs": [
        {
          "internalType": "uint256",
          "name": "",
          "type": "uint256"
        }
      ],
      "name": "draws",
      "outputs": [
        {
          "internalType": "uint256",
          "name": "id",
          "type": "uint256"
        },
        {
          "internalType": "uint256",
          "name": "timestamp",
          "type": "uint256"
        },
        {
          "internalType": "uint256",
          "name": "totalPrizePool",
          "type": "uint256"
        },
        {
          "internalType": "uint256",
          "name": "jackpotAmount",
          "type": "uint256"
        },
        {
          "internalType": "bool",
          "name": "executed",
          "type": "bool"
        }
      ],
      "stateMutability": "view",
      "type": "function"
    },
    {
      "inputs": [],
      "name": "executeDraw",
      "outputs": [],
      "stateMutability": "nonpayable",
      "type": "function"
    },
    {
      "inputs": [
        {
          "internalType": "uint256[6]",
          "name": "winningNumbers",
          "type": "uint256[6]"
        }
      ],
      "name": "executeDrawManual",
      "outputs": [],
      "stateMutability": "nonpayable",
      "type": "function"
    },
    {
      "inputs": [
        {
          "internalType": "uint256",
          "name": "drawId",
          "type": "uint256"
        }
      ],
      "name": "getDraw",
      "outputs": [
        {
          "internalType": "uint256",
          "name": "id",
          "type": "uint256"
        },
        {
          "internalType": "uint256[6]",
          "name": "winningNumbers",
          "type": "uint256[6]"
        },
        {
          "internalType": "uint256",
          "name": "timestamp",
          "type": "uint256"
        },
        {
          "internalType": "uint256",
          "name": "totalPrizePool",
          "type": "uint256"
        },
        {
          "internalType": "uint256",
          "name": "jackpotAmount",
          "type": "uint256"
        },
        {
          "internalType": "bool",
          "name": "executed",
          "type": "bool"
        }
      ],
      "stateMutability": "view",
      "type": "function"
    },
    {
      "inputs": [
        {
          "internalType": "uint256",
          "name": "drawId",
          "type": "uint256"
        }
      ],
      "name": "getDrawTickets",
      "outputs": [
        {
          "internalType": "uint256[]",
          "name": "",
          "type": "uint256[]"
        }
      ],
      "stateMutability": "view",
      "type": "function"
    },
    {
      "inputs": [
        {
          "internalType": "uint256",
          "name": "drawId",
          "type": "uint256"
        }
      ],
      "name": "getDrawWinners",
      "outputs": [
        {
          "internalType": "address[]",
          "name": "winners",
          "type": "address[]"
        },
        {
          "internalType": "uint256[]",
          "name": "matchCounts",
          "type": "uint256[]"
        },
        {
          "internalType": "uint256[]",
          "name": "prizeAmounts",
          "type": "uint256[]"
        },
        {
          "internalType": "bool[]",
          "name": "claimed",
          "type": "bool[]"
        }
      ],
      "stateMutability": "view",
      "type": "function"
    },
    {
      "inputs": [],
      "name": "getLotteryState",
      "outputs": [
        {
          "internalType": "uint256",
          "name": "_currentDrawId",
          "type": "uint256"
        },
        {
          "internalType": "uint256",
          "name": "_totalTicketsSold",
          "type": "uint256"
        },
        {
          "internalType": "uint256",
          "name": "_accumulatedJackpot",
          "type": "uint256"
        },
        {
          "internalType": "uint256",
          "name": "_adminBalance",
          "type": "uint256"
        },
        {
          "internalType": "bool",
          "name": "_paused",
          "type": "bool"
        }
      ],
      "stateMutability": "view",
      "type": "function"
    },
    {
      "inputs": [
        {
          "internalType": "address",
          "name": "player",
          "type": "address"
        }
      ],
      "name": "getPlayerStats",
      "outputs": [
        {
          "internalType": "uint256",
          "name": "totalTickets",
          "type": "uint256"
        },
        {
          "internalType": "uint256",
          "name": "totalWinnings",
          "type": "uint256"
        },
        {
          "internalType": "uint256[]",
          "name": "ticketIds",
          "type": "uint256[]"
        }
      ],
      "stateMutability": "view",
      "type": "function"
    },
    {
      "inputs": [
        {
          "internalType": "uint256",
          "name": "drawId",
          "type": "uint256"
        },
        {
          "internalType": "uint256",
          "name": "matches",
          "type": "uint256"
        }
      ],
      "name": "getPrizeAmount",
      "outputs": [
        {
          "internalType": "uint256",
          "name": "",
          "type": "uint256"
        }
      ],
      "stateMutability": "view",
      "type": "function"
    },
    {
      "inputs": [],
      "name": "getRolloverAmount",
      "outputs": [
        {
          "internalType": "uint256",
          "name": "rolloverAmount",
          "type": "uint256"
        }
      ],
      "stateMutability": "view",
      "type": "function"
    },
    {
      "inputs": [
        {
          "internalType": "uint256",
          "name": "ticketId",
          "type": "uint256"
        }
      ],
      "name": "getTicket",
      "outputs": [
        {
          "internalType": "address",
          "name": "player",
          "type": "address"
        },
        {
          "internalType": "uint256[6]",
          "name": "numbers",
          "type": "uint256[6]"
        },
        {
          "internalType": "uint256",
          "name": "drawId",
          "type": "uint256"
        },
        {
          "internalType": "bool",
          "name": "claimed",
          "type": "bool"
        }
      ],
      "stateMutability": "view",
      "type": "function"
    },
    {
      "inputs": [
        {
          "internalType": "uint256",
          "name": "drawId",
          "type": "uint256"
        },
        {
          "internalType": "uint256",
          "name": "matches",
          "type": "uint256"
        }
      ],
      "name": "getWinnersCount",
      "outputs": [
        {
          "internalType": "uint256",
          "name": "",
          "type": "uint256"
        }
      ],
      "stateMutability": "view",
      "type": "function"
    },
    {
      "inputs": [],
      "name": "owner",
      "outputs": [
        {
          "internalType": "address",
          "name": "",
          "type": "address"
        }
      ],
      "stateMutability": "view",
      "type": "function"
    },
    {
      "inputs": [],
      "name": "pause",
      "outputs": [],
      "stateMutability": "nonpayable",
      "type": "function"
    },
    {
      "inputs": [],
      "name": "paused",
      "outputs": [
        {
          "internalType": "bool",
          "name": "",
          "type": "bool"
        }
      ],
      "stateMutability": "view",
      "type": "function"
    },
    {
      "inputs": [
        {
          "internalType": "address",
          "name": "",
          "type": "address"
        }
      ],
      "name": "playerStats",
      "outputs": [
        {
          "internalType": "uint256",
          "name": "totalTickets",
          "type": "uint256"
        },
        {
          "internalType": "uint256",
          "name": "totalWinnings",
          "type": "uint256"
        }
      ],
      "stateMutability": "view",
      "type": "function"
    },
    {
      "inputs": [
        {
          "internalType": "uint256[6][]",
          "name": "ticketNumbers",
          "type": "uint256[6][]"
        }
      ],
      "name": "purchaseTickets",
      "outputs": [],
      "stateMutability": "payable",
      "type": "function"
    },
    {
      "inputs": [],
      "name": "renounceOwnership",
      "outputs": [],
      "stateMutability": "nonpayable",
      "type": "function"
    },
    {
      "inputs": [
        {
          "internalType": "uint256",
          "name": "",
          "type": "uint256"
        }
      ],
      "name": "tickets",
      "outputs": [
        {
          "internalType": "address",
          "name": "player",
          "type": "address"
        },
        {
          "internalType": "uint256",
          "name": "drawId",
          "type": "uint256"
        },
        {
          "internalType": "bool",
          "name": "claimed",
          "type": "bool"
        }
      ],
      "stateMutability": "view",
      "type": "function"
    },
    {
      "inputs": [],
      "name": "totalTicketsSold",
      "outputs": [
        {
          "internalType": "uint256",
          "name": "",
          "type": "uint256"
        }
      ],
      "stateMutability": "view",
      "type": "function"
    },
    {
      "inputs": [
        {
          "internalType": "address",
          "name": "newOwner",
          "type": "address"
        }
      ],
      "name": "transferOwnership",
      "outputs": [],
      "stateMutability": "nonpayable",
      "type": "function"
    },
    {
      "inputs": [],
      "name": "unpause",
      "outputs": [],
      "stateMutability": "nonpayable",
      "type": "function"
    },
    {
      "inputs": [],
      "name": "withdrawAdminFees",
      "outputs": [],
      "stateMutability": "nonpayable",
      "type": "function"
    }
  ],
  "bytecode": "0x608060405234801561001057600080fd5b5061001a33610036565b60018080556002805460ff191690556003819055600b55610086565b600080546001600160a01b038381166001600160a01b0319831681178455604051919092169283917f8be0079c531659141344cd1fd0a4f28419497f9722a3daafe3b4186f6b6457e09190a35050565b6126fb806100956000396000f3fe60806040526004361061021a5760003560e01c80637940b58911610123578063c4aa7245116100ab578063dd8ab8f91161006f578063dd8ab8f914610433578063f1082b76146106a0578063f2fde38b146106dc578063fab14e8e146106fc578063fea9b5721461071157600080fd5b8063c4aa7245146105ed578063c9911ea714610602578063cdafbbb614610622578063d37715681461066b578063d70981541461068057600080fd5b80639858befb116100f25780639858befb1461054a578063a6858ee614610560578063b0574bb814610575578063bca78fab146105a5578063be6307c8146105bb57600080fd5b80637940b589146104ca5780637dc379fa146104dd5780638456cb591461050d5780638da5cb5b1461052257600080fd5b806350b44712116101a65780635c975abb116101755780635c975abb14610448578063610a14d51461046b5780636abe4b1a146104805780636b68c03c146104a0578063715018a6146104b557600080fd5b806350b447121461037f57806354c0273e146103f05780635b183c2a146104065780635c2210341461043357600080fd5b80632d49a7bf116101ed5780632d49a7bf146102f057806334701db814610305578063376c2bbe1461031b5780633f4ba83a1461033b5780634fd66eae1461035057600080fd5b80630419b45a1461021f5780630cc36c36146102365780631a95f15f146102b15780632599399e146102db575b600080fd5b34801561022b57600080fd5b50610234610726565b005b34801561024257600080fd5b506102826102513660046122df565b600760208190526000918252604090912080549181015460088201546009830154600a909301549192909160ff1685565b6040805195865260208601949094529284019190915260608301521515608082015260a0015b60405180910390f35b3480156102bd57600080fd5b506102cd678ac7230489e8000081565b6040519081526020016102a8565b3480156102e757600080fd5b506102cd600f81565b3480156102fc57600080fd5b5061023461087d565b34801561031157600080fd5b506102cd60045481565b34801561032757600080fd5b506102cd6103363660046122f8565b610958565b34801561034757600080fd5b50610234610989565b34801561035c57600080fd5b5061037061036b36600461231a565b61099b565b6040516102a893929190612385565b34801561038b57600080fd5b506103c961039a3660046122df565b60086020819052600091825260409091208054600782015491909201546001600160a01b039092169160ff1683565b604080516001600160a01b03909416845260208401929092521515908201526060016102a8565b3480156103fc57600080fd5b506102cd60055481565b34801561041257600080fd5b506104266104213660046122df565b610a1e565b6040516102a891906123ad565b34801561043f57600080fd5b506102cd600181565b34801561045457600080fd5b5060025460ff1660405190151581526020016102a8565b34801561047757600080fd5b506102cd600581565b34801561048c57600080fd5b506102cd61049b3660046122f8565b610a80565b3480156104ac57600080fd5b50610282610aa4565b3480156104c157600080fd5b50610234610ad5565b6102346104d83660046123c0565b610ae7565b3480156104e957600080fd5b506104fd6104f83660046122df565b610dea565b6040516102a8949392919061245e565b34801561051957600080fd5b50610234610e68565b34801561052e57600080fd5b506000546040516001600160a01b0390911681526020016102a8565b34801561055657600080fd5b506102cd60065481565b34801561056c57600080fd5b506102cd603c81565b34801561058157600080fd5b506105956105903660046122df565b610e78565b6040516102a89493929190612494565b3480156105b157600080fd5b506102cd60035481565b3480156105c757600080fd5b506105db6105d63660046122df565b611305565b6040516102a896959493929190612544565b3480156105f957600080fd5b506102cd601481565b34801561060e57600080fd5b5061023461061d366004612581565b61138f565b34801561062e57600080fd5b5061065661063d36600461231a565b6009602052600090815260409020805460019091015482565b604080519283526020830191909152016102a8565b34801561067757600080fd5b506005546102cd565b34801561068c57600080fd5b5061023461069b3660046122df565b611450565b3480156106ac57600080fd5b506102cd6106bb3660046122f8565b6000918252600760209081526040808420928452600b909201905290205490565b3480156106e857600080fd5b506102346106f736600461231a565b61178c565b34801561070857600080fd5b506102cd600681565b34801561071d57600080fd5b506102cd603181565b61072e611802565b600654806107835760405162461bcd60e51b815260206004820152601960248201527f4e6f2061646d696e206665657320746f2077697468647261770000000000000060448201526064015b60405180910390fd5b6000600681905580546040516001600160a01b039091169083908381818185875af1925050503d80600081146107d5576040519150601f19603f3d011682016040523d82523d6000602084013e6107da565b606091505b505090508061082b5760405162461bcd60e51b815260206004820152601960248201527f41646d696e20666565207472616e73666572206661696c656400000000000000604482015260640161077a565b6000546001600160a01b03166001600160a01b03167fcdcaff67ac16639664e5f9343c9223a1dc9c972ec367b69ae9fc1325c7be54748360405161087191815260200190565b60405180910390a25050565b610885611802565b6003546000908152600760205260409020600a015460ff16156108e25760405162461bcd60e51b8152602060048201526015602482015274111c985dc8185b1c9958591e48195e1958dd5d1959605a1b604482015260640161077a565b6003546000908152600a60205260409020546109405760405162461bcd60e51b815260206004820152601d60248201527f4e6f207469636b65747320736f6c6420666f7220746869732064726177000000604482015260640161077a565b600061094a61185c565b905061095581611a6e565b50565b600a602052816000526040600020818154811061097457600080fd5b90600052602060002001600091509150505481565b610991611802565b610999611e17565b565b6001600160a01b0381166000908152600960209081526040808320805460018201546002830180548551818802810188019096528086528796606096918391830182828015610a0957602002820191906000526020600020905b8154815260200190600101908083116109f5575b50505050509050935093509350509193909250565b6000818152600a6020908152604091829020805483518184028101840190945280845260609392830182828015610a7457602002820191906000526020600020905b815481526020019060010190808311610a60575b50505050509050919050565b6000828152600760209081526040808320848452600c019091529020545b92915050565b6000806000806000600354600454600554600654610ac460025460ff1690565b945094509450945094509091929394565b610add611802565b6109996000611e69565b610aef611eb9565b610af7611f12565b80610b4e5760405162461bcd60e51b815260206004820152602160248201527f4d757374207075726368617365206174206c65617374206f6e65207469636b656044820152601d60fa1b606482015260840161077a565b610b6081678ac7230489e800006125bf565b3414610bae5760405162461bcd60e51b815260206004820152601860248201527f496e636f7272656374207061796d656e7420616d6f756e740000000000000000604482015260640161077a565b60005b81811015610d6357610c02838383818110610bce57610bce6125d6565b905060c002016006806020026040519081016040528092919082600660200280828437600092019190915250611f58915050565b600b805460009182610c13836125ec565b90915550600081815260086020526040812080546001600160a01b0319163317815560035460078201559192505b6006811015610ca157858585818110610c5c57610c5c6125d6565b905060c002018160068110610c7357610c736125d6565b6020020135826001018260068110610c8d57610c8d6125d6565b015580610c99816125ec565b915050610c41565b506003546000908152600a6020908152604080832080546001818101835591855283852001869055338085526009845291842060028101805492830181558552928420018590558252805491610cf6836125ec565b909155505060035482337f5324057fb3461d99462ba621fbd5d1b8ac5594839bec55bcc62fb37a35ff3e8d888888818110610d3357610d336125d6565b905060c00201604051610d469190612605565b60405180910390a450508080610d5b906125ec565b915050610bb1565b508181905060046000828254610d799190612614565b9091555034905060006064610d8f6001846125bf565b610d99919061263d565b90506000610da78284612651565b90508160066000828254610dbb9190612614565b925050819055508060056000828254610dd49190612614565b90915550506001805550610de6915050565b5050565b6000610df46122c1565b60008381526008602081905260408083208054600782015493820154835160c0810194859052869593946001600160a01b03909316936001860193909260ff169190849060069082845b815481526020019060010190808311610e3e57505050505092509450945094509450509193509193565b610e70611802565b61099961209e565b6000818152600760205260409020600a015460609081908190819060ff16610eda5760405162461bcd60e51b8152602060048201526015602482015274111c985dc81b9bdd08195e1958dd5d1959081e595d605a1b604482015260640161077a565b6000858152600a6020908152604080832080548251818502810185019093528083529192909190830182828015610f3057602002820191906000526020600020905b815481526020019060010190808311610f1c575b505050505090506000805b8251811015611019576000838281518110610f5857610f586125d6565b602090810291909101810151600081815260089092526040808320815160c08101909252919350610fec9160010160068282826020028201915b815481526020019060010190808311610f925750505060008e81526007602052604090819020815160c08101928390529350600101915060069082845b815481526020019060010190808311610fcf5750505050506120db565b9050600381106110045783611000816125ec565b9450505b50508080611011906125ec565b915050610f3b565b508067ffffffffffffffff81111561103357611033612664565b60405190808252806020026020018201604052801561105c578160200160208202803683370190505b5095508067ffffffffffffffff81111561107857611078612664565b6040519080825280602002602001820160405280156110a1578160200160208202803683370190505b5094508067ffffffffffffffff8111156110bd576110bd612664565b6040519080825280602002602001820160405280156110e6578160200160208202803683370190505b5093508067ffffffffffffffff81111561110257611102612664565b60405190808252806020026020018201604052801561112b578160200160208202803683370190505b5092506000805b83518110156112fa57600084828151811061114f5761114f6125d6565b602090810291909101810151600081815260089092526040808320815160c081019092529193506111e59160010160068282826020028201915b8154815260200190600101908083116111895750505060008f815260076020908152604091829020825160c081019384905260018201805482529095509350600692916002909101908501808311610fcf5750505050506120db565b9050600381106112e5576000828152600860205260409020548a516001600160a01b03909116908b908690811061121e5761121e6125d6565b60200260200101906001600160a01b031690816001600160a01b03168152505080898581518110611251576112516125d6565b60209081029190910181019190915260008c8152600782526040808220848352600c019092522054885189908690811061128d5761128d6125d6565b6020908102919091018101919091526000838152600891829052604090200154875160ff909116908890869081106112c7576112c76125d6565b91151560209283029190910190910152836112e1816125ec565b9450505b505080806112f2906125ec565b915050611132565b505050509193509193565b600061130f6122c1565b600083815260076020819052604080832080549281015460088201546009830154600a840154855160c081019687905288978897889796919560018801959294909360ff90911691869060069082845b81548152602001906001019080831161135f57505050505094509650965096509650965096505091939550919395565b611397611802565b6003546000908152600760205260409020600a015460ff16156113f45760405162461bcd60e51b8152602060048201526015602482015274111c985dc8185b1c9958591e48195e1958dd5d1959605a1b604482015260640161077a565b6040805160c08181019092526114229183906006908390839080828437600092019190915250611f58915050565b6040805160c08181019092526109559183906006908390839080828437600092019190915250611a6e915050565b611458611eb9565b600081815260086020526040902080546001600160a01b031633146114b25760405162461bcd60e51b815260206004820152601060248201526f2737ba103a34b1b5b2ba1037bbb732b960811b604482015260640161077a565b600881015460ff16156114ff5760405162461bcd60e51b8152602060048201526015602482015274141c9a5e9948185b1c9958591e4818db185a5b5959605a1b604482015260640161077a565b600781810154600090815260209190915260409020600a015460ff1661155f5760405162461bcd60e51b8152602060048201526015602482015274111c985dc81b9bdd08195e1958dd5d1959081e595d605a1b604482015260640161077a565b60078181015460009081526020919091526040808220815160c08101928390529092916115dd9190600186019060069082845b8154815260200190600101908083116115925750506040805160c081019182905260018901805482529094509250600691506002880160208501808311610fcf5750505050506120db565b905060038110156116245760405162461bcd60e51b81526020600482015260116024820152704e6f207072697a6520746f20636c61696d60781b604482015260640161077a565b6000818152600c83016020526040902054806116785760405162461bcd60e51b8152602060048201526013602482015272139bc81c1c9a5e9948185b5bdd5b9d081cd95d606a1b604482015260640161077a565b60088401805460ff1916600190811790915533600090815260096020526040812090910180548392906116ac908490612614565b9091555050604051600090339083908381818185875af1925050503d80600081146116f3576040519150601f19603f3d011682016040523d82523d6000602084013e6116f8565b606091505b50509050806117415760405162461bcd60e51b8152602060048201526015602482015274141c9a5e99481d1c985b9cd9995c8819985a5b1959605a1b604482015260640161077a565b6040805184815260208101849052879133917f701a77bd5e0b7b1ffffe478c3c19e3caadca855782127fca812c7ccd9646cdc4910160405180910390a3505050505061095560018055565b611794611802565b6001600160a01b0381166117f95760405162461bcd60e51b815260206004820152602660248201527f4f776e61626c653a206e6577206f776e657220697320746865207a65726f206160448201526564647265737360d01b606482015260840161077a565b61095581611e69565b6000546001600160a01b031633146109995760405162461bcd60e51b815260206004820181905260248201527f4f776e61626c653a2063616c6c6572206973206e6f7420746865206f776e6572604482015260640161077a565b6118646122c1565b6040805160318082526106408201909252600091602082016106208036833701905050905060005b60318110156118cf576118a0600182612614565b8282815181106118b2576118b26125d6565b6020908102919091010152806118c7816125ec565b91505061188c565b506118d86122c1565b60006031905060004244434133600354600454475a60408051602081019a909a5289019790975260608089019690965293851b6bffffffffffffffffffffffff1990811660808901529290941b909116609486015260a885015260c884019190915260e8830152610108820152610128016040516020818303038152906040528051906020012060001c905060005b6006811015611a5b576000828261197e8142612614565b60408051602081019490945283019190915260608201526080810185905260a00160408051601f198184030181529190528051602090910120905060006119c5858361267a565b90508681815181106119d9576119d96125d6565b60200260200101518684600681106119f3576119f36125d6565b602002015286611a04600187612651565b81518110611a1457611a146125d6565b6020026020010151878281518110611a2e57611a2e6125d6565b602090810291909101015284611a438161268e565b95505050508080611a53906125ec565b915050611967565b50611a6583612167565b50909392505050565b6003546000818152600760208190526040822092835542908301556005546008830155600a8201805460ff191660011790555b6006811015611aea57828160068110611abc57611abc6125d6565b6020020151826001018260068110611ad657611ad66125d6565b015580611ae2816125ec565b915050611aa1565b506003546000908152600a6020908152604080832080548251818502810185019093528083529192909190830182828015611b4457602002820191906000526020600020905b815481526020019060010190808311611b30575b5050505050905060005b8151811015611c04576000828281518110611b6b57611b6b6125d6565b602090810291909101810151600081815260089092526040808320815160c08101909252919350611bc39160010160068282826020028201915b815481526020019060010190808311611ba5575050505050876120db565b905060038110611bef576000818152600b860160205260408120805491611be9836125ec565b91905055505b50508080611bfc906125ec565b915050611b4e565b50600882015460066000908152600b8401602052604090205415611c925760066000908152600b840160205260409020546064611c42603c846125bf565b611c4c919061263d565b611c56919061263d565b60066000908152600c850160208181526040808420859055600b88018252909220549152611c83916125bf565b60098401556000600555611c9a565b600060098401555b60056000908152600b8401602052604090205415611cfa5760056000908152600b840160205260409020546064611cd26014846125bf565b611cdc919061263d565b611ce6919061263d565b60056000908152600c850160205260409020555b60046000908152600b8401602052604090205415611d5a5760046000908152600b840160205260409020546064611d32600f846125bf565b611d3c919061263d565b611d46919061263d565b60046000908152600c850160205260409020555b60036000908152600b8401602052604090205415611dba5760036000908152600b840160205260409020546064611d926005846125bf565b611d9c919061263d565b611da6919061263d565b60036000908152600c850160205260409020555b6003547f50814ea5605e6bce4e231a3c0fd99301dafdeef6da03fbcb57c6ec0cf3e132f285838660090154604051611df4939291906126a5565b60405180910390a260038054906000611e0c836125ec565b919050555050505050565b611e1f612278565b6002805460ff191690557f5db9ee0a495bf2e6ff9c91a7834c1ba4fdd244a5e8aa4e537bd38aeae4b073aa335b6040516001600160a01b03909116815260200160405180910390a1565b600080546001600160a01b038381166001600160a01b0319831681178455604051919092169283917f8be0079c531659141344cd1fd0a4f28419497f9722a3daafe3b4186f6b6457e09190a35050565b600260015403611f0b5760405162461bcd60e51b815260206004820152601f60248201527f5265656e7472616e637947756172643a207265656e7472616e742063616c6c00604482015260640161077a565b6002600155565b60025460ff16156109995760405162461bcd60e51b815260206004820152601060248201526f14185d5cd8589b194e881c185d5cd95960821b604482015260640161077a565b60005b6006811015610de6576001828260068110611f7857611f786125d6565b602002015110158015611fa257506031828260068110611f9a57611f9a6125d6565b602002015111155b611fe55760405162461bcd60e51b8152602060048201526014602482015273496e76616c6964206e756d6265722072616e676560601b604482015260640161077a565b6000611ff2826001612614565b90505b600681101561208b57828160068110612010576120106125d6565b6020020151838360068110612027576120276125d6565b6020020151036120795760405162461bcd60e51b815260206004820152601d60248201527f4475706c6963617465206e756d62657273206e6f7420616c6c6f776564000000604482015260640161077a565b80612083816125ec565b915050611ff5565b5080612096816125ec565b915050611f5b565b6120a6611f12565b6002805460ff191660011790557f62e78cea01bee320cd4e420270b5ea74000d11b0c9f74754ebdbfc544b05a258611e4c3390565b600080805b600681101561215f5760005b600681101561214c57848160068110612107576121076125d6565b602002015186836006811061211e5761211e6125d6565b60200201510361213a5782612132816125ec565b93505061214c565b80612144816125ec565b9150506120ec565b5080612157816125ec565b9150506120e0565b509392505050565b60005b61217660016006612651565b811015610de65760005b600161218d836006612651565b6121979190612651565b81101561226557826121aa826001612614565b600681106121ba576121ba6125d6565b60200201518382600681106121d1576121d16125d6565b602002015111156122535760008382600681106121f0576121f06125d6565b6020020151905083612203836001612614565b60068110612213576122136125d6565b602002015184836006811061222a5761222a6125d6565b6020020152808461223c846001612614565b6006811061224c5761224c6125d6565b6020020152505b8061225d816125ec565b915050612180565b5080612270816125ec565b91505061216a565b60025460ff166109995760405162461bcd60e51b815260206004820152601460248201527314185d5cd8589b194e881b9bdd081c185d5cd95960621b604482015260640161077a565b6040518060c001604052806006906020820280368337509192915050565b6000602082840312156122f157600080fd5b5035919050565b6000806040838503121561230b57600080fd5b50508035926020909101359150565b60006020828403121561232c57600080fd5b81356001600160a01b038116811461234357600080fd5b9392505050565b600081518084526020808501945080840160005b8381101561237a5781518752958201959082019060010161235e565b509495945050505050565b8381528260208201526060604082015260006123a4606083018461234a565b95945050505050565b602081526000612343602083018461234a565b600080602083850312156123d357600080fd5b823567ffffffffffffffff808211156123eb57600080fd5b818501915085601f8301126123ff57600080fd5b81358181111561240e57600080fd5b86602060c08302850101111561242357600080fd5b60209290920196919550909350505050565b8060005b6006811015612458578151845260209384019390910190600101612439565b50505050565b6001600160a01b0385168152610120810161247c6020830186612435565b8360e083015282151561010083015295945050505050565b6080808252855190820181905260009060209060a0840190828901845b828110156124d65781516001600160a01b0316845292840192908401906001016124b1565b505050838103828501526124ea818861234a565b905083810360408501526124fe818761234a565b8481036060860152855180825283870192509083019060005b81811015612535578351151583529284019291840191600101612517565b50909998505050505050505050565b86815261016081016125596020830188612435565b8560e08301528461010083015283610120830152821515610140830152979650505050505050565b600060c0828403121561259357600080fd5b8260c0830111156125a357600080fd5b50919050565b634e487b7160e01b600052601160045260246000fd5b8082028115828204841417610a9e57610a9e6125a9565b634e487b7160e01b600052603260045260246000fd5b6000600182016125fe576125fe6125a9565b5060010190565b60c08181019083833792915050565b80820180821115610a9e57610a9e6125a9565b634e487b7160e01b600052601260045260246000fd5b60008261264c5761264c612627565b500490565b81810381811115610a9e57610a9e6125a9565b634e487b7160e01b600052604160045260246000fd5b60008261268957612689612627565b500690565b60008161269d5761269d6125a9565b506000190190565b61010081016126b48286612435565b60c082019390935260e0015291905056fea2646970667358221220e05b54f1f34bd4febdfeba1012d282a037f19e4607e143b39e98bab51660b8cc64736f6c63430008130033",
  "linkReferences": {},
  "deployedLinkReferences": {}
}