{
  "_format": "hh-sol-artifact-1",
  "contractName": "KasDrawLottery",
  "sourceName": "contracts/KasDrawLottery.sol",
  "abi": [
    {
      "inputs": [],
      "stateMutability": "nonpayable",
      "type": "constructor"
    },
    {
      "anonymous": false,
      "inputs": [
        {
          "indexed": true,
          "internalType": "address",
          "name": "admin",
          "type": "address"
        },
        {
          "indexed": false,
          "internalType": "uint256",
          "name": "amount",
          "type": "uint256"
        }
      ],
      "name": "AdminFeesWithdrawn",
      "type": "event"
    },
    {
      "anonymous": false,
      "inputs": [
        {
          "indexed": true,
          "internalType": "uint256",
          "name": "drawId",
          "type": "uint256"
        },
        {
          "indexed": false,
          "internalType": "uint256[6]",
          "name": "winningNumbers",
          "type": "uint256[6]"
        },
        {
          "indexed": false,
          "internalType": "uint256",
          "name": "totalPrizePool",
          "type": "uint256"
        },
        {
          "indexed": false,
          "internalType": "uint256",
          "name": "jackpotAmount",
          "type": "uint256"
        }
      ],
      "name": "DrawExecuted",
      "type": "event"
    },
    {
      "anonymous": false,
      "inputs": [
        {
          "indexed": true,
          "internalType": "address",
          "name": "previousOwner",
          "type": "address"
        },
        {
          "indexed": true,
          "internalType": "address",
          "name": "newOwner",
          "type": "address"
        }
      ],
      "name": "OwnershipTransferred",
      "type": "event"
    },
    {
      "anonymous": false,
      "inputs": [
        {
          "indexed": false,
          "internalType": "address",
          "name": "account",
          "type": "address"
        }
      ],
      "name": "Paused",
      "type": "event"
    },
    {
      "anonymous": false,
      "inputs": [
        {
          "indexed": true,
          "internalType": "address",
          "name": "player",
          "type": "address"
        },
        {
          "indexed": true,
          "internalType": "uint256",
          "name": "ticketId",
          "type": "uint256"
        },
        {
          "indexed": false,
          "internalType": "uint256",
          "name": "matches",
          "type": "uint256"
        },
        {
          "indexed": false,
          "internalType": "uint256",
          "name": "amount",
          "type": "uint256"
        }
      ],
      "name": "PrizeClaimed",
      "type": "event"
    },
    {
      "anonymous": false,
      "inputs": [
        {
          "indexed": true,
          "internalType": "address",
          "name": "player",
          "type": "address"
        },
        {
          "indexed": true,
          "internalType": "uint256",
          "name": "ticketId",
          "type": "uint256"
        },
        {
          "indexed": true,
          "internalType": "uint256",
          "name": "drawId",
          "type": "uint256"
        },
        {
          "indexed": false,
          "internalType": "uint256[6]",
          "name": "numbers",
          "type": "uint256[6]"
        }
      ],
      "name": "TicketPurchased",
      "type": "event"
    },
    {
      "anonymous": false,
      "inputs": [
        {
          "indexed": false,
          "internalType": "address",
          "name": "account",
          "type": "address"
        }
      ],
      "name": "Unpaused",
      "type": "event"
    },
    {
      "inputs": [],
      "name": "ADMIN_FEE_PERCENTAGE",
      "outputs": [
        {
          "internalType": "uint256",
          "name": "",
          "type": "uint256"
        }
      ],
      "stateMutability": "view",
      "type": "function"
    },
    {
      "inputs": [],
      "name": "FOURTH_PRIZE_PERCENTAGE",
      "outputs": [
        {
          "internalType": "uint256",
          "name": "",
          "type": "uint256"
        }
      ],
      "stateMutability": "view",
      "type": "function"
    },
    {
      "inputs": [],
      "name": "JACKPOT_PERCENTAGE",
      "outputs": [
        {
          "internalType": "uint256",
          "name": "",
          "type": "uint256"
        }
      ],
      "stateMutability": "view",
      "type": "function"
    },
    {
      "inputs": [],
      "name": "MAX_NUMBER",
      "outputs": [
        {
          "internalType": "uint256",
          "name": "",
          "type": "uint256"
        }
      ],
      "stateMutability": "view",
      "type": "function"
    },
    {
      "inputs": [],
      "name": "MIN_NUMBER",
      "outputs": [
        {
          "internalType": "uint256",
          "name": "",
          "type": "uint256"
        }
      ],
      "stateMutability": "view",
      "type": "function"
    },
    {
      "inputs": [],
      "name": "NUMBERS_PER_TICKET",
      "outputs": [
        {
          "internalType": "uint256",
          "name": "",
          "type": "uint256"
        }
      ],
      "stateMutability": "view",
      "type": "function"
    },
    {
      "inputs": [],
      "name": "SECOND_PRIZE_PERCENTAGE",
      "outputs": [
        {
          "internalType": "uint256",
          "name": "",
          "type": "uint256"
        }
      ],
      "stateMutability": "view",
      "type": "function"
    },
    {
      "inputs": [],
      "name": "THIRD_PRIZE_PERCENTAGE",
      "outputs": [
        {
          "internalType": "uint256",
          "name": "",
          "type": "uint256"
        }
      ],
      "stateMutability": "view",
      "type": "function"
    },
    {
      "inputs": [],
      "name": "TICKET_PRICE",
      "outputs": [
        {
          "internalType": "uint256",
          "name": "",
          "type": "uint256"
        }
      ],
      "stateMutability": "view",
      "type": "function"
    },
    {
      "inputs": [],
      "name": "accumulatedJackpot",
      "outputs": [
        {
          "internalType": "uint256",
          "name": "",
          "type": "uint256"
        }
      ],
      "stateMutability": "view",
      "type": "function"
    },
    {
      "inputs": [],
      "name": "adminBalance",
      "outputs": [
        {
          "internalType": "uint256",
          "name": "",
          "type": "uint256"
        }
      ],
      "stateMutability": "view",
      "type": "function"
    },
    {
      "inputs": [
        {
          "internalType": "uint256",
          "name": "ticketId",
          "type": "uint256"
        }
      ],
      "name": "claimPrize",
      "outputs": [],
      "stateMutability": "nonpayable",
      "type": "function"
    },
    {
      "inputs": [],
      "name": "currentDrawId",
      "outputs": [
        {
          "internalType": "uint256",
          "name": "",
          "type": "uint256"
        }
      ],
      "stateMutability": "view",
      "type": "function"
    },
    {
      "inputs": [
        {
          "internalType": "uint256",
          "name": "",
          "type": "uint256"
        },
        {
          "internalType": "uint256",
          "name": "",
          "type": "uint256"
        }
      ],
      "name": "drawTickets",
      "outputs": [
        {
          "internalType": "uint256",
          "name": "",
          "type": "uint256"
        }
      ],
      "stateMutability": "view",
      "type": "function"
    },
    {
      "inputs": [
        {
          "internalType": "uint256",
          "name": "",
          "type": "uint256"
        }
      ],
      "name": "draws",
      "outputs": [
        {
          "internalType": "uint256",
          "name": "id",
          "type": "uint256"
        },
        {
          "internalType": "uint256",
          "name": "timestamp",
          "type": "uint256"
        },
        {
          "internalType": "uint256",
          "name": "totalPrizePool",
          "type": "uint256"
        },
        {
          "internalType": "uint256",
          "name": "jackpotAmount",
          "type": "uint256"
        },
        {
          "internalType": "bool",
          "name": "executed",
          "type": "bool"
        }
      ],
      "stateMutability": "view",
      "type": "function"
    },
    {
      "inputs": [],
      "name": "executeDraw",
      "outputs": [],
      "stateMutability": "nonpayable",
      "type": "function"
    },
    {
      "inputs": [
        {
          "internalType": "uint256[6]",
          "name": "winningNumbers",
          "type": "uint256[6]"
        }
      ],
      "name": "executeDrawManual",
      "outputs": [],
      "stateMutability": "nonpayable",
      "type": "function"
    },
    {
      "inputs": [
        {
          "internalType": "uint256",
          "name": "drawId",
          "type": "uint256"
        }
      ],
      "name": "getDraw",
      "outputs": [
        {
          "internalType": "uint256",
          "name": "id",
          "type": "uint256"
        },
        {
          "internalType": "uint256[6]",
          "name": "winningNumbers",
          "type": "uint256[6]"
        },
        {
          "internalType": "uint256",
          "name": "timestamp",
          "type": "uint256"
        },
        {
          "internalType": "uint256",
          "name": "totalPrizePool",
          "type": "uint256"
        },
        {
          "internalType": "uint256",
          "name": "jackpotAmount",
          "type": "uint256"
        },
        {
          "internalType": "bool",
          "name": "executed",
          "type": "bool"
        }
      ],
      "stateMutability": "view",
      "type": "function"
    },
    {
      "inputs": [
        {
          "internalType": "uint256",
          "name": "drawId",
          "type": "uint256"
        }
      ],
      "name": "getDrawTickets",
      "outputs": [
        {
          "internalType": "uint256[]",
          "name": "",
          "type": "uint256[]"
        }
      ],
      "stateMutability": "view",
      "type": "function"
    },
    {
      "inputs": [],
      "name": "getLotteryState",
      "outputs": [
        {
          "internalType": "uint256",
          "name": "_currentDrawId",
          "type": "uint256"
        },
        {
          "internalType": "uint256",
          "name": "_totalTicketsSold",
          "type": "uint256"
        },
        {
          "internalType": "uint256",
          "name": "_accumulatedJackpot",
          "type": "uint256"
        },
        {
          "internalType": "uint256",
          "name": "_adminBalance",
          "type": "uint256"
        },
        {
          "internalType": "bool",
          "name": "_paused",
          "type": "bool"
        }
      ],
      "stateMutability": "view",
      "type": "function"
    },
    {
      "inputs": [
        {
          "internalType": "address",
          "name": "player",
          "type": "address"
        }
      ],
      "name": "getPlayerStats",
      "outputs": [
        {
          "internalType": "uint256",
          "name": "totalTickets",
          "type": "uint256"
        },
        {
          "internalType": "uint256",
          "name": "totalWinnings",
          "type": "uint256"
        },
        {
          "internalType": "uint256[]",
          "name": "ticketIds",
          "type": "uint256[]"
        }
      ],
      "stateMutability": "view",
      "type": "function"
    },
    {
      "inputs": [
        {
          "internalType": "uint256",
          "name": "drawId",
          "type": "uint256"
        },
        {
          "internalType": "uint256",
          "name": "matches",
          "type": "uint256"
        }
      ],
      "name": "getPrizeAmount",
      "outputs": [
        {
          "internalType": "uint256",
          "name": "",
          "type": "uint256"
        }
      ],
      "stateMutability": "view",
      "type": "function"
    },
    {
      "inputs": [
        {
          "internalType": "uint256",
          "name": "ticketId",
          "type": "uint256"
        }
      ],
      "name": "getTicket",
      "outputs": [
        {
          "internalType": "address",
          "name": "player",
          "type": "address"
        },
        {
          "internalType": "uint256[6]",
          "name": "numbers",
          "type": "uint256[6]"
        },
        {
          "internalType": "uint256",
          "name": "drawId",
          "type": "uint256"
        },
        {
          "internalType": "bool",
          "name": "claimed",
          "type": "bool"
        }
      ],
      "stateMutability": "view",
      "type": "function"
    },
    {
      "inputs": [
        {
          "internalType": "uint256",
          "name": "drawId",
          "type": "uint256"
        },
        {
          "internalType": "uint256",
          "name": "matches",
          "type": "uint256"
        }
      ],
      "name": "getWinnersCount",
      "outputs": [
        {
          "internalType": "uint256",
          "name": "",
          "type": "uint256"
        }
      ],
      "stateMutability": "view",
      "type": "function"
    },
    {
      "inputs": [],
      "name": "owner",
      "outputs": [
        {
          "internalType": "address",
          "name": "",
          "type": "address"
        }
      ],
      "stateMutability": "view",
      "type": "function"
    },
    {
      "inputs": [],
      "name": "pause",
      "outputs": [],
      "stateMutability": "nonpayable",
      "type": "function"
    },
    {
      "inputs": [],
      "name": "paused",
      "outputs": [
        {
          "internalType": "bool",
          "name": "",
          "type": "bool"
        }
      ],
      "stateMutability": "view",
      "type": "function"
    },
    {
      "inputs": [
        {
          "internalType": "address",
          "name": "",
          "type": "address"
        }
      ],
      "name": "playerStats",
      "outputs": [
        {
          "internalType": "uint256",
          "name": "totalTickets",
          "type": "uint256"
        },
        {
          "internalType": "uint256",
          "name": "totalWinnings",
          "type": "uint256"
        }
      ],
      "stateMutability": "view",
      "type": "function"
    },
    {
      "inputs": [
        {
          "internalType": "uint256[6][]",
          "name": "ticketNumbers",
          "type": "uint256[6][]"
        }
      ],
      "name": "purchaseTickets",
      "outputs": [],
      "stateMutability": "payable",
      "type": "function"
    },
    {
      "inputs": [],
      "name": "renounceOwnership",
      "outputs": [],
      "stateMutability": "nonpayable",
      "type": "function"
    },
    {
      "inputs": [
        {
          "internalType": "uint256",
          "name": "",
          "type": "uint256"
        }
      ],
      "name": "tickets",
      "outputs": [
        {
          "internalType": "address",
          "name": "player",
          "type": "address"
        },
        {
          "internalType": "uint256",
          "name": "drawId",
          "type": "uint256"
        },
        {
          "internalType": "bool",
          "name": "claimed",
          "type": "bool"
        }
      ],
      "stateMutability": "view",
      "type": "function"
    },
    {
      "inputs": [],
      "name": "totalTicketsSold",
      "outputs": [
        {
          "internalType": "uint256",
          "name": "",
          "type": "uint256"
        }
      ],
      "stateMutability": "view",
      "type": "function"
    },
    {
      "inputs": [
        {
          "internalType": "address",
          "name": "newOwner",
          "type": "address"
        }
      ],
      "name": "transferOwnership",
      "outputs": [],
      "stateMutability": "nonpayable",
      "type": "function"
    },
    {
      "inputs": [],
      "name": "unpause",
      "outputs": [],
      "stateMutability": "nonpayable",
      "type": "function"
    },
    {
      "inputs": [],
      "name": "withdrawAdminFees",
      "outputs": [],
      "stateMutability": "nonpayable",
      "type": "function"
    }
  ],
  "bytecode": "0x608060405234801561001057600080fd5b5061001a33610036565b60018080556002805460ff191690556003819055600b55610086565b600080546001600160a01b038381166001600160a01b0319831681178455604051919092169283917f8be0079c531659141344cd1fd0a4f28419497f9722a3daafe3b4186f6b6457e09190a35050565b61214f806100956000396000f3fe6080604052600436106102045760003560e01c8063715018a611610118578063c4aa7245116100a0578063dd8ab8f91161006f578063dd8ab8f91461041d578063f1082b7614610645578063f2fde38b14610681578063fab14e8e146106a1578063fea9b572146106b657600080fd5b8063c4aa7245146105a7578063c9911ea7146105bc578063cdafbbb6146105dc578063d70981541461062557600080fd5b80638da5cb5b116100e75780638da5cb5b1461050c5780639858befb14610534578063a6858ee61461054a578063bca78fab1461055f578063be6307c81461057557600080fd5b8063715018a61461049f5780637940b589146104b45780637dc379fa146104c75780638456cb59146104f757600080fd5b80634fd66eae1161019b5780635c2210341161016a5780635c2210341461041d5780635c975abb14610432578063610a14d5146104555780636abe4b1a1461046a5780636b68c03c1461048a57600080fd5b80634fd66eae1461033a57806350b447121461036957806354c0273e146103da5780635b183c2a146103f057600080fd5b80632d49a7bf116101d75780632d49a7bf146102da57806334701db8146102ef578063376c2bbe146103055780633f4ba83a1461032557600080fd5b80630419b45a146102095780630cc36c36146102205780631a95f15f1461029b5780632599399e146102c5575b600080fd5b34801561021557600080fd5b5061021e6106cb565b005b34801561022c57600080fd5b5061026c61023b366004611df9565b600760208190526000918252604090912080549181015460088201546009830154600a909301549192909160ff1685565b6040805195865260208601949094529284019190915260608301521515608082015260a0015b60405180910390f35b3480156102a757600080fd5b506102b767016345785d8a000081565b604051908152602001610292565b3480156102d157600080fd5b506102b7600f81565b3480156102e657600080fd5b5061021e610822565b3480156102fb57600080fd5b506102b760045481565b34801561031157600080fd5b506102b7610320366004611e12565b6108fd565b34801561033157600080fd5b5061021e61092e565b34801561034657600080fd5b5061035a610355366004611e34565b610940565b60405161029293929190611e9f565b34801561037557600080fd5b506103b3610384366004611df9565b60086020819052600091825260409091208054600782015491909201546001600160a01b039092169160ff1683565b604080516001600160a01b0390941684526020840192909252151590820152606001610292565b3480156103e657600080fd5b506102b760055481565b3480156103fc57600080fd5b5061041061040b366004611df9565b6109c3565b6040516102929190611ec7565b34801561042957600080fd5b506102b7600181565b34801561043e57600080fd5b5060025460ff166040519015158152602001610292565b34801561046157600080fd5b506102b7600581565b34801561047657600080fd5b506102b7610485366004611e12565b610a25565b34801561049657600080fd5b5061026c610a49565b3480156104ab57600080fd5b5061021e610a7a565b61021e6104c2366004611eda565b610a8c565b3480156104d357600080fd5b506104e76104e2366004611df9565b610d8f565b6040516102929493929190611f78565b34801561050357600080fd5b5061021e610e0d565b34801561051857600080fd5b506000546040516001600160a01b039091168152602001610292565b34801561054057600080fd5b506102b760065481565b34801561055657600080fd5b506102b7603c81565b34801561056b57600080fd5b506102b760035481565b34801561058157600080fd5b50610595610590366004611df9565b610e1d565b60405161029296959493929190611fae565b3480156105b357600080fd5b506102b7601481565b3480156105c857600080fd5b5061021e6105d7366004611feb565b610ea7565b3480156105e857600080fd5b506106106105f7366004611e34565b6009602052600090815260409020805460019091015482565b60408051928352602083019190915201610292565b34801561063157600080fd5b5061021e610640366004611df9565b610f68565b34801561065157600080fd5b506102b7610660366004611e12565b6000918252600760209081526040808420928452600b909201905290205490565b34801561068d57600080fd5b5061021e61069c366004611e34565b6112a6565b3480156106ad57600080fd5b506102b7600681565b3480156106c257600080fd5b506102b7603181565b6106d361131c565b600654806107285760405162461bcd60e51b815260206004820152601960248201527f4e6f2061646d696e206665657320746f2077697468647261770000000000000060448201526064015b60405180910390fd5b6000600681905580546040516001600160a01b039091169083908381818185875af1925050503d806000811461077a576040519150601f19603f3d011682016040523d82523d6000602084013e61077f565b606091505b50509050806107d05760405162461bcd60e51b815260206004820152601960248201527f41646d696e20666565207472616e73666572206661696c656400000000000000604482015260640161071f565b6000546001600160a01b03166001600160a01b03167fcdcaff67ac16639664e5f9343c9223a1dc9c972ec367b69ae9fc1325c7be54748360405161081691815260200190565b60405180910390a25050565b61082a61131c565b6003546000908152600760205260409020600a015460ff16156108875760405162461bcd60e51b8152602060048201526015602482015274111c985dc8185b1c9958591e48195e1958dd5d1959605a1b604482015260640161071f565b6003546000908152600a60205260409020546108e55760405162461bcd60e51b815260206004820152601d60248201527f4e6f207469636b65747320736f6c6420666f7220746869732064726177000000604482015260640161071f565b60006108ef611376565b90506108fa81611588565b50565b600a602052816000526040600020818154811061091957600080fd5b90600052602060002001600091509150505481565b61093661131c565b61093e611931565b565b6001600160a01b03811660009081526009602090815260408083208054600182015460028301805485518188028101880190965280865287966060969183918301828280156109ae57602002820191906000526020600020905b81548152602001906001019080831161099a575b50505050509050935093509350509193909250565b6000818152600a6020908152604091829020805483518184028101840190945280845260609392830182828015610a1957602002820191906000526020600020905b815481526020019060010190808311610a05575b50505050509050919050565b6000828152600760209081526040808320848452600c019091529020545b92915050565b6000806000806000600354600454600554600654610a6960025460ff1690565b945094509450945094509091929394565b610a8261131c565b61093e6000611983565b610a946119d3565b610a9c611a2c565b80610af35760405162461bcd60e51b815260206004820152602160248201527f4d757374207075726368617365206174206c65617374206f6e65207469636b656044820152601d60fa1b606482015260840161071f565b610b058167016345785d8a0000612029565b3414610b535760405162461bcd60e51b815260206004820152601860248201527f496e636f7272656374207061796d656e7420616d6f756e740000000000000000604482015260640161071f565b60005b81811015610d0857610ba7838383818110610b7357610b73612040565b905060c002016006806020026040519081016040528092919082600660200280828437600092019190915250611a72915050565b600b805460009182610bb883612056565b90915550600081815260086020526040812080546001600160a01b0319163317815560035460078201559192505b6006811015610c4657858585818110610c0157610c01612040565b905060c002018160068110610c1857610c18612040565b6020020135826001018260068110610c3257610c32612040565b015580610c3e81612056565b915050610be6565b506003546000908152600a6020908152604080832080546001818101835591855283852001869055338085526009845291842060028101805492830181558552928420018590558252805491610c9b83612056565b909155505060035482337f5324057fb3461d99462ba621fbd5d1b8ac5594839bec55bcc62fb37a35ff3e8d888888818110610cd857610cd8612040565b905060c00201604051610ceb919061206f565b60405180910390a450508080610d0090612056565b915050610b56565b508181905060046000828254610d1e919061207e565b9091555034905060006064610d34600184612029565b610d3e91906120a7565b90506000610d4c82846120bb565b90508160066000828254610d60919061207e565b925050819055508060056000828254610d79919061207e565b90915550506001805550610d8b915050565b5050565b6000610d99611ddb565b60008381526008602081905260408083208054600782015493820154835160c0810194859052869593946001600160a01b03909316936001860193909260ff169190849060069082845b815481526020019060010190808311610de357505050505092509450945094509450509193509193565b610e1561131c565b61093e611bb8565b6000610e27611ddb565b600083815260076020819052604080832080549281015460088201546009830154600a840154855160c081019687905288978897889796919560018801959294909360ff90911691869060069082845b815481526020019060010190808311610e7757505050505094509650965096509650965096505091939550919395565b610eaf61131c565b6003546000908152600760205260409020600a015460ff1615610f0c5760405162461bcd60e51b8152602060048201526015602482015274111c985dc8185b1c9958591e48195e1958dd5d1959605a1b604482015260640161071f565b6040805160c0818101909252610f3a9183906006908390839080828437600092019190915250611a72915050565b6040805160c08181019092526108fa9183906006908390839080828437600092019190915250611588915050565b610f706119d3565b600081815260086020526040902080546001600160a01b03163314610fca5760405162461bcd60e51b815260206004820152601060248201526f2737ba103a34b1b5b2ba1037bbb732b960811b604482015260640161071f565b600881015460ff16156110175760405162461bcd60e51b8152602060048201526015602482015274141c9a5e9948185b1c9958591e4818db185a5b5959605a1b604482015260640161071f565b600781810154600090815260209190915260409020600a015460ff166110775760405162461bcd60e51b8152602060048201526015602482015274111c985dc81b9bdd08195e1958dd5d1959081e595d605a1b604482015260640161071f565b60078181015460009081526020919091526040808220815160c08101928390529092916110f79190600186019060069082845b8154815260200190600101908083116110aa5750506040805160c081019182905293506001880192506006915082845b8154815260200190600101908083116110da575050505050611bf5565b9050600381101561113e5760405162461bcd60e51b81526020600482015260116024820152704e6f207072697a6520746f20636c61696d60781b604482015260640161071f565b6000818152600c83016020526040902054806111925760405162461bcd60e51b8152602060048201526013602482015272139bc81c1c9a5e9948185b5bdd5b9d081cd95d606a1b604482015260640161071f565b60088401805460ff1916600190811790915533600090815260096020526040812090910180548392906111c690849061207e565b9091555050604051600090339083908381818185875af1925050503d806000811461120d576040519150601f19603f3d011682016040523d82523d6000602084013e611212565b606091505b505090508061125b5760405162461bcd60e51b8152602060048201526015602482015274141c9a5e99481d1c985b9cd9995c8819985a5b1959605a1b604482015260640161071f565b6040805184815260208101849052879133917f701a77bd5e0b7b1ffffe478c3c19e3caadca855782127fca812c7ccd9646cdc4910160405180910390a350505050506108fa60018055565b6112ae61131c565b6001600160a01b0381166113135760405162461bcd60e51b815260206004820152602660248201527f4f776e61626c653a206e6577206f776e657220697320746865207a65726f206160448201526564647265737360d01b606482015260840161071f565b6108fa81611983565b6000546001600160a01b0316331461093e5760405162461bcd60e51b815260206004820181905260248201527f4f776e61626c653a2063616c6c6572206973206e6f7420746865206f776e6572604482015260640161071f565b61137e611ddb565b6040805160318082526106408201909252600091602082016106208036833701905050905060005b60318110156113e9576113ba60018261207e565b8282815181106113cc576113cc612040565b6020908102919091010152806113e181612056565b9150506113a6565b506113f2611ddb565b60006031905060004244434133600354600454475a60408051602081019a909a5289019790975260608089019690965293851b6bffffffffffffffffffffffff1990811660808901529290941b909116609486015260a885015260c884019190915260e8830152610108820152610128016040516020818303038152906040528051906020012060001c905060005b60068110156115755760008282611498814261207e565b60408051602081019490945283019190915260608201526080810185905260a00160408051601f198184030181529190528051602090910120905060006114df85836120ce565b90508681815181106114f3576114f3612040565b602002602001015186846006811061150d5761150d612040565b60200201528661151e6001876120bb565b8151811061152e5761152e612040565b602002602001015187828151811061154857611548612040565b60209081029190910101528461155d816120e2565b9550505050808061156d90612056565b915050611481565b5061157f83611c81565b50909392505050565b6003546000818152600760208190526040822092835542908301556005546008830155600a8201805460ff191660011790555b6006811015611604578281600681106115d6576115d6612040565b60200201518260010182600681106115f0576115f0612040565b0155806115fc81612056565b9150506115bb565b506003546000908152600a602090815260408083208054825181850281018501909352808352919290919083018282801561165e57602002820191906000526020600020905b81548152602001906001019080831161164a575b5050505050905060005b815181101561171e57600082828151811061168557611685612040565b602090810291909101810151600081815260089092526040808320815160c081019092529193506116dd9160010160068282826020028201915b8154815260200190600101908083116116bf57505050505087611bf5565b905060038110611709576000818152600b86016020526040812080549161170383612056565b91905055505b5050808061171690612056565b915050611668565b50600882015460066000908152600b84016020526040902054156117ac5760066000908152600b84016020526040902054606461175c603c84612029565b61176691906120a7565b61177091906120a7565b60066000908152600c850160208181526040808420859055600b8801825290922054915261179d91612029565b600984015560006005556117b4565b600060098401555b60056000908152600b84016020526040902054156118145760056000908152600b8401602052604090205460646117ec601484612029565b6117f691906120a7565b61180091906120a7565b60056000908152600c850160205260409020555b60046000908152600b84016020526040902054156118745760046000908152600b84016020526040902054606461184c600f84612029565b61185691906120a7565b61186091906120a7565b60046000908152600c850160205260409020555b60036000908152600b84016020526040902054156118d45760036000908152600b8401602052604090205460646118ac600584612029565b6118b691906120a7565b6118c091906120a7565b60036000908152600c850160205260409020555b6003547f50814ea5605e6bce4e231a3c0fd99301dafdeef6da03fbcb57c6ec0cf3e132f28583866009015460405161190e939291906120f9565b60405180910390a26003805490600061192683612056565b919050555050505050565b611939611d92565b6002805460ff191690557f5db9ee0a495bf2e6ff9c91a7834c1ba4fdd244a5e8aa4e537bd38aeae4b073aa335b6040516001600160a01b03909116815260200160405180910390a1565b600080546001600160a01b038381166001600160a01b0319831681178455604051919092169283917f8be0079c531659141344cd1fd0a4f28419497f9722a3daafe3b4186f6b6457e09190a35050565b600260015403611a255760405162461bcd60e51b815260206004820152601f60248201527f5265656e7472616e637947756172643a207265656e7472616e742063616c6c00604482015260640161071f565b6002600155565b60025460ff161561093e5760405162461bcd60e51b815260206004820152601060248201526f14185d5cd8589b194e881c185d5cd95960821b604482015260640161071f565b60005b6006811015610d8b576001828260068110611a9257611a92612040565b602002015110158015611abc57506031828260068110611ab457611ab4612040565b602002015111155b611aff5760405162461bcd60e51b8152602060048201526014602482015273496e76616c6964206e756d6265722072616e676560601b604482015260640161071f565b6000611b0c82600161207e565b90505b6006811015611ba557828160068110611b2a57611b2a612040565b6020020151838360068110611b4157611b41612040565b602002015103611b935760405162461bcd60e51b815260206004820152601d60248201527f4475706c6963617465206e756d62657273206e6f7420616c6c6f776564000000604482015260640161071f565b80611b9d81612056565b915050611b0f565b5080611bb081612056565b915050611a75565b611bc0611a2c565b6002805460ff191660011790557f62e78cea01bee320cd4e420270b5ea74000d11b0c9f74754ebdbfc544b05a2586119663390565b600080805b6006811015611c795760005b6006811015611c6657848160068110611c2157611c21612040565b6020020151868360068110611c3857611c38612040565b602002015103611c545782611c4c81612056565b935050611c66565b80611c5e81612056565b915050611c06565b5080611c7181612056565b915050611bfa565b509392505050565b60005b611c90600160066120bb565b811015610d8b5760005b6001611ca78360066120bb565b611cb191906120bb565b811015611d7f5782611cc482600161207e565b60068110611cd457611cd4612040565b6020020151838260068110611ceb57611ceb612040565b60200201511115611d6d576000838260068110611d0a57611d0a612040565b6020020151905083611d1d83600161207e565b60068110611d2d57611d2d612040565b6020020151848360068110611d4457611d44612040565b60200201528084611d5684600161207e565b60068110611d6657611d66612040565b6020020152505b80611d7781612056565b915050611c9a565b5080611d8a81612056565b915050611c84565b60025460ff1661093e5760405162461bcd60e51b815260206004820152601460248201527314185d5cd8589b194e881b9bdd081c185d5cd95960621b604482015260640161071f565b6040518060c001604052806006906020820280368337509192915050565b600060208284031215611e0b57600080fd5b5035919050565b60008060408385031215611e2557600080fd5b50508035926020909101359150565b600060208284031215611e4657600080fd5b81356001600160a01b0381168114611e5d57600080fd5b9392505050565b600081518084526020808501945080840160005b83811015611e9457815187529582019590820190600101611e78565b509495945050505050565b838152826020820152606060408201526000611ebe6060830184611e64565b95945050505050565b602081526000611e5d6020830184611e64565b60008060208385031215611eed57600080fd5b823567ffffffffffffffff80821115611f0557600080fd5b818501915085601f830112611f1957600080fd5b813581811115611f2857600080fd5b86602060c083028501011115611f3d57600080fd5b60209290920196919550909350505050565b8060005b6006811015611f72578151845260209384019390910190600101611f53565b50505050565b6001600160a01b03851681526101208101611f966020830186611f4f565b8360e083015282151561010083015295945050505050565b8681526101608101611fc36020830188611f4f565b8560e08301528461010083015283610120830152821515610140830152979650505050505050565b600060c08284031215611ffd57600080fd5b8260c08301111561200d57600080fd5b50919050565b634e487b7160e01b600052601160045260246000fd5b8082028115828204841417610a4357610a43612013565b634e487b7160e01b600052603260045260246000fd5b60006001820161206857612068612013565b5060010190565b60c08181019083833792915050565b80820180821115610a4357610a43612013565b634e487b7160e01b600052601260045260246000fd5b6000826120b6576120b6612091565b500490565b81810381811115610a4357610a43612013565b6000826120dd576120dd612091565b500690565b6000816120f1576120f1612013565b506000190190565b61010081016121088286611f4f565b60c082019390935260e0015291905056fea2646970667358221220fc9aa05b46895aba37fac1509b0077da9605a048c75addbe1e959e6b066fdca564736f6c63430008130033",
  "linkReferences": {},
  "deployedLinkReferences": {}
}